{
	"FlashLoan.sol": {
		"Flashloan": {
			"abi": [
				{
					"inputs": [
						{
							"internalType": "address",
							"name": "_addressProvider",
							"type": "address"
						}
					],
					"stateMutability": "nonpayable",
					"type": "constructor"
				},
				{
					"inputs": [],
					"name": "ADDRESSES_PROVIDER",
					"outputs": [
						{
							"internalType": "contract IPoolAddressesProvider",
							"name": "",
							"type": "address"
						}
					],
					"stateMutability": "view",
					"type": "function"
				},
				{
					"inputs": [],
					"name": "POOL",
					"outputs": [
						{
							"internalType": "contract IPool",
							"name": "",
							"type": "address"
						}
					],
					"stateMutability": "view",
					"type": "function"
				},
				{
					"inputs": [
						{
							"internalType": "address",
							"name": "asset",
							"type": "address"
						},
						{
							"internalType": "uint256",
							"name": "amount",
							"type": "uint256"
						},
						{
							"internalType": "uint256",
							"name": "premium",
							"type": "uint256"
						},
						{
							"internalType": "address",
							"name": "initiator",
							"type": "address"
						},
						{
							"internalType": "bytes",
							"name": "params",
							"type": "bytes"
						}
					],
					"name": "executeOperation",
					"outputs": [
						{
							"internalType": "bool",
							"name": "",
							"type": "bool"
						}
					],
					"stateMutability": "nonpayable",
					"type": "function"
				},
				{
					"inputs": [
						{
							"internalType": "address",
							"name": "_tokenAddress",
							"type": "address"
						}
					],
					"name": "getBalance",
					"outputs": [
						{
							"internalType": "uint256",
							"name": "",
							"type": "uint256"
						}
					],
					"stateMutability": "view",
					"type": "function"
				},
				{
					"inputs": [
						{
							"internalType": "address",
							"name": "_token",
							"type": "address"
						},
						{
							"internalType": "uint256",
							"name": "_amount",
							"type": "uint256"
						},
						{
							"internalType": "bytes",
							"name": "params",
							"type": "bytes"
						}
					],
					"name": "requestFlashLoan",
					"outputs": [],
					"stateMutability": "nonpayable",
					"type": "function"
				},
				{
					"inputs": [
						{
							"internalType": "address",
							"name": "_tokenAddress",
							"type": "address"
						}
					],
					"name": "withdraw",
					"outputs": [],
					"stateMutability": "nonpayable",
					"type": "function"
				},
				{
					"stateMutability": "payable",
					"type": "receive"
				}
			],
			"devdoc": {
				"kind": "dev",
				"methods": {
					"executeOperation(address,uint256,uint256,address,bytes)": {
						"details": "Ensure that the contract can return the debt + premium, e.g., has      enough funds to repay and has approved the Pool to pull the total amount",
						"params": {
							"amount": "The amount of the flash-borrowed asset",
							"asset": "The address of the flash-borrowed asset",
							"initiator": "The address of the flashloan initiator",
							"params": "The byte-encoded params passed when initiating the flashloan",
							"premium": "The fee of the flash-borrowed asset"
						},
						"returns": {
							"_0": "True if the execution of the operation succeeds, false otherwise"
						}
					}
				},
				"version": 1
			},
			"evm": {
				"assembly": "    /* \"FlashLoan.sol\":470:2458  contract Flashloan is FlashLoanSimpleReceiverBase {... */\n  mstore(0x40, 0xc0)\n    /* \"FlashLoan.sol\":559:717  constructor(address _addressProvider) FlashLoanSimpleReceiverBase(IPoolAddressesProvider(_addressProvider))... */\n  callvalue\n  dup1\n  iszero\n  tag_1\n  jumpi\n  0x00\n  dup1\n  revert\ntag_1:\n  pop\n  mload(0x40)\n  sub(codesize, bytecodeSize)\n  dup1\n  bytecodeSize\n  dup4\n  codecopy\n  dup2\n  dup2\n  add\n  0x40\n  mstore\n  dup2\n  add\n  swap1\n  tag_2\n  swap2\n  swap1\n  tag_3\n  jump\t// in\ntag_2:\n    /* \"FlashLoan.sol\":648:664  _addressProvider */\n  dup1\n    /* \"@aave/core-v3/contracts/flashloan/base/FlashLoanSimpleReceiverBase.sol\":673:681  provider */\n  dup1\n    /* \"@aave/core-v3/contracts/flashloan/base/FlashLoanSimpleReceiverBase.sol\":652:681  ADDRESSES_PROVIDER = provider */\n  0xffffffffffffffffffffffffffffffffffffffff\n  and\n  0x80\n  dup2\n  0xffffffffffffffffffffffffffffffffffffffff\n  and\n  dup2\n  mstore\n  pop\n  pop\n    /* \"@aave/core-v3/contracts/flashloan/base/FlashLoanSimpleReceiverBase.sol\":700:708  provider */\n  dup1\n    /* \"@aave/core-v3/contracts/flashloan/base/FlashLoanSimpleReceiverBase.sol\":700:716  provider.getPool */\n  0xffffffffffffffffffffffffffffffffffffffff\n  and\n  0x026b1d5f\n    /* \"@aave/core-v3/contracts/flashloan/base/FlashLoanSimpleReceiverBase.sol\":700:718  provider.getPool() */\n  mload(0x40)\n  dup2\n  0xffffffff\n  and\n  0xe0\n  shl\n  dup2\n  mstore\n  0x04\n  add\n  0x20\n  mload(0x40)\n  dup1\n  dup4\n  sub\n  dup2\n  dup7\n  gas\n  staticcall\n  iszero\n  dup1\n  iszero\n  tag_8\n  jumpi\n  returndatasize\n  0x00\n  dup1\n  returndatacopy\n  revert(0x00, returndatasize)\ntag_8:\n  pop\n  pop\n  pop\n  pop\n  mload(0x40)\n  returndatasize\n  not(0x1f)\n  0x1f\n  dup3\n  add\n  and\n  dup3\n  add\n  dup1\n  0x40\n  mstore\n  pop\n  dup2\n  add\n  swap1\n  tag_9\n  swap2\n  swap1\n  tag_3\n  jump\t// in\ntag_9:\n    /* \"@aave/core-v3/contracts/flashloan/base/FlashLoanSimpleReceiverBase.sol\":687:719  POOL = IPool(provider.getPool()) */\n  0xffffffffffffffffffffffffffffffffffffffff\n  and\n  0xa0\n  dup2\n  0xffffffffffffffffffffffffffffffffffffffff\n  and\n  dup2\n  mstore\n  pop\n  pop\n    /* \"@aave/core-v3/contracts/flashloan/base/FlashLoanSimpleReceiverBase.sol\":601:724  constructor(IPoolAddressesProvider provider) {... */\n  pop\n    /* \"FlashLoan.sol\":696:706  msg.sender */\n  caller\n    /* \"FlashLoan.sol\":679:684  owner */\n  0x00\n  dup1\n    /* \"FlashLoan.sol\":679:707  owner = payable (msg.sender) */\n  0x0100\n  exp\n  dup2\n  sload\n  dup2\n  0xffffffffffffffffffffffffffffffffffffffff\n  mul\n  not\n  and\n  swap1\n  dup4\n  0xffffffffffffffffffffffffffffffffffffffff\n  and\n  mul\n  or\n  swap1\n  sstore\n  pop\n    /* \"FlashLoan.sol\":559:717  constructor(address _addressProvider) FlashLoanSimpleReceiverBase(IPoolAddressesProvider(_addressProvider))... */\n  pop\n    /* \"FlashLoan.sol\":470:2458  contract Flashloan is FlashLoanSimpleReceiverBase {... */\n  jump(tag_11)\n    /* \"#utility.yul\":88:205   */\ntag_13:\n    /* \"#utility.yul\":197:198   */\n  0x00\n    /* \"#utility.yul\":194:195   */\n  dup1\n    /* \"#utility.yul\":187:199   */\n  revert\n    /* \"#utility.yul\":334:460   */\ntag_15:\n    /* \"#utility.yul\":371:378   */\n  0x00\n    /* \"#utility.yul\":411:453   */\n  0xffffffffffffffffffffffffffffffffffffffff\n    /* \"#utility.yul\":404:409   */\n  dup3\n    /* \"#utility.yul\":400:454   */\n  and\n    /* \"#utility.yul\":389:454   */\n  swap1\n  pop\n    /* \"#utility.yul\":334:460   */\n  swap2\n  swap1\n  pop\n  jump\t// out\n    /* \"#utility.yul\":466:562   */\ntag_16:\n    /* \"#utility.yul\":503:510   */\n  0x00\n    /* \"#utility.yul\":532:556   */\n  tag_25\n    /* \"#utility.yul\":550:555   */\n  dup3\n    /* \"#utility.yul\":532:556   */\n  tag_15\n  jump\t// in\ntag_25:\n    /* \"#utility.yul\":521:556   */\n  swap1\n  pop\n    /* \"#utility.yul\":466:562   */\n  swap2\n  swap1\n  pop\n  jump\t// out\n    /* \"#utility.yul\":568:690   */\ntag_17:\n    /* \"#utility.yul\":641:665   */\n  tag_27\n    /* \"#utility.yul\":659:664   */\n  dup2\n    /* \"#utility.yul\":641:665   */\n  tag_16\n  jump\t// in\ntag_27:\n    /* \"#utility.yul\":634:639   */\n  dup2\n    /* \"#utility.yul\":631:666   */\n  eq\n    /* \"#utility.yul\":621:684   */\n  tag_28\n  jumpi\n    /* \"#utility.yul\":680:681   */\n  0x00\n    /* \"#utility.yul\":677:678   */\n  dup1\n    /* \"#utility.yul\":670:682   */\n  revert\n    /* \"#utility.yul\":621:684   */\ntag_28:\n    /* \"#utility.yul\":568:690   */\n  pop\n  jump\t// out\n    /* \"#utility.yul\":696:839   */\ntag_18:\n    /* \"#utility.yul\":753:758   */\n  0x00\n    /* \"#utility.yul\":784:790   */\n  dup2\n    /* \"#utility.yul\":778:791   */\n  mload\n    /* \"#utility.yul\":769:791   */\n  swap1\n  pop\n    /* \"#utility.yul\":800:833   */\n  tag_30\n    /* \"#utility.yul\":827:832   */\n  dup2\n    /* \"#utility.yul\":800:833   */\n  tag_17\n  jump\t// in\ntag_30:\n    /* \"#utility.yul\":696:839   */\n  swap3\n  swap2\n  pop\n  pop\n  jump\t// out\n    /* \"#utility.yul\":845:1196   */\ntag_3:\n    /* \"#utility.yul\":915:921   */\n  0x00\n    /* \"#utility.yul\":964:966   */\n  0x20\n    /* \"#utility.yul\":952:961   */\n  dup3\n    /* \"#utility.yul\":943:950   */\n  dup5\n    /* \"#utility.yul\":939:962   */\n  sub\n    /* \"#utility.yul\":935:967   */\n  slt\n    /* \"#utility.yul\":932:1051   */\n  iszero\n  tag_32\n  jumpi\n    /* \"#utility.yul\":970:1049   */\n  tag_33\n  tag_13\n  jump\t// in\ntag_33:\n    /* \"#utility.yul\":932:1051   */\ntag_32:\n    /* \"#utility.yul\":1090:1091   */\n  0x00\n    /* \"#utility.yul\":1115:1179   */\n  tag_34\n    /* \"#utility.yul\":1171:1178   */\n  dup5\n    /* \"#utility.yul\":1162:1168   */\n  dup3\n    /* \"#utility.yul\":1151:1160   */\n  dup6\n    /* \"#utility.yul\":1147:1169   */\n  add\n    /* \"#utility.yul\":1115:1179   */\n  tag_18\n  jump\t// in\ntag_34:\n    /* \"#utility.yul\":1105:1179   */\n  swap2\n  pop\n    /* \"#utility.yul\":1061:1189   */\n  pop\n    /* \"#utility.yul\":845:1196   */\n  swap3\n  swap2\n  pop\n  pop\n  jump\t// out\n    /* \"FlashLoan.sol\":470:2458  contract Flashloan is FlashLoanSimpleReceiverBase {... */\ntag_11:\n  mload(0x80)\n  mload(0xa0)\n  codecopy(0x00, dataOffset(sub_0), dataSize(sub_0))\n  0x00\n  assignImmutable(\"0xdab92d3cfd2fb10847c732668f5be4f526313d660461529e6720c950cca9ea28\")\n  0x00\n  assignImmutable(\"0xaf057546d61dd28804ca035e688a36db5f311bb8c4c9d2e1e5e44c0555cfe3bf\")\n  return(0x00, dataSize(sub_0))\nstop\n\nsub_0: assembly {\n        /* \"FlashLoan.sol\":470:2458  contract Flashloan is FlashLoanSimpleReceiverBase {... */\n      mstore(0x40, 0x80)\n      jumpi(tag_1, lt(calldatasize, 0x04))\n      shr(0xe0, calldataload(0x00))\n      dup1\n      0x0542975c\n      eq\n      tag_3\n      jumpi\n      dup1\n      0x1b11d0ff\n      eq\n      tag_4\n      jumpi\n      dup1\n      0x5107d61e\n      eq\n      tag_5\n      jumpi\n      dup1\n      0x51cff8d9\n      eq\n      tag_6\n      jumpi\n      dup1\n      0x7535d246\n      eq\n      tag_7\n      jumpi\n      dup1\n      0xf8b2cb4f\n      eq\n      tag_8\n      jumpi\n      jump(tag_2)\n    tag_1:\n      jumpi(tag_2, calldatasize)\n      stop\n    tag_2:\n      0x00\n      dup1\n      revert\n        /* \"@aave/core-v3/contracts/flashloan/base/FlashLoanSimpleReceiverBase.sol\":489:556  IPoolAddressesProvider public immutable override ADDRESSES_PROVIDER */\n    tag_3:\n      callvalue\n      dup1\n      iszero\n      tag_11\n      jumpi\n      0x00\n      dup1\n      revert\n    tag_11:\n      pop\n      tag_12\n      tag_13\n      jump\t// in\n    tag_12:\n      mload(0x40)\n      tag_14\n      swap2\n      swap1\n      tag_15\n      jump\t// in\n    tag_14:\n      mload(0x40)\n      dup1\n      swap2\n      sub\n      swap1\n      return\n        /* \"FlashLoan.sol\":838:1686  function executeOperation(... */\n    tag_4:\n      callvalue\n      dup1\n      iszero\n      tag_16\n      jumpi\n      0x00\n      dup1\n      revert\n    tag_16:\n      pop\n      tag_17\n      0x04\n      dup1\n      calldatasize\n      sub\n      dup2\n      add\n      swap1\n      tag_18\n      swap2\n      swap1\n      tag_19\n      jump\t// in\n    tag_18:\n      tag_20\n      jump\t// in\n    tag_17:\n      mload(0x40)\n      tag_21\n      swap2\n      swap1\n      tag_22\n      jump\t// in\n    tag_21:\n      mload(0x40)\n      dup1\n      swap2\n      sub\n      swap1\n      return\n        /* \"FlashLoan.sol\":1692:2076  function requestFlashLoan(address _token, uint _amount, bytes calldata params) public {... */\n    tag_5:\n      callvalue\n      dup1\n      iszero\n      tag_23\n      jumpi\n      0x00\n      dup1\n      revert\n    tag_23:\n      pop\n      tag_24\n      0x04\n      dup1\n      calldatasize\n      sub\n      dup2\n      add\n      swap1\n      tag_25\n      swap2\n      swap1\n      tag_26\n      jump\t// in\n    tag_25:\n      tag_27\n      jump\t// in\n    tag_24:\n      stop\n        /* \"FlashLoan.sol\":2226:2411  function withdraw(address _tokenAddress ) onlyOwner external {... */\n    tag_6:\n      callvalue\n      dup1\n      iszero\n      tag_28\n      jumpi\n      0x00\n      dup1\n      revert\n    tag_28:\n      pop\n      tag_29\n      0x04\n      dup1\n      calldatasize\n      sub\n      dup2\n      add\n      swap1\n      tag_30\n      swap2\n      swap1\n      tag_31\n      jump\t// in\n    tag_30:\n      tag_32\n      jump\t// in\n    tag_29:\n      stop\n        /* \"@aave/core-v3/contracts/flashloan/base/FlashLoanSimpleReceiverBase.sol\":560:596  IPool public immutable override POOL */\n    tag_7:\n      callvalue\n      dup1\n      iszero\n      tag_33\n      jumpi\n      0x00\n      dup1\n      revert\n    tag_33:\n      pop\n      tag_34\n      tag_35\n      jump\t// in\n    tag_34:\n      mload(0x40)\n      tag_36\n      swap2\n      swap1\n      tag_37\n      jump\t// in\n    tag_36:\n      mload(0x40)\n      dup1\n      swap2\n      sub\n      swap1\n      return\n        /* \"FlashLoan.sol\":2082:2220  function getBalance(address _tokenAddress) external view returns (uint) {... */\n    tag_8:\n      callvalue\n      dup1\n      iszero\n      tag_38\n      jumpi\n      0x00\n      dup1\n      revert\n    tag_38:\n      pop\n      tag_39\n      0x04\n      dup1\n      calldatasize\n      sub\n      dup2\n      add\n      swap1\n      tag_40\n      swap2\n      swap1\n      tag_31\n      jump\t// in\n    tag_40:\n      tag_41\n      jump\t// in\n    tag_39:\n      mload(0x40)\n      tag_42\n      swap2\n      swap1\n      tag_43\n      jump\t// in\n    tag_42:\n      mload(0x40)\n      dup1\n      swap2\n      sub\n      swap1\n      return\n        /* \"@aave/core-v3/contracts/flashloan/base/FlashLoanSimpleReceiverBase.sol\":489:556  IPoolAddressesProvider public immutable override ADDRESSES_PROVIDER */\n    tag_13:\n      immutable(\"0xaf057546d61dd28804ca035e688a36db5f311bb8c4c9d2e1e5e44c0555cfe3bf\")\n      dup2\n      jump\t// out\n        /* \"FlashLoan.sol\":838:1686  function executeOperation(... */\n    tag_20:\n        /* \"FlashLoan.sol\":1031:1035  bool */\n      0x00\n        /* \"FlashLoan.sol\":1115:1135  address[] memory tos */\n      dup1\n        /* \"FlashLoan.sol\":1137:1156  bytes[] memory data */\n      0x00\n        /* \"FlashLoan.sol\":1171:1177  params */\n      dup5\n      dup5\n        /* \"FlashLoan.sol\":1160:1200  abi.decode(params, (address[], bytes[])) */\n      dup2\n      add\n      swap1\n      tag_45\n      swap2\n      swap1\n      tag_46\n      jump\t// in\n    tag_45:\n        /* \"FlashLoan.sol\":1114:1200  (address[] memory tos, bytes[] memory data) = abi.decode(params, (address[], bytes[])) */\n      swap2\n      pop\n      swap2\n      pop\n        /* \"FlashLoan.sol\":1234:1235  0 */\n      0x00\n        /* \"FlashLoan.sol\":1221:1224  tos */\n      dup3\n        /* \"FlashLoan.sol\":1221:1231  tos.length */\n      mload\n        /* \"FlashLoan.sol\":1221:1235  tos.length > 0 */\n      gt\n        /* \"FlashLoan.sol\":1221:1264  tos.length > 0 && tos.length == data.length */\n      dup1\n      iszero\n      tag_47\n      jumpi\n      pop\n        /* \"FlashLoan.sol\":1253:1257  data */\n      dup1\n        /* \"FlashLoan.sol\":1253:1264  data.length */\n      mload\n        /* \"FlashLoan.sol\":1239:1242  tos */\n      dup3\n        /* \"FlashLoan.sol\":1239:1249  tos.length */\n      mload\n        /* \"FlashLoan.sol\":1239:1264  tos.length == data.length */\n      eq\n        /* \"FlashLoan.sol\":1221:1264  tos.length > 0 && tos.length == data.length */\n    tag_47:\n        /* \"FlashLoan.sol\":1213:1282  require(tos.length > 0 && tos.length == data.length, \"Invalid input\") */\n      tag_48\n      jumpi\n      mload(0x40)\n      0x08c379a000000000000000000000000000000000000000000000000000000000\n      dup2\n      mstore\n      0x04\n      add\n      tag_49\n      swap1\n      tag_50\n      jump\t// in\n    tag_49:\n      mload(0x40)\n      dup1\n      swap2\n      sub\n      swap1\n      revert\n    tag_48:\n        /* \"FlashLoan.sol\":1299:1308  uint256 i */\n      0x00\n        /* \"FlashLoan.sol\":1295:1550  for(uint256 i; i < tos.length; i++) {... */\n    tag_51:\n        /* \"FlashLoan.sol\":1314:1317  tos */\n      dup3\n        /* \"FlashLoan.sol\":1314:1324  tos.length */\n      mload\n        /* \"FlashLoan.sol\":1310:1311  i */\n      dup2\n        /* \"FlashLoan.sol\":1310:1324  i < tos.length */\n      lt\n        /* \"FlashLoan.sol\":1295:1550  for(uint256 i; i < tos.length; i++) {... */\n      iszero\n      tag_52\n      jumpi\n        /* \"FlashLoan.sol\":1411:1423  bool success */\n      0x00\n        /* \"FlashLoan.sol\":1424:1447  bytes memory returndata */\n      dup1\n        /* \"FlashLoan.sol\":1451:1454  tos */\n      dup5\n        /* \"FlashLoan.sol\":1455:1456  i */\n      dup4\n        /* \"FlashLoan.sol\":1451:1457  tos[i] */\n      dup2\n      mload\n      dup2\n      lt\n      tag_54\n      jumpi\n      tag_55\n      tag_56\n      jump\t// in\n    tag_55:\n    tag_54:\n      0x20\n      mul\n      0x20\n      add\n      add\n      mload\n        /* \"FlashLoan.sol\":1451:1462  tos[i].call */\n      0xffffffffffffffffffffffffffffffffffffffff\n      and\n        /* \"FlashLoan.sol\":1468:1477  gasleft() */\n      gas\n        /* \"FlashLoan.sol\":1479:1483  data */\n      dup6\n        /* \"FlashLoan.sol\":1484:1485  i */\n      dup6\n        /* \"FlashLoan.sol\":1479:1486  data[i] */\n      dup2\n      mload\n      dup2\n      lt\n      tag_57\n      jumpi\n      tag_58\n      tag_56\n      jump\t// in\n    tag_58:\n    tag_57:\n      0x20\n      mul\n      0x20\n      add\n      add\n      mload\n        /* \"FlashLoan.sol\":1451:1487  tos[i].call{gas: gasleft()}(data[i]) */\n      mload(0x40)\n      tag_59\n      swap2\n      swap1\n      tag_60\n      jump\t// in\n    tag_59:\n      0x00\n      mload(0x40)\n      dup1\n      dup4\n      sub\n      dup2\n      0x00\n      dup8\n      dup8\n      call\n      swap3\n      pop\n      pop\n      pop\n      returndatasize\n      dup1\n      0x00\n      dup2\n      eq\n      tag_63\n      jumpi\n      mload(0x40)\n      swap2\n      pop\n      and(add(returndatasize, 0x3f), not(0x1f))\n      dup3\n      add\n      0x40\n      mstore\n      returndatasize\n      dup3\n      mstore\n      returndatasize\n      0x00\n      0x20\n      dup5\n      add\n      returndatacopy\n      jump(tag_62)\n    tag_63:\n      0x60\n      swap2\n      pop\n    tag_62:\n      pop\n        /* \"FlashLoan.sol\":1410:1487  (bool success,bytes memory returndata) = tos[i].call{gas: gasleft()}(data[i]) */\n      swap2\n      pop\n      swap2\n      pop\n        /* \"FlashLoan.sol\":1510:1517  success */\n      dup2\n        /* \"FlashLoan.sol\":1526:1536  returndata */\n      dup2\n        /* \"FlashLoan.sol\":1502:1538  require(success, string(returndata)) */\n      swap1\n      tag_64\n      jumpi\n      mload(0x40)\n      0x08c379a000000000000000000000000000000000000000000000000000000000\n      dup2\n      mstore\n      0x04\n      add\n      tag_65\n      swap2\n      swap1\n      tag_66\n      jump\t// in\n    tag_65:\n      mload(0x40)\n      dup1\n      swap2\n      sub\n      swap1\n      revert\n    tag_64:\n      pop\n        /* \"FlashLoan.sol\":1331:1550  {... */\n      pop\n      pop\n        /* \"FlashLoan.sol\":1326:1329  i++ */\n      dup1\n      dup1\n      tag_67\n      swap1\n      tag_68\n      jump\t// in\n    tag_67:\n      swap2\n      pop\n      pop\n        /* \"FlashLoan.sol\":1295:1550  for(uint256 i; i < tos.length; i++) {... */\n      jump(tag_51)\n    tag_52:\n      pop\n        /* \"FlashLoan.sol\":1560:1578  uint256 amountOwed */\n      0x00\n        /* \"FlashLoan.sol\":1590:1597  premium */\n      dup8\n        /* \"FlashLoan.sol\":1581:1587  amount */\n      dup10\n        /* \"FlashLoan.sol\":1581:1597  amount + premium */\n      tag_69\n      swap2\n      swap1\n      tag_70\n      jump\t// in\n    tag_69:\n        /* \"FlashLoan.sol\":1560:1597  uint256 amountOwed = amount + premium */\n      swap1\n      pop\n        /* \"FlashLoan.sol\":1615:1620  asset */\n      dup10\n        /* \"FlashLoan.sol\":1608:1629  IERC20(asset).approve */\n      0xffffffffffffffffffffffffffffffffffffffff\n      and\n      0x095ea7b3\n        /* \"FlashLoan.sol\":1638:1642  POOL */\n      immutable(\"0xdab92d3cfd2fb10847c732668f5be4f526313d660461529e6720c950cca9ea28\")\n        /* \"FlashLoan.sol\":1645:1655  amountOwed */\n      dup4\n        /* \"FlashLoan.sol\":1608:1656  IERC20(asset).approve(address(POOL), amountOwed) */\n      mload(0x40)\n      dup4\n      0xffffffff\n      and\n      0xe0\n      shl\n      dup2\n      mstore\n      0x04\n      add\n      tag_71\n      swap3\n      swap2\n      swap1\n      tag_72\n      jump\t// in\n    tag_71:\n      0x20\n      mload(0x40)\n      dup1\n      dup4\n      sub\n      dup2\n      0x00\n      dup8\n      gas\n      call\n      iszero\n      dup1\n      iszero\n      tag_74\n      jumpi\n      returndatasize\n      0x00\n      dup1\n      returndatacopy\n      revert(0x00, returndatasize)\n    tag_74:\n      pop\n      pop\n      pop\n      pop\n      mload(0x40)\n      returndatasize\n      not(0x1f)\n      0x1f\n      dup3\n      add\n      and\n      dup3\n      add\n      dup1\n      0x40\n      mstore\n      pop\n      dup2\n      add\n      swap1\n      tag_75\n      swap2\n      swap1\n      tag_76\n      jump\t// in\n    tag_75:\n      pop\n        /* \"FlashLoan.sol\":1674:1678  true */\n      0x01\n        /* \"FlashLoan.sol\":1667:1678  return true */\n      swap4\n      pop\n      pop\n      pop\n      pop\n        /* \"FlashLoan.sol\":838:1686  function executeOperation(... */\n      swap7\n      swap6\n      pop\n      pop\n      pop\n      pop\n      pop\n      pop\n      jump\t// out\n        /* \"FlashLoan.sol\":1692:2076  function requestFlashLoan(address _token, uint _amount, bytes calldata params) public {... */\n    tag_27:\n        /* \"FlashLoan.sol\":1785:1808  address receiverAddress */\n      0x00\n        /* \"FlashLoan.sol\":1819:1823  this */\n      address\n        /* \"FlashLoan.sol\":1785:1824  address receiverAddress = address(this) */\n      swap1\n      pop\n        /* \"FlashLoan.sol\":1831:1844  address asset */\n      0x00\n        /* \"FlashLoan.sol\":1847:1853  _token */\n      dup6\n        /* \"FlashLoan.sol\":1831:1853  address asset = _token */\n      swap1\n      pop\n        /* \"FlashLoan.sol\":1860:1871  uint amount */\n      0x00\n        /* \"FlashLoan.sol\":1874:1881  _amount */\n      dup6\n        /* \"FlashLoan.sol\":1860:1881  uint amount = _amount */\n      swap1\n      pop\n        /* \"FlashLoan.sol\":1916:1935  uint16 referralCode */\n      0x00\n        /* \"FlashLoan.sol\":1944:1948  POOL */\n      immutable(\"0xdab92d3cfd2fb10847c732668f5be4f526313d660461529e6720c950cca9ea28\")\n        /* \"FlashLoan.sol\":1944:1964  POOL.flashLoanSimple */\n      0xffffffffffffffffffffffffffffffffffffffff\n      and\n      0x42b0b77c\n        /* \"FlashLoan.sol\":1975:1990  receiverAddress */\n      dup6\n        /* \"FlashLoan.sol\":2001:2006  asset */\n      dup6\n        /* \"FlashLoan.sol\":2017:2023  amount */\n      dup6\n        /* \"FlashLoan.sol\":2034:2040  params */\n      dup11\n      dup11\n        /* \"FlashLoan.sol\":2051:2063  referralCode */\n      dup8\n        /* \"FlashLoan.sol\":1944:2064  POOL.flashLoanSimple(... */\n      mload(0x40)\n      dup8\n      0xffffffff\n      and\n      0xe0\n      shl\n      dup2\n      mstore\n      0x04\n      add\n      tag_78\n      swap7\n      swap6\n      swap5\n      swap4\n      swap3\n      swap2\n      swap1\n      tag_79\n      jump\t// in\n    tag_78:\n      0x00\n      mload(0x40)\n      dup1\n      dup4\n      sub\n      dup2\n      0x00\n      dup8\n      dup1\n      extcodesize\n      iszero\n      dup1\n      iszero\n      tag_80\n      jumpi\n      0x00\n      dup1\n      revert\n    tag_80:\n      pop\n      gas\n      call\n      iszero\n      dup1\n      iszero\n      tag_82\n      jumpi\n      returndatasize\n      0x00\n      dup1\n      returndatacopy\n      revert(0x00, returndatasize)\n    tag_82:\n      pop\n      pop\n      pop\n      pop\n        /* \"FlashLoan.sol\":1778:2076  {... */\n      pop\n      pop\n      pop\n      pop\n        /* \"FlashLoan.sol\":1692:2076  function requestFlashLoan(address _token, uint _amount, bytes calldata params) public {... */\n      pop\n      pop\n      pop\n      pop\n      jump\t// out\n        /* \"FlashLoan.sol\":2226:2411  function withdraw(address _tokenAddress ) onlyOwner external {... */\n    tag_32:\n        /* \"FlashLoan.sol\":779:784  owner */\n      0x00\n      dup1\n      sload\n      swap1\n      0x0100\n      exp\n      swap1\n      div\n      0xffffffffffffffffffffffffffffffffffffffff\n      and\n        /* \"FlashLoan.sol\":767:784  msg.sender==owner */\n      0xffffffffffffffffffffffffffffffffffffffff\n      and\n        /* \"FlashLoan.sol\":767:777  msg.sender */\n      caller\n        /* \"FlashLoan.sol\":767:784  msg.sender==owner */\n      0xffffffffffffffffffffffffffffffffffffffff\n      and\n      eq\n        /* \"FlashLoan.sol\":759:810  require(msg.sender==owner, \"You are not the owner\") */\n      tag_84\n      jumpi\n      mload(0x40)\n      0x08c379a000000000000000000000000000000000000000000000000000000000\n      dup2\n      mstore\n      0x04\n      add\n      tag_85\n      swap1\n      tag_86\n      jump\t// in\n    tag_85:\n      mload(0x40)\n      dup1\n      swap2\n      sub\n      swap1\n      revert\n    tag_84:\n        /* \"FlashLoan.sol\":2298:2310  IERC20 token */\n      0x00\n        /* \"FlashLoan.sol\":2320:2333  _tokenAddress */\n      dup2\n        /* \"FlashLoan.sol\":2298:2334  IERC20 token = IERC20(_tokenAddress) */\n      swap1\n      pop\n        /* \"FlashLoan.sol\":2345:2350  token */\n      dup1\n        /* \"FlashLoan.sol\":2345:2359  token.transfer */\n      0xffffffffffffffffffffffffffffffffffffffff\n      and\n      0xa9059cbb\n        /* \"FlashLoan.sol\":2360:2370  msg.sender */\n      caller\n        /* \"FlashLoan.sol\":2372:2377  token */\n      dup4\n        /* \"FlashLoan.sol\":2372:2387  token.balanceOf */\n      0xffffffffffffffffffffffffffffffffffffffff\n      and\n      0x70a08231\n        /* \"FlashLoan.sol\":2396:2400  this */\n      address\n        /* \"FlashLoan.sol\":2372:2402  token.balanceOf(address(this)) */\n      mload(0x40)\n      dup3\n      0xffffffff\n      and\n      0xe0\n      shl\n      dup2\n      mstore\n      0x04\n      add\n      tag_88\n      swap2\n      swap1\n      tag_89\n      jump\t// in\n    tag_88:\n      0x20\n      mload(0x40)\n      dup1\n      dup4\n      sub\n      dup2\n      dup7\n      gas\n      staticcall\n      iszero\n      dup1\n      iszero\n      tag_91\n      jumpi\n      returndatasize\n      0x00\n      dup1\n      returndatacopy\n      revert(0x00, returndatasize)\n    tag_91:\n      pop\n      pop\n      pop\n      pop\n      mload(0x40)\n      returndatasize\n      not(0x1f)\n      0x1f\n      dup3\n      add\n      and\n      dup3\n      add\n      dup1\n      0x40\n      mstore\n      pop\n      dup2\n      add\n      swap1\n      tag_92\n      swap2\n      swap1\n      tag_93\n      jump\t// in\n    tag_92:\n        /* \"FlashLoan.sol\":2345:2403  token.transfer(msg.sender, token.balanceOf(address(this))) */\n      mload(0x40)\n      dup4\n      0xffffffff\n      and\n      0xe0\n      shl\n      dup2\n      mstore\n      0x04\n      add\n      tag_94\n      swap3\n      swap2\n      swap1\n      tag_72\n      jump\t// in\n    tag_94:\n      0x20\n      mload(0x40)\n      dup1\n      dup4\n      sub\n      dup2\n      0x00\n      dup8\n      gas\n      call\n      iszero\n      dup1\n      iszero\n      tag_96\n      jumpi\n      returndatasize\n      0x00\n      dup1\n      returndatacopy\n      revert(0x00, returndatasize)\n    tag_96:\n      pop\n      pop\n      pop\n      pop\n      mload(0x40)\n      returndatasize\n      not(0x1f)\n      0x1f\n      dup3\n      add\n      and\n      dup3\n      add\n      dup1\n      0x40\n      mstore\n      pop\n      dup2\n      add\n      swap1\n      tag_97\n      swap2\n      swap1\n      tag_76\n      jump\t// in\n    tag_97:\n      pop\n        /* \"FlashLoan.sol\":2287:2411  {... */\n      pop\n        /* \"FlashLoan.sol\":2226:2411  function withdraw(address _tokenAddress ) onlyOwner external {... */\n      pop\n      jump\t// out\n        /* \"@aave/core-v3/contracts/flashloan/base/FlashLoanSimpleReceiverBase.sol\":560:596  IPool public immutable override POOL */\n    tag_35:\n      immutable(\"0xdab92d3cfd2fb10847c732668f5be4f526313d660461529e6720c950cca9ea28\")\n      dup2\n      jump\t// out\n        /* \"FlashLoan.sol\":2082:2220  function getBalance(address _tokenAddress) external view returns (uint) {... */\n    tag_41:\n        /* \"FlashLoan.sol\":2148:2152  uint */\n      0x00\n        /* \"FlashLoan.sol\":2175:2188  _tokenAddress */\n      dup2\n        /* \"FlashLoan.sol\":2168:2199  IERC20(_tokenAddress).balanceOf */\n      0xffffffffffffffffffffffffffffffffffffffff\n      and\n      0x70a08231\n        /* \"FlashLoan.sol\":2208:2212  this */\n      address\n        /* \"FlashLoan.sol\":2168:2214  IERC20(_tokenAddress).balanceOf(address(this)) */\n      mload(0x40)\n      dup3\n      0xffffffff\n      and\n      0xe0\n      shl\n      dup2\n      mstore\n      0x04\n      add\n      tag_99\n      swap2\n      swap1\n      tag_89\n      jump\t// in\n    tag_99:\n      0x20\n      mload(0x40)\n      dup1\n      dup4\n      sub\n      dup2\n      dup7\n      gas\n      staticcall\n      iszero\n      dup1\n      iszero\n      tag_101\n      jumpi\n      returndatasize\n      0x00\n      dup1\n      returndatacopy\n      revert(0x00, returndatasize)\n    tag_101:\n      pop\n      pop\n      pop\n      pop\n      mload(0x40)\n      returndatasize\n      not(0x1f)\n      0x1f\n      dup3\n      add\n      and\n      dup3\n      add\n      dup1\n      0x40\n      mstore\n      pop\n      dup2\n      add\n      swap1\n      tag_102\n      swap2\n      swap1\n      tag_93\n      jump\t// in\n    tag_102:\n        /* \"FlashLoan.sol\":2161:2214  return IERC20(_tokenAddress).balanceOf(address(this)) */\n      swap1\n      pop\n        /* \"FlashLoan.sol\":2082:2220  function getBalance(address _tokenAddress) external view returns (uint) {... */\n      swap2\n      swap1\n      pop\n      jump\t// out\n        /* \"#utility.yul\":7:133   */\n    tag_103:\n        /* \"#utility.yul\":44:51   */\n      0x00\n        /* \"#utility.yul\":84:126   */\n      0xffffffffffffffffffffffffffffffffffffffff\n        /* \"#utility.yul\":77:82   */\n      dup3\n        /* \"#utility.yul\":73:127   */\n      and\n        /* \"#utility.yul\":62:127   */\n      swap1\n      pop\n        /* \"#utility.yul\":7:133   */\n      swap2\n      swap1\n      pop\n      jump\t// out\n        /* \"#utility.yul\":139:199   */\n    tag_104:\n        /* \"#utility.yul\":167:170   */\n      0x00\n        /* \"#utility.yul\":188:193   */\n      dup2\n        /* \"#utility.yul\":181:193   */\n      swap1\n      pop\n        /* \"#utility.yul\":139:199   */\n      swap2\n      swap1\n      pop\n      jump\t// out\n        /* \"#utility.yul\":205:347   */\n    tag_105:\n        /* \"#utility.yul\":255:264   */\n      0x00\n        /* \"#utility.yul\":288:341   */\n      tag_166\n        /* \"#utility.yul\":306:340   */\n      tag_167\n        /* \"#utility.yul\":315:339   */\n      tag_168\n        /* \"#utility.yul\":333:338   */\n      dup5\n        /* \"#utility.yul\":315:339   */\n      tag_103\n      jump\t// in\n    tag_168:\n        /* \"#utility.yul\":306:340   */\n      tag_104\n      jump\t// in\n    tag_167:\n        /* \"#utility.yul\":288:341   */\n      tag_103\n      jump\t// in\n    tag_166:\n        /* \"#utility.yul\":275:341   */\n      swap1\n      pop\n        /* \"#utility.yul\":205:347   */\n      swap2\n      swap1\n      pop\n      jump\t// out\n        /* \"#utility.yul\":353:479   */\n    tag_106:\n        /* \"#utility.yul\":403:412   */\n      0x00\n        /* \"#utility.yul\":436:473   */\n      tag_170\n        /* \"#utility.yul\":467:472   */\n      dup3\n        /* \"#utility.yul\":436:473   */\n      tag_105\n      jump\t// in\n    tag_170:\n        /* \"#utility.yul\":423:473   */\n      swap1\n      pop\n        /* \"#utility.yul\":353:479   */\n      swap2\n      swap1\n      pop\n      jump\t// out\n        /* \"#utility.yul\":485:642   */\n    tag_107:\n        /* \"#utility.yul\":566:575   */\n      0x00\n        /* \"#utility.yul\":599:636   */\n      tag_172\n        /* \"#utility.yul\":630:635   */\n      dup3\n        /* \"#utility.yul\":599:636   */\n      tag_106\n      jump\t// in\n    tag_172:\n        /* \"#utility.yul\":586:636   */\n      swap1\n      pop\n        /* \"#utility.yul\":485:642   */\n      swap2\n      swap1\n      pop\n      jump\t// out\n        /* \"#utility.yul\":648:841   */\n    tag_108:\n        /* \"#utility.yul\":766:834   */\n      tag_174\n        /* \"#utility.yul\":828:833   */\n      dup2\n        /* \"#utility.yul\":766:834   */\n      tag_107\n      jump\t// in\n    tag_174:\n        /* \"#utility.yul\":761:764   */\n      dup3\n        /* \"#utility.yul\":754:835   */\n      mstore\n        /* \"#utility.yul\":648:841   */\n      pop\n      pop\n      jump\t// out\n        /* \"#utility.yul\":847:1131   */\n    tag_15:\n        /* \"#utility.yul\":971:975   */\n      0x00\n        /* \"#utility.yul\":1009:1011   */\n      0x20\n        /* \"#utility.yul\":998:1007   */\n      dup3\n        /* \"#utility.yul\":994:1012   */\n      add\n        /* \"#utility.yul\":986:1012   */\n      swap1\n      pop\n        /* \"#utility.yul\":1022:1124   */\n      tag_176\n        /* \"#utility.yul\":1121:1122   */\n      0x00\n        /* \"#utility.yul\":1110:1119   */\n      dup4\n        /* \"#utility.yul\":1106:1123   */\n      add\n        /* \"#utility.yul\":1097:1103   */\n      dup5\n        /* \"#utility.yul\":1022:1124   */\n      tag_108\n      jump\t// in\n    tag_176:\n        /* \"#utility.yul\":847:1131   */\n      swap3\n      swap2\n      pop\n      pop\n      jump\t// out\n        /* \"#utility.yul\":1137:1212   */\n    tag_109:\n        /* \"#utility.yul\":1170:1176   */\n      0x00\n        /* \"#utility.yul\":1203:1205   */\n      0x40\n        /* \"#utility.yul\":1197:1206   */\n      mload\n        /* \"#utility.yul\":1187:1206   */\n      swap1\n      pop\n        /* \"#utility.yul\":1137:1212   */\n      swap1\n      jump\t// out\n        /* \"#utility.yul\":1218:1335   */\n    tag_110:\n        /* \"#utility.yul\":1327:1328   */\n      0x00\n        /* \"#utility.yul\":1324:1325   */\n      dup1\n        /* \"#utility.yul\":1317:1329   */\n      revert\n        /* \"#utility.yul\":1341:1458   */\n    tag_111:\n        /* \"#utility.yul\":1450:1451   */\n      0x00\n        /* \"#utility.yul\":1447:1448   */\n      dup1\n        /* \"#utility.yul\":1440:1452   */\n      revert\n        /* \"#utility.yul\":1464:1560   */\n    tag_112:\n        /* \"#utility.yul\":1501:1508   */\n      0x00\n        /* \"#utility.yul\":1530:1554   */\n      tag_181\n        /* \"#utility.yul\":1548:1553   */\n      dup3\n        /* \"#utility.yul\":1530:1554   */\n      tag_103\n      jump\t// in\n    tag_181:\n        /* \"#utility.yul\":1519:1554   */\n      swap1\n      pop\n        /* \"#utility.yul\":1464:1560   */\n      swap2\n      swap1\n      pop\n      jump\t// out\n        /* \"#utility.yul\":1566:1688   */\n    tag_113:\n        /* \"#utility.yul\":1639:1663   */\n      tag_183\n        /* \"#utility.yul\":1657:1662   */\n      dup2\n        /* \"#utility.yul\":1639:1663   */\n      tag_112\n      jump\t// in\n    tag_183:\n        /* \"#utility.yul\":1632:1637   */\n      dup2\n        /* \"#utility.yul\":1629:1664   */\n      eq\n        /* \"#utility.yul\":1619:1682   */\n      tag_184\n      jumpi\n        /* \"#utility.yul\":1678:1679   */\n      0x00\n        /* \"#utility.yul\":1675:1676   */\n      dup1\n        /* \"#utility.yul\":1668:1680   */\n      revert\n        /* \"#utility.yul\":1619:1682   */\n    tag_184:\n        /* \"#utility.yul\":1566:1688   */\n      pop\n      jump\t// out\n        /* \"#utility.yul\":1694:1833   */\n    tag_114:\n        /* \"#utility.yul\":1740:1745   */\n      0x00\n        /* \"#utility.yul\":1778:1784   */\n      dup2\n        /* \"#utility.yul\":1765:1785   */\n      calldataload\n        /* \"#utility.yul\":1756:1785   */\n      swap1\n      pop\n        /* \"#utility.yul\":1794:1827   */\n      tag_186\n        /* \"#utility.yul\":1821:1826   */\n      dup2\n        /* \"#utility.yul\":1794:1827   */\n      tag_113\n      jump\t// in\n    tag_186:\n        /* \"#utility.yul\":1694:1833   */\n      swap3\n      swap2\n      pop\n      pop\n      jump\t// out\n        /* \"#utility.yul\":1839:1916   */\n    tag_115:\n        /* \"#utility.yul\":1876:1883   */\n      0x00\n        /* \"#utility.yul\":1905:1910   */\n      dup2\n        /* \"#utility.yul\":1894:1910   */\n      swap1\n      pop\n        /* \"#utility.yul\":1839:1916   */\n      swap2\n      swap1\n      pop\n      jump\t// out\n        /* \"#utility.yul\":1922:2044   */\n    tag_116:\n        /* \"#utility.yul\":1995:2019   */\n      tag_189\n        /* \"#utility.yul\":2013:2018   */\n      dup2\n        /* \"#utility.yul\":1995:2019   */\n      tag_115\n      jump\t// in\n    tag_189:\n        /* \"#utility.yul\":1988:1993   */\n      dup2\n        /* \"#utility.yul\":1985:2020   */\n      eq\n        /* \"#utility.yul\":1975:2038   */\n      tag_190\n      jumpi\n        /* \"#utility.yul\":2034:2035   */\n      0x00\n        /* \"#utility.yul\":2031:2032   */\n      dup1\n        /* \"#utility.yul\":2024:2036   */\n      revert\n        /* \"#utility.yul\":1975:2038   */\n    tag_190:\n        /* \"#utility.yul\":1922:2044   */\n      pop\n      jump\t// out\n        /* \"#utility.yul\":2050:2189   */\n    tag_117:\n        /* \"#utility.yul\":2096:2101   */\n      0x00\n        /* \"#utility.yul\":2134:2140   */\n      dup2\n        /* \"#utility.yul\":2121:2141   */\n      calldataload\n        /* \"#utility.yul\":2112:2141   */\n      swap1\n      pop\n        /* \"#utility.yul\":2150:2183   */\n      tag_192\n        /* \"#utility.yul\":2177:2182   */\n      dup2\n        /* \"#utility.yul\":2150:2183   */\n      tag_116\n      jump\t// in\n    tag_192:\n        /* \"#utility.yul\":2050:2189   */\n      swap3\n      swap2\n      pop\n      pop\n      jump\t// out\n        /* \"#utility.yul\":2195:2312   */\n    tag_118:\n        /* \"#utility.yul\":2304:2305   */\n      0x00\n        /* \"#utility.yul\":2301:2302   */\n      dup1\n        /* \"#utility.yul\":2294:2306   */\n      revert\n        /* \"#utility.yul\":2318:2435   */\n    tag_119:\n        /* \"#utility.yul\":2427:2428   */\n      0x00\n        /* \"#utility.yul\":2424:2425   */\n      dup1\n        /* \"#utility.yul\":2417:2429   */\n      revert\n        /* \"#utility.yul\":2441:2558   */\n    tag_120:\n        /* \"#utility.yul\":2550:2551   */\n      0x00\n        /* \"#utility.yul\":2547:2548   */\n      dup1\n        /* \"#utility.yul\":2540:2552   */\n      revert\n        /* \"#utility.yul\":2577:3129   */\n    tag_121:\n        /* \"#utility.yul\":2634:2642   */\n      0x00\n        /* \"#utility.yul\":2644:2650   */\n      dup1\n        /* \"#utility.yul\":2694:2697   */\n      dup4\n        /* \"#utility.yul\":2687:2691   */\n      0x1f\n        /* \"#utility.yul\":2679:2685   */\n      dup5\n        /* \"#utility.yul\":2675:2692   */\n      add\n        /* \"#utility.yul\":2671:2698   */\n      slt\n        /* \"#utility.yul\":2661:2783   */\n      tag_197\n      jumpi\n        /* \"#utility.yul\":2702:2781   */\n      tag_198\n      tag_118\n      jump\t// in\n    tag_198:\n        /* \"#utility.yul\":2661:2783   */\n    tag_197:\n        /* \"#utility.yul\":2815:2821   */\n      dup3\n        /* \"#utility.yul\":2802:2822   */\n      calldataload\n        /* \"#utility.yul\":2792:2822   */\n      swap1\n      pop\n        /* \"#utility.yul\":2845:2863   */\n      0xffffffffffffffff\n        /* \"#utility.yul\":2837:2843   */\n      dup2\n        /* \"#utility.yul\":2834:2864   */\n      gt\n        /* \"#utility.yul\":2831:2948   */\n      iszero\n      tag_199\n      jumpi\n        /* \"#utility.yul\":2867:2946   */\n      tag_200\n      tag_119\n      jump\t// in\n    tag_200:\n        /* \"#utility.yul\":2831:2948   */\n    tag_199:\n        /* \"#utility.yul\":2981:2985   */\n      0x20\n        /* \"#utility.yul\":2973:2979   */\n      dup4\n        /* \"#utility.yul\":2969:2986   */\n      add\n        /* \"#utility.yul\":2957:2986   */\n      swap2\n      pop\n        /* \"#utility.yul\":3035:3038   */\n      dup4\n        /* \"#utility.yul\":3027:3031   */\n      0x01\n        /* \"#utility.yul\":3019:3025   */\n      dup3\n        /* \"#utility.yul\":3015:3032   */\n      mul\n        /* \"#utility.yul\":3005:3013   */\n      dup4\n        /* \"#utility.yul\":3001:3033   */\n      add\n        /* \"#utility.yul\":2998:3039   */\n      gt\n        /* \"#utility.yul\":2995:3123   */\n      iszero\n      tag_201\n      jumpi\n        /* \"#utility.yul\":3042:3121   */\n      tag_202\n      tag_120\n      jump\t// in\n    tag_202:\n        /* \"#utility.yul\":2995:3123   */\n    tag_201:\n        /* \"#utility.yul\":2577:3129   */\n      swap3\n      pop\n      swap3\n      swap1\n      pop\n      jump\t// out\n        /* \"#utility.yul\":3135:4244   */\n    tag_19:\n        /* \"#utility.yul\":3241:3247   */\n      0x00\n        /* \"#utility.yul\":3249:3255   */\n      dup1\n        /* \"#utility.yul\":3257:3263   */\n      0x00\n        /* \"#utility.yul\":3265:3271   */\n      dup1\n        /* \"#utility.yul\":3273:3279   */\n      0x00\n        /* \"#utility.yul\":3281:3287   */\n      dup1\n        /* \"#utility.yul\":3330:3333   */\n      0xa0\n        /* \"#utility.yul\":3318:3327   */\n      dup8\n        /* \"#utility.yul\":3309:3316   */\n      dup10\n        /* \"#utility.yul\":3305:3328   */\n      sub\n        /* \"#utility.yul\":3301:3334   */\n      slt\n        /* \"#utility.yul\":3298:3418   */\n      iszero\n      tag_204\n      jumpi\n        /* \"#utility.yul\":3337:3416   */\n      tag_205\n      tag_110\n      jump\t// in\n    tag_205:\n        /* \"#utility.yul\":3298:3418   */\n    tag_204:\n        /* \"#utility.yul\":3457:3458   */\n      0x00\n        /* \"#utility.yul\":3482:3535   */\n      tag_206\n        /* \"#utility.yul\":3527:3534   */\n      dup10\n        /* \"#utility.yul\":3518:3524   */\n      dup3\n        /* \"#utility.yul\":3507:3516   */\n      dup11\n        /* \"#utility.yul\":3503:3525   */\n      add\n        /* \"#utility.yul\":3482:3535   */\n      tag_114\n      jump\t// in\n    tag_206:\n        /* \"#utility.yul\":3472:3535   */\n      swap7\n      pop\n        /* \"#utility.yul\":3428:3545   */\n      pop\n        /* \"#utility.yul\":3584:3586   */\n      0x20\n        /* \"#utility.yul\":3610:3663   */\n      tag_207\n        /* \"#utility.yul\":3655:3662   */\n      dup10\n        /* \"#utility.yul\":3646:3652   */\n      dup3\n        /* \"#utility.yul\":3635:3644   */\n      dup11\n        /* \"#utility.yul\":3631:3653   */\n      add\n        /* \"#utility.yul\":3610:3663   */\n      tag_117\n      jump\t// in\n    tag_207:\n        /* \"#utility.yul\":3600:3663   */\n      swap6\n      pop\n        /* \"#utility.yul\":3555:3673   */\n      pop\n        /* \"#utility.yul\":3712:3714   */\n      0x40\n        /* \"#utility.yul\":3738:3791   */\n      tag_208\n        /* \"#utility.yul\":3783:3790   */\n      dup10\n        /* \"#utility.yul\":3774:3780   */\n      dup3\n        /* \"#utility.yul\":3763:3772   */\n      dup11\n        /* \"#utility.yul\":3759:3781   */\n      add\n        /* \"#utility.yul\":3738:3791   */\n      tag_117\n      jump\t// in\n    tag_208:\n        /* \"#utility.yul\":3728:3791   */\n      swap5\n      pop\n        /* \"#utility.yul\":3683:3801   */\n      pop\n        /* \"#utility.yul\":3840:3842   */\n      0x60\n        /* \"#utility.yul\":3866:3919   */\n      tag_209\n        /* \"#utility.yul\":3911:3918   */\n      dup10\n        /* \"#utility.yul\":3902:3908   */\n      dup3\n        /* \"#utility.yul\":3891:3900   */\n      dup11\n        /* \"#utility.yul\":3887:3909   */\n      add\n        /* \"#utility.yul\":3866:3919   */\n      tag_114\n      jump\t// in\n    tag_209:\n        /* \"#utility.yul\":3856:3919   */\n      swap4\n      pop\n        /* \"#utility.yul\":3811:3929   */\n      pop\n        /* \"#utility.yul\":3996:3999   */\n      0x80\n        /* \"#utility.yul\":3985:3994   */\n      dup8\n        /* \"#utility.yul\":3981:4000   */\n      add\n        /* \"#utility.yul\":3968:4001   */\n      calldataload\n        /* \"#utility.yul\":4028:4046   */\n      0xffffffffffffffff\n        /* \"#utility.yul\":4020:4026   */\n      dup2\n        /* \"#utility.yul\":4017:4047   */\n      gt\n        /* \"#utility.yul\":4014:4131   */\n      iszero\n      tag_210\n      jumpi\n        /* \"#utility.yul\":4050:4129   */\n      tag_211\n      tag_111\n      jump\t// in\n    tag_211:\n        /* \"#utility.yul\":4014:4131   */\n    tag_210:\n        /* \"#utility.yul\":4163:4227   */\n      tag_212\n        /* \"#utility.yul\":4219:4226   */\n      dup10\n        /* \"#utility.yul\":4210:4216   */\n      dup3\n        /* \"#utility.yul\":4199:4208   */\n      dup11\n        /* \"#utility.yul\":4195:4217   */\n      add\n        /* \"#utility.yul\":4163:4227   */\n      tag_121\n      jump\t// in\n    tag_212:\n        /* \"#utility.yul\":4145:4227   */\n      swap3\n      pop\n      swap3\n      pop\n        /* \"#utility.yul\":3939:4237   */\n      pop\n        /* \"#utility.yul\":3135:4244   */\n      swap3\n      swap6\n      pop\n      swap3\n      swap6\n      pop\n      swap3\n      swap6\n      jump\t// out\n        /* \"#utility.yul\":4250:4340   */\n    tag_122:\n        /* \"#utility.yul\":4284:4291   */\n      0x00\n        /* \"#utility.yul\":4327:4332   */\n      dup2\n        /* \"#utility.yul\":4320:4333   */\n      iszero\n        /* \"#utility.yul\":4313:4334   */\n      iszero\n        /* \"#utility.yul\":4302:4334   */\n      swap1\n      pop\n        /* \"#utility.yul\":4250:4340   */\n      swap2\n      swap1\n      pop\n      jump\t// out\n        /* \"#utility.yul\":4346:4455   */\n    tag_123:\n        /* \"#utility.yul\":4427:4448   */\n      tag_215\n        /* \"#utility.yul\":4442:4447   */\n      dup2\n        /* \"#utility.yul\":4427:4448   */\n      tag_122\n      jump\t// in\n    tag_215:\n        /* \"#utility.yul\":4422:4425   */\n      dup3\n        /* \"#utility.yul\":4415:4449   */\n      mstore\n        /* \"#utility.yul\":4346:4455   */\n      pop\n      pop\n      jump\t// out\n        /* \"#utility.yul\":4461:4671   */\n    tag_22:\n        /* \"#utility.yul\":4548:4552   */\n      0x00\n        /* \"#utility.yul\":4586:4588   */\n      0x20\n        /* \"#utility.yul\":4575:4584   */\n      dup3\n        /* \"#utility.yul\":4571:4589   */\n      add\n        /* \"#utility.yul\":4563:4589   */\n      swap1\n      pop\n        /* \"#utility.yul\":4599:4664   */\n      tag_217\n        /* \"#utility.yul\":4661:4662   */\n      0x00\n        /* \"#utility.yul\":4650:4659   */\n      dup4\n        /* \"#utility.yul\":4646:4663   */\n      add\n        /* \"#utility.yul\":4637:4643   */\n      dup5\n        /* \"#utility.yul\":4599:4664   */\n      tag_123\n      jump\t// in\n    tag_217:\n        /* \"#utility.yul\":4461:4671   */\n      swap3\n      swap2\n      pop\n      pop\n      jump\t// out\n        /* \"#utility.yul\":4677:5494   */\n    tag_26:\n        /* \"#utility.yul\":4765:4771   */\n      0x00\n        /* \"#utility.yul\":4773:4779   */\n      dup1\n        /* \"#utility.yul\":4781:4787   */\n      0x00\n        /* \"#utility.yul\":4789:4795   */\n      dup1\n        /* \"#utility.yul\":4838:4840   */\n      0x60\n        /* \"#utility.yul\":4826:4835   */\n      dup6\n        /* \"#utility.yul\":4817:4824   */\n      dup8\n        /* \"#utility.yul\":4813:4836   */\n      sub\n        /* \"#utility.yul\":4809:4841   */\n      slt\n        /* \"#utility.yul\":4806:4925   */\n      iszero\n      tag_219\n      jumpi\n        /* \"#utility.yul\":4844:4923   */\n      tag_220\n      tag_110\n      jump\t// in\n    tag_220:\n        /* \"#utility.yul\":4806:4925   */\n    tag_219:\n        /* \"#utility.yul\":4964:4965   */\n      0x00\n        /* \"#utility.yul\":4989:5042   */\n      tag_221\n        /* \"#utility.yul\":5034:5041   */\n      dup8\n        /* \"#utility.yul\":5025:5031   */\n      dup3\n        /* \"#utility.yul\":5014:5023   */\n      dup9\n        /* \"#utility.yul\":5010:5032   */\n      add\n        /* \"#utility.yul\":4989:5042   */\n      tag_114\n      jump\t// in\n    tag_221:\n        /* \"#utility.yul\":4979:5042   */\n      swap5\n      pop\n        /* \"#utility.yul\":4935:5052   */\n      pop\n        /* \"#utility.yul\":5091:5093   */\n      0x20\n        /* \"#utility.yul\":5117:5170   */\n      tag_222\n        /* \"#utility.yul\":5162:5169   */\n      dup8\n        /* \"#utility.yul\":5153:5159   */\n      dup3\n        /* \"#utility.yul\":5142:5151   */\n      dup9\n        /* \"#utility.yul\":5138:5160   */\n      add\n        /* \"#utility.yul\":5117:5170   */\n      tag_117\n      jump\t// in\n    tag_222:\n        /* \"#utility.yul\":5107:5170   */\n      swap4\n      pop\n        /* \"#utility.yul\":5062:5180   */\n      pop\n        /* \"#utility.yul\":5247:5249   */\n      0x40\n        /* \"#utility.yul\":5236:5245   */\n      dup6\n        /* \"#utility.yul\":5232:5250   */\n      add\n        /* \"#utility.yul\":5219:5251   */\n      calldataload\n        /* \"#utility.yul\":5278:5296   */\n      0xffffffffffffffff\n        /* \"#utility.yul\":5270:5276   */\n      dup2\n        /* \"#utility.yul\":5267:5297   */\n      gt\n        /* \"#utility.yul\":5264:5381   */\n      iszero\n      tag_223\n      jumpi\n        /* \"#utility.yul\":5300:5379   */\n      tag_224\n      tag_111\n      jump\t// in\n    tag_224:\n        /* \"#utility.yul\":5264:5381   */\n    tag_223:\n        /* \"#utility.yul\":5413:5477   */\n      tag_225\n        /* \"#utility.yul\":5469:5476   */\n      dup8\n        /* \"#utility.yul\":5460:5466   */\n      dup3\n        /* \"#utility.yul\":5449:5458   */\n      dup9\n        /* \"#utility.yul\":5445:5467   */\n      add\n        /* \"#utility.yul\":5413:5477   */\n      tag_121\n      jump\t// in\n    tag_225:\n        /* \"#utility.yul\":5395:5477   */\n      swap3\n      pop\n      swap3\n      pop\n        /* \"#utility.yul\":5190:5487   */\n      pop\n        /* \"#utility.yul\":4677:5494   */\n      swap3\n      swap6\n      swap2\n      swap5\n      pop\n      swap3\n      pop\n      jump\t// out\n        /* \"#utility.yul\":5500:5829   */\n    tag_31:\n        /* \"#utility.yul\":5559:5565   */\n      0x00\n        /* \"#utility.yul\":5608:5610   */\n      0x20\n        /* \"#utility.yul\":5596:5605   */\n      dup3\n        /* \"#utility.yul\":5587:5594   */\n      dup5\n        /* \"#utility.yul\":5583:5606   */\n      sub\n        /* \"#utility.yul\":5579:5611   */\n      slt\n        /* \"#utility.yul\":5576:5695   */\n      iszero\n      tag_227\n      jumpi\n        /* \"#utility.yul\":5614:5693   */\n      tag_228\n      tag_110\n      jump\t// in\n    tag_228:\n        /* \"#utility.yul\":5576:5695   */\n    tag_227:\n        /* \"#utility.yul\":5734:5735   */\n      0x00\n        /* \"#utility.yul\":5759:5812   */\n      tag_229\n        /* \"#utility.yul\":5804:5811   */\n      dup5\n        /* \"#utility.yul\":5795:5801   */\n      dup3\n        /* \"#utility.yul\":5784:5793   */\n      dup6\n        /* \"#utility.yul\":5780:5802   */\n      add\n        /* \"#utility.yul\":5759:5812   */\n      tag_114\n      jump\t// in\n    tag_229:\n        /* \"#utility.yul\":5749:5812   */\n      swap2\n      pop\n        /* \"#utility.yul\":5705:5822   */\n      pop\n        /* \"#utility.yul\":5500:5829   */\n      swap3\n      swap2\n      pop\n      pop\n      jump\t// out\n        /* \"#utility.yul\":5835:5974   */\n    tag_124:\n        /* \"#utility.yul\":5898:5907   */\n      0x00\n        /* \"#utility.yul\":5931:5968   */\n      tag_231\n        /* \"#utility.yul\":5962:5967   */\n      dup3\n        /* \"#utility.yul\":5931:5968   */\n      tag_106\n      jump\t// in\n    tag_231:\n        /* \"#utility.yul\":5918:5968   */\n      swap1\n      pop\n        /* \"#utility.yul\":5835:5974   */\n      swap2\n      swap1\n      pop\n      jump\t// out\n        /* \"#utility.yul\":5980:6137   */\n    tag_125:\n        /* \"#utility.yul\":6080:6130   */\n      tag_233\n        /* \"#utility.yul\":6124:6129   */\n      dup2\n        /* \"#utility.yul\":6080:6130   */\n      tag_124\n      jump\t// in\n    tag_233:\n        /* \"#utility.yul\":6075:6078   */\n      dup3\n        /* \"#utility.yul\":6068:6131   */\n      mstore\n        /* \"#utility.yul\":5980:6137   */\n      pop\n      pop\n      jump\t// out\n        /* \"#utility.yul\":6143:6391   */\n    tag_37:\n        /* \"#utility.yul\":6249:6253   */\n      0x00\n        /* \"#utility.yul\":6287:6289   */\n      0x20\n        /* \"#utility.yul\":6276:6285   */\n      dup3\n        /* \"#utility.yul\":6272:6290   */\n      add\n        /* \"#utility.yul\":6264:6290   */\n      swap1\n      pop\n        /* \"#utility.yul\":6300:6384   */\n      tag_235\n        /* \"#utility.yul\":6381:6382   */\n      0x00\n        /* \"#utility.yul\":6370:6379   */\n      dup4\n        /* \"#utility.yul\":6366:6383   */\n      add\n        /* \"#utility.yul\":6357:6363   */\n      dup5\n        /* \"#utility.yul\":6300:6384   */\n      tag_125\n      jump\t// in\n    tag_235:\n        /* \"#utility.yul\":6143:6391   */\n      swap3\n      swap2\n      pop\n      pop\n      jump\t// out\n        /* \"#utility.yul\":6397:6515   */\n    tag_126:\n        /* \"#utility.yul\":6484:6508   */\n      tag_237\n        /* \"#utility.yul\":6502:6507   */\n      dup2\n        /* \"#utility.yul\":6484:6508   */\n      tag_115\n      jump\t// in\n    tag_237:\n        /* \"#utility.yul\":6479:6482   */\n      dup3\n        /* \"#utility.yul\":6472:6509   */\n      mstore\n        /* \"#utility.yul\":6397:6515   */\n      pop\n      pop\n      jump\t// out\n        /* \"#utility.yul\":6521:6743   */\n    tag_43:\n        /* \"#utility.yul\":6614:6618   */\n      0x00\n        /* \"#utility.yul\":6652:6654   */\n      0x20\n        /* \"#utility.yul\":6641:6650   */\n      dup3\n        /* \"#utility.yul\":6637:6655   */\n      add\n        /* \"#utility.yul\":6629:6655   */\n      swap1\n      pop\n        /* \"#utility.yul\":6665:6736   */\n      tag_239\n        /* \"#utility.yul\":6733:6734   */\n      0x00\n        /* \"#utility.yul\":6722:6731   */\n      dup4\n        /* \"#utility.yul\":6718:6735   */\n      add\n        /* \"#utility.yul\":6709:6715   */\n      dup5\n        /* \"#utility.yul\":6665:6736   */\n      tag_126\n      jump\t// in\n    tag_239:\n        /* \"#utility.yul\":6521:6743   */\n      swap3\n      swap2\n      pop\n      pop\n      jump\t// out\n        /* \"#utility.yul\":6749:6851   */\n    tag_127:\n        /* \"#utility.yul\":6790:6796   */\n      0x00\n        /* \"#utility.yul\":6841:6843   */\n      0x1f\n        /* \"#utility.yul\":6837:6844   */\n      not\n        /* \"#utility.yul\":6832:6834   */\n      0x1f\n        /* \"#utility.yul\":6825:6830   */\n      dup4\n        /* \"#utility.yul\":6821:6835   */\n      add\n        /* \"#utility.yul\":6817:6845   */\n      and\n        /* \"#utility.yul\":6807:6845   */\n      swap1\n      pop\n        /* \"#utility.yul\":6749:6851   */\n      swap2\n      swap1\n      pop\n      jump\t// out\n        /* \"#utility.yul\":6857:7037   */\n    tag_128:\n        /* \"#utility.yul\":6905:6982   */\n      0x4e487b7100000000000000000000000000000000000000000000000000000000\n        /* \"#utility.yul\":6902:6903   */\n      0x00\n        /* \"#utility.yul\":6895:6983   */\n      mstore\n        /* \"#utility.yul\":7002:7006   */\n      0x41\n        /* \"#utility.yul\":6999:7000   */\n      0x04\n        /* \"#utility.yul\":6992:7007   */\n      mstore\n        /* \"#utility.yul\":7026:7030   */\n      0x24\n        /* \"#utility.yul\":7023:7024   */\n      0x00\n        /* \"#utility.yul\":7016:7031   */\n      revert\n        /* \"#utility.yul\":7043:7324   */\n    tag_129:\n        /* \"#utility.yul\":7126:7153   */\n      tag_243\n        /* \"#utility.yul\":7148:7152   */\n      dup3\n        /* \"#utility.yul\":7126:7153   */\n      tag_127\n      jump\t// in\n    tag_243:\n        /* \"#utility.yul\":7118:7124   */\n      dup2\n        /* \"#utility.yul\":7114:7154   */\n      add\n        /* \"#utility.yul\":7256:7262   */\n      dup2\n        /* \"#utility.yul\":7244:7254   */\n      dup2\n        /* \"#utility.yul\":7241:7263   */\n      lt\n        /* \"#utility.yul\":7220:7238   */\n      0xffffffffffffffff\n        /* \"#utility.yul\":7208:7218   */\n      dup3\n        /* \"#utility.yul\":7205:7239   */\n      gt\n        /* \"#utility.yul\":7202:7264   */\n      or\n        /* \"#utility.yul\":7199:7287   */\n      iszero\n      tag_244\n      jumpi\n        /* \"#utility.yul\":7267:7285   */\n      tag_245\n      tag_128\n      jump\t// in\n    tag_245:\n        /* \"#utility.yul\":7199:7287   */\n    tag_244:\n        /* \"#utility.yul\":7307:7317   */\n      dup1\n        /* \"#utility.yul\":7303:7305   */\n      0x40\n        /* \"#utility.yul\":7296:7318   */\n      mstore\n        /* \"#utility.yul\":7086:7324   */\n      pop\n        /* \"#utility.yul\":7043:7324   */\n      pop\n      pop\n      jump\t// out\n        /* \"#utility.yul\":7330:7459   */\n    tag_130:\n        /* \"#utility.yul\":7364:7370   */\n      0x00\n        /* \"#utility.yul\":7391:7411   */\n      tag_247\n      tag_109\n      jump\t// in\n    tag_247:\n        /* \"#utility.yul\":7381:7411   */\n      swap1\n      pop\n        /* \"#utility.yul\":7420:7453   */\n      tag_248\n        /* \"#utility.yul\":7448:7452   */\n      dup3\n        /* \"#utility.yul\":7440:7446   */\n      dup3\n        /* \"#utility.yul\":7420:7453   */\n      tag_129\n      jump\t// in\n    tag_248:\n        /* \"#utility.yul\":7330:7459   */\n      swap2\n      swap1\n      pop\n      jump\t// out\n        /* \"#utility.yul\":7465:7776   */\n    tag_131:\n        /* \"#utility.yul\":7542:7546   */\n      0x00\n        /* \"#utility.yul\":7632:7650   */\n      0xffffffffffffffff\n        /* \"#utility.yul\":7624:7630   */\n      dup3\n        /* \"#utility.yul\":7621:7651   */\n      gt\n        /* \"#utility.yul\":7618:7674   */\n      iszero\n      tag_250\n      jumpi\n        /* \"#utility.yul\":7654:7672   */\n      tag_251\n      tag_128\n      jump\t// in\n    tag_251:\n        /* \"#utility.yul\":7618:7674   */\n    tag_250:\n        /* \"#utility.yul\":7704:7708   */\n      0x20\n        /* \"#utility.yul\":7696:7702   */\n      dup3\n        /* \"#utility.yul\":7692:7709   */\n      mul\n        /* \"#utility.yul\":7684:7709   */\n      swap1\n      pop\n        /* \"#utility.yul\":7764:7768   */\n      0x20\n        /* \"#utility.yul\":7758:7762   */\n      dup2\n        /* \"#utility.yul\":7754:7769   */\n      add\n        /* \"#utility.yul\":7746:7769   */\n      swap1\n      pop\n        /* \"#utility.yul\":7465:7776   */\n      swap2\n      swap1\n      pop\n      jump\t// out\n        /* \"#utility.yul\":7799:8509   */\n    tag_132:\n        /* \"#utility.yul\":7895:7900   */\n      0x00\n        /* \"#utility.yul\":7920:8001   */\n      tag_253\n        /* \"#utility.yul\":7936:8000   */\n      tag_254\n        /* \"#utility.yul\":7993:7999   */\n      dup5\n        /* \"#utility.yul\":7936:8000   */\n      tag_131\n      jump\t// in\n    tag_254:\n        /* \"#utility.yul\":7920:8001   */\n      tag_130\n      jump\t// in\n    tag_253:\n        /* \"#utility.yul\":7911:8001   */\n      swap1\n      pop\n        /* \"#utility.yul\":8021:8026   */\n      dup1\n        /* \"#utility.yul\":8050:8056   */\n      dup4\n        /* \"#utility.yul\":8043:8048   */\n      dup3\n        /* \"#utility.yul\":8036:8057   */\n      mstore\n        /* \"#utility.yul\":8084:8088   */\n      0x20\n        /* \"#utility.yul\":8077:8082   */\n      dup3\n        /* \"#utility.yul\":8073:8089   */\n      add\n        /* \"#utility.yul\":8066:8089   */\n      swap1\n      pop\n        /* \"#utility.yul\":8137:8141   */\n      0x20\n        /* \"#utility.yul\":8129:8135   */\n      dup5\n        /* \"#utility.yul\":8125:8142   */\n      mul\n        /* \"#utility.yul\":8117:8123   */\n      dup4\n        /* \"#utility.yul\":8113:8143   */\n      add\n        /* \"#utility.yul\":8166:8169   */\n      dup6\n        /* \"#utility.yul\":8158:8164   */\n      dup2\n        /* \"#utility.yul\":8155:8170   */\n      gt\n        /* \"#utility.yul\":8152:8274   */\n      iszero\n      tag_255\n      jumpi\n        /* \"#utility.yul\":8185:8264   */\n      tag_256\n      tag_120\n      jump\t// in\n    tag_256:\n        /* \"#utility.yul\":8152:8274   */\n    tag_255:\n        /* \"#utility.yul\":8300:8306   */\n      dup4\n        /* \"#utility.yul\":8283:8503   */\n    tag_257:\n        /* \"#utility.yul\":8317:8323   */\n      dup2\n        /* \"#utility.yul\":8312:8315   */\n      dup2\n        /* \"#utility.yul\":8309:8324   */\n      lt\n        /* \"#utility.yul\":8283:8503   */\n      iszero\n      tag_259\n      jumpi\n        /* \"#utility.yul\":8392:8395   */\n      dup1\n        /* \"#utility.yul\":8421:8458   */\n      tag_260\n        /* \"#utility.yul\":8454:8457   */\n      dup9\n        /* \"#utility.yul\":8442:8452   */\n      dup3\n        /* \"#utility.yul\":8421:8458   */\n      tag_114\n      jump\t// in\n    tag_260:\n        /* \"#utility.yul\":8416:8419   */\n      dup5\n        /* \"#utility.yul\":8409:8459   */\n      mstore\n        /* \"#utility.yul\":8488:8492   */\n      0x20\n        /* \"#utility.yul\":8483:8486   */\n      dup5\n        /* \"#utility.yul\":8479:8493   */\n      add\n        /* \"#utility.yul\":8472:8493   */\n      swap4\n      pop\n        /* \"#utility.yul\":8359:8503   */\n      pop\n        /* \"#utility.yul\":8343:8347   */\n      0x20\n        /* \"#utility.yul\":8338:8341   */\n      dup2\n        /* \"#utility.yul\":8334:8348   */\n      add\n        /* \"#utility.yul\":8327:8348   */\n      swap1\n      pop\n        /* \"#utility.yul\":8283:8503   */\n      jump(tag_257)\n    tag_259:\n        /* \"#utility.yul\":8287:8308   */\n      pop\n        /* \"#utility.yul\":7901:8509   */\n      pop\n      pop\n        /* \"#utility.yul\":7799:8509   */\n      swap4\n      swap3\n      pop\n      pop\n      pop\n      jump\t// out\n        /* \"#utility.yul\":8532:8902   */\n    tag_133:\n        /* \"#utility.yul\":8603:8608   */\n      0x00\n        /* \"#utility.yul\":8652:8655   */\n      dup3\n        /* \"#utility.yul\":8645:8649   */\n      0x1f\n        /* \"#utility.yul\":8637:8643   */\n      dup4\n        /* \"#utility.yul\":8633:8650   */\n      add\n        /* \"#utility.yul\":8629:8656   */\n      slt\n        /* \"#utility.yul\":8619:8741   */\n      tag_262\n      jumpi\n        /* \"#utility.yul\":8660:8739   */\n      tag_263\n      tag_118\n      jump\t// in\n    tag_263:\n        /* \"#utility.yul\":8619:8741   */\n    tag_262:\n        /* \"#utility.yul\":8777:8783   */\n      dup2\n        /* \"#utility.yul\":8764:8784   */\n      calldataload\n        /* \"#utility.yul\":8802:8896   */\n      tag_264\n        /* \"#utility.yul\":8892:8895   */\n      dup5\n        /* \"#utility.yul\":8884:8890   */\n      dup3\n        /* \"#utility.yul\":8877:8881   */\n      0x20\n        /* \"#utility.yul\":8869:8875   */\n      dup7\n        /* \"#utility.yul\":8865:8882   */\n      add\n        /* \"#utility.yul\":8802:8896   */\n      tag_132\n      jump\t// in\n    tag_264:\n        /* \"#utility.yul\":8793:8896   */\n      swap2\n      pop\n        /* \"#utility.yul\":8609:8902   */\n      pop\n        /* \"#utility.yul\":8532:8902   */\n      swap3\n      swap2\n      pop\n      pop\n      jump\t// out\n        /* \"#utility.yul\":8908:9228   */\n    tag_134:\n        /* \"#utility.yul\":8994:8998   */\n      0x00\n        /* \"#utility.yul\":9084:9102   */\n      0xffffffffffffffff\n        /* \"#utility.yul\":9076:9082   */\n      dup3\n        /* \"#utility.yul\":9073:9103   */\n      gt\n        /* \"#utility.yul\":9070:9126   */\n      iszero\n      tag_266\n      jumpi\n        /* \"#utility.yul\":9106:9124   */\n      tag_267\n      tag_128\n      jump\t// in\n    tag_267:\n        /* \"#utility.yul\":9070:9126   */\n    tag_266:\n        /* \"#utility.yul\":9156:9160   */\n      0x20\n        /* \"#utility.yul\":9148:9154   */\n      dup3\n        /* \"#utility.yul\":9144:9161   */\n      mul\n        /* \"#utility.yul\":9136:9161   */\n      swap1\n      pop\n        /* \"#utility.yul\":9216:9220   */\n      0x20\n        /* \"#utility.yul\":9210:9214   */\n      dup2\n        /* \"#utility.yul\":9206:9221   */\n      add\n        /* \"#utility.yul\":9198:9221   */\n      swap1\n      pop\n        /* \"#utility.yul\":8908:9228   */\n      swap2\n      swap1\n      pop\n      jump\t// out\n        /* \"#utility.yul\":9234:9351   */\n    tag_135:\n        /* \"#utility.yul\":9343:9344   */\n      0x00\n        /* \"#utility.yul\":9340:9341   */\n      dup1\n        /* \"#utility.yul\":9333:9345   */\n      revert\n        /* \"#utility.yul\":9357:9664   */\n    tag_136:\n        /* \"#utility.yul\":9418:9422   */\n      0x00\n        /* \"#utility.yul\":9508:9526   */\n      0xffffffffffffffff\n        /* \"#utility.yul\":9500:9506   */\n      dup3\n        /* \"#utility.yul\":9497:9527   */\n      gt\n        /* \"#utility.yul\":9494:9550   */\n      iszero\n      tag_270\n      jumpi\n        /* \"#utility.yul\":9530:9548   */\n      tag_271\n      tag_128\n      jump\t// in\n    tag_271:\n        /* \"#utility.yul\":9494:9550   */\n    tag_270:\n        /* \"#utility.yul\":9568:9597   */\n      tag_272\n        /* \"#utility.yul\":9590:9596   */\n      dup3\n        /* \"#utility.yul\":9568:9597   */\n      tag_127\n      jump\t// in\n    tag_272:\n        /* \"#utility.yul\":9560:9597   */\n      swap1\n      pop\n        /* \"#utility.yul\":9652:9656   */\n      0x20\n        /* \"#utility.yul\":9646:9650   */\n      dup2\n        /* \"#utility.yul\":9642:9657   */\n      add\n        /* \"#utility.yul\":9634:9657   */\n      swap1\n      pop\n        /* \"#utility.yul\":9357:9664   */\n      swap2\n      swap1\n      pop\n      jump\t// out\n        /* \"#utility.yul\":9670:9824   */\n    tag_137:\n        /* \"#utility.yul\":9754:9760   */\n      dup3\n        /* \"#utility.yul\":9749:9752   */\n      dup2\n        /* \"#utility.yul\":9744:9747   */\n      dup4\n        /* \"#utility.yul\":9731:9761   */\n      calldatacopy\n        /* \"#utility.yul\":9816:9817   */\n      0x00\n        /* \"#utility.yul\":9807:9813   */\n      dup4\n        /* \"#utility.yul\":9802:9805   */\n      dup4\n        /* \"#utility.yul\":9798:9814   */\n      add\n        /* \"#utility.yul\":9791:9818   */\n      mstore\n        /* \"#utility.yul\":9670:9824   */\n      pop\n      pop\n      pop\n      jump\t// out\n        /* \"#utility.yul\":9830:10240   */\n    tag_138:\n        /* \"#utility.yul\":9907:9912   */\n      0x00\n        /* \"#utility.yul\":9932:9997   */\n      tag_275\n        /* \"#utility.yul\":9948:9996   */\n      tag_276\n        /* \"#utility.yul\":9989:9995   */\n      dup5\n        /* \"#utility.yul\":9948:9996   */\n      tag_136\n      jump\t// in\n    tag_276:\n        /* \"#utility.yul\":9932:9997   */\n      tag_130\n      jump\t// in\n    tag_275:\n        /* \"#utility.yul\":9923:9997   */\n      swap1\n      pop\n        /* \"#utility.yul\":10020:10026   */\n      dup3\n        /* \"#utility.yul\":10013:10018   */\n      dup2\n        /* \"#utility.yul\":10006:10027   */\n      mstore\n        /* \"#utility.yul\":10058:10062   */\n      0x20\n        /* \"#utility.yul\":10051:10056   */\n      dup2\n        /* \"#utility.yul\":10047:10063   */\n      add\n        /* \"#utility.yul\":10096:10099   */\n      dup5\n        /* \"#utility.yul\":10087:10093   */\n      dup5\n        /* \"#utility.yul\":10082:10085   */\n      dup5\n        /* \"#utility.yul\":10078:10094   */\n      add\n        /* \"#utility.yul\":10075:10100   */\n      gt\n        /* \"#utility.yul\":10072:10184   */\n      iszero\n      tag_277\n      jumpi\n        /* \"#utility.yul\":10103:10182   */\n      tag_278\n      tag_135\n      jump\t// in\n    tag_278:\n        /* \"#utility.yul\":10072:10184   */\n    tag_277:\n        /* \"#utility.yul\":10193:10234   */\n      tag_279\n        /* \"#utility.yul\":10227:10233   */\n      dup5\n        /* \"#utility.yul\":10222:10225   */\n      dup3\n        /* \"#utility.yul\":10217:10220   */\n      dup6\n        /* \"#utility.yul\":10193:10234   */\n      tag_137\n      jump\t// in\n    tag_279:\n        /* \"#utility.yul\":9913:10240   */\n      pop\n        /* \"#utility.yul\":9830:10240   */\n      swap4\n      swap3\n      pop\n      pop\n      pop\n      jump\t// out\n        /* \"#utility.yul\":10259:10597   */\n    tag_139:\n        /* \"#utility.yul\":10314:10319   */\n      0x00\n        /* \"#utility.yul\":10363:10366   */\n      dup3\n        /* \"#utility.yul\":10356:10360   */\n      0x1f\n        /* \"#utility.yul\":10348:10354   */\n      dup4\n        /* \"#utility.yul\":10344:10361   */\n      add\n        /* \"#utility.yul\":10340:10367   */\n      slt\n        /* \"#utility.yul\":10330:10452   */\n      tag_281\n      jumpi\n        /* \"#utility.yul\":10371:10450   */\n      tag_282\n      tag_118\n      jump\t// in\n    tag_282:\n        /* \"#utility.yul\":10330:10452   */\n    tag_281:\n        /* \"#utility.yul\":10488:10494   */\n      dup2\n        /* \"#utility.yul\":10475:10495   */\n      calldataload\n        /* \"#utility.yul\":10513:10591   */\n      tag_283\n        /* \"#utility.yul\":10587:10590   */\n      dup5\n        /* \"#utility.yul\":10579:10585   */\n      dup3\n        /* \"#utility.yul\":10572:10576   */\n      0x20\n        /* \"#utility.yul\":10564:10570   */\n      dup7\n        /* \"#utility.yul\":10560:10577   */\n      add\n        /* \"#utility.yul\":10513:10591   */\n      tag_138\n      jump\t// in\n    tag_283:\n        /* \"#utility.yul\":10504:10591   */\n      swap2\n      pop\n        /* \"#utility.yul\":10320:10597   */\n      pop\n        /* \"#utility.yul\":10259:10597   */\n      swap3\n      swap2\n      pop\n      pop\n      jump\t// out\n        /* \"#utility.yul\":10618:11560   */\n    tag_140:\n        /* \"#utility.yul\":10723:10728   */\n      0x00\n        /* \"#utility.yul\":10748:10838   */\n      tag_285\n        /* \"#utility.yul\":10764:10837   */\n      tag_286\n        /* \"#utility.yul\":10830:10836   */\n      dup5\n        /* \"#utility.yul\":10764:10837   */\n      tag_134\n      jump\t// in\n    tag_286:\n        /* \"#utility.yul\":10748:10838   */\n      tag_130\n      jump\t// in\n    tag_285:\n        /* \"#utility.yul\":10739:10838   */\n      swap1\n      pop\n        /* \"#utility.yul\":10858:10863   */\n      dup1\n        /* \"#utility.yul\":10887:10893   */\n      dup4\n        /* \"#utility.yul\":10880:10885   */\n      dup3\n        /* \"#utility.yul\":10873:10894   */\n      mstore\n        /* \"#utility.yul\":10921:10925   */\n      0x20\n        /* \"#utility.yul\":10914:10919   */\n      dup3\n        /* \"#utility.yul\":10910:10926   */\n      add\n        /* \"#utility.yul\":10903:10926   */\n      swap1\n      pop\n        /* \"#utility.yul\":10974:10978   */\n      0x20\n        /* \"#utility.yul\":10966:10972   */\n      dup5\n        /* \"#utility.yul\":10962:10979   */\n      mul\n        /* \"#utility.yul\":10954:10960   */\n      dup4\n        /* \"#utility.yul\":10950:10980   */\n      add\n        /* \"#utility.yul\":11003:11006   */\n      dup6\n        /* \"#utility.yul\":10995:11001   */\n      dup2\n        /* \"#utility.yul\":10992:11007   */\n      gt\n        /* \"#utility.yul\":10989:11111   */\n      iszero\n      tag_287\n      jumpi\n        /* \"#utility.yul\":11022:11101   */\n      tag_288\n      tag_120\n      jump\t// in\n    tag_288:\n        /* \"#utility.yul\":10989:11111   */\n    tag_287:\n        /* \"#utility.yul\":11137:11143   */\n      dup4\n        /* \"#utility.yul\":11120:11554   */\n    tag_289:\n        /* \"#utility.yul\":11154:11160   */\n      dup2\n        /* \"#utility.yul\":11149:11152   */\n      dup2\n        /* \"#utility.yul\":11146:11161   */\n      lt\n        /* \"#utility.yul\":11120:11554   */\n      iszero\n      tag_291\n      jumpi\n        /* \"#utility.yul\":11243:11246   */\n      dup1\n        /* \"#utility.yul\":11230:11247   */\n      calldataload\n        /* \"#utility.yul\":11279:11297   */\n      0xffffffffffffffff\n        /* \"#utility.yul\":11266:11277   */\n      dup2\n        /* \"#utility.yul\":11263:11298   */\n      gt\n        /* \"#utility.yul\":11260:11382   */\n      iszero\n      tag_292\n      jumpi\n        /* \"#utility.yul\":11301:11380   */\n      tag_293\n      tag_118\n      jump\t// in\n    tag_293:\n        /* \"#utility.yul\":11260:11382   */\n    tag_292:\n        /* \"#utility.yul\":11425:11436   */\n      dup1\n        /* \"#utility.yul\":11417:11423   */\n      dup7\n        /* \"#utility.yul\":11413:11437   */\n      add\n        /* \"#utility.yul\":11463:11509   */\n      tag_294\n        /* \"#utility.yul\":11505:11508   */\n      dup10\n        /* \"#utility.yul\":11493:11503   */\n      dup3\n        /* \"#utility.yul\":11463:11509   */\n      tag_139\n      jump\t// in\n    tag_294:\n        /* \"#utility.yul\":11458:11461   */\n      dup6\n        /* \"#utility.yul\":11451:11510   */\n      mstore\n        /* \"#utility.yul\":11539:11543   */\n      0x20\n        /* \"#utility.yul\":11534:11537   */\n      dup6\n        /* \"#utility.yul\":11530:11544   */\n      add\n        /* \"#utility.yul\":11523:11544   */\n      swap5\n      pop\n        /* \"#utility.yul\":11196:11554   */\n      pop\n      pop\n        /* \"#utility.yul\":11180:11184   */\n      0x20\n        /* \"#utility.yul\":11175:11178   */\n      dup2\n        /* \"#utility.yul\":11171:11185   */\n      add\n        /* \"#utility.yul\":11164:11185   */\n      swap1\n      pop\n        /* \"#utility.yul\":11120:11554   */\n      jump(tag_289)\n    tag_291:\n        /* \"#utility.yul\":11124:11145   */\n      pop\n        /* \"#utility.yul\":10729:11560   */\n      pop\n      pop\n        /* \"#utility.yul\":10618:11560   */\n      swap4\n      swap3\n      pop\n      pop\n      pop\n      jump\t// out\n        /* \"#utility.yul\":11581:11969   */\n    tag_141:\n        /* \"#utility.yul\":11661:11666   */\n      0x00\n        /* \"#utility.yul\":11710:11713   */\n      dup3\n        /* \"#utility.yul\":11703:11707   */\n      0x1f\n        /* \"#utility.yul\":11695:11701   */\n      dup4\n        /* \"#utility.yul\":11691:11708   */\n      add\n        /* \"#utility.yul\":11687:11714   */\n      slt\n        /* \"#utility.yul\":11677:11799   */\n      tag_296\n      jumpi\n        /* \"#utility.yul\":11718:11797   */\n      tag_297\n      tag_118\n      jump\t// in\n    tag_297:\n        /* \"#utility.yul\":11677:11799   */\n    tag_296:\n        /* \"#utility.yul\":11835:11841   */\n      dup2\n        /* \"#utility.yul\":11822:11842   */\n      calldataload\n        /* \"#utility.yul\":11860:11963   */\n      tag_298\n        /* \"#utility.yul\":11959:11962   */\n      dup5\n        /* \"#utility.yul\":11951:11957   */\n      dup3\n        /* \"#utility.yul\":11944:11948   */\n      0x20\n        /* \"#utility.yul\":11936:11942   */\n      dup7\n        /* \"#utility.yul\":11932:11949   */\n      add\n        /* \"#utility.yul\":11860:11963   */\n      tag_140\n      jump\t// in\n    tag_298:\n        /* \"#utility.yul\":11851:11963   */\n      swap2\n      pop\n        /* \"#utility.yul\":11667:11969   */\n      pop\n        /* \"#utility.yul\":11581:11969   */\n      swap3\n      swap2\n      pop\n      pop\n      jump\t// out\n        /* \"#utility.yul\":11975:12887   */\n    tag_46:\n        /* \"#utility.yul\":12102:12108   */\n      0x00\n        /* \"#utility.yul\":12110:12116   */\n      dup1\n        /* \"#utility.yul\":12159:12161   */\n      0x40\n        /* \"#utility.yul\":12147:12156   */\n      dup4\n        /* \"#utility.yul\":12138:12145   */\n      dup6\n        /* \"#utility.yul\":12134:12157   */\n      sub\n        /* \"#utility.yul\":12130:12162   */\n      slt\n        /* \"#utility.yul\":12127:12246   */\n      iszero\n      tag_300\n      jumpi\n        /* \"#utility.yul\":12165:12244   */\n      tag_301\n      tag_110\n      jump\t// in\n    tag_301:\n        /* \"#utility.yul\":12127:12246   */\n    tag_300:\n        /* \"#utility.yul\":12313:12314   */\n      0x00\n        /* \"#utility.yul\":12302:12311   */\n      dup4\n        /* \"#utility.yul\":12298:12315   */\n      add\n        /* \"#utility.yul\":12285:12316   */\n      calldataload\n        /* \"#utility.yul\":12343:12361   */\n      0xffffffffffffffff\n        /* \"#utility.yul\":12335:12341   */\n      dup2\n        /* \"#utility.yul\":12332:12362   */\n      gt\n        /* \"#utility.yul\":12329:12446   */\n      iszero\n      tag_302\n      jumpi\n        /* \"#utility.yul\":12365:12444   */\n      tag_303\n      tag_111\n      jump\t// in\n    tag_303:\n        /* \"#utility.yul\":12329:12446   */\n    tag_302:\n        /* \"#utility.yul\":12470:12548   */\n      tag_304\n        /* \"#utility.yul\":12540:12547   */\n      dup6\n        /* \"#utility.yul\":12531:12537   */\n      dup3\n        /* \"#utility.yul\":12520:12529   */\n      dup7\n        /* \"#utility.yul\":12516:12538   */\n      add\n        /* \"#utility.yul\":12470:12548   */\n      tag_133\n      jump\t// in\n    tag_304:\n        /* \"#utility.yul\":12460:12548   */\n      swap3\n      pop\n        /* \"#utility.yul\":12256:12558   */\n      pop\n        /* \"#utility.yul\":12625:12627   */\n      0x20\n        /* \"#utility.yul\":12614:12623   */\n      dup4\n        /* \"#utility.yul\":12610:12628   */\n      add\n        /* \"#utility.yul\":12597:12629   */\n      calldataload\n        /* \"#utility.yul\":12656:12674   */\n      0xffffffffffffffff\n        /* \"#utility.yul\":12648:12654   */\n      dup2\n        /* \"#utility.yul\":12645:12675   */\n      gt\n        /* \"#utility.yul\":12642:12759   */\n      iszero\n      tag_305\n      jumpi\n        /* \"#utility.yul\":12678:12757   */\n      tag_306\n      tag_111\n      jump\t// in\n    tag_306:\n        /* \"#utility.yul\":12642:12759   */\n    tag_305:\n        /* \"#utility.yul\":12783:12870   */\n      tag_307\n        /* \"#utility.yul\":12862:12869   */\n      dup6\n        /* \"#utility.yul\":12853:12859   */\n      dup3\n        /* \"#utility.yul\":12842:12851   */\n      dup7\n        /* \"#utility.yul\":12838:12860   */\n      add\n        /* \"#utility.yul\":12783:12870   */\n      tag_141\n      jump\t// in\n    tag_307:\n        /* \"#utility.yul\":12773:12870   */\n      swap2\n      pop\n        /* \"#utility.yul\":12568:12880   */\n      pop\n        /* \"#utility.yul\":11975:12887   */\n      swap3\n      pop\n      swap3\n      swap1\n      pop\n      jump\t// out\n        /* \"#utility.yul\":12893:13062   */\n    tag_142:\n        /* \"#utility.yul\":12977:12988   */\n      0x00\n        /* \"#utility.yul\":13011:13017   */\n      dup3\n        /* \"#utility.yul\":13006:13009   */\n      dup3\n        /* \"#utility.yul\":12999:13018   */\n      mstore\n        /* \"#utility.yul\":13051:13055   */\n      0x20\n        /* \"#utility.yul\":13046:13049   */\n      dup3\n        /* \"#utility.yul\":13042:13056   */\n      add\n        /* \"#utility.yul\":13027:13056   */\n      swap1\n      pop\n        /* \"#utility.yul\":12893:13062   */\n      swap3\n      swap2\n      pop\n      pop\n      jump\t// out\n        /* \"#utility.yul\":13068:13231   */\n    tag_143:\n        /* \"#utility.yul\":13208:13223   */\n      0x496e76616c696420696e70757400000000000000000000000000000000000000\n        /* \"#utility.yul\":13204:13205   */\n      0x00\n        /* \"#utility.yul\":13196:13202   */\n      dup3\n        /* \"#utility.yul\":13192:13206   */\n      add\n        /* \"#utility.yul\":13185:13224   */\n      mstore\n        /* \"#utility.yul\":13068:13231   */\n      pop\n      jump\t// out\n        /* \"#utility.yul\":13237:13603   */\n    tag_144:\n        /* \"#utility.yul\":13379:13382   */\n      0x00\n        /* \"#utility.yul\":13400:13467   */\n      tag_311\n        /* \"#utility.yul\":13464:13466   */\n      0x0d\n        /* \"#utility.yul\":13459:13462   */\n      dup4\n        /* \"#utility.yul\":13400:13467   */\n      tag_142\n      jump\t// in\n    tag_311:\n        /* \"#utility.yul\":13393:13467   */\n      swap2\n      pop\n        /* \"#utility.yul\":13476:13569   */\n      tag_312\n        /* \"#utility.yul\":13565:13568   */\n      dup3\n        /* \"#utility.yul\":13476:13569   */\n      tag_143\n      jump\t// in\n    tag_312:\n        /* \"#utility.yul\":13594:13596   */\n      0x20\n        /* \"#utility.yul\":13589:13592   */\n      dup3\n        /* \"#utility.yul\":13585:13597   */\n      add\n        /* \"#utility.yul\":13578:13597   */\n      swap1\n      pop\n        /* \"#utility.yul\":13237:13603   */\n      swap2\n      swap1\n      pop\n      jump\t// out\n        /* \"#utility.yul\":13609:14028   */\n    tag_50:\n        /* \"#utility.yul\":13775:13779   */\n      0x00\n        /* \"#utility.yul\":13813:13815   */\n      0x20\n        /* \"#utility.yul\":13802:13811   */\n      dup3\n        /* \"#utility.yul\":13798:13816   */\n      add\n        /* \"#utility.yul\":13790:13816   */\n      swap1\n      pop\n        /* \"#utility.yul\":13862:13871   */\n      dup2\n        /* \"#utility.yul\":13856:13860   */\n      dup2\n        /* \"#utility.yul\":13852:13872   */\n      sub\n        /* \"#utility.yul\":13848:13849   */\n      0x00\n        /* \"#utility.yul\":13837:13846   */\n      dup4\n        /* \"#utility.yul\":13833:13850   */\n      add\n        /* \"#utility.yul\":13826:13873   */\n      mstore\n        /* \"#utility.yul\":13890:14021   */\n      tag_314\n        /* \"#utility.yul\":14016:14020   */\n      dup2\n        /* \"#utility.yul\":13890:14021   */\n      tag_144\n      jump\t// in\n    tag_314:\n        /* \"#utility.yul\":13882:14021   */\n      swap1\n      pop\n        /* \"#utility.yul\":13609:14028   */\n      swap2\n      swap1\n      pop\n      jump\t// out\n        /* \"#utility.yul\":14034:14214   */\n    tag_56:\n        /* \"#utility.yul\":14082:14159   */\n      0x4e487b7100000000000000000000000000000000000000000000000000000000\n        /* \"#utility.yul\":14079:14080   */\n      0x00\n        /* \"#utility.yul\":14072:14160   */\n      mstore\n        /* \"#utility.yul\":14179:14183   */\n      0x32\n        /* \"#utility.yul\":14176:14177   */\n      0x04\n        /* \"#utility.yul\":14169:14184   */\n      mstore\n        /* \"#utility.yul\":14203:14207   */\n      0x24\n        /* \"#utility.yul\":14200:14201   */\n      0x00\n        /* \"#utility.yul\":14193:14208   */\n      revert\n        /* \"#utility.yul\":14220:14318   */\n    tag_145:\n        /* \"#utility.yul\":14271:14277   */\n      0x00\n        /* \"#utility.yul\":14305:14310   */\n      dup2\n        /* \"#utility.yul\":14299:14311   */\n      mload\n        /* \"#utility.yul\":14289:14311   */\n      swap1\n      pop\n        /* \"#utility.yul\":14220:14318   */\n      swap2\n      swap1\n      pop\n      jump\t// out\n        /* \"#utility.yul\":14324:14471   */\n    tag_146:\n        /* \"#utility.yul\":14425:14436   */\n      0x00\n        /* \"#utility.yul\":14462:14465   */\n      dup2\n        /* \"#utility.yul\":14447:14465   */\n      swap1\n      pop\n        /* \"#utility.yul\":14324:14471   */\n      swap3\n      swap2\n      pop\n      pop\n      jump\t// out\n        /* \"#utility.yul\":14477:14784   */\n    tag_147:\n        /* \"#utility.yul\":14545:14546   */\n      0x00\n        /* \"#utility.yul\":14555:14668   */\n    tag_319:\n        /* \"#utility.yul\":14569:14575   */\n      dup4\n        /* \"#utility.yul\":14566:14567   */\n      dup2\n        /* \"#utility.yul\":14563:14576   */\n      lt\n        /* \"#utility.yul\":14555:14668   */\n      iszero\n      tag_321\n      jumpi\n        /* \"#utility.yul\":14654:14655   */\n      dup1\n        /* \"#utility.yul\":14649:14652   */\n      dup3\n        /* \"#utility.yul\":14645:14656   */\n      add\n        /* \"#utility.yul\":14639:14657   */\n      mload\n        /* \"#utility.yul\":14635:14636   */\n      dup2\n        /* \"#utility.yul\":14630:14633   */\n      dup5\n        /* \"#utility.yul\":14626:14637   */\n      add\n        /* \"#utility.yul\":14619:14658   */\n      mstore\n        /* \"#utility.yul\":14591:14593   */\n      0x20\n        /* \"#utility.yul\":14588:14589   */\n      dup2\n        /* \"#utility.yul\":14584:14594   */\n      add\n        /* \"#utility.yul\":14579:14594   */\n      swap1\n      pop\n        /* \"#utility.yul\":14555:14668   */\n      jump(tag_319)\n    tag_321:\n        /* \"#utility.yul\":14686:14692   */\n      dup4\n        /* \"#utility.yul\":14683:14684   */\n      dup2\n        /* \"#utility.yul\":14680:14693   */\n      gt\n        /* \"#utility.yul\":14677:14778   */\n      iszero\n      tag_322\n      jumpi\n        /* \"#utility.yul\":14766:14767   */\n      0x00\n        /* \"#utility.yul\":14757:14763   */\n      dup5\n        /* \"#utility.yul\":14752:14755   */\n      dup5\n        /* \"#utility.yul\":14748:14764   */\n      add\n        /* \"#utility.yul\":14741:14768   */\n      mstore\n        /* \"#utility.yul\":14677:14778   */\n    tag_322:\n        /* \"#utility.yul\":14526:14784   */\n      pop\n        /* \"#utility.yul\":14477:14784   */\n      pop\n      pop\n      pop\n      jump\t// out\n        /* \"#utility.yul\":14790:15163   */\n    tag_148:\n        /* \"#utility.yul\":14894:14897   */\n      0x00\n        /* \"#utility.yul\":14922:14960   */\n      tag_324\n        /* \"#utility.yul\":14954:14959   */\n      dup3\n        /* \"#utility.yul\":14922:14960   */\n      tag_145\n      jump\t// in\n    tag_324:\n        /* \"#utility.yul\":14976:15064   */\n      tag_325\n        /* \"#utility.yul\":15057:15063   */\n      dup2\n        /* \"#utility.yul\":15052:15055   */\n      dup6\n        /* \"#utility.yul\":14976:15064   */\n      tag_146\n      jump\t// in\n    tag_325:\n        /* \"#utility.yul\":14969:15064   */\n      swap4\n      pop\n        /* \"#utility.yul\":15073:15125   */\n      tag_326\n        /* \"#utility.yul\":15118:15124   */\n      dup2\n        /* \"#utility.yul\":15113:15116   */\n      dup6\n        /* \"#utility.yul\":15106:15110   */\n      0x20\n        /* \"#utility.yul\":15099:15104   */\n      dup7\n        /* \"#utility.yul\":15095:15111   */\n      add\n        /* \"#utility.yul\":15073:15125   */\n      tag_147\n      jump\t// in\n    tag_326:\n        /* \"#utility.yul\":15150:15156   */\n      dup1\n        /* \"#utility.yul\":15145:15148   */\n      dup5\n        /* \"#utility.yul\":15141:15157   */\n      add\n        /* \"#utility.yul\":15134:15157   */\n      swap2\n      pop\n        /* \"#utility.yul\":14898:15163   */\n      pop\n        /* \"#utility.yul\":14790:15163   */\n      swap3\n      swap2\n      pop\n      pop\n      jump\t// out\n        /* \"#utility.yul\":15169:15440   */\n    tag_60:\n        /* \"#utility.yul\":15299:15302   */\n      0x00\n        /* \"#utility.yul\":15321:15414   */\n      tag_328\n        /* \"#utility.yul\":15410:15413   */\n      dup3\n        /* \"#utility.yul\":15401:15407   */\n      dup5\n        /* \"#utility.yul\":15321:15414   */\n      tag_148\n      jump\t// in\n    tag_328:\n        /* \"#utility.yul\":15314:15414   */\n      swap2\n      pop\n        /* \"#utility.yul\":15431:15434   */\n      dup2\n        /* \"#utility.yul\":15424:15434   */\n      swap1\n      pop\n        /* \"#utility.yul\":15169:15440   */\n      swap3\n      swap2\n      pop\n      pop\n      jump\t// out\n        /* \"#utility.yul\":15446:15545   */\n    tag_149:\n        /* \"#utility.yul\":15498:15504   */\n      0x00\n        /* \"#utility.yul\":15532:15537   */\n      dup2\n        /* \"#utility.yul\":15526:15538   */\n      mload\n        /* \"#utility.yul\":15516:15538   */\n      swap1\n      pop\n        /* \"#utility.yul\":15446:15545   */\n      swap2\n      swap1\n      pop\n      jump\t// out\n        /* \"#utility.yul\":15551:15915   */\n    tag_150:\n        /* \"#utility.yul\":15639:15642   */\n      0x00\n        /* \"#utility.yul\":15667:15706   */\n      tag_331\n        /* \"#utility.yul\":15700:15705   */\n      dup3\n        /* \"#utility.yul\":15667:15706   */\n      tag_149\n      jump\t// in\n    tag_331:\n        /* \"#utility.yul\":15722:15793   */\n      tag_332\n        /* \"#utility.yul\":15786:15792   */\n      dup2\n        /* \"#utility.yul\":15781:15784   */\n      dup6\n        /* \"#utility.yul\":15722:15793   */\n      tag_142\n      jump\t// in\n    tag_332:\n        /* \"#utility.yul\":15715:15793   */\n      swap4\n      pop\n        /* \"#utility.yul\":15802:15854   */\n      tag_333\n        /* \"#utility.yul\":15847:15853   */\n      dup2\n        /* \"#utility.yul\":15842:15845   */\n      dup6\n        /* \"#utility.yul\":15835:15839   */\n      0x20\n        /* \"#utility.yul\":15828:15833   */\n      dup7\n        /* \"#utility.yul\":15824:15840   */\n      add\n        /* \"#utility.yul\":15802:15854   */\n      tag_147\n      jump\t// in\n    tag_333:\n        /* \"#utility.yul\":15879:15908   */\n      tag_334\n        /* \"#utility.yul\":15901:15907   */\n      dup2\n        /* \"#utility.yul\":15879:15908   */\n      tag_127\n      jump\t// in\n    tag_334:\n        /* \"#utility.yul\":15874:15877   */\n      dup5\n        /* \"#utility.yul\":15870:15909   */\n      add\n        /* \"#utility.yul\":15863:15909   */\n      swap2\n      pop\n        /* \"#utility.yul\":15643:15915   */\n      pop\n        /* \"#utility.yul\":15551:15915   */\n      swap3\n      swap2\n      pop\n      pop\n      jump\t// out\n        /* \"#utility.yul\":15921:16234   */\n    tag_66:\n        /* \"#utility.yul\":16034:16038   */\n      0x00\n        /* \"#utility.yul\":16072:16074   */\n      0x20\n        /* \"#utility.yul\":16061:16070   */\n      dup3\n        /* \"#utility.yul\":16057:16075   */\n      add\n        /* \"#utility.yul\":16049:16075   */\n      swap1\n      pop\n        /* \"#utility.yul\":16121:16130   */\n      dup2\n        /* \"#utility.yul\":16115:16119   */\n      dup2\n        /* \"#utility.yul\":16111:16131   */\n      sub\n        /* \"#utility.yul\":16107:16108   */\n      0x00\n        /* \"#utility.yul\":16096:16105   */\n      dup4\n        /* \"#utility.yul\":16092:16109   */\n      add\n        /* \"#utility.yul\":16085:16132   */\n      mstore\n        /* \"#utility.yul\":16149:16227   */\n      tag_336\n        /* \"#utility.yul\":16222:16226   */\n      dup2\n        /* \"#utility.yul\":16213:16219   */\n      dup5\n        /* \"#utility.yul\":16149:16227   */\n      tag_150\n      jump\t// in\n    tag_336:\n        /* \"#utility.yul\":16141:16227   */\n      swap1\n      pop\n        /* \"#utility.yul\":15921:16234   */\n      swap3\n      swap2\n      pop\n      pop\n      jump\t// out\n        /* \"#utility.yul\":16240:16420   */\n    tag_151:\n        /* \"#utility.yul\":16288:16365   */\n      0x4e487b7100000000000000000000000000000000000000000000000000000000\n        /* \"#utility.yul\":16285:16286   */\n      0x00\n        /* \"#utility.yul\":16278:16366   */\n      mstore\n        /* \"#utility.yul\":16385:16389   */\n      0x11\n        /* \"#utility.yul\":16382:16383   */\n      0x04\n        /* \"#utility.yul\":16375:16390   */\n      mstore\n        /* \"#utility.yul\":16409:16413   */\n      0x24\n        /* \"#utility.yul\":16406:16407   */\n      0x00\n        /* \"#utility.yul\":16399:16414   */\n      revert\n        /* \"#utility.yul\":16426:16659   */\n    tag_68:\n        /* \"#utility.yul\":16465:16468   */\n      0x00\n        /* \"#utility.yul\":16488:16512   */\n      tag_339\n        /* \"#utility.yul\":16506:16511   */\n      dup3\n        /* \"#utility.yul\":16488:16512   */\n      tag_115\n      jump\t// in\n    tag_339:\n        /* \"#utility.yul\":16479:16512   */\n      swap2\n      pop\n        /* \"#utility.yul\":16534:16600   */\n      0xffffffffffffffffffffffffffffffffffffffffffffffffffffffffffffffff\n        /* \"#utility.yul\":16527:16532   */\n      dup3\n        /* \"#utility.yul\":16524:16601   */\n      eq\n        /* \"#utility.yul\":16521:16624   */\n      iszero\n      tag_340\n      jumpi\n        /* \"#utility.yul\":16604:16622   */\n      tag_341\n      tag_151\n      jump\t// in\n    tag_341:\n        /* \"#utility.yul\":16521:16624   */\n    tag_340:\n        /* \"#utility.yul\":16651:16652   */\n      0x01\n        /* \"#utility.yul\":16644:16649   */\n      dup3\n        /* \"#utility.yul\":16640:16653   */\n      add\n        /* \"#utility.yul\":16633:16653   */\n      swap1\n      pop\n        /* \"#utility.yul\":16426:16659   */\n      swap2\n      swap1\n      pop\n      jump\t// out\n        /* \"#utility.yul\":16665:16970   */\n    tag_70:\n        /* \"#utility.yul\":16705:16708   */\n      0x00\n        /* \"#utility.yul\":16724:16744   */\n      tag_343\n        /* \"#utility.yul\":16742:16743   */\n      dup3\n        /* \"#utility.yul\":16724:16744   */\n      tag_115\n      jump\t// in\n    tag_343:\n        /* \"#utility.yul\":16719:16744   */\n      swap2\n      pop\n        /* \"#utility.yul\":16758:16778   */\n      tag_344\n        /* \"#utility.yul\":16776:16777   */\n      dup4\n        /* \"#utility.yul\":16758:16778   */\n      tag_115\n      jump\t// in\n    tag_344:\n        /* \"#utility.yul\":16753:16778   */\n      swap3\n      pop\n        /* \"#utility.yul\":16912:16913   */\n      dup3\n        /* \"#utility.yul\":16844:16910   */\n      0xffffffffffffffffffffffffffffffffffffffffffffffffffffffffffffffff\n        /* \"#utility.yul\":16840:16914   */\n      sub\n        /* \"#utility.yul\":16837:16838   */\n      dup3\n        /* \"#utility.yul\":16834:16915   */\n      gt\n        /* \"#utility.yul\":16831:16938   */\n      iszero\n      tag_345\n      jumpi\n        /* \"#utility.yul\":16918:16936   */\n      tag_346\n      tag_151\n      jump\t// in\n    tag_346:\n        /* \"#utility.yul\":16831:16938   */\n    tag_345:\n        /* \"#utility.yul\":16962:16963   */\n      dup3\n        /* \"#utility.yul\":16959:16960   */\n      dup3\n        /* \"#utility.yul\":16955:16964   */\n      add\n        /* \"#utility.yul\":16948:16964   */\n      swap1\n      pop\n        /* \"#utility.yul\":16665:16970   */\n      swap3\n      swap2\n      pop\n      pop\n      jump\t// out\n        /* \"#utility.yul\":16976:17094   */\n    tag_152:\n        /* \"#utility.yul\":17063:17087   */\n      tag_348\n        /* \"#utility.yul\":17081:17086   */\n      dup2\n        /* \"#utility.yul\":17063:17087   */\n      tag_112\n      jump\t// in\n    tag_348:\n        /* \"#utility.yul\":17058:17061   */\n      dup3\n        /* \"#utility.yul\":17051:17088   */\n      mstore\n        /* \"#utility.yul\":16976:17094   */\n      pop\n      pop\n      jump\t// out\n        /* \"#utility.yul\":17100:17432   */\n    tag_72:\n        /* \"#utility.yul\":17221:17225   */\n      0x00\n        /* \"#utility.yul\":17259:17261   */\n      0x40\n        /* \"#utility.yul\":17248:17257   */\n      dup3\n        /* \"#utility.yul\":17244:17262   */\n      add\n        /* \"#utility.yul\":17236:17262   */\n      swap1\n      pop\n        /* \"#utility.yul\":17272:17343   */\n      tag_350\n        /* \"#utility.yul\":17340:17341   */\n      0x00\n        /* \"#utility.yul\":17329:17338   */\n      dup4\n        /* \"#utility.yul\":17325:17342   */\n      add\n        /* \"#utility.yul\":17316:17322   */\n      dup6\n        /* \"#utility.yul\":17272:17343   */\n      tag_152\n      jump\t// in\n    tag_350:\n        /* \"#utility.yul\":17353:17425   */\n      tag_351\n        /* \"#utility.yul\":17421:17423   */\n      0x20\n        /* \"#utility.yul\":17410:17419   */\n      dup4\n        /* \"#utility.yul\":17406:17424   */\n      add\n        /* \"#utility.yul\":17397:17403   */\n      dup5\n        /* \"#utility.yul\":17353:17425   */\n      tag_126\n      jump\t// in\n    tag_351:\n        /* \"#utility.yul\":17100:17432   */\n      swap4\n      swap3\n      pop\n      pop\n      pop\n      jump\t// out\n        /* \"#utility.yul\":17438:17554   */\n    tag_153:\n        /* \"#utility.yul\":17508:17529   */\n      tag_353\n        /* \"#utility.yul\":17523:17528   */\n      dup2\n        /* \"#utility.yul\":17508:17529   */\n      tag_122\n      jump\t// in\n    tag_353:\n        /* \"#utility.yul\":17501:17506   */\n      dup2\n        /* \"#utility.yul\":17498:17530   */\n      eq\n        /* \"#utility.yul\":17488:17548   */\n      tag_354\n      jumpi\n        /* \"#utility.yul\":17544:17545   */\n      0x00\n        /* \"#utility.yul\":17541:17542   */\n      dup1\n        /* \"#utility.yul\":17534:17546   */\n      revert\n        /* \"#utility.yul\":17488:17548   */\n    tag_354:\n        /* \"#utility.yul\":17438:17554   */\n      pop\n      jump\t// out\n        /* \"#utility.yul\":17560:17697   */\n    tag_154:\n        /* \"#utility.yul\":17614:17619   */\n      0x00\n        /* \"#utility.yul\":17645:17651   */\n      dup2\n        /* \"#utility.yul\":17639:17652   */\n      mload\n        /* \"#utility.yul\":17630:17652   */\n      swap1\n      pop\n        /* \"#utility.yul\":17661:17691   */\n      tag_356\n        /* \"#utility.yul\":17685:17690   */\n      dup2\n        /* \"#utility.yul\":17661:17691   */\n      tag_153\n      jump\t// in\n    tag_356:\n        /* \"#utility.yul\":17560:17697   */\n      swap3\n      swap2\n      pop\n      pop\n      jump\t// out\n        /* \"#utility.yul\":17703:18048   */\n    tag_76:\n        /* \"#utility.yul\":17770:17776   */\n      0x00\n        /* \"#utility.yul\":17819:17821   */\n      0x20\n        /* \"#utility.yul\":17807:17816   */\n      dup3\n        /* \"#utility.yul\":17798:17805   */\n      dup5\n        /* \"#utility.yul\":17794:17817   */\n      sub\n        /* \"#utility.yul\":17790:17822   */\n      slt\n        /* \"#utility.yul\":17787:17906   */\n      iszero\n      tag_358\n      jumpi\n        /* \"#utility.yul\":17825:17904   */\n      tag_359\n      tag_110\n      jump\t// in\n    tag_359:\n        /* \"#utility.yul\":17787:17906   */\n    tag_358:\n        /* \"#utility.yul\":17945:17946   */\n      0x00\n        /* \"#utility.yul\":17970:18031   */\n      tag_360\n        /* \"#utility.yul\":18023:18030   */\n      dup5\n        /* \"#utility.yul\":18014:18020   */\n      dup3\n        /* \"#utility.yul\":18003:18012   */\n      dup6\n        /* \"#utility.yul\":17999:18021   */\n      add\n        /* \"#utility.yul\":17970:18031   */\n      tag_154\n      jump\t// in\n    tag_360:\n        /* \"#utility.yul\":17960:18031   */\n      swap2\n      pop\n        /* \"#utility.yul\":17916:18041   */\n      pop\n        /* \"#utility.yul\":17703:18048   */\n      swap3\n      swap2\n      pop\n      pop\n      jump\t// out\n        /* \"#utility.yul\":18054:18222   */\n    tag_155:\n        /* \"#utility.yul\":18137:18148   */\n      0x00\n        /* \"#utility.yul\":18171:18177   */\n      dup3\n        /* \"#utility.yul\":18166:18169   */\n      dup3\n        /* \"#utility.yul\":18159:18178   */\n      mstore\n        /* \"#utility.yul\":18211:18215   */\n      0x20\n        /* \"#utility.yul\":18206:18209   */\n      dup3\n        /* \"#utility.yul\":18202:18216   */\n      add\n        /* \"#utility.yul\":18187:18216   */\n      swap1\n      pop\n        /* \"#utility.yul\":18054:18222   */\n      swap3\n      swap2\n      pop\n      pop\n      jump\t// out\n        /* \"#utility.yul\":18250:18551   */\n    tag_156:\n        /* \"#utility.yul\":18346:18349   */\n      0x00\n        /* \"#utility.yul\":18367:18437   */\n      tag_363\n        /* \"#utility.yul\":18430:18436   */\n      dup4\n        /* \"#utility.yul\":18425:18428   */\n      dup6\n        /* \"#utility.yul\":18367:18437   */\n      tag_155\n      jump\t// in\n    tag_363:\n        /* \"#utility.yul\":18360:18437   */\n      swap4\n      pop\n        /* \"#utility.yul\":18447:18490   */\n      tag_364\n        /* \"#utility.yul\":18483:18489   */\n      dup4\n        /* \"#utility.yul\":18478:18481   */\n      dup6\n        /* \"#utility.yul\":18471:18476   */\n      dup5\n        /* \"#utility.yul\":18447:18490   */\n      tag_137\n      jump\t// in\n    tag_364:\n        /* \"#utility.yul\":18515:18544   */\n      tag_365\n        /* \"#utility.yul\":18537:18543   */\n      dup4\n        /* \"#utility.yul\":18515:18544   */\n      tag_127\n      jump\t// in\n    tag_365:\n        /* \"#utility.yul\":18510:18513   */\n      dup5\n        /* \"#utility.yul\":18506:18545   */\n      add\n        /* \"#utility.yul\":18499:18545   */\n      swap1\n      pop\n        /* \"#utility.yul\":18250:18551   */\n      swap4\n      swap3\n      pop\n      pop\n      pop\n      jump\t// out\n        /* \"#utility.yul\":18557:18646   */\n    tag_157:\n        /* \"#utility.yul\":18593:18600   */\n      0x00\n        /* \"#utility.yul\":18633:18639   */\n      0xffff\n        /* \"#utility.yul\":18626:18631   */\n      dup3\n        /* \"#utility.yul\":18622:18640   */\n      and\n        /* \"#utility.yul\":18611:18640   */\n      swap1\n      pop\n        /* \"#utility.yul\":18557:18646   */\n      swap2\n      swap1\n      pop\n      jump\t// out\n        /* \"#utility.yul\":18652:18767   */\n    tag_158:\n        /* \"#utility.yul\":18737:18760   */\n      tag_368\n        /* \"#utility.yul\":18754:18759   */\n      dup2\n        /* \"#utility.yul\":18737:18760   */\n      tag_157\n      jump\t// in\n    tag_368:\n        /* \"#utility.yul\":18732:18735   */\n      dup3\n        /* \"#utility.yul\":18725:18761   */\n      mstore\n        /* \"#utility.yul\":18652:18767   */\n      pop\n      pop\n      jump\t// out\n        /* \"#utility.yul\":18773:19540   */\n    tag_79:\n        /* \"#utility.yul\":19004:19008   */\n      0x00\n        /* \"#utility.yul\":19042:19045   */\n      0xa0\n        /* \"#utility.yul\":19031:19040   */\n      dup3\n        /* \"#utility.yul\":19027:19046   */\n      add\n        /* \"#utility.yul\":19019:19046   */\n      swap1\n      pop\n        /* \"#utility.yul\":19056:19127   */\n      tag_370\n        /* \"#utility.yul\":19124:19125   */\n      0x00\n        /* \"#utility.yul\":19113:19122   */\n      dup4\n        /* \"#utility.yul\":19109:19126   */\n      add\n        /* \"#utility.yul\":19100:19106   */\n      dup10\n        /* \"#utility.yul\":19056:19127   */\n      tag_152\n      jump\t// in\n    tag_370:\n        /* \"#utility.yul\":19137:19209   */\n      tag_371\n        /* \"#utility.yul\":19205:19207   */\n      0x20\n        /* \"#utility.yul\":19194:19203   */\n      dup4\n        /* \"#utility.yul\":19190:19208   */\n      add\n        /* \"#utility.yul\":19181:19187   */\n      dup9\n        /* \"#utility.yul\":19137:19209   */\n      tag_152\n      jump\t// in\n    tag_371:\n        /* \"#utility.yul\":19219:19291   */\n      tag_372\n        /* \"#utility.yul\":19287:19289   */\n      0x40\n        /* \"#utility.yul\":19276:19285   */\n      dup4\n        /* \"#utility.yul\":19272:19290   */\n      add\n        /* \"#utility.yul\":19263:19269   */\n      dup8\n        /* \"#utility.yul\":19219:19291   */\n      tag_126\n      jump\t// in\n    tag_372:\n        /* \"#utility.yul\":19338:19347   */\n      dup2\n        /* \"#utility.yul\":19332:19336   */\n      dup2\n        /* \"#utility.yul\":19328:19348   */\n      sub\n        /* \"#utility.yul\":19323:19325   */\n      0x60\n        /* \"#utility.yul\":19312:19321   */\n      dup4\n        /* \"#utility.yul\":19308:19326   */\n      add\n        /* \"#utility.yul\":19301:19349   */\n      mstore\n        /* \"#utility.yul\":19366:19452   */\n      tag_373\n        /* \"#utility.yul\":19447:19451   */\n      dup2\n        /* \"#utility.yul\":19438:19444   */\n      dup6\n        /* \"#utility.yul\":19430:19436   */\n      dup8\n        /* \"#utility.yul\":19366:19452   */\n      tag_156\n      jump\t// in\n    tag_373:\n        /* \"#utility.yul\":19358:19452   */\n      swap1\n      pop\n        /* \"#utility.yul\":19462:19533   */\n      tag_374\n        /* \"#utility.yul\":19528:19531   */\n      0x80\n        /* \"#utility.yul\":19517:19526   */\n      dup4\n        /* \"#utility.yul\":19513:19532   */\n      add\n        /* \"#utility.yul\":19504:19510   */\n      dup5\n        /* \"#utility.yul\":19462:19533   */\n      tag_158\n      jump\t// in\n    tag_374:\n        /* \"#utility.yul\":18773:19540   */\n      swap8\n      swap7\n      pop\n      pop\n      pop\n      pop\n      pop\n      pop\n      pop\n      jump\t// out\n        /* \"#utility.yul\":19546:19717   */\n    tag_159:\n        /* \"#utility.yul\":19686:19709   */\n      0x596f7520617265206e6f7420746865206f776e65720000000000000000000000\n        /* \"#utility.yul\":19682:19683   */\n      0x00\n        /* \"#utility.yul\":19674:19680   */\n      dup3\n        /* \"#utility.yul\":19670:19684   */\n      add\n        /* \"#utility.yul\":19663:19710   */\n      mstore\n        /* \"#utility.yul\":19546:19717   */\n      pop\n      jump\t// out\n        /* \"#utility.yul\":19723:20089   */\n    tag_160:\n        /* \"#utility.yul\":19865:19868   */\n      0x00\n        /* \"#utility.yul\":19886:19953   */\n      tag_377\n        /* \"#utility.yul\":19950:19952   */\n      0x15\n        /* \"#utility.yul\":19945:19948   */\n      dup4\n        /* \"#utility.yul\":19886:19953   */\n      tag_142\n      jump\t// in\n    tag_377:\n        /* \"#utility.yul\":19879:19953   */\n      swap2\n      pop\n        /* \"#utility.yul\":19962:20055   */\n      tag_378\n        /* \"#utility.yul\":20051:20054   */\n      dup3\n        /* \"#utility.yul\":19962:20055   */\n      tag_159\n      jump\t// in\n    tag_378:\n        /* \"#utility.yul\":20080:20082   */\n      0x20\n        /* \"#utility.yul\":20075:20078   */\n      dup3\n        /* \"#utility.yul\":20071:20083   */\n      add\n        /* \"#utility.yul\":20064:20083   */\n      swap1\n      pop\n        /* \"#utility.yul\":19723:20089   */\n      swap2\n      swap1\n      pop\n      jump\t// out\n        /* \"#utility.yul\":20095:20514   */\n    tag_86:\n        /* \"#utility.yul\":20261:20265   */\n      0x00\n        /* \"#utility.yul\":20299:20301   */\n      0x20\n        /* \"#utility.yul\":20288:20297   */\n      dup3\n        /* \"#utility.yul\":20284:20302   */\n      add\n        /* \"#utility.yul\":20276:20302   */\n      swap1\n      pop\n        /* \"#utility.yul\":20348:20357   */\n      dup2\n        /* \"#utility.yul\":20342:20346   */\n      dup2\n        /* \"#utility.yul\":20338:20358   */\n      sub\n        /* \"#utility.yul\":20334:20335   */\n      0x00\n        /* \"#utility.yul\":20323:20332   */\n      dup4\n        /* \"#utility.yul\":20319:20336   */\n      add\n        /* \"#utility.yul\":20312:20359   */\n      mstore\n        /* \"#utility.yul\":20376:20507   */\n      tag_380\n        /* \"#utility.yul\":20502:20506   */\n      dup2\n        /* \"#utility.yul\":20376:20507   */\n      tag_160\n      jump\t// in\n    tag_380:\n        /* \"#utility.yul\":20368:20507   */\n      swap1\n      pop\n        /* \"#utility.yul\":20095:20514   */\n      swap2\n      swap1\n      pop\n      jump\t// out\n        /* \"#utility.yul\":20520:20742   */\n    tag_89:\n        /* \"#utility.yul\":20613:20617   */\n      0x00\n        /* \"#utility.yul\":20651:20653   */\n      0x20\n        /* \"#utility.yul\":20640:20649   */\n      dup3\n        /* \"#utility.yul\":20636:20654   */\n      add\n        /* \"#utility.yul\":20628:20654   */\n      swap1\n      pop\n        /* \"#utility.yul\":20664:20735   */\n      tag_382\n        /* \"#utility.yul\":20732:20733   */\n      0x00\n        /* \"#utility.yul\":20721:20730   */\n      dup4\n        /* \"#utility.yul\":20717:20734   */\n      add\n        /* \"#utility.yul\":20708:20714   */\n      dup5\n        /* \"#utility.yul\":20664:20735   */\n      tag_152\n      jump\t// in\n    tag_382:\n        /* \"#utility.yul\":20520:20742   */\n      swap3\n      swap2\n      pop\n      pop\n      jump\t// out\n        /* \"#utility.yul\":20748:20891   */\n    tag_161:\n        /* \"#utility.yul\":20805:20810   */\n      0x00\n        /* \"#utility.yul\":20836:20842   */\n      dup2\n        /* \"#utility.yul\":20830:20843   */\n      mload\n        /* \"#utility.yul\":20821:20843   */\n      swap1\n      pop\n        /* \"#utility.yul\":20852:20885   */\n      tag_384\n        /* \"#utility.yul\":20879:20884   */\n      dup2\n        /* \"#utility.yul\":20852:20885   */\n      tag_116\n      jump\t// in\n    tag_384:\n        /* \"#utility.yul\":20748:20891   */\n      swap3\n      swap2\n      pop\n      pop\n      jump\t// out\n        /* \"#utility.yul\":20897:21248   */\n    tag_93:\n        /* \"#utility.yul\":20967:20973   */\n      0x00\n        /* \"#utility.yul\":21016:21018   */\n      0x20\n        /* \"#utility.yul\":21004:21013   */\n      dup3\n        /* \"#utility.yul\":20995:21002   */\n      dup5\n        /* \"#utility.yul\":20991:21014   */\n      sub\n        /* \"#utility.yul\":20987:21019   */\n      slt\n        /* \"#utility.yul\":20984:21103   */\n      iszero\n      tag_386\n      jumpi\n        /* \"#utility.yul\":21022:21101   */\n      tag_387\n      tag_110\n      jump\t// in\n    tag_387:\n        /* \"#utility.yul\":20984:21103   */\n    tag_386:\n        /* \"#utility.yul\":21142:21143   */\n      0x00\n        /* \"#utility.yul\":21167:21231   */\n      tag_388\n        /* \"#utility.yul\":21223:21230   */\n      dup5\n        /* \"#utility.yul\":21214:21220   */\n      dup3\n        /* \"#utility.yul\":21203:21212   */\n      dup6\n        /* \"#utility.yul\":21199:21221   */\n      add\n        /* \"#utility.yul\":21167:21231   */\n      tag_161\n      jump\t// in\n    tag_388:\n        /* \"#utility.yul\":21157:21231   */\n      swap2\n      pop\n        /* \"#utility.yul\":21113:21241   */\n      pop\n        /* \"#utility.yul\":20897:21248   */\n      swap3\n      swap2\n      pop\n      pop\n      jump\t// out\n\n    auxdata: 0xa26469706673582212204e2aed824abf3c5f328e8c372a0417f70f600d9e2315371d85fbeca33a4448a064736f6c634300080a0033\n}\n",
				"bytecode": {
					"linkReferences": {},
					"object": "60c06040523480156200001157600080fd5b5060405162001461380380620014618339818101604052810190620000379190620001c3565b808073ffffffffffffffffffffffffffffffffffffffff1660808173ffffffffffffffffffffffffffffffffffffffff16815250508073ffffffffffffffffffffffffffffffffffffffff1663026b1d5f6040518163ffffffff1660e01b8152600401602060405180830381865afa158015620000b8573d6000803e3d6000fd5b505050506040513d601f19601f82011682018060405250810190620000de9190620001c3565b73ffffffffffffffffffffffffffffffffffffffff1660a08173ffffffffffffffffffffffffffffffffffffffff168152505050336000806101000a81548173ffffffffffffffffffffffffffffffffffffffff021916908373ffffffffffffffffffffffffffffffffffffffff16021790555050620001f5565b600080fd5b600073ffffffffffffffffffffffffffffffffffffffff82169050919050565b60006200018b826200015e565b9050919050565b6200019d816200017e565b8114620001a957600080fd5b50565b600081519050620001bd8162000192565b92915050565b600060208284031215620001dc57620001db62000159565b5b6000620001ec84828501620001ac565b91505092915050565b60805160a051611238620002296000396000818161034d015281816103f201526106200152600061018901526112386000f3fe6080604052600436106100595760003560e01c80630542975c146100655780631b11d0ff146100905780635107d61e146100cd57806351cff8d9146100f65780637535d2461461011f578063f8b2cb4f1461014a57610060565b3661006057005b600080fd5b34801561007157600080fd5b5061007a610187565b6040516100879190610744565b60405180910390f35b34801561009c57600080fd5b506100b760048036038101906100b2919061084c565b6101ab565b6040516100c49190610901565b60405180910390f35b3480156100d957600080fd5b506100f460048036038101906100ef919061091c565b6103df565b005b34801561010257600080fd5b5061011d60048036038101906101189190610990565b61048f565b005b34801561012b57600080fd5b5061013461061e565b60405161014191906109de565b60405180910390f35b34801561015657600080fd5b50610171600480360381019061016c9190610990565b610642565b60405161017e9190610a08565b60405180910390f35b7f000000000000000000000000000000000000000000000000000000000000000081565b600080600084848101906101bf9190610d08565b91509150600082511180156101d5575080518251145b610214576040517f08c379a000000000000000000000000000000000000000000000000000000000815260040161020b90610ddd565b60405180910390fd5b60005b825181101561031e5760008084838151811061023657610235610dfd565b5b602002602001015173ffffffffffffffffffffffffffffffffffffffff165a85858151811061026857610267610dfd565b5b602002602001015160405161027d9190610ea6565b60006040518083038160008787f1925050503d80600081146102bb576040519150601f19603f3d011682016040523d82523d6000602084013e6102c0565b606091505b5091509150818190610308576040517f08c379a00000000000000000000000000000000000000000000000000000000081526004016102ff9190610f01565b60405180910390fd5b505050808061031690610f52565b915050610217565b506000878961032d9190610f9b565b90508973ffffffffffffffffffffffffffffffffffffffff1663095ea7b37f0000000000000000000000000000000000000000000000000000000000000000836040518363ffffffff1660e01b815260040161038a929190611000565b6020604051808303816000875af11580156103a9573d6000803e3d6000fd5b505050506040513d601f19601f820116820180604052508101906103cd9190611055565b50600193505050509695505050505050565b60003090506000859050600085905060007f000000000000000000000000000000000000000000000000000000000000000073ffffffffffffffffffffffffffffffffffffffff166342b0b77c8585858a8a876040518763ffffffff1660e01b8152600401610453969594939291906110dd565b600060405180830381600087803b15801561046d57600080fd5b505af1158015610481573d6000803e3d6000fd5b505050505050505050505050565b60008054906101000a900473ffffffffffffffffffffffffffffffffffffffff1673ffffffffffffffffffffffffffffffffffffffff163373ffffffffffffffffffffffffffffffffffffffff161461051d576040517f08c379a000000000000000000000000000000000000000000000000000000000815260040161051490611185565b60405180910390fd5b60008190508073ffffffffffffffffffffffffffffffffffffffff1663a9059cbb338373ffffffffffffffffffffffffffffffffffffffff166370a08231306040518263ffffffff1660e01b815260040161057891906111a5565b602060405180830381865afa158015610595573d6000803e3d6000fd5b505050506040513d601f19601f820116820180604052508101906105b991906111d5565b6040518363ffffffff1660e01b81526004016105d6929190611000565b6020604051808303816000875af11580156105f5573d6000803e3d6000fd5b505050506040513d601f19601f820116820180604052508101906106199190611055565b505050565b7f000000000000000000000000000000000000000000000000000000000000000081565b60008173ffffffffffffffffffffffffffffffffffffffff166370a08231306040518263ffffffff1660e01b815260040161067d91906111a5565b602060405180830381865afa15801561069a573d6000803e3d6000fd5b505050506040513d601f19601f820116820180604052508101906106be91906111d5565b9050919050565b600073ffffffffffffffffffffffffffffffffffffffff82169050919050565b6000819050919050565b600061070a610705610700846106c5565b6106e5565b6106c5565b9050919050565b600061071c826106ef565b9050919050565b600061072e82610711565b9050919050565b61073e81610723565b82525050565b60006020820190506107596000830184610735565b92915050565b6000604051905090565b600080fd5b600080fd5b600061077e826106c5565b9050919050565b61078e81610773565b811461079957600080fd5b50565b6000813590506107ab81610785565b92915050565b6000819050919050565b6107c4816107b1565b81146107cf57600080fd5b50565b6000813590506107e1816107bb565b92915050565b600080fd5b600080fd5b600080fd5b60008083601f84011261080c5761080b6107e7565b5b8235905067ffffffffffffffff811115610829576108286107ec565b5b602083019150836001820283011115610845576108446107f1565b5b9250929050565b60008060008060008060a0878903121561086957610868610769565b5b600061087789828a0161079c565b965050602061088889828a016107d2565b955050604061089989828a016107d2565b94505060606108aa89828a0161079c565b935050608087013567ffffffffffffffff8111156108cb576108ca61076e565b5b6108d789828a016107f6565b92509250509295509295509295565b60008115159050919050565b6108fb816108e6565b82525050565b600060208201905061091660008301846108f2565b92915050565b6000806000806060858703121561093657610935610769565b5b60006109448782880161079c565b9450506020610955878288016107d2565b935050604085013567ffffffffffffffff8111156109765761097561076e565b5b610982878288016107f6565b925092505092959194509250565b6000602082840312156109a6576109a5610769565b5b60006109b48482850161079c565b91505092915050565b60006109c882610711565b9050919050565b6109d8816109bd565b82525050565b60006020820190506109f360008301846109cf565b92915050565b610a02816107b1565b82525050565b6000602082019050610a1d60008301846109f9565b92915050565b6000601f19601f8301169050919050565b7f4e487b7100000000000000000000000000000000000000000000000000000000600052604160045260246000fd5b610a6c82610a23565b810181811067ffffffffffffffff82111715610a8b57610a8a610a34565b5b80604052505050565b6000610a9e61075f565b9050610aaa8282610a63565b919050565b600067ffffffffffffffff821115610aca57610ac9610a34565b5b602082029050602081019050919050565b6000610aee610ae984610aaf565b610a94565b90508083825260208201905060208402830185811115610b1157610b106107f1565b5b835b81811015610b3a5780610b26888261079c565b845260208401935050602081019050610b13565b5050509392505050565b600082601f830112610b5957610b586107e7565b5b8135610b69848260208601610adb565b91505092915050565b600067ffffffffffffffff821115610b8d57610b8c610a34565b5b602082029050602081019050919050565b600080fd5b600067ffffffffffffffff821115610bbe57610bbd610a34565b5b610bc782610a23565b9050602081019050919050565b82818337600083830152505050565b6000610bf6610bf184610ba3565b610a94565b905082815260208101848484011115610c1257610c11610b9e565b5b610c1d848285610bd4565b509392505050565b600082601f830112610c3a57610c396107e7565b5b8135610c4a848260208601610be3565b91505092915050565b6000610c66610c6184610b72565b610a94565b90508083825260208201905060208402830185811115610c8957610c886107f1565b5b835b81811015610cd057803567ffffffffffffffff811115610cae57610cad6107e7565b5b808601610cbb8982610c25565b85526020850194505050602081019050610c8b565b5050509392505050565b600082601f830112610cef57610cee6107e7565b5b8135610cff848260208601610c53565b91505092915050565b60008060408385031215610d1f57610d1e610769565b5b600083013567ffffffffffffffff811115610d3d57610d3c61076e565b5b610d4985828601610b44565b925050602083013567ffffffffffffffff811115610d6a57610d6961076e565b5b610d7685828601610cda565b9150509250929050565b600082825260208201905092915050565b7f496e76616c696420696e70757400000000000000000000000000000000000000600082015250565b6000610dc7600d83610d80565b9150610dd282610d91565b602082019050919050565b60006020820190508181036000830152610df681610dba565b9050919050565b7f4e487b7100000000000000000000000000000000000000000000000000000000600052603260045260246000fd5b600081519050919050565b600081905092915050565b60005b83811015610e60578082015181840152602081019050610e45565b83811115610e6f576000848401525b50505050565b6000610e8082610e2c565b610e8a8185610e37565b9350610e9a818560208601610e42565b80840191505092915050565b6000610eb28284610e75565b915081905092915050565b600081519050919050565b6000610ed382610ebd565b610edd8185610d80565b9350610eed818560208601610e42565b610ef681610a23565b840191505092915050565b60006020820190508181036000830152610f1b8184610ec8565b905092915050565b7f4e487b7100000000000000000000000000000000000000000000000000000000600052601160045260246000fd5b6000610f5d826107b1565b91507fffffffffffffffffffffffffffffffffffffffffffffffffffffffffffffffff821415610f9057610f8f610f23565b5b600182019050919050565b6000610fa6826107b1565b9150610fb1836107b1565b9250827fffffffffffffffffffffffffffffffffffffffffffffffffffffffffffffffff03821115610fe657610fe5610f23565b5b828201905092915050565b610ffa81610773565b82525050565b60006040820190506110156000830185610ff1565b61102260208301846109f9565b9392505050565b611032816108e6565b811461103d57600080fd5b50565b60008151905061104f81611029565b92915050565b60006020828403121561106b5761106a610769565b5b600061107984828501611040565b91505092915050565b600082825260208201905092915050565b600061109f8385611082565b93506110ac838584610bd4565b6110b583610a23565b840190509392505050565b600061ffff82169050919050565b6110d7816110c0565b82525050565b600060a0820190506110f26000830189610ff1565b6110ff6020830188610ff1565b61110c60408301876109f9565b818103606083015261111f818587611093565b905061112e60808301846110ce565b979650505050505050565b7f596f7520617265206e6f7420746865206f776e65720000000000000000000000600082015250565b600061116f601583610d80565b915061117a82611139565b602082019050919050565b6000602082019050818103600083015261119e81611162565b9050919050565b60006020820190506111ba6000830184610ff1565b92915050565b6000815190506111cf816107bb565b92915050565b6000602082840312156111eb576111ea610769565b5b60006111f9848285016111c0565b9150509291505056fea26469706673582212204e2aed824abf3c5f328e8c372a0417f70f600d9e2315371d85fbeca33a4448a064736f6c634300080a0033",
					"opcodes": "PUSH1 0xC0 PUSH1 0x40 MSTORE CALLVALUE DUP1 ISZERO PUSH3 0x11 JUMPI PUSH1 0x0 DUP1 REVERT JUMPDEST POP PUSH1 0x40 MLOAD PUSH3 0x1461 CODESIZE SUB DUP1 PUSH3 0x1461 DUP4 CODECOPY DUP2 DUP2 ADD PUSH1 0x40 MSTORE DUP2 ADD SWAP1 PUSH3 0x37 SWAP2 SWAP1 PUSH3 0x1C3 JUMP JUMPDEST DUP1 DUP1 PUSH20 0xFFFFFFFFFFFFFFFFFFFFFFFFFFFFFFFFFFFFFFFF AND PUSH1 0x80 DUP2 PUSH20 0xFFFFFFFFFFFFFFFFFFFFFFFFFFFFFFFFFFFFFFFF AND DUP2 MSTORE POP POP DUP1 PUSH20 0xFFFFFFFFFFFFFFFFFFFFFFFFFFFFFFFFFFFFFFFF AND PUSH4 0x26B1D5F PUSH1 0x40 MLOAD DUP2 PUSH4 0xFFFFFFFF AND PUSH1 0xE0 SHL DUP2 MSTORE PUSH1 0x4 ADD PUSH1 0x20 PUSH1 0x40 MLOAD DUP1 DUP4 SUB DUP2 DUP7 GAS STATICCALL ISZERO DUP1 ISZERO PUSH3 0xB8 JUMPI RETURNDATASIZE PUSH1 0x0 DUP1 RETURNDATACOPY RETURNDATASIZE PUSH1 0x0 REVERT JUMPDEST POP POP POP POP PUSH1 0x40 MLOAD RETURNDATASIZE PUSH1 0x1F NOT PUSH1 0x1F DUP3 ADD AND DUP3 ADD DUP1 PUSH1 0x40 MSTORE POP DUP2 ADD SWAP1 PUSH3 0xDE SWAP2 SWAP1 PUSH3 0x1C3 JUMP JUMPDEST PUSH20 0xFFFFFFFFFFFFFFFFFFFFFFFFFFFFFFFFFFFFFFFF AND PUSH1 0xA0 DUP2 PUSH20 0xFFFFFFFFFFFFFFFFFFFFFFFFFFFFFFFFFFFFFFFF AND DUP2 MSTORE POP POP POP CALLER PUSH1 0x0 DUP1 PUSH2 0x100 EXP DUP2 SLOAD DUP2 PUSH20 0xFFFFFFFFFFFFFFFFFFFFFFFFFFFFFFFFFFFFFFFF MUL NOT AND SWAP1 DUP4 PUSH20 0xFFFFFFFFFFFFFFFFFFFFFFFFFFFFFFFFFFFFFFFF AND MUL OR SWAP1 SSTORE POP POP PUSH3 0x1F5 JUMP JUMPDEST PUSH1 0x0 DUP1 REVERT JUMPDEST PUSH1 0x0 PUSH20 0xFFFFFFFFFFFFFFFFFFFFFFFFFFFFFFFFFFFFFFFF DUP3 AND SWAP1 POP SWAP2 SWAP1 POP JUMP JUMPDEST PUSH1 0x0 PUSH3 0x18B DUP3 PUSH3 0x15E JUMP JUMPDEST SWAP1 POP SWAP2 SWAP1 POP JUMP JUMPDEST PUSH3 0x19D DUP2 PUSH3 0x17E JUMP JUMPDEST DUP2 EQ PUSH3 0x1A9 JUMPI PUSH1 0x0 DUP1 REVERT JUMPDEST POP JUMP JUMPDEST PUSH1 0x0 DUP2 MLOAD SWAP1 POP PUSH3 0x1BD DUP2 PUSH3 0x192 JUMP JUMPDEST SWAP3 SWAP2 POP POP JUMP JUMPDEST PUSH1 0x0 PUSH1 0x20 DUP3 DUP5 SUB SLT ISZERO PUSH3 0x1DC JUMPI PUSH3 0x1DB PUSH3 0x159 JUMP JUMPDEST JUMPDEST PUSH1 0x0 PUSH3 0x1EC DUP5 DUP3 DUP6 ADD PUSH3 0x1AC JUMP JUMPDEST SWAP2 POP POP SWAP3 SWAP2 POP POP JUMP JUMPDEST PUSH1 0x80 MLOAD PUSH1 0xA0 MLOAD PUSH2 0x1238 PUSH3 0x229 PUSH1 0x0 CODECOPY PUSH1 0x0 DUP2 DUP2 PUSH2 0x34D ADD MSTORE DUP2 DUP2 PUSH2 0x3F2 ADD MSTORE PUSH2 0x620 ADD MSTORE PUSH1 0x0 PUSH2 0x189 ADD MSTORE PUSH2 0x1238 PUSH1 0x0 RETURN INVALID PUSH1 0x80 PUSH1 0x40 MSTORE PUSH1 0x4 CALLDATASIZE LT PUSH2 0x59 JUMPI PUSH1 0x0 CALLDATALOAD PUSH1 0xE0 SHR DUP1 PUSH4 0x542975C EQ PUSH2 0x65 JUMPI DUP1 PUSH4 0x1B11D0FF EQ PUSH2 0x90 JUMPI DUP1 PUSH4 0x5107D61E EQ PUSH2 0xCD JUMPI DUP1 PUSH4 0x51CFF8D9 EQ PUSH2 0xF6 JUMPI DUP1 PUSH4 0x7535D246 EQ PUSH2 0x11F JUMPI DUP1 PUSH4 0xF8B2CB4F EQ PUSH2 0x14A JUMPI PUSH2 0x60 JUMP JUMPDEST CALLDATASIZE PUSH2 0x60 JUMPI STOP JUMPDEST PUSH1 0x0 DUP1 REVERT JUMPDEST CALLVALUE DUP1 ISZERO PUSH2 0x71 JUMPI PUSH1 0x0 DUP1 REVERT JUMPDEST POP PUSH2 0x7A PUSH2 0x187 JUMP JUMPDEST PUSH1 0x40 MLOAD PUSH2 0x87 SWAP2 SWAP1 PUSH2 0x744 JUMP JUMPDEST PUSH1 0x40 MLOAD DUP1 SWAP2 SUB SWAP1 RETURN JUMPDEST CALLVALUE DUP1 ISZERO PUSH2 0x9C JUMPI PUSH1 0x0 DUP1 REVERT JUMPDEST POP PUSH2 0xB7 PUSH1 0x4 DUP1 CALLDATASIZE SUB DUP2 ADD SWAP1 PUSH2 0xB2 SWAP2 SWAP1 PUSH2 0x84C JUMP JUMPDEST PUSH2 0x1AB JUMP JUMPDEST PUSH1 0x40 MLOAD PUSH2 0xC4 SWAP2 SWAP1 PUSH2 0x901 JUMP JUMPDEST PUSH1 0x40 MLOAD DUP1 SWAP2 SUB SWAP1 RETURN JUMPDEST CALLVALUE DUP1 ISZERO PUSH2 0xD9 JUMPI PUSH1 0x0 DUP1 REVERT JUMPDEST POP PUSH2 0xF4 PUSH1 0x4 DUP1 CALLDATASIZE SUB DUP2 ADD SWAP1 PUSH2 0xEF SWAP2 SWAP1 PUSH2 0x91C JUMP JUMPDEST PUSH2 0x3DF JUMP JUMPDEST STOP JUMPDEST CALLVALUE DUP1 ISZERO PUSH2 0x102 JUMPI PUSH1 0x0 DUP1 REVERT JUMPDEST POP PUSH2 0x11D PUSH1 0x4 DUP1 CALLDATASIZE SUB DUP2 ADD SWAP1 PUSH2 0x118 SWAP2 SWAP1 PUSH2 0x990 JUMP JUMPDEST PUSH2 0x48F JUMP JUMPDEST STOP JUMPDEST CALLVALUE DUP1 ISZERO PUSH2 0x12B JUMPI PUSH1 0x0 DUP1 REVERT JUMPDEST POP PUSH2 0x134 PUSH2 0x61E JUMP JUMPDEST PUSH1 0x40 MLOAD PUSH2 0x141 SWAP2 SWAP1 PUSH2 0x9DE JUMP JUMPDEST PUSH1 0x40 MLOAD DUP1 SWAP2 SUB SWAP1 RETURN JUMPDEST CALLVALUE DUP1 ISZERO PUSH2 0x156 JUMPI PUSH1 0x0 DUP1 REVERT JUMPDEST POP PUSH2 0x171 PUSH1 0x4 DUP1 CALLDATASIZE SUB DUP2 ADD SWAP1 PUSH2 0x16C SWAP2 SWAP1 PUSH2 0x990 JUMP JUMPDEST PUSH2 0x642 JUMP JUMPDEST PUSH1 0x40 MLOAD PUSH2 0x17E SWAP2 SWAP1 PUSH2 0xA08 JUMP JUMPDEST PUSH1 0x40 MLOAD DUP1 SWAP2 SUB SWAP1 RETURN JUMPDEST PUSH32 0x0 DUP2 JUMP JUMPDEST PUSH1 0x0 DUP1 PUSH1 0x0 DUP5 DUP5 DUP2 ADD SWAP1 PUSH2 0x1BF SWAP2 SWAP1 PUSH2 0xD08 JUMP JUMPDEST SWAP2 POP SWAP2 POP PUSH1 0x0 DUP3 MLOAD GT DUP1 ISZERO PUSH2 0x1D5 JUMPI POP DUP1 MLOAD DUP3 MLOAD EQ JUMPDEST PUSH2 0x214 JUMPI PUSH1 0x40 MLOAD PUSH32 0x8C379A000000000000000000000000000000000000000000000000000000000 DUP2 MSTORE PUSH1 0x4 ADD PUSH2 0x20B SWAP1 PUSH2 0xDDD JUMP JUMPDEST PUSH1 0x40 MLOAD DUP1 SWAP2 SUB SWAP1 REVERT JUMPDEST PUSH1 0x0 JUMPDEST DUP3 MLOAD DUP2 LT ISZERO PUSH2 0x31E JUMPI PUSH1 0x0 DUP1 DUP5 DUP4 DUP2 MLOAD DUP2 LT PUSH2 0x236 JUMPI PUSH2 0x235 PUSH2 0xDFD JUMP JUMPDEST JUMPDEST PUSH1 0x20 MUL PUSH1 0x20 ADD ADD MLOAD PUSH20 0xFFFFFFFFFFFFFFFFFFFFFFFFFFFFFFFFFFFFFFFF AND GAS DUP6 DUP6 DUP2 MLOAD DUP2 LT PUSH2 0x268 JUMPI PUSH2 0x267 PUSH2 0xDFD JUMP JUMPDEST JUMPDEST PUSH1 0x20 MUL PUSH1 0x20 ADD ADD MLOAD PUSH1 0x40 MLOAD PUSH2 0x27D SWAP2 SWAP1 PUSH2 0xEA6 JUMP JUMPDEST PUSH1 0x0 PUSH1 0x40 MLOAD DUP1 DUP4 SUB DUP2 PUSH1 0x0 DUP8 DUP8 CALL SWAP3 POP POP POP RETURNDATASIZE DUP1 PUSH1 0x0 DUP2 EQ PUSH2 0x2BB JUMPI PUSH1 0x40 MLOAD SWAP2 POP PUSH1 0x1F NOT PUSH1 0x3F RETURNDATASIZE ADD AND DUP3 ADD PUSH1 0x40 MSTORE RETURNDATASIZE DUP3 MSTORE RETURNDATASIZE PUSH1 0x0 PUSH1 0x20 DUP5 ADD RETURNDATACOPY PUSH2 0x2C0 JUMP JUMPDEST PUSH1 0x60 SWAP2 POP JUMPDEST POP SWAP2 POP SWAP2 POP DUP2 DUP2 SWAP1 PUSH2 0x308 JUMPI PUSH1 0x40 MLOAD PUSH32 0x8C379A000000000000000000000000000000000000000000000000000000000 DUP2 MSTORE PUSH1 0x4 ADD PUSH2 0x2FF SWAP2 SWAP1 PUSH2 0xF01 JUMP JUMPDEST PUSH1 0x40 MLOAD DUP1 SWAP2 SUB SWAP1 REVERT JUMPDEST POP POP POP DUP1 DUP1 PUSH2 0x316 SWAP1 PUSH2 0xF52 JUMP JUMPDEST SWAP2 POP POP PUSH2 0x217 JUMP JUMPDEST POP PUSH1 0x0 DUP8 DUP10 PUSH2 0x32D SWAP2 SWAP1 PUSH2 0xF9B JUMP JUMPDEST SWAP1 POP DUP10 PUSH20 0xFFFFFFFFFFFFFFFFFFFFFFFFFFFFFFFFFFFFFFFF AND PUSH4 0x95EA7B3 PUSH32 0x0 DUP4 PUSH1 0x40 MLOAD DUP4 PUSH4 0xFFFFFFFF AND PUSH1 0xE0 SHL DUP2 MSTORE PUSH1 0x4 ADD PUSH2 0x38A SWAP3 SWAP2 SWAP1 PUSH2 0x1000 JUMP JUMPDEST PUSH1 0x20 PUSH1 0x40 MLOAD DUP1 DUP4 SUB DUP2 PUSH1 0x0 DUP8 GAS CALL ISZERO DUP1 ISZERO PUSH2 0x3A9 JUMPI RETURNDATASIZE PUSH1 0x0 DUP1 RETURNDATACOPY RETURNDATASIZE PUSH1 0x0 REVERT JUMPDEST POP POP POP POP PUSH1 0x40 MLOAD RETURNDATASIZE PUSH1 0x1F NOT PUSH1 0x1F DUP3 ADD AND DUP3 ADD DUP1 PUSH1 0x40 MSTORE POP DUP2 ADD SWAP1 PUSH2 0x3CD SWAP2 SWAP1 PUSH2 0x1055 JUMP JUMPDEST POP PUSH1 0x1 SWAP4 POP POP POP POP SWAP7 SWAP6 POP POP POP POP POP POP JUMP JUMPDEST PUSH1 0x0 ADDRESS SWAP1 POP PUSH1 0x0 DUP6 SWAP1 POP PUSH1 0x0 DUP6 SWAP1 POP PUSH1 0x0 PUSH32 0x0 PUSH20 0xFFFFFFFFFFFFFFFFFFFFFFFFFFFFFFFFFFFFFFFF AND PUSH4 0x42B0B77C DUP6 DUP6 DUP6 DUP11 DUP11 DUP8 PUSH1 0x40 MLOAD DUP8 PUSH4 0xFFFFFFFF AND PUSH1 0xE0 SHL DUP2 MSTORE PUSH1 0x4 ADD PUSH2 0x453 SWAP7 SWAP6 SWAP5 SWAP4 SWAP3 SWAP2 SWAP1 PUSH2 0x10DD JUMP JUMPDEST PUSH1 0x0 PUSH1 0x40 MLOAD DUP1 DUP4 SUB DUP2 PUSH1 0x0 DUP8 DUP1 EXTCODESIZE ISZERO DUP1 ISZERO PUSH2 0x46D JUMPI PUSH1 0x0 DUP1 REVERT JUMPDEST POP GAS CALL ISZERO DUP1 ISZERO PUSH2 0x481 JUMPI RETURNDATASIZE PUSH1 0x0 DUP1 RETURNDATACOPY RETURNDATASIZE PUSH1 0x0 REVERT JUMPDEST POP POP POP POP POP POP POP POP POP POP POP POP JUMP JUMPDEST PUSH1 0x0 DUP1 SLOAD SWAP1 PUSH2 0x100 EXP SWAP1 DIV PUSH20 0xFFFFFFFFFFFFFFFFFFFFFFFFFFFFFFFFFFFFFFFF AND PUSH20 0xFFFFFFFFFFFFFFFFFFFFFFFFFFFFFFFFFFFFFFFF AND CALLER PUSH20 0xFFFFFFFFFFFFFFFFFFFFFFFFFFFFFFFFFFFFFFFF AND EQ PUSH2 0x51D JUMPI PUSH1 0x40 MLOAD PUSH32 0x8C379A000000000000000000000000000000000000000000000000000000000 DUP2 MSTORE PUSH1 0x4 ADD PUSH2 0x514 SWAP1 PUSH2 0x1185 JUMP JUMPDEST PUSH1 0x40 MLOAD DUP1 SWAP2 SUB SWAP1 REVERT JUMPDEST PUSH1 0x0 DUP2 SWAP1 POP DUP1 PUSH20 0xFFFFFFFFFFFFFFFFFFFFFFFFFFFFFFFFFFFFFFFF AND PUSH4 0xA9059CBB CALLER DUP4 PUSH20 0xFFFFFFFFFFFFFFFFFFFFFFFFFFFFFFFFFFFFFFFF AND PUSH4 0x70A08231 ADDRESS PUSH1 0x40 MLOAD DUP3 PUSH4 0xFFFFFFFF AND PUSH1 0xE0 SHL DUP2 MSTORE PUSH1 0x4 ADD PUSH2 0x578 SWAP2 SWAP1 PUSH2 0x11A5 JUMP JUMPDEST PUSH1 0x20 PUSH1 0x40 MLOAD DUP1 DUP4 SUB DUP2 DUP7 GAS STATICCALL ISZERO DUP1 ISZERO PUSH2 0x595 JUMPI RETURNDATASIZE PUSH1 0x0 DUP1 RETURNDATACOPY RETURNDATASIZE PUSH1 0x0 REVERT JUMPDEST POP POP POP POP PUSH1 0x40 MLOAD RETURNDATASIZE PUSH1 0x1F NOT PUSH1 0x1F DUP3 ADD AND DUP3 ADD DUP1 PUSH1 0x40 MSTORE POP DUP2 ADD SWAP1 PUSH2 0x5B9 SWAP2 SWAP1 PUSH2 0x11D5 JUMP JUMPDEST PUSH1 0x40 MLOAD DUP4 PUSH4 0xFFFFFFFF AND PUSH1 0xE0 SHL DUP2 MSTORE PUSH1 0x4 ADD PUSH2 0x5D6 SWAP3 SWAP2 SWAP1 PUSH2 0x1000 JUMP JUMPDEST PUSH1 0x20 PUSH1 0x40 MLOAD DUP1 DUP4 SUB DUP2 PUSH1 0x0 DUP8 GAS CALL ISZERO DUP1 ISZERO PUSH2 0x5F5 JUMPI RETURNDATASIZE PUSH1 0x0 DUP1 RETURNDATACOPY RETURNDATASIZE PUSH1 0x0 REVERT JUMPDEST POP POP POP POP PUSH1 0x40 MLOAD RETURNDATASIZE PUSH1 0x1F NOT PUSH1 0x1F DUP3 ADD AND DUP3 ADD DUP1 PUSH1 0x40 MSTORE POP DUP2 ADD SWAP1 PUSH2 0x619 SWAP2 SWAP1 PUSH2 0x1055 JUMP JUMPDEST POP POP POP JUMP JUMPDEST PUSH32 0x0 DUP2 JUMP JUMPDEST PUSH1 0x0 DUP2 PUSH20 0xFFFFFFFFFFFFFFFFFFFFFFFFFFFFFFFFFFFFFFFF AND PUSH4 0x70A08231 ADDRESS PUSH1 0x40 MLOAD DUP3 PUSH4 0xFFFFFFFF AND PUSH1 0xE0 SHL DUP2 MSTORE PUSH1 0x4 ADD PUSH2 0x67D SWAP2 SWAP1 PUSH2 0x11A5 JUMP JUMPDEST PUSH1 0x20 PUSH1 0x40 MLOAD DUP1 DUP4 SUB DUP2 DUP7 GAS STATICCALL ISZERO DUP1 ISZERO PUSH2 0x69A JUMPI RETURNDATASIZE PUSH1 0x0 DUP1 RETURNDATACOPY RETURNDATASIZE PUSH1 0x0 REVERT JUMPDEST POP POP POP POP PUSH1 0x40 MLOAD RETURNDATASIZE PUSH1 0x1F NOT PUSH1 0x1F DUP3 ADD AND DUP3 ADD DUP1 PUSH1 0x40 MSTORE POP DUP2 ADD SWAP1 PUSH2 0x6BE SWAP2 SWAP1 PUSH2 0x11D5 JUMP JUMPDEST SWAP1 POP SWAP2 SWAP1 POP JUMP JUMPDEST PUSH1 0x0 PUSH20 0xFFFFFFFFFFFFFFFFFFFFFFFFFFFFFFFFFFFFFFFF DUP3 AND SWAP1 POP SWAP2 SWAP1 POP JUMP JUMPDEST PUSH1 0x0 DUP2 SWAP1 POP SWAP2 SWAP1 POP JUMP JUMPDEST PUSH1 0x0 PUSH2 0x70A PUSH2 0x705 PUSH2 0x700 DUP5 PUSH2 0x6C5 JUMP JUMPDEST PUSH2 0x6E5 JUMP JUMPDEST PUSH2 0x6C5 JUMP JUMPDEST SWAP1 POP SWAP2 SWAP1 POP JUMP JUMPDEST PUSH1 0x0 PUSH2 0x71C DUP3 PUSH2 0x6EF JUMP JUMPDEST SWAP1 POP SWAP2 SWAP1 POP JUMP JUMPDEST PUSH1 0x0 PUSH2 0x72E DUP3 PUSH2 0x711 JUMP JUMPDEST SWAP1 POP SWAP2 SWAP1 POP JUMP JUMPDEST PUSH2 0x73E DUP2 PUSH2 0x723 JUMP JUMPDEST DUP3 MSTORE POP POP JUMP JUMPDEST PUSH1 0x0 PUSH1 0x20 DUP3 ADD SWAP1 POP PUSH2 0x759 PUSH1 0x0 DUP4 ADD DUP5 PUSH2 0x735 JUMP JUMPDEST SWAP3 SWAP2 POP POP JUMP JUMPDEST PUSH1 0x0 PUSH1 0x40 MLOAD SWAP1 POP SWAP1 JUMP JUMPDEST PUSH1 0x0 DUP1 REVERT JUMPDEST PUSH1 0x0 DUP1 REVERT JUMPDEST PUSH1 0x0 PUSH2 0x77E DUP3 PUSH2 0x6C5 JUMP JUMPDEST SWAP1 POP SWAP2 SWAP1 POP JUMP JUMPDEST PUSH2 0x78E DUP2 PUSH2 0x773 JUMP JUMPDEST DUP2 EQ PUSH2 0x799 JUMPI PUSH1 0x0 DUP1 REVERT JUMPDEST POP JUMP JUMPDEST PUSH1 0x0 DUP2 CALLDATALOAD SWAP1 POP PUSH2 0x7AB DUP2 PUSH2 0x785 JUMP JUMPDEST SWAP3 SWAP2 POP POP JUMP JUMPDEST PUSH1 0x0 DUP2 SWAP1 POP SWAP2 SWAP1 POP JUMP JUMPDEST PUSH2 0x7C4 DUP2 PUSH2 0x7B1 JUMP JUMPDEST DUP2 EQ PUSH2 0x7CF JUMPI PUSH1 0x0 DUP1 REVERT JUMPDEST POP JUMP JUMPDEST PUSH1 0x0 DUP2 CALLDATALOAD SWAP1 POP PUSH2 0x7E1 DUP2 PUSH2 0x7BB JUMP JUMPDEST SWAP3 SWAP2 POP POP JUMP JUMPDEST PUSH1 0x0 DUP1 REVERT JUMPDEST PUSH1 0x0 DUP1 REVERT JUMPDEST PUSH1 0x0 DUP1 REVERT JUMPDEST PUSH1 0x0 DUP1 DUP4 PUSH1 0x1F DUP5 ADD SLT PUSH2 0x80C JUMPI PUSH2 0x80B PUSH2 0x7E7 JUMP JUMPDEST JUMPDEST DUP3 CALLDATALOAD SWAP1 POP PUSH8 0xFFFFFFFFFFFFFFFF DUP2 GT ISZERO PUSH2 0x829 JUMPI PUSH2 0x828 PUSH2 0x7EC JUMP JUMPDEST JUMPDEST PUSH1 0x20 DUP4 ADD SWAP2 POP DUP4 PUSH1 0x1 DUP3 MUL DUP4 ADD GT ISZERO PUSH2 0x845 JUMPI PUSH2 0x844 PUSH2 0x7F1 JUMP JUMPDEST JUMPDEST SWAP3 POP SWAP3 SWAP1 POP JUMP JUMPDEST PUSH1 0x0 DUP1 PUSH1 0x0 DUP1 PUSH1 0x0 DUP1 PUSH1 0xA0 DUP8 DUP10 SUB SLT ISZERO PUSH2 0x869 JUMPI PUSH2 0x868 PUSH2 0x769 JUMP JUMPDEST JUMPDEST PUSH1 0x0 PUSH2 0x877 DUP10 DUP3 DUP11 ADD PUSH2 0x79C JUMP JUMPDEST SWAP7 POP POP PUSH1 0x20 PUSH2 0x888 DUP10 DUP3 DUP11 ADD PUSH2 0x7D2 JUMP JUMPDEST SWAP6 POP POP PUSH1 0x40 PUSH2 0x899 DUP10 DUP3 DUP11 ADD PUSH2 0x7D2 JUMP JUMPDEST SWAP5 POP POP PUSH1 0x60 PUSH2 0x8AA DUP10 DUP3 DUP11 ADD PUSH2 0x79C JUMP JUMPDEST SWAP4 POP POP PUSH1 0x80 DUP8 ADD CALLDATALOAD PUSH8 0xFFFFFFFFFFFFFFFF DUP2 GT ISZERO PUSH2 0x8CB JUMPI PUSH2 0x8CA PUSH2 0x76E JUMP JUMPDEST JUMPDEST PUSH2 0x8D7 DUP10 DUP3 DUP11 ADD PUSH2 0x7F6 JUMP JUMPDEST SWAP3 POP SWAP3 POP POP SWAP3 SWAP6 POP SWAP3 SWAP6 POP SWAP3 SWAP6 JUMP JUMPDEST PUSH1 0x0 DUP2 ISZERO ISZERO SWAP1 POP SWAP2 SWAP1 POP JUMP JUMPDEST PUSH2 0x8FB DUP2 PUSH2 0x8E6 JUMP JUMPDEST DUP3 MSTORE POP POP JUMP JUMPDEST PUSH1 0x0 PUSH1 0x20 DUP3 ADD SWAP1 POP PUSH2 0x916 PUSH1 0x0 DUP4 ADD DUP5 PUSH2 0x8F2 JUMP JUMPDEST SWAP3 SWAP2 POP POP JUMP JUMPDEST PUSH1 0x0 DUP1 PUSH1 0x0 DUP1 PUSH1 0x60 DUP6 DUP8 SUB SLT ISZERO PUSH2 0x936 JUMPI PUSH2 0x935 PUSH2 0x769 JUMP JUMPDEST JUMPDEST PUSH1 0x0 PUSH2 0x944 DUP8 DUP3 DUP9 ADD PUSH2 0x79C JUMP JUMPDEST SWAP5 POP POP PUSH1 0x20 PUSH2 0x955 DUP8 DUP3 DUP9 ADD PUSH2 0x7D2 JUMP JUMPDEST SWAP4 POP POP PUSH1 0x40 DUP6 ADD CALLDATALOAD PUSH8 0xFFFFFFFFFFFFFFFF DUP2 GT ISZERO PUSH2 0x976 JUMPI PUSH2 0x975 PUSH2 0x76E JUMP JUMPDEST JUMPDEST PUSH2 0x982 DUP8 DUP3 DUP9 ADD PUSH2 0x7F6 JUMP JUMPDEST SWAP3 POP SWAP3 POP POP SWAP3 SWAP6 SWAP2 SWAP5 POP SWAP3 POP JUMP JUMPDEST PUSH1 0x0 PUSH1 0x20 DUP3 DUP5 SUB SLT ISZERO PUSH2 0x9A6 JUMPI PUSH2 0x9A5 PUSH2 0x769 JUMP JUMPDEST JUMPDEST PUSH1 0x0 PUSH2 0x9B4 DUP5 DUP3 DUP6 ADD PUSH2 0x79C JUMP JUMPDEST SWAP2 POP POP SWAP3 SWAP2 POP POP JUMP JUMPDEST PUSH1 0x0 PUSH2 0x9C8 DUP3 PUSH2 0x711 JUMP JUMPDEST SWAP1 POP SWAP2 SWAP1 POP JUMP JUMPDEST PUSH2 0x9D8 DUP2 PUSH2 0x9BD JUMP JUMPDEST DUP3 MSTORE POP POP JUMP JUMPDEST PUSH1 0x0 PUSH1 0x20 DUP3 ADD SWAP1 POP PUSH2 0x9F3 PUSH1 0x0 DUP4 ADD DUP5 PUSH2 0x9CF JUMP JUMPDEST SWAP3 SWAP2 POP POP JUMP JUMPDEST PUSH2 0xA02 DUP2 PUSH2 0x7B1 JUMP JUMPDEST DUP3 MSTORE POP POP JUMP JUMPDEST PUSH1 0x0 PUSH1 0x20 DUP3 ADD SWAP1 POP PUSH2 0xA1D PUSH1 0x0 DUP4 ADD DUP5 PUSH2 0x9F9 JUMP JUMPDEST SWAP3 SWAP2 POP POP JUMP JUMPDEST PUSH1 0x0 PUSH1 0x1F NOT PUSH1 0x1F DUP4 ADD AND SWAP1 POP SWAP2 SWAP1 POP JUMP JUMPDEST PUSH32 0x4E487B7100000000000000000000000000000000000000000000000000000000 PUSH1 0x0 MSTORE PUSH1 0x41 PUSH1 0x4 MSTORE PUSH1 0x24 PUSH1 0x0 REVERT JUMPDEST PUSH2 0xA6C DUP3 PUSH2 0xA23 JUMP JUMPDEST DUP2 ADD DUP2 DUP2 LT PUSH8 0xFFFFFFFFFFFFFFFF DUP3 GT OR ISZERO PUSH2 0xA8B JUMPI PUSH2 0xA8A PUSH2 0xA34 JUMP JUMPDEST JUMPDEST DUP1 PUSH1 0x40 MSTORE POP POP POP JUMP JUMPDEST PUSH1 0x0 PUSH2 0xA9E PUSH2 0x75F JUMP JUMPDEST SWAP1 POP PUSH2 0xAAA DUP3 DUP3 PUSH2 0xA63 JUMP JUMPDEST SWAP2 SWAP1 POP JUMP JUMPDEST PUSH1 0x0 PUSH8 0xFFFFFFFFFFFFFFFF DUP3 GT ISZERO PUSH2 0xACA JUMPI PUSH2 0xAC9 PUSH2 0xA34 JUMP JUMPDEST JUMPDEST PUSH1 0x20 DUP3 MUL SWAP1 POP PUSH1 0x20 DUP2 ADD SWAP1 POP SWAP2 SWAP1 POP JUMP JUMPDEST PUSH1 0x0 PUSH2 0xAEE PUSH2 0xAE9 DUP5 PUSH2 0xAAF JUMP JUMPDEST PUSH2 0xA94 JUMP JUMPDEST SWAP1 POP DUP1 DUP4 DUP3 MSTORE PUSH1 0x20 DUP3 ADD SWAP1 POP PUSH1 0x20 DUP5 MUL DUP4 ADD DUP6 DUP2 GT ISZERO PUSH2 0xB11 JUMPI PUSH2 0xB10 PUSH2 0x7F1 JUMP JUMPDEST JUMPDEST DUP4 JUMPDEST DUP2 DUP2 LT ISZERO PUSH2 0xB3A JUMPI DUP1 PUSH2 0xB26 DUP9 DUP3 PUSH2 0x79C JUMP JUMPDEST DUP5 MSTORE PUSH1 0x20 DUP5 ADD SWAP4 POP POP PUSH1 0x20 DUP2 ADD SWAP1 POP PUSH2 0xB13 JUMP JUMPDEST POP POP POP SWAP4 SWAP3 POP POP POP JUMP JUMPDEST PUSH1 0x0 DUP3 PUSH1 0x1F DUP4 ADD SLT PUSH2 0xB59 JUMPI PUSH2 0xB58 PUSH2 0x7E7 JUMP JUMPDEST JUMPDEST DUP2 CALLDATALOAD PUSH2 0xB69 DUP5 DUP3 PUSH1 0x20 DUP7 ADD PUSH2 0xADB JUMP JUMPDEST SWAP2 POP POP SWAP3 SWAP2 POP POP JUMP JUMPDEST PUSH1 0x0 PUSH8 0xFFFFFFFFFFFFFFFF DUP3 GT ISZERO PUSH2 0xB8D JUMPI PUSH2 0xB8C PUSH2 0xA34 JUMP JUMPDEST JUMPDEST PUSH1 0x20 DUP3 MUL SWAP1 POP PUSH1 0x20 DUP2 ADD SWAP1 POP SWAP2 SWAP1 POP JUMP JUMPDEST PUSH1 0x0 DUP1 REVERT JUMPDEST PUSH1 0x0 PUSH8 0xFFFFFFFFFFFFFFFF DUP3 GT ISZERO PUSH2 0xBBE JUMPI PUSH2 0xBBD PUSH2 0xA34 JUMP JUMPDEST JUMPDEST PUSH2 0xBC7 DUP3 PUSH2 0xA23 JUMP JUMPDEST SWAP1 POP PUSH1 0x20 DUP2 ADD SWAP1 POP SWAP2 SWAP1 POP JUMP JUMPDEST DUP3 DUP2 DUP4 CALLDATACOPY PUSH1 0x0 DUP4 DUP4 ADD MSTORE POP POP POP JUMP JUMPDEST PUSH1 0x0 PUSH2 0xBF6 PUSH2 0xBF1 DUP5 PUSH2 0xBA3 JUMP JUMPDEST PUSH2 0xA94 JUMP JUMPDEST SWAP1 POP DUP3 DUP2 MSTORE PUSH1 0x20 DUP2 ADD DUP5 DUP5 DUP5 ADD GT ISZERO PUSH2 0xC12 JUMPI PUSH2 0xC11 PUSH2 0xB9E JUMP JUMPDEST JUMPDEST PUSH2 0xC1D DUP5 DUP3 DUP6 PUSH2 0xBD4 JUMP JUMPDEST POP SWAP4 SWAP3 POP POP POP JUMP JUMPDEST PUSH1 0x0 DUP3 PUSH1 0x1F DUP4 ADD SLT PUSH2 0xC3A JUMPI PUSH2 0xC39 PUSH2 0x7E7 JUMP JUMPDEST JUMPDEST DUP2 CALLDATALOAD PUSH2 0xC4A DUP5 DUP3 PUSH1 0x20 DUP7 ADD PUSH2 0xBE3 JUMP JUMPDEST SWAP2 POP POP SWAP3 SWAP2 POP POP JUMP JUMPDEST PUSH1 0x0 PUSH2 0xC66 PUSH2 0xC61 DUP5 PUSH2 0xB72 JUMP JUMPDEST PUSH2 0xA94 JUMP JUMPDEST SWAP1 POP DUP1 DUP4 DUP3 MSTORE PUSH1 0x20 DUP3 ADD SWAP1 POP PUSH1 0x20 DUP5 MUL DUP4 ADD DUP6 DUP2 GT ISZERO PUSH2 0xC89 JUMPI PUSH2 0xC88 PUSH2 0x7F1 JUMP JUMPDEST JUMPDEST DUP4 JUMPDEST DUP2 DUP2 LT ISZERO PUSH2 0xCD0 JUMPI DUP1 CALLDATALOAD PUSH8 0xFFFFFFFFFFFFFFFF DUP2 GT ISZERO PUSH2 0xCAE JUMPI PUSH2 0xCAD PUSH2 0x7E7 JUMP JUMPDEST JUMPDEST DUP1 DUP7 ADD PUSH2 0xCBB DUP10 DUP3 PUSH2 0xC25 JUMP JUMPDEST DUP6 MSTORE PUSH1 0x20 DUP6 ADD SWAP5 POP POP POP PUSH1 0x20 DUP2 ADD SWAP1 POP PUSH2 0xC8B JUMP JUMPDEST POP POP POP SWAP4 SWAP3 POP POP POP JUMP JUMPDEST PUSH1 0x0 DUP3 PUSH1 0x1F DUP4 ADD SLT PUSH2 0xCEF JUMPI PUSH2 0xCEE PUSH2 0x7E7 JUMP JUMPDEST JUMPDEST DUP2 CALLDATALOAD PUSH2 0xCFF DUP5 DUP3 PUSH1 0x20 DUP7 ADD PUSH2 0xC53 JUMP JUMPDEST SWAP2 POP POP SWAP3 SWAP2 POP POP JUMP JUMPDEST PUSH1 0x0 DUP1 PUSH1 0x40 DUP4 DUP6 SUB SLT ISZERO PUSH2 0xD1F JUMPI PUSH2 0xD1E PUSH2 0x769 JUMP JUMPDEST JUMPDEST PUSH1 0x0 DUP4 ADD CALLDATALOAD PUSH8 0xFFFFFFFFFFFFFFFF DUP2 GT ISZERO PUSH2 0xD3D JUMPI PUSH2 0xD3C PUSH2 0x76E JUMP JUMPDEST JUMPDEST PUSH2 0xD49 DUP6 DUP3 DUP7 ADD PUSH2 0xB44 JUMP JUMPDEST SWAP3 POP POP PUSH1 0x20 DUP4 ADD CALLDATALOAD PUSH8 0xFFFFFFFFFFFFFFFF DUP2 GT ISZERO PUSH2 0xD6A JUMPI PUSH2 0xD69 PUSH2 0x76E JUMP JUMPDEST JUMPDEST PUSH2 0xD76 DUP6 DUP3 DUP7 ADD PUSH2 0xCDA JUMP JUMPDEST SWAP2 POP POP SWAP3 POP SWAP3 SWAP1 POP JUMP JUMPDEST PUSH1 0x0 DUP3 DUP3 MSTORE PUSH1 0x20 DUP3 ADD SWAP1 POP SWAP3 SWAP2 POP POP JUMP JUMPDEST PUSH32 0x496E76616C696420696E70757400000000000000000000000000000000000000 PUSH1 0x0 DUP3 ADD MSTORE POP JUMP JUMPDEST PUSH1 0x0 PUSH2 0xDC7 PUSH1 0xD DUP4 PUSH2 0xD80 JUMP JUMPDEST SWAP2 POP PUSH2 0xDD2 DUP3 PUSH2 0xD91 JUMP JUMPDEST PUSH1 0x20 DUP3 ADD SWAP1 POP SWAP2 SWAP1 POP JUMP JUMPDEST PUSH1 0x0 PUSH1 0x20 DUP3 ADD SWAP1 POP DUP2 DUP2 SUB PUSH1 0x0 DUP4 ADD MSTORE PUSH2 0xDF6 DUP2 PUSH2 0xDBA JUMP JUMPDEST SWAP1 POP SWAP2 SWAP1 POP JUMP JUMPDEST PUSH32 0x4E487B7100000000000000000000000000000000000000000000000000000000 PUSH1 0x0 MSTORE PUSH1 0x32 PUSH1 0x4 MSTORE PUSH1 0x24 PUSH1 0x0 REVERT JUMPDEST PUSH1 0x0 DUP2 MLOAD SWAP1 POP SWAP2 SWAP1 POP JUMP JUMPDEST PUSH1 0x0 DUP2 SWAP1 POP SWAP3 SWAP2 POP POP JUMP JUMPDEST PUSH1 0x0 JUMPDEST DUP4 DUP2 LT ISZERO PUSH2 0xE60 JUMPI DUP1 DUP3 ADD MLOAD DUP2 DUP5 ADD MSTORE PUSH1 0x20 DUP2 ADD SWAP1 POP PUSH2 0xE45 JUMP JUMPDEST DUP4 DUP2 GT ISZERO PUSH2 0xE6F JUMPI PUSH1 0x0 DUP5 DUP5 ADD MSTORE JUMPDEST POP POP POP POP JUMP JUMPDEST PUSH1 0x0 PUSH2 0xE80 DUP3 PUSH2 0xE2C JUMP JUMPDEST PUSH2 0xE8A DUP2 DUP6 PUSH2 0xE37 JUMP JUMPDEST SWAP4 POP PUSH2 0xE9A DUP2 DUP6 PUSH1 0x20 DUP7 ADD PUSH2 0xE42 JUMP JUMPDEST DUP1 DUP5 ADD SWAP2 POP POP SWAP3 SWAP2 POP POP JUMP JUMPDEST PUSH1 0x0 PUSH2 0xEB2 DUP3 DUP5 PUSH2 0xE75 JUMP JUMPDEST SWAP2 POP DUP2 SWAP1 POP SWAP3 SWAP2 POP POP JUMP JUMPDEST PUSH1 0x0 DUP2 MLOAD SWAP1 POP SWAP2 SWAP1 POP JUMP JUMPDEST PUSH1 0x0 PUSH2 0xED3 DUP3 PUSH2 0xEBD JUMP JUMPDEST PUSH2 0xEDD DUP2 DUP6 PUSH2 0xD80 JUMP JUMPDEST SWAP4 POP PUSH2 0xEED DUP2 DUP6 PUSH1 0x20 DUP7 ADD PUSH2 0xE42 JUMP JUMPDEST PUSH2 0xEF6 DUP2 PUSH2 0xA23 JUMP JUMPDEST DUP5 ADD SWAP2 POP POP SWAP3 SWAP2 POP POP JUMP JUMPDEST PUSH1 0x0 PUSH1 0x20 DUP3 ADD SWAP1 POP DUP2 DUP2 SUB PUSH1 0x0 DUP4 ADD MSTORE PUSH2 0xF1B DUP2 DUP5 PUSH2 0xEC8 JUMP JUMPDEST SWAP1 POP SWAP3 SWAP2 POP POP JUMP JUMPDEST PUSH32 0x4E487B7100000000000000000000000000000000000000000000000000000000 PUSH1 0x0 MSTORE PUSH1 0x11 PUSH1 0x4 MSTORE PUSH1 0x24 PUSH1 0x0 REVERT JUMPDEST PUSH1 0x0 PUSH2 0xF5D DUP3 PUSH2 0x7B1 JUMP JUMPDEST SWAP2 POP PUSH32 0xFFFFFFFFFFFFFFFFFFFFFFFFFFFFFFFFFFFFFFFFFFFFFFFFFFFFFFFFFFFFFFFF DUP3 EQ ISZERO PUSH2 0xF90 JUMPI PUSH2 0xF8F PUSH2 0xF23 JUMP JUMPDEST JUMPDEST PUSH1 0x1 DUP3 ADD SWAP1 POP SWAP2 SWAP1 POP JUMP JUMPDEST PUSH1 0x0 PUSH2 0xFA6 DUP3 PUSH2 0x7B1 JUMP JUMPDEST SWAP2 POP PUSH2 0xFB1 DUP4 PUSH2 0x7B1 JUMP JUMPDEST SWAP3 POP DUP3 PUSH32 0xFFFFFFFFFFFFFFFFFFFFFFFFFFFFFFFFFFFFFFFFFFFFFFFFFFFFFFFFFFFFFFFF SUB DUP3 GT ISZERO PUSH2 0xFE6 JUMPI PUSH2 0xFE5 PUSH2 0xF23 JUMP JUMPDEST JUMPDEST DUP3 DUP3 ADD SWAP1 POP SWAP3 SWAP2 POP POP JUMP JUMPDEST PUSH2 0xFFA DUP2 PUSH2 0x773 JUMP JUMPDEST DUP3 MSTORE POP POP JUMP JUMPDEST PUSH1 0x0 PUSH1 0x40 DUP3 ADD SWAP1 POP PUSH2 0x1015 PUSH1 0x0 DUP4 ADD DUP6 PUSH2 0xFF1 JUMP JUMPDEST PUSH2 0x1022 PUSH1 0x20 DUP4 ADD DUP5 PUSH2 0x9F9 JUMP JUMPDEST SWAP4 SWAP3 POP POP POP JUMP JUMPDEST PUSH2 0x1032 DUP2 PUSH2 0x8E6 JUMP JUMPDEST DUP2 EQ PUSH2 0x103D JUMPI PUSH1 0x0 DUP1 REVERT JUMPDEST POP JUMP JUMPDEST PUSH1 0x0 DUP2 MLOAD SWAP1 POP PUSH2 0x104F DUP2 PUSH2 0x1029 JUMP JUMPDEST SWAP3 SWAP2 POP POP JUMP JUMPDEST PUSH1 0x0 PUSH1 0x20 DUP3 DUP5 SUB SLT ISZERO PUSH2 0x106B JUMPI PUSH2 0x106A PUSH2 0x769 JUMP JUMPDEST JUMPDEST PUSH1 0x0 PUSH2 0x1079 DUP5 DUP3 DUP6 ADD PUSH2 0x1040 JUMP JUMPDEST SWAP2 POP POP SWAP3 SWAP2 POP POP JUMP JUMPDEST PUSH1 0x0 DUP3 DUP3 MSTORE PUSH1 0x20 DUP3 ADD SWAP1 POP SWAP3 SWAP2 POP POP JUMP JUMPDEST PUSH1 0x0 PUSH2 0x109F DUP4 DUP6 PUSH2 0x1082 JUMP JUMPDEST SWAP4 POP PUSH2 0x10AC DUP4 DUP6 DUP5 PUSH2 0xBD4 JUMP JUMPDEST PUSH2 0x10B5 DUP4 PUSH2 0xA23 JUMP JUMPDEST DUP5 ADD SWAP1 POP SWAP4 SWAP3 POP POP POP JUMP JUMPDEST PUSH1 0x0 PUSH2 0xFFFF DUP3 AND SWAP1 POP SWAP2 SWAP1 POP JUMP JUMPDEST PUSH2 0x10D7 DUP2 PUSH2 0x10C0 JUMP JUMPDEST DUP3 MSTORE POP POP JUMP JUMPDEST PUSH1 0x0 PUSH1 0xA0 DUP3 ADD SWAP1 POP PUSH2 0x10F2 PUSH1 0x0 DUP4 ADD DUP10 PUSH2 0xFF1 JUMP JUMPDEST PUSH2 0x10FF PUSH1 0x20 DUP4 ADD DUP9 PUSH2 0xFF1 JUMP JUMPDEST PUSH2 0x110C PUSH1 0x40 DUP4 ADD DUP8 PUSH2 0x9F9 JUMP JUMPDEST DUP2 DUP2 SUB PUSH1 0x60 DUP4 ADD MSTORE PUSH2 0x111F DUP2 DUP6 DUP8 PUSH2 0x1093 JUMP JUMPDEST SWAP1 POP PUSH2 0x112E PUSH1 0x80 DUP4 ADD DUP5 PUSH2 0x10CE JUMP JUMPDEST SWAP8 SWAP7 POP POP POP POP POP POP POP JUMP JUMPDEST PUSH32 0x596F7520617265206E6F7420746865206F776E65720000000000000000000000 PUSH1 0x0 DUP3 ADD MSTORE POP JUMP JUMPDEST PUSH1 0x0 PUSH2 0x116F PUSH1 0x15 DUP4 PUSH2 0xD80 JUMP JUMPDEST SWAP2 POP PUSH2 0x117A DUP3 PUSH2 0x1139 JUMP JUMPDEST PUSH1 0x20 DUP3 ADD SWAP1 POP SWAP2 SWAP1 POP JUMP JUMPDEST PUSH1 0x0 PUSH1 0x20 DUP3 ADD SWAP1 POP DUP2 DUP2 SUB PUSH1 0x0 DUP4 ADD MSTORE PUSH2 0x119E DUP2 PUSH2 0x1162 JUMP JUMPDEST SWAP1 POP SWAP2 SWAP1 POP JUMP JUMPDEST PUSH1 0x0 PUSH1 0x20 DUP3 ADD SWAP1 POP PUSH2 0x11BA PUSH1 0x0 DUP4 ADD DUP5 PUSH2 0xFF1 JUMP JUMPDEST SWAP3 SWAP2 POP POP JUMP JUMPDEST PUSH1 0x0 DUP2 MLOAD SWAP1 POP PUSH2 0x11CF DUP2 PUSH2 0x7BB JUMP JUMPDEST SWAP3 SWAP2 POP POP JUMP JUMPDEST PUSH1 0x0 PUSH1 0x20 DUP3 DUP5 SUB SLT ISZERO PUSH2 0x11EB JUMPI PUSH2 0x11EA PUSH2 0x769 JUMP JUMPDEST JUMPDEST PUSH1 0x0 PUSH2 0x11F9 DUP5 DUP3 DUP6 ADD PUSH2 0x11C0 JUMP JUMPDEST SWAP2 POP POP SWAP3 SWAP2 POP POP JUMP INVALID LOG2 PUSH5 0x6970667358 0x22 SLT KECCAK256 0x4E 0x2A 0xED DUP3 0x4A 0xBF EXTCODECOPY 0x5F ORIGIN DUP15 DUP13 CALLDATACOPY 0x2A DIV OR 0xF7 0xF PUSH1 0xD SWAP15 0x23 ISZERO CALLDATACOPY SAR DUP6 0xFB 0xEC LOG3 GASPRICE DIFFICULTY BASEFEE LOG0 PUSH5 0x736F6C6343 STOP ADDMOD EXP STOP CALLER "
				},
				"gasEstimates": {
					"creation": {
						"codeDepositCost": "932800",
						"executionCost": "infinite",
						"totalCost": "infinite"
					},
					"external": {
						"ADDRESSES_PROVIDER()": "infinite",
						"POOL()": "infinite",
						"executeOperation(address,uint256,uint256,address,bytes)": "infinite",
						"getBalance(address)": "infinite",
						"requestFlashLoan(address,uint256,bytes)": "infinite",
						"withdraw(address)": "infinite"
					}
				},
				"methodIdentifiers": {
					"ADDRESSES_PROVIDER()": "0542975c",
					"POOL()": "7535d246",
					"executeOperation(address,uint256,uint256,address,bytes)": "1b11d0ff",
					"getBalance(address)": "f8b2cb4f",
					"requestFlashLoan(address,uint256,bytes)": "5107d61e",
					"withdraw(address)": "51cff8d9"
				}
			},
			"storageLayout": {
				"storage": [
					{
						"astId": 1364,
						"contract": "FlashLoan.sol:Flashloan",
						"label": "owner",
						"offset": 0,
						"slot": "0",
						"type": "t_address_payable"
					}
				],
				"types": {
					"t_address_payable": {
						"encoding": "inplace",
						"label": "address payable",
						"numberOfBytes": "20"
					}
				}
			},
			"userdoc": {
				"kind": "user",
				"methods": {
					"executeOperation(address,uint256,uint256,address,bytes)": {
						"notice": "Executes an operation after receiving the flash-borrowed asset"
					}
				},
				"version": 1
			}
		}
	}
}