{
	"FlashLoan.sol": {
		"Flashloan": {
			"abi": [
				{
					"inputs": [
						{
							"internalType": "address",
							"name": "_addressProvider",
							"type": "address"
						}
					],
					"stateMutability": "payable",
					"type": "constructor"
				},
				{
					"inputs": [],
					"name": "ADDRESSES_PROVIDER",
					"outputs": [
						{
							"internalType": "contract IPoolAddressesProvider",
							"name": "",
							"type": "address"
						}
					],
					"stateMutability": "view",
					"type": "function"
				},
				{
					"inputs": [],
					"name": "POOL",
					"outputs": [
						{
							"internalType": "contract IPool",
							"name": "",
							"type": "address"
						}
					],
					"stateMutability": "view",
					"type": "function"
				},
				{
					"inputs": [
						{
							"internalType": "address",
							"name": "asset",
							"type": "address"
						},
						{
							"internalType": "uint256",
							"name": "amount",
							"type": "uint256"
						},
						{
							"internalType": "uint256",
							"name": "premium",
							"type": "uint256"
						},
						{
							"internalType": "address",
							"name": "initiator",
							"type": "address"
						},
						{
							"internalType": "bytes",
							"name": "params",
							"type": "bytes"
						}
					],
					"name": "executeOperation",
					"outputs": [
						{
							"internalType": "bool",
							"name": "",
							"type": "bool"
						}
					],
					"stateMutability": "nonpayable",
					"type": "function"
				},
				{
					"inputs": [],
					"name": "gas_left",
					"outputs": [
						{
							"internalType": "uint256",
							"name": "",
							"type": "uint256"
						}
					],
					"stateMutability": "view",
					"type": "function"
				},
				{
					"inputs": [
						{
							"internalType": "address",
							"name": "_tokenAddress",
							"type": "address"
						}
					],
					"name": "getBalance",
					"outputs": [
						{
							"internalType": "uint256",
							"name": "",
							"type": "uint256"
						}
					],
					"stateMutability": "view",
					"type": "function"
				},
				{
					"inputs": [
						{
							"internalType": "address",
							"name": "_token",
							"type": "address"
						},
						{
							"internalType": "uint256",
							"name": "_amount",
							"type": "uint256"
						},
						{
							"internalType": "bytes",
							"name": "params",
							"type": "bytes"
						}
					],
					"name": "requestFlashLoan",
					"outputs": [],
					"stateMutability": "nonpayable",
					"type": "function"
				},
				{
					"inputs": [
						{
							"internalType": "bytes",
							"name": "params",
							"type": "bytes"
						}
					],
					"name": "viewParams",
					"outputs": [
						{
							"internalType": "address[]",
							"name": "",
							"type": "address[]"
						},
						{
							"internalType": "bytes[]",
							"name": "",
							"type": "bytes[]"
						}
					],
					"stateMutability": "pure",
					"type": "function"
				},
				{
					"inputs": [
						{
							"internalType": "address",
							"name": "_tokenAddress",
							"type": "address"
						}
					],
					"name": "withdraw",
					"outputs": [],
					"stateMutability": "nonpayable",
					"type": "function"
				},
				{
					"stateMutability": "payable",
					"type": "receive"
				}
			],
			"devdoc": {
				"kind": "dev",
				"methods": {
					"executeOperation(address,uint256,uint256,address,bytes)": {
						"details": "Ensure that the contract can return the debt + premium, e.g., has      enough funds to repay and has approved the Pool to pull the total amount",
						"params": {
							"amount": "The amount of the flash-borrowed asset",
							"asset": "The address of the flash-borrowed asset",
							"initiator": "The address of the flashloan initiator",
							"params": "The byte-encoded params passed when initiating the flashloan",
							"premium": "The fee of the flash-borrowed asset"
						},
						"returns": {
							"_0": "True if the execution of the operation succeeds, false otherwise"
						}
					}
				},
				"version": 1
			},
			"evm": {
				"assembly": "    /* \"FlashLoan.sol\":472:3694  contract Flashloan is FlashLoanSimpleReceiverBase {... */\n  mstore(0x40, 0xc0)\n    /* \"FlashLoan.sol\":567:733  constructor(address _addressProvider) FlashLoanSimpleReceiverBase(IPoolAddressesProvider(_addressProvider)) payable... */\n  mload(0x40)\n  sub(codesize, bytecodeSize)\n  dup1\n  bytecodeSize\n  dup4\n  codecopy\n  dup2\n  dup2\n  add\n  0x40\n  mstore\n  dup2\n  add\n  swap1\n  tag_1\n  swap2\n  swap1\n  tag_2\n  jump\t// in\ntag_1:\n    /* \"FlashLoan.sol\":656:672  _addressProvider */\n  dup1\n    /* \"@aave/core-v3/contracts/flashloan/base/FlashLoanSimpleReceiverBase.sol\":673:681  provider */\n  dup1\n    /* \"@aave/core-v3/contracts/flashloan/base/FlashLoanSimpleReceiverBase.sol\":652:681  ADDRESSES_PROVIDER = provider */\n  0xffffffffffffffffffffffffffffffffffffffff\n  and\n  0x80\n  dup2\n  0xffffffffffffffffffffffffffffffffffffffff\n  and\n  dup2\n  mstore\n  pop\n  pop\n    /* \"@aave/core-v3/contracts/flashloan/base/FlashLoanSimpleReceiverBase.sol\":700:708  provider */\n  dup1\n    /* \"@aave/core-v3/contracts/flashloan/base/FlashLoanSimpleReceiverBase.sol\":700:716  provider.getPool */\n  0xffffffffffffffffffffffffffffffffffffffff\n  and\n  0x026b1d5f\n    /* \"@aave/core-v3/contracts/flashloan/base/FlashLoanSimpleReceiverBase.sol\":700:718  provider.getPool() */\n  mload(0x40)\n  dup2\n  0xffffffff\n  and\n  0xe0\n  shl\n  dup2\n  mstore\n  0x04\n  add\n  0x20\n  mload(0x40)\n  dup1\n  dup4\n  sub\n  dup2\n  dup7\n  gas\n  staticcall\n  iszero\n  dup1\n  iszero\n  tag_7\n  jumpi\n  returndatasize\n  0x00\n  dup1\n  returndatacopy\n  revert(0x00, returndatasize)\ntag_7:\n  pop\n  pop\n  pop\n  pop\n  mload(0x40)\n  returndatasize\n  not(0x1f)\n  0x1f\n  dup3\n  add\n  and\n  dup3\n  add\n  dup1\n  0x40\n  mstore\n  pop\n  dup2\n  add\n  swap1\n  tag_8\n  swap2\n  swap1\n  tag_2\n  jump\t// in\ntag_8:\n    /* \"@aave/core-v3/contracts/flashloan/base/FlashLoanSimpleReceiverBase.sol\":687:719  POOL = IPool(provider.getPool()) */\n  0xffffffffffffffffffffffffffffffffffffffff\n  and\n  0xa0\n  dup2\n  0xffffffffffffffffffffffffffffffffffffffff\n  and\n  dup2\n  mstore\n  pop\n  pop\n    /* \"@aave/core-v3/contracts/flashloan/base/FlashLoanSimpleReceiverBase.sol\":601:724  constructor(IPoolAddressesProvider provider) {... */\n  pop\n    /* \"FlashLoan.sol\":712:722  msg.sender */\n  caller\n    /* \"FlashLoan.sol\":695:700  owner */\n  0x00\n  dup1\n    /* \"FlashLoan.sol\":695:723  owner = payable (msg.sender) */\n  0x0100\n  exp\n  dup2\n  sload\n  dup2\n  0xffffffffffffffffffffffffffffffffffffffff\n  mul\n  not\n  and\n  swap1\n  dup4\n  0xffffffffffffffffffffffffffffffffffffffff\n  and\n  mul\n  or\n  swap1\n  sstore\n  pop\n    /* \"FlashLoan.sol\":567:733  constructor(address _addressProvider) FlashLoanSimpleReceiverBase(IPoolAddressesProvider(_addressProvider)) payable... */\n  pop\n    /* \"FlashLoan.sol\":472:3694  contract Flashloan is FlashLoanSimpleReceiverBase {... */\n  jump(tag_10)\n    /* \"#utility.yul\":88:205   */\ntag_12:\n    /* \"#utility.yul\":197:198   */\n  0x00\n    /* \"#utility.yul\":194:195   */\n  dup1\n    /* \"#utility.yul\":187:199   */\n  revert\n    /* \"#utility.yul\":334:460   */\ntag_14:\n    /* \"#utility.yul\":371:378   */\n  0x00\n    /* \"#utility.yul\":411:453   */\n  0xffffffffffffffffffffffffffffffffffffffff\n    /* \"#utility.yul\":404:409   */\n  dup3\n    /* \"#utility.yul\":400:454   */\n  and\n    /* \"#utility.yul\":389:454   */\n  swap1\n  pop\n    /* \"#utility.yul\":334:460   */\n  swap2\n  swap1\n  pop\n  jump\t// out\n    /* \"#utility.yul\":466:562   */\ntag_15:\n    /* \"#utility.yul\":503:510   */\n  0x00\n    /* \"#utility.yul\":532:556   */\n  tag_24\n    /* \"#utility.yul\":550:555   */\n  dup3\n    /* \"#utility.yul\":532:556   */\n  tag_14\n  jump\t// in\ntag_24:\n    /* \"#utility.yul\":521:556   */\n  swap1\n  pop\n    /* \"#utility.yul\":466:562   */\n  swap2\n  swap1\n  pop\n  jump\t// out\n    /* \"#utility.yul\":568:690   */\ntag_16:\n    /* \"#utility.yul\":641:665   */\n  tag_26\n    /* \"#utility.yul\":659:664   */\n  dup2\n    /* \"#utility.yul\":641:665   */\n  tag_15\n  jump\t// in\ntag_26:\n    /* \"#utility.yul\":634:639   */\n  dup2\n    /* \"#utility.yul\":631:666   */\n  eq\n    /* \"#utility.yul\":621:684   */\n  tag_27\n  jumpi\n    /* \"#utility.yul\":680:681   */\n  0x00\n    /* \"#utility.yul\":677:678   */\n  dup1\n    /* \"#utility.yul\":670:682   */\n  revert\n    /* \"#utility.yul\":621:684   */\ntag_27:\n    /* \"#utility.yul\":568:690   */\n  pop\n  jump\t// out\n    /* \"#utility.yul\":696:839   */\ntag_17:\n    /* \"#utility.yul\":753:758   */\n  0x00\n    /* \"#utility.yul\":784:790   */\n  dup2\n    /* \"#utility.yul\":778:791   */\n  mload\n    /* \"#utility.yul\":769:791   */\n  swap1\n  pop\n    /* \"#utility.yul\":800:833   */\n  tag_29\n    /* \"#utility.yul\":827:832   */\n  dup2\n    /* \"#utility.yul\":800:833   */\n  tag_16\n  jump\t// in\ntag_29:\n    /* \"#utility.yul\":696:839   */\n  swap3\n  swap2\n  pop\n  pop\n  jump\t// out\n    /* \"#utility.yul\":845:1196   */\ntag_2:\n    /* \"#utility.yul\":915:921   */\n  0x00\n    /* \"#utility.yul\":964:966   */\n  0x20\n    /* \"#utility.yul\":952:961   */\n  dup3\n    /* \"#utility.yul\":943:950   */\n  dup5\n    /* \"#utility.yul\":939:962   */\n  sub\n    /* \"#utility.yul\":935:967   */\n  slt\n    /* \"#utility.yul\":932:1051   */\n  iszero\n  tag_31\n  jumpi\n    /* \"#utility.yul\":970:1049   */\n  tag_32\n  tag_12\n  jump\t// in\ntag_32:\n    /* \"#utility.yul\":932:1051   */\ntag_31:\n    /* \"#utility.yul\":1090:1091   */\n  0x00\n    /* \"#utility.yul\":1115:1179   */\n  tag_33\n    /* \"#utility.yul\":1171:1178   */\n  dup5\n    /* \"#utility.yul\":1162:1168   */\n  dup3\n    /* \"#utility.yul\":1151:1160   */\n  dup6\n    /* \"#utility.yul\":1147:1169   */\n  add\n    /* \"#utility.yul\":1115:1179   */\n  tag_17\n  jump\t// in\ntag_33:\n    /* \"#utility.yul\":1105:1179   */\n  swap2\n  pop\n    /* \"#utility.yul\":1061:1189   */\n  pop\n    /* \"#utility.yul\":845:1196   */\n  swap3\n  swap2\n  pop\n  pop\n  jump\t// out\n    /* \"FlashLoan.sol\":472:3694  contract Flashloan is FlashLoanSimpleReceiverBase {... */\ntag_10:\n  mload(0x80)\n  mload(0xa0)\n  codecopy(0x00, dataOffset(sub_0), dataSize(sub_0))\n  0x00\n  assignImmutable(\"0xdab92d3cfd2fb10847c732668f5be4f526313d660461529e6720c950cca9ea28\")\n  0x00\n  assignImmutable(\"0xaf057546d61dd28804ca035e688a36db5f311bb8c4c9d2e1e5e44c0555cfe3bf\")\n  return(0x00, dataSize(sub_0))\nstop\n\nsub_0: assembly {\n        /* \"FlashLoan.sol\":472:3694  contract Flashloan is FlashLoanSimpleReceiverBase {... */\n      mstore(0x40, 0x80)\n      jumpi(tag_1, lt(calldatasize, 0x04))\n      shr(0xe0, calldataload(0x00))\n      dup1\n      0x51cff8d9\n      gt\n      tag_11\n      jumpi\n      dup1\n      0x51cff8d9\n      eq\n      tag_7\n      jumpi\n      dup1\n      0x7535d246\n      eq\n      tag_8\n      jumpi\n      dup1\n      0x8fe4b6e4\n      eq\n      tag_9\n      jumpi\n      dup1\n      0xf8b2cb4f\n      eq\n      tag_10\n      jumpi\n      jump(tag_2)\n    tag_11:\n      dup1\n      0x0542975c\n      eq\n      tag_3\n      jumpi\n      dup1\n      0x0efb2dbb\n      eq\n      tag_4\n      jumpi\n      dup1\n      0x1b11d0ff\n      eq\n      tag_5\n      jumpi\n      dup1\n      0x5107d61e\n      eq\n      tag_6\n      jumpi\n      jump(tag_2)\n    tag_1:\n      jumpi(tag_2, calldatasize)\n      stop\n    tag_2:\n      0x00\n      dup1\n      revert\n        /* \"@aave/core-v3/contracts/flashloan/base/FlashLoanSimpleReceiverBase.sol\":489:556  IPoolAddressesProvider public immutable override ADDRESSES_PROVIDER */\n    tag_3:\n      callvalue\n      dup1\n      iszero\n      tag_14\n      jumpi\n      0x00\n      dup1\n      revert\n    tag_14:\n      pop\n      tag_15\n      tag_16\n      jump\t// in\n    tag_15:\n      mload(0x40)\n      tag_17\n      swap2\n      swap1\n      tag_18\n      jump\t// in\n    tag_17:\n      mload(0x40)\n      dup1\n      swap2\n      sub\n      swap1\n      return\n        /* \"FlashLoan.sol\":2971:3203  function viewParams(bytes calldata params) public pure returns(address[] memory, bytes[] memory) {... */\n    tag_4:\n      callvalue\n      dup1\n      iszero\n      tag_19\n      jumpi\n      0x00\n      dup1\n      revert\n    tag_19:\n      pop\n      tag_20\n      0x04\n      dup1\n      calldatasize\n      sub\n      dup2\n      add\n      swap1\n      tag_21\n      swap2\n      swap1\n      tag_22\n      jump\t// in\n    tag_21:\n      tag_23\n      jump\t// in\n    tag_20:\n      mload(0x40)\n      tag_24\n      swap3\n      swap2\n      swap1\n      tag_25\n      jump\t// in\n    tag_24:\n      mload(0x40)\n      dup1\n      swap2\n      sub\n      swap1\n      return\n        /* \"FlashLoan.sol\":1105:2881  function executeOperation(... */\n    tag_5:\n      callvalue\n      dup1\n      iszero\n      tag_26\n      jumpi\n      0x00\n      dup1\n      revert\n    tag_26:\n      pop\n      tag_27\n      0x04\n      dup1\n      calldatasize\n      sub\n      dup2\n      add\n      swap1\n      tag_28\n      swap2\n      swap1\n      tag_29\n      jump\t// in\n    tag_28:\n      tag_30\n      jump\t// in\n    tag_27:\n      mload(0x40)\n      tag_31\n      swap2\n      swap1\n      tag_32\n      jump\t// in\n    tag_31:\n      mload(0x40)\n      dup1\n      swap2\n      sub\n      swap1\n      return\n        /* \"FlashLoan.sol\":741:1097  function requestFlashLoan(address _token, uint _amount, bytes calldata params) public {... */\n    tag_6:\n      callvalue\n      dup1\n      iszero\n      tag_33\n      jumpi\n      0x00\n      dup1\n      revert\n    tag_33:\n      pop\n      tag_34\n      0x04\n      dup1\n      calldatasize\n      sub\n      dup2\n      add\n      swap1\n      tag_35\n      swap2\n      swap1\n      tag_36\n      jump\t// in\n    tag_35:\n      tag_37\n      jump\t// in\n    tag_34:\n      stop\n        /* \"FlashLoan.sol\":3462:3647  function withdraw(address _tokenAddress ) onlyOwner external {... */\n    tag_7:\n      callvalue\n      dup1\n      iszero\n      tag_38\n      jumpi\n      0x00\n      dup1\n      revert\n    tag_38:\n      pop\n      tag_39\n      0x04\n      dup1\n      calldatasize\n      sub\n      dup2\n      add\n      swap1\n      tag_40\n      swap2\n      swap1\n      tag_41\n      jump\t// in\n    tag_40:\n      tag_42\n      jump\t// in\n    tag_39:\n      stop\n        /* \"@aave/core-v3/contracts/flashloan/base/FlashLoanSimpleReceiverBase.sol\":560:596  IPool public immutable override POOL */\n    tag_8:\n      callvalue\n      dup1\n      iszero\n      tag_43\n      jumpi\n      0x00\n      dup1\n      revert\n    tag_43:\n      pop\n      tag_44\n      tag_45\n      jump\t// in\n    tag_44:\n      mload(0x40)\n      tag_46\n      swap2\n      swap1\n      tag_47\n      jump\t// in\n    tag_46:\n      mload(0x40)\n      dup1\n      swap2\n      sub\n      swap1\n      return\n        /* \"FlashLoan.sol\":2887:2965  function gas_left() public view returns (uint) {... */\n    tag_9:\n      callvalue\n      dup1\n      iszero\n      tag_48\n      jumpi\n      0x00\n      dup1\n      revert\n    tag_48:\n      pop\n      tag_49\n      tag_50\n      jump\t// in\n    tag_49:\n      mload(0x40)\n      tag_51\n      swap2\n      swap1\n      tag_52\n      jump\t// in\n    tag_51:\n      mload(0x40)\n      dup1\n      swap2\n      sub\n      swap1\n      return\n        /* \"FlashLoan.sol\":3209:3347  function getBalance(address _tokenAddress) external view returns (uint) {... */\n    tag_10:\n      callvalue\n      dup1\n      iszero\n      tag_53\n      jumpi\n      0x00\n      dup1\n      revert\n    tag_53:\n      pop\n      tag_54\n      0x04\n      dup1\n      calldatasize\n      sub\n      dup2\n      add\n      swap1\n      tag_55\n      swap2\n      swap1\n      tag_41\n      jump\t// in\n    tag_55:\n      tag_56\n      jump\t// in\n    tag_54:\n      mload(0x40)\n      tag_57\n      swap2\n      swap1\n      tag_52\n      jump\t// in\n    tag_57:\n      mload(0x40)\n      dup1\n      swap2\n      sub\n      swap1\n      return\n        /* \"@aave/core-v3/contracts/flashloan/base/FlashLoanSimpleReceiverBase.sol\":489:556  IPoolAddressesProvider public immutable override ADDRESSES_PROVIDER */\n    tag_16:\n      immutable(\"0xaf057546d61dd28804ca035e688a36db5f311bb8c4c9d2e1e5e44c0555cfe3bf\")\n      dup2\n      jump\t// out\n        /* \"FlashLoan.sol\":2971:3203  function viewParams(bytes calldata params) public pure returns(address[] memory, bytes[] memory) {... */\n    tag_23:\n        /* \"FlashLoan.sol\":3034:3050  address[] memory */\n      0x60\n        /* \"FlashLoan.sol\":3052:3066  bytes[] memory */\n      dup1\n        /* \"FlashLoan.sol\":3078:3102  address[] memory routers */\n      0x00\n        /* \"FlashLoan.sol\":3104:3123  bytes[] memory data */\n      dup1\n        /* \"FlashLoan.sol\":3137:3143  params */\n      dup6\n      dup6\n        /* \"FlashLoan.sol\":3126:3166  abi.decode(params, (address[], bytes[])) */\n      dup2\n      add\n      swap1\n      tag_59\n      swap2\n      swap1\n      tag_60\n      jump\t// in\n    tag_59:\n        /* \"FlashLoan.sol\":3077:3166  (address[] memory routers, bytes[] memory data)= abi.decode(params, (address[], bytes[])) */\n      swap2\n      pop\n      swap2\n      pop\n        /* \"FlashLoan.sol\":3183:3190  routers */\n      dup2\n        /* \"FlashLoan.sol\":3192:3196  data */\n      dup2\n        /* \"FlashLoan.sol\":3175:3197  return (routers, data) */\n      swap4\n      pop\n      swap4\n      pop\n      pop\n      pop\n        /* \"FlashLoan.sol\":2971:3203  function viewParams(bytes calldata params) public pure returns(address[] memory, bytes[] memory) {... */\n      swap3\n      pop\n      swap3\n      swap1\n      pop\n      jump\t// out\n        /* \"FlashLoan.sol\":1105:2881  function executeOperation(... */\n    tag_30:\n        /* \"FlashLoan.sol\":1298:1302  bool */\n      0x00\n        /* \"FlashLoan.sol\":1382:1406  address[] memory routers */\n      dup1\n        /* \"FlashLoan.sol\":1408:1429  bytes[] memory trades */\n      0x00\n        /* \"FlashLoan.sol\":1431:1454  address[] memory tokens */\n      dup1\n        /* \"FlashLoan.sol\":1456:1479  bytes[] memory approves */\n      0x00\n        /* \"FlashLoan.sol\":1494:1500  params */\n      dup7\n      dup7\n        /* \"FlashLoan.sol\":1483:1543  abi.decode(params, (address[], bytes[], address[], bytes[])) */\n      dup2\n      add\n      swap1\n      tag_62\n      swap2\n      swap1\n      tag_63\n      jump\t// in\n    tag_62:\n        /* \"FlashLoan.sol\":1381:1543  (address[] memory routers, bytes[] memory trades, address[] memory tokens, bytes[] memory approves) = abi.decode(params, (address[], bytes[], address[], bytes[])) */\n      swap4\n      pop\n      swap4\n      pop\n      swap4\n      pop\n      swap4\n      pop\n        /* \"FlashLoan.sol\":1651:1652  0 */\n      0x00\n        /* \"FlashLoan.sol\":1634:1641  routers */\n      dup5\n        /* \"FlashLoan.sol\":1634:1648  routers.length */\n      mload\n        /* \"FlashLoan.sol\":1634:1652  routers.length > 0 */\n      gt\n        /* \"FlashLoan.sol\":1634:1687  routers.length > 0 && routers.length == trades.length */\n      dup1\n      iszero\n      tag_64\n      jumpi\n      pop\n        /* \"FlashLoan.sol\":1674:1680  trades */\n      dup3\n        /* \"FlashLoan.sol\":1674:1687  trades.length */\n      mload\n        /* \"FlashLoan.sol\":1656:1663  routers */\n      dup5\n        /* \"FlashLoan.sol\":1656:1670  routers.length */\n      mload\n        /* \"FlashLoan.sol\":1656:1687  routers.length == trades.length */\n      eq\n        /* \"FlashLoan.sol\":1634:1687  routers.length > 0 && routers.length == trades.length */\n    tag_64:\n        /* \"FlashLoan.sol\":1626:1705  require(routers.length > 0 && routers.length == trades.length, \"Invalid input\") */\n      tag_65\n      jumpi\n      mload(0x40)\n      0x08c379a000000000000000000000000000000000000000000000000000000000\n      dup2\n      mstore\n      0x04\n      add\n      tag_66\n      swap1\n      tag_67\n      jump\t// in\n    tag_66:\n      mload(0x40)\n      dup1\n      swap2\n      sub\n      swap1\n      revert\n    tag_65:\n        /* \"FlashLoan.sol\":1730:1739  uint256 i */\n      0x00\n        /* \"FlashLoan.sol\":1745:1752  routers */\n      dup5\n        /* \"FlashLoan.sol\":1745:1759  routers.length */\n      mload\n        /* \"FlashLoan.sol\":1741:1742  i */\n      dup2\n        /* \"FlashLoan.sol\":1741:1759  i < routers.length */\n      lt\n        /* \"FlashLoan.sol\":1726:2631  for(uint256 i; i < routers.length; i++) {... */\n      iszero\n      tag_69\n      jumpi\n        /* \"FlashLoan.sol\":1912:1931  bool successApprove */\n      0x00\n        /* \"FlashLoan.sol\":1932:1955  bytes memory returnData */\n      dup1\n        /* \"FlashLoan.sol\":1960:1966  tokens */\n      dup5\n        /* \"FlashLoan.sol\":1967:1968  i */\n      dup4\n        /* \"FlashLoan.sol\":1960:1969  tokens[i] */\n      dup2\n      mload\n      dup2\n      lt\n      tag_71\n      jumpi\n      tag_72\n      tag_73\n      jump\t// in\n    tag_72:\n    tag_71:\n      0x20\n      mul\n      0x20\n      add\n      add\n      mload\n        /* \"FlashLoan.sol\":1960:1974  tokens[i].call */\n      0xffffffffffffffffffffffffffffffffffffffff\n      and\n        /* \"FlashLoan.sol\":2043:2050  routers */\n      dup8\n        /* \"FlashLoan.sol\":2051:2052  i */\n      dup5\n        /* \"FlashLoan.sol\":2043:2053  routers[i] */\n      dup2\n      mload\n      dup2\n      lt\n      tag_74\n      jumpi\n      tag_75\n      tag_73\n      jump\t// in\n    tag_75:\n    tag_74:\n      0x20\n      mul\n      0x20\n      add\n      add\n      mload\n        /* \"FlashLoan.sol\":2055:2072  type(uint256).max */\n      0xffffffffffffffffffffffffffffffffffffffffffffffffffffffffffffffff\n        /* \"FlashLoan.sol\":1991:2073  abi.encodeWithSignature(\"approve(address,uint256)\", routers[i], type(uint256).max) */\n      add(0x24, mload(0x40))\n      tag_76\n      swap3\n      swap2\n      swap1\n      tag_77\n      jump\t// in\n    tag_76:\n      mload(0x40)\n      0x20\n      dup2\n      dup4\n      sub\n      sub\n      dup2\n      mstore\n      swap1\n      0x40\n      mstore\n      and(not(0xffffffffffffffffffffffffffffffffffffffffffffffffffffffff), 0x095ea7b300000000000000000000000000000000000000000000000000000000)\n      0x20\n      dup3\n      add\n      dup1\n      mload\n      0xffffffffffffffffffffffffffffffffffffffffffffffffffffffff\n      dup4\n      dup2\n      dup4\n      and\n      or\n      dup4\n      mstore\n      pop\n      pop\n      pop\n      pop\n        /* \"FlashLoan.sol\":1960:2074  tokens[i].call(... */\n      mload(0x40)\n      tag_78\n      swap2\n      swap1\n      tag_79\n      jump\t// in\n    tag_78:\n      0x00\n      mload(0x40)\n      dup1\n      dup4\n      sub\n      dup2\n      0x00\n      dup7\n      gas\n      call\n      swap2\n      pop\n      pop\n      returndatasize\n      dup1\n      0x00\n      dup2\n      eq\n      tag_82\n      jumpi\n      mload(0x40)\n      swap2\n      pop\n      and(add(returndatasize, 0x3f), not(0x1f))\n      dup3\n      add\n      0x40\n      mstore\n      returndatasize\n      dup3\n      mstore\n      returndatasize\n      0x00\n      0x20\n      dup5\n      add\n      returndatacopy\n      jump(tag_81)\n    tag_82:\n      0x60\n      swap2\n      pop\n    tag_81:\n      pop\n        /* \"FlashLoan.sol\":1911:2074  (bool successApprove,bytes memory returnData ) = tokens[i].call(... */\n      swap2\n      pop\n      swap2\n      pop\n        /* \"FlashLoan.sol\":2285:2299  successApprove */\n      dup2\n        /* \"FlashLoan.sol\":2277:2319  require(successApprove, \"Can not approve\") */\n      tag_83\n      jumpi\n      mload(0x40)\n      0x08c379a000000000000000000000000000000000000000000000000000000000\n      dup2\n      mstore\n      0x04\n      add\n      tag_84\n      swap1\n      tag_85\n      jump\t// in\n    tag_84:\n      mload(0x40)\n      dup1\n      swap2\n      sub\n      swap1\n      revert\n    tag_83:\n        /* \"FlashLoan.sol\":2436:2448  bool success */\n      0x00\n        /* \"FlashLoan.sol\":2450:2473  bytes memory returndata */\n      dup1\n        /* \"FlashLoan.sol\":2477:2484  routers */\n      dup9\n        /* \"FlashLoan.sol\":2485:2486  i */\n      dup6\n        /* \"FlashLoan.sol\":2477:2487  routers[i] */\n      dup2\n      mload\n      dup2\n      lt\n      tag_86\n      jumpi\n      tag_87\n      tag_73\n      jump\t// in\n    tag_87:\n    tag_86:\n      0x20\n      mul\n      0x20\n      add\n      add\n      mload\n        /* \"FlashLoan.sol\":2477:2492  routers[i].call */\n      0xffffffffffffffffffffffffffffffffffffffff\n      and\n        /* \"FlashLoan.sol\":2493:2499  trades */\n      dup9\n        /* \"FlashLoan.sol\":2500:2501  i */\n      dup7\n        /* \"FlashLoan.sol\":2493:2502  trades[i] */\n      dup2\n      mload\n      dup2\n      lt\n      tag_88\n      jumpi\n      tag_89\n      tag_73\n      jump\t// in\n    tag_89:\n    tag_88:\n      0x20\n      mul\n      0x20\n      add\n      add\n      mload\n        /* \"FlashLoan.sol\":2477:2503  routers[i].call(trades[i]) */\n      mload(0x40)\n      tag_90\n      swap2\n      swap1\n      tag_79\n      jump\t// in\n    tag_90:\n      0x00\n      mload(0x40)\n      dup1\n      dup4\n      sub\n      dup2\n      0x00\n      dup7\n      gas\n      call\n      swap2\n      pop\n      pop\n      returndatasize\n      dup1\n      0x00\n      dup2\n      eq\n      tag_93\n      jumpi\n      mload(0x40)\n      swap2\n      pop\n      and(add(returndatasize, 0x3f), not(0x1f))\n      dup3\n      add\n      0x40\n      mstore\n      returndatasize\n      dup3\n      mstore\n      returndatasize\n      0x00\n      0x20\n      dup5\n      add\n      returndatacopy\n      jump(tag_92)\n    tag_93:\n      0x60\n      swap2\n      pop\n    tag_92:\n      pop\n        /* \"FlashLoan.sol\":2435:2503  (bool success, bytes memory returndata) = routers[i].call(trades[i]) */\n      swap2\n      pop\n      swap2\n      pop\n        /* \"FlashLoan.sol\":2526:2533  success */\n      dup2\n        /* \"FlashLoan.sol\":2518:2559  require(success, \"can not trade(( blyat\") */\n      tag_94\n      jumpi\n      mload(0x40)\n      0x08c379a000000000000000000000000000000000000000000000000000000000\n      dup2\n      mstore\n      0x04\n      add\n      tag_95\n      swap1\n      tag_96\n      jump\t// in\n    tag_95:\n      mload(0x40)\n      dup1\n      swap2\n      sub\n      swap1\n      revert\n    tag_94:\n        /* \"FlashLoan.sol\":2574:2619  revert(\"We finished at leatst one trade!!!!\") */\n      mload(0x40)\n      0x08c379a000000000000000000000000000000000000000000000000000000000\n      dup2\n      mstore\n      0x04\n      add\n      tag_97\n      swap1\n      tag_98\n      jump\t// in\n    tag_97:\n      mload(0x40)\n      dup1\n      swap2\n      sub\n      swap1\n      revert\n        /* \"FlashLoan.sol\":1726:2631  for(uint256 i; i < routers.length; i++) {... */\n    tag_69:\n      pop\n        /* \"FlashLoan.sol\":2712:2730  uint256 amountOwed */\n      0x00\n        /* \"FlashLoan.sol\":2742:2749  premium */\n      dup10\n        /* \"FlashLoan.sol\":2733:2739  amount */\n      dup12\n        /* \"FlashLoan.sol\":2733:2749  amount + premium */\n      tag_101\n      swap2\n      swap1\n      tag_102\n      jump\t// in\n    tag_101:\n        /* \"FlashLoan.sol\":2712:2749  uint256 amountOwed = amount + premium */\n      swap1\n      pop\n        /* \"FlashLoan.sol\":2760:2792  revert(\"We finished trades!!!!\") */\n      mload(0x40)\n      0x08c379a000000000000000000000000000000000000000000000000000000000\n      dup2\n      mstore\n      0x04\n      add\n      tag_103\n      swap1\n      tag_104\n      jump\t// in\n    tag_103:\n      mload(0x40)\n      dup1\n      swap2\n      sub\n      swap1\n      revert\n        /* \"FlashLoan.sol\":741:1097  function requestFlashLoan(address _token, uint _amount, bytes calldata params) public {... */\n    tag_37:\n        /* \"FlashLoan.sol\":834:857  address receiverAddress */\n      0x00\n        /* \"FlashLoan.sol\":868:872  this */\n      address\n        /* \"FlashLoan.sol\":834:873  address receiverAddress = address(this) */\n      swap1\n      pop\n        /* \"FlashLoan.sol\":880:893  address asset */\n      0x00\n        /* \"FlashLoan.sol\":896:902  _token */\n      dup6\n        /* \"FlashLoan.sol\":880:902  address asset = _token */\n      swap1\n      pop\n        /* \"FlashLoan.sol\":909:920  uint amount */\n      0x00\n        /* \"FlashLoan.sol\":923:930  _amount */\n      dup6\n        /* \"FlashLoan.sol\":909:930  uint amount = _amount */\n      swap1\n      pop\n        /* \"FlashLoan.sol\":937:956  uint16 referralCode */\n      0x00\n        /* \"FlashLoan.sol\":965:969  POOL */\n      immutable(\"0xdab92d3cfd2fb10847c732668f5be4f526313d660461529e6720c950cca9ea28\")\n        /* \"FlashLoan.sol\":965:985  POOL.flashLoanSimple */\n      0xffffffffffffffffffffffffffffffffffffffff\n      and\n      0x42b0b77c\n        /* \"FlashLoan.sol\":996:1011  receiverAddress */\n      dup6\n        /* \"FlashLoan.sol\":1022:1027  asset */\n      dup6\n        /* \"FlashLoan.sol\":1038:1044  amount */\n      dup6\n        /* \"FlashLoan.sol\":1055:1061  params */\n      dup11\n      dup11\n        /* \"FlashLoan.sol\":1072:1084  referralCode */\n      dup8\n        /* \"FlashLoan.sol\":965:1085  POOL.flashLoanSimple(... */\n      mload(0x40)\n      dup8\n      0xffffffff\n      and\n      0xe0\n      shl\n      dup2\n      mstore\n      0x04\n      add\n      tag_111\n      swap7\n      swap6\n      swap5\n      swap4\n      swap3\n      swap2\n      swap1\n      tag_112\n      jump\t// in\n    tag_111:\n      0x00\n      mload(0x40)\n      dup1\n      dup4\n      sub\n      dup2\n      0x00\n      dup8\n      dup1\n      extcodesize\n      iszero\n      dup1\n      iszero\n      tag_113\n      jumpi\n      0x00\n      dup1\n      revert\n    tag_113:\n      pop\n      gas\n      call\n      iszero\n      dup1\n      iszero\n      tag_115\n      jumpi\n      returndatasize\n      0x00\n      dup1\n      returndatacopy\n      revert(0x00, returndatasize)\n    tag_115:\n      pop\n      pop\n      pop\n      pop\n        /* \"FlashLoan.sol\":827:1097  {... */\n      pop\n      pop\n      pop\n      pop\n        /* \"FlashLoan.sol\":741:1097  function requestFlashLoan(address _token, uint _amount, bytes calldata params) public {... */\n      pop\n      pop\n      pop\n      pop\n      jump\t// out\n        /* \"FlashLoan.sol\":3462:3647  function withdraw(address _tokenAddress ) onlyOwner external {... */\n    tag_42:\n        /* \"FlashLoan.sol\":3405:3410  owner */\n      0x00\n      dup1\n      sload\n      swap1\n      0x0100\n      exp\n      swap1\n      div\n      0xffffffffffffffffffffffffffffffffffffffff\n      and\n        /* \"FlashLoan.sol\":3393:3410  msg.sender==owner */\n      0xffffffffffffffffffffffffffffffffffffffff\n      and\n        /* \"FlashLoan.sol\":3393:3403  msg.sender */\n      caller\n        /* \"FlashLoan.sol\":3393:3410  msg.sender==owner */\n      0xffffffffffffffffffffffffffffffffffffffff\n      and\n      eq\n        /* \"FlashLoan.sol\":3385:3436  require(msg.sender==owner, \"You are not the owner\") */\n      tag_117\n      jumpi\n      mload(0x40)\n      0x08c379a000000000000000000000000000000000000000000000000000000000\n      dup2\n      mstore\n      0x04\n      add\n      tag_118\n      swap1\n      tag_119\n      jump\t// in\n    tag_118:\n      mload(0x40)\n      dup1\n      swap2\n      sub\n      swap1\n      revert\n    tag_117:\n        /* \"FlashLoan.sol\":3534:3546  IERC20 token */\n      0x00\n        /* \"FlashLoan.sol\":3556:3569  _tokenAddress */\n      dup2\n        /* \"FlashLoan.sol\":3534:3570  IERC20 token = IERC20(_tokenAddress) */\n      swap1\n      pop\n        /* \"FlashLoan.sol\":3581:3586  token */\n      dup1\n        /* \"FlashLoan.sol\":3581:3595  token.transfer */\n      0xffffffffffffffffffffffffffffffffffffffff\n      and\n      0xa9059cbb\n        /* \"FlashLoan.sol\":3596:3606  msg.sender */\n      caller\n        /* \"FlashLoan.sol\":3608:3613  token */\n      dup4\n        /* \"FlashLoan.sol\":3608:3623  token.balanceOf */\n      0xffffffffffffffffffffffffffffffffffffffff\n      and\n      0x70a08231\n        /* \"FlashLoan.sol\":3632:3636  this */\n      address\n        /* \"FlashLoan.sol\":3608:3638  token.balanceOf(address(this)) */\n      mload(0x40)\n      dup3\n      0xffffffff\n      and\n      0xe0\n      shl\n      dup2\n      mstore\n      0x04\n      add\n      tag_121\n      swap2\n      swap1\n      tag_122\n      jump\t// in\n    tag_121:\n      0x20\n      mload(0x40)\n      dup1\n      dup4\n      sub\n      dup2\n      dup7\n      gas\n      staticcall\n      iszero\n      dup1\n      iszero\n      tag_124\n      jumpi\n      returndatasize\n      0x00\n      dup1\n      returndatacopy\n      revert(0x00, returndatasize)\n    tag_124:\n      pop\n      pop\n      pop\n      pop\n      mload(0x40)\n      returndatasize\n      not(0x1f)\n      0x1f\n      dup3\n      add\n      and\n      dup3\n      add\n      dup1\n      0x40\n      mstore\n      pop\n      dup2\n      add\n      swap1\n      tag_125\n      swap2\n      swap1\n      tag_126\n      jump\t// in\n    tag_125:\n        /* \"FlashLoan.sol\":3581:3639  token.transfer(msg.sender, token.balanceOf(address(this))) */\n      mload(0x40)\n      dup4\n      0xffffffff\n      and\n      0xe0\n      shl\n      dup2\n      mstore\n      0x04\n      add\n      tag_127\n      swap3\n      swap2\n      swap1\n      tag_77\n      jump\t// in\n    tag_127:\n      0x20\n      mload(0x40)\n      dup1\n      dup4\n      sub\n      dup2\n      0x00\n      dup8\n      gas\n      call\n      iszero\n      dup1\n      iszero\n      tag_129\n      jumpi\n      returndatasize\n      0x00\n      dup1\n      returndatacopy\n      revert(0x00, returndatasize)\n    tag_129:\n      pop\n      pop\n      pop\n      pop\n      mload(0x40)\n      returndatasize\n      not(0x1f)\n      0x1f\n      dup3\n      add\n      and\n      dup3\n      add\n      dup1\n      0x40\n      mstore\n      pop\n      dup2\n      add\n      swap1\n      tag_130\n      swap2\n      swap1\n      tag_109\n      jump\t// in\n    tag_130:\n      pop\n        /* \"FlashLoan.sol\":3523:3647  {... */\n      pop\n        /* \"FlashLoan.sol\":3462:3647  function withdraw(address _tokenAddress ) onlyOwner external {... */\n      pop\n      jump\t// out\n        /* \"@aave/core-v3/contracts/flashloan/base/FlashLoanSimpleReceiverBase.sol\":560:596  IPool public immutable override POOL */\n    tag_45:\n      immutable(\"0xdab92d3cfd2fb10847c732668f5be4f526313d660461529e6720c950cca9ea28\")\n      dup2\n      jump\t// out\n        /* \"FlashLoan.sol\":2887:2965  function gas_left() public view returns (uint) {... */\n    tag_50:\n        /* \"FlashLoan.sol\":2928:2932  uint */\n      0x00\n        /* \"FlashLoan.sol\":2950:2959  gasleft() */\n      gas\n        /* \"FlashLoan.sol\":2943:2959  return gasleft() */\n      swap1\n      pop\n        /* \"FlashLoan.sol\":2887:2965  function gas_left() public view returns (uint) {... */\n      swap1\n      jump\t// out\n        /* \"FlashLoan.sol\":3209:3347  function getBalance(address _tokenAddress) external view returns (uint) {... */\n    tag_56:\n        /* \"FlashLoan.sol\":3275:3279  uint */\n      0x00\n        /* \"FlashLoan.sol\":3302:3315  _tokenAddress */\n      dup2\n        /* \"FlashLoan.sol\":3295:3326  IERC20(_tokenAddress).balanceOf */\n      0xffffffffffffffffffffffffffffffffffffffff\n      and\n      0x70a08231\n        /* \"FlashLoan.sol\":3335:3339  this */\n      address\n        /* \"FlashLoan.sol\":3295:3341  IERC20(_tokenAddress).balanceOf(address(this)) */\n      mload(0x40)\n      dup3\n      0xffffffff\n      and\n      0xe0\n      shl\n      dup2\n      mstore\n      0x04\n      add\n      tag_133\n      swap2\n      swap1\n      tag_122\n      jump\t// in\n    tag_133:\n      0x20\n      mload(0x40)\n      dup1\n      dup4\n      sub\n      dup2\n      dup7\n      gas\n      staticcall\n      iszero\n      dup1\n      iszero\n      tag_135\n      jumpi\n      returndatasize\n      0x00\n      dup1\n      returndatacopy\n      revert(0x00, returndatasize)\n    tag_135:\n      pop\n      pop\n      pop\n      pop\n      mload(0x40)\n      returndatasize\n      not(0x1f)\n      0x1f\n      dup3\n      add\n      and\n      dup3\n      add\n      dup1\n      0x40\n      mstore\n      pop\n      dup2\n      add\n      swap1\n      tag_136\n      swap2\n      swap1\n      tag_126\n      jump\t// in\n    tag_136:\n        /* \"FlashLoan.sol\":3288:3341  return IERC20(_tokenAddress).balanceOf(address(this)) */\n      swap1\n      pop\n        /* \"FlashLoan.sol\":3209:3347  function getBalance(address _tokenAddress) external view returns (uint) {... */\n      swap2\n      swap1\n      pop\n      jump\t// out\n        /* \"#utility.yul\":7:133   */\n    tag_137:\n        /* \"#utility.yul\":44:51   */\n      0x00\n        /* \"#utility.yul\":84:126   */\n      0xffffffffffffffffffffffffffffffffffffffff\n        /* \"#utility.yul\":77:82   */\n      dup3\n        /* \"#utility.yul\":73:127   */\n      and\n        /* \"#utility.yul\":62:127   */\n      swap1\n      pop\n        /* \"#utility.yul\":7:133   */\n      swap2\n      swap1\n      pop\n      jump\t// out\n        /* \"#utility.yul\":139:199   */\n    tag_138:\n        /* \"#utility.yul\":167:170   */\n      0x00\n        /* \"#utility.yul\":188:193   */\n      dup2\n        /* \"#utility.yul\":181:193   */\n      swap1\n      pop\n        /* \"#utility.yul\":139:199   */\n      swap2\n      swap1\n      pop\n      jump\t// out\n        /* \"#utility.yul\":205:347   */\n    tag_139:\n        /* \"#utility.yul\":255:264   */\n      0x00\n        /* \"#utility.yul\":288:341   */\n      tag_221\n        /* \"#utility.yul\":306:340   */\n      tag_222\n        /* \"#utility.yul\":315:339   */\n      tag_223\n        /* \"#utility.yul\":333:338   */\n      dup5\n        /* \"#utility.yul\":315:339   */\n      tag_137\n      jump\t// in\n    tag_223:\n        /* \"#utility.yul\":306:340   */\n      tag_138\n      jump\t// in\n    tag_222:\n        /* \"#utility.yul\":288:341   */\n      tag_137\n      jump\t// in\n    tag_221:\n        /* \"#utility.yul\":275:341   */\n      swap1\n      pop\n        /* \"#utility.yul\":205:347   */\n      swap2\n      swap1\n      pop\n      jump\t// out\n        /* \"#utility.yul\":353:479   */\n    tag_140:\n        /* \"#utility.yul\":403:412   */\n      0x00\n        /* \"#utility.yul\":436:473   */\n      tag_225\n        /* \"#utility.yul\":467:472   */\n      dup3\n        /* \"#utility.yul\":436:473   */\n      tag_139\n      jump\t// in\n    tag_225:\n        /* \"#utility.yul\":423:473   */\n      swap1\n      pop\n        /* \"#utility.yul\":353:479   */\n      swap2\n      swap1\n      pop\n      jump\t// out\n        /* \"#utility.yul\":485:642   */\n    tag_141:\n        /* \"#utility.yul\":566:575   */\n      0x00\n        /* \"#utility.yul\":599:636   */\n      tag_227\n        /* \"#utility.yul\":630:635   */\n      dup3\n        /* \"#utility.yul\":599:636   */\n      tag_140\n      jump\t// in\n    tag_227:\n        /* \"#utility.yul\":586:636   */\n      swap1\n      pop\n        /* \"#utility.yul\":485:642   */\n      swap2\n      swap1\n      pop\n      jump\t// out\n        /* \"#utility.yul\":648:841   */\n    tag_142:\n        /* \"#utility.yul\":766:834   */\n      tag_229\n        /* \"#utility.yul\":828:833   */\n      dup2\n        /* \"#utility.yul\":766:834   */\n      tag_141\n      jump\t// in\n    tag_229:\n        /* \"#utility.yul\":761:764   */\n      dup3\n        /* \"#utility.yul\":754:835   */\n      mstore\n        /* \"#utility.yul\":648:841   */\n      pop\n      pop\n      jump\t// out\n        /* \"#utility.yul\":847:1131   */\n    tag_18:\n        /* \"#utility.yul\":971:975   */\n      0x00\n        /* \"#utility.yul\":1009:1011   */\n      0x20\n        /* \"#utility.yul\":998:1007   */\n      dup3\n        /* \"#utility.yul\":994:1012   */\n      add\n        /* \"#utility.yul\":986:1012   */\n      swap1\n      pop\n        /* \"#utility.yul\":1022:1124   */\n      tag_231\n        /* \"#utility.yul\":1121:1122   */\n      0x00\n        /* \"#utility.yul\":1110:1119   */\n      dup4\n        /* \"#utility.yul\":1106:1123   */\n      add\n        /* \"#utility.yul\":1097:1103   */\n      dup5\n        /* \"#utility.yul\":1022:1124   */\n      tag_142\n      jump\t// in\n    tag_231:\n        /* \"#utility.yul\":847:1131   */\n      swap3\n      swap2\n      pop\n      pop\n      jump\t// out\n        /* \"#utility.yul\":1137:1212   */\n    tag_143:\n        /* \"#utility.yul\":1170:1176   */\n      0x00\n        /* \"#utility.yul\":1203:1205   */\n      0x40\n        /* \"#utility.yul\":1197:1206   */\n      mload\n        /* \"#utility.yul\":1187:1206   */\n      swap1\n      pop\n        /* \"#utility.yul\":1137:1212   */\n      swap1\n      jump\t// out\n        /* \"#utility.yul\":1218:1335   */\n    tag_144:\n        /* \"#utility.yul\":1327:1328   */\n      0x00\n        /* \"#utility.yul\":1324:1325   */\n      dup1\n        /* \"#utility.yul\":1317:1329   */\n      revert\n        /* \"#utility.yul\":1341:1458   */\n    tag_145:\n        /* \"#utility.yul\":1450:1451   */\n      0x00\n        /* \"#utility.yul\":1447:1448   */\n      dup1\n        /* \"#utility.yul\":1440:1452   */\n      revert\n        /* \"#utility.yul\":1464:1581   */\n    tag_146:\n        /* \"#utility.yul\":1573:1574   */\n      0x00\n        /* \"#utility.yul\":1570:1571   */\n      dup1\n        /* \"#utility.yul\":1563:1575   */\n      revert\n        /* \"#utility.yul\":1587:1704   */\n    tag_147:\n        /* \"#utility.yul\":1696:1697   */\n      0x00\n        /* \"#utility.yul\":1693:1694   */\n      dup1\n        /* \"#utility.yul\":1686:1698   */\n      revert\n        /* \"#utility.yul\":1710:1827   */\n    tag_148:\n        /* \"#utility.yul\":1819:1820   */\n      0x00\n        /* \"#utility.yul\":1816:1817   */\n      dup1\n        /* \"#utility.yul\":1809:1821   */\n      revert\n        /* \"#utility.yul\":1846:2398   */\n    tag_149:\n        /* \"#utility.yul\":1903:1911   */\n      0x00\n        /* \"#utility.yul\":1913:1919   */\n      dup1\n        /* \"#utility.yul\":1963:1966   */\n      dup4\n        /* \"#utility.yul\":1956:1960   */\n      0x1f\n        /* \"#utility.yul\":1948:1954   */\n      dup5\n        /* \"#utility.yul\":1944:1961   */\n      add\n        /* \"#utility.yul\":1940:1967   */\n      slt\n        /* \"#utility.yul\":1930:2052   */\n      tag_239\n      jumpi\n        /* \"#utility.yul\":1971:2050   */\n      tag_240\n      tag_146\n      jump\t// in\n    tag_240:\n        /* \"#utility.yul\":1930:2052   */\n    tag_239:\n        /* \"#utility.yul\":2084:2090   */\n      dup3\n        /* \"#utility.yul\":2071:2091   */\n      calldataload\n        /* \"#utility.yul\":2061:2091   */\n      swap1\n      pop\n        /* \"#utility.yul\":2114:2132   */\n      0xffffffffffffffff\n        /* \"#utility.yul\":2106:2112   */\n      dup2\n        /* \"#utility.yul\":2103:2133   */\n      gt\n        /* \"#utility.yul\":2100:2217   */\n      iszero\n      tag_241\n      jumpi\n        /* \"#utility.yul\":2136:2215   */\n      tag_242\n      tag_147\n      jump\t// in\n    tag_242:\n        /* \"#utility.yul\":2100:2217   */\n    tag_241:\n        /* \"#utility.yul\":2250:2254   */\n      0x20\n        /* \"#utility.yul\":2242:2248   */\n      dup4\n        /* \"#utility.yul\":2238:2255   */\n      add\n        /* \"#utility.yul\":2226:2255   */\n      swap2\n      pop\n        /* \"#utility.yul\":2304:2307   */\n      dup4\n        /* \"#utility.yul\":2296:2300   */\n      0x01\n        /* \"#utility.yul\":2288:2294   */\n      dup3\n        /* \"#utility.yul\":2284:2301   */\n      mul\n        /* \"#utility.yul\":2274:2282   */\n      dup4\n        /* \"#utility.yul\":2270:2302   */\n      add\n        /* \"#utility.yul\":2267:2308   */\n      gt\n        /* \"#utility.yul\":2264:2392   */\n      iszero\n      tag_243\n      jumpi\n        /* \"#utility.yul\":2311:2390   */\n      tag_244\n      tag_148\n      jump\t// in\n    tag_244:\n        /* \"#utility.yul\":2264:2392   */\n    tag_243:\n        /* \"#utility.yul\":1846:2398   */\n      swap3\n      pop\n      swap3\n      swap1\n      pop\n      jump\t// out\n        /* \"#utility.yul\":2404:2931   */\n    tag_22:\n        /* \"#utility.yul\":2474:2480   */\n      0x00\n        /* \"#utility.yul\":2482:2488   */\n      dup1\n        /* \"#utility.yul\":2531:2533   */\n      0x20\n        /* \"#utility.yul\":2519:2528   */\n      dup4\n        /* \"#utility.yul\":2510:2517   */\n      dup6\n        /* \"#utility.yul\":2506:2529   */\n      sub\n        /* \"#utility.yul\":2502:2534   */\n      slt\n        /* \"#utility.yul\":2499:2618   */\n      iszero\n      tag_246\n      jumpi\n        /* \"#utility.yul\":2537:2616   */\n      tag_247\n      tag_144\n      jump\t// in\n    tag_247:\n        /* \"#utility.yul\":2499:2618   */\n    tag_246:\n        /* \"#utility.yul\":2685:2686   */\n      0x00\n        /* \"#utility.yul\":2674:2683   */\n      dup4\n        /* \"#utility.yul\":2670:2687   */\n      add\n        /* \"#utility.yul\":2657:2688   */\n      calldataload\n        /* \"#utility.yul\":2715:2733   */\n      0xffffffffffffffff\n        /* \"#utility.yul\":2707:2713   */\n      dup2\n        /* \"#utility.yul\":2704:2734   */\n      gt\n        /* \"#utility.yul\":2701:2818   */\n      iszero\n      tag_248\n      jumpi\n        /* \"#utility.yul\":2737:2816   */\n      tag_249\n      tag_145\n      jump\t// in\n    tag_249:\n        /* \"#utility.yul\":2701:2818   */\n    tag_248:\n        /* \"#utility.yul\":2850:2914   */\n      tag_250\n        /* \"#utility.yul\":2906:2913   */\n      dup6\n        /* \"#utility.yul\":2897:2903   */\n      dup3\n        /* \"#utility.yul\":2886:2895   */\n      dup7\n        /* \"#utility.yul\":2882:2904   */\n      add\n        /* \"#utility.yul\":2850:2914   */\n      tag_149\n      jump\t// in\n    tag_250:\n        /* \"#utility.yul\":2832:2914   */\n      swap3\n      pop\n      swap3\n      pop\n        /* \"#utility.yul\":2628:2924   */\n      pop\n        /* \"#utility.yul\":2404:2931   */\n      swap3\n      pop\n      swap3\n      swap1\n      pop\n      jump\t// out\n        /* \"#utility.yul\":2937:3051   */\n    tag_150:\n        /* \"#utility.yul\":3004:3010   */\n      0x00\n        /* \"#utility.yul\":3038:3043   */\n      dup2\n        /* \"#utility.yul\":3032:3044   */\n      mload\n        /* \"#utility.yul\":3022:3044   */\n      swap1\n      pop\n        /* \"#utility.yul\":2937:3051   */\n      swap2\n      swap1\n      pop\n      jump\t// out\n        /* \"#utility.yul\":3057:3241   */\n    tag_151:\n        /* \"#utility.yul\":3156:3167   */\n      0x00\n        /* \"#utility.yul\":3190:3196   */\n      dup3\n        /* \"#utility.yul\":3185:3188   */\n      dup3\n        /* \"#utility.yul\":3178:3197   */\n      mstore\n        /* \"#utility.yul\":3230:3234   */\n      0x20\n        /* \"#utility.yul\":3225:3228   */\n      dup3\n        /* \"#utility.yul\":3221:3235   */\n      add\n        /* \"#utility.yul\":3206:3235   */\n      swap1\n      pop\n        /* \"#utility.yul\":3057:3241   */\n      swap3\n      swap2\n      pop\n      pop\n      jump\t// out\n        /* \"#utility.yul\":3247:3379   */\n    tag_152:\n        /* \"#utility.yul\":3314:3318   */\n      0x00\n        /* \"#utility.yul\":3337:3340   */\n      dup2\n        /* \"#utility.yul\":3329:3340   */\n      swap1\n      pop\n        /* \"#utility.yul\":3367:3371   */\n      0x20\n        /* \"#utility.yul\":3362:3365   */\n      dup3\n        /* \"#utility.yul\":3358:3372   */\n      add\n        /* \"#utility.yul\":3350:3372   */\n      swap1\n      pop\n        /* \"#utility.yul\":3247:3379   */\n      swap2\n      swap1\n      pop\n      jump\t// out\n        /* \"#utility.yul\":3385:3481   */\n    tag_153:\n        /* \"#utility.yul\":3422:3429   */\n      0x00\n        /* \"#utility.yul\":3451:3475   */\n      tag_255\n        /* \"#utility.yul\":3469:3474   */\n      dup3\n        /* \"#utility.yul\":3451:3475   */\n      tag_137\n      jump\t// in\n    tag_255:\n        /* \"#utility.yul\":3440:3475   */\n      swap1\n      pop\n        /* \"#utility.yul\":3385:3481   */\n      swap2\n      swap1\n      pop\n      jump\t// out\n        /* \"#utility.yul\":3487:3595   */\n    tag_154:\n        /* \"#utility.yul\":3564:3588   */\n      tag_257\n        /* \"#utility.yul\":3582:3587   */\n      dup2\n        /* \"#utility.yul\":3564:3588   */\n      tag_153\n      jump\t// in\n    tag_257:\n        /* \"#utility.yul\":3559:3562   */\n      dup3\n        /* \"#utility.yul\":3552:3589   */\n      mstore\n        /* \"#utility.yul\":3487:3595   */\n      pop\n      pop\n      jump\t// out\n        /* \"#utility.yul\":3601:3780   */\n    tag_155:\n        /* \"#utility.yul\":3670:3680   */\n      0x00\n        /* \"#utility.yul\":3691:3737   */\n      tag_259\n        /* \"#utility.yul\":3733:3736   */\n      dup4\n        /* \"#utility.yul\":3725:3731   */\n      dup4\n        /* \"#utility.yul\":3691:3737   */\n      tag_154\n      jump\t// in\n    tag_259:\n        /* \"#utility.yul\":3769:3773   */\n      0x20\n        /* \"#utility.yul\":3764:3767   */\n      dup4\n        /* \"#utility.yul\":3760:3774   */\n      add\n        /* \"#utility.yul\":3746:3774   */\n      swap1\n      pop\n        /* \"#utility.yul\":3601:3780   */\n      swap3\n      swap2\n      pop\n      pop\n      jump\t// out\n        /* \"#utility.yul\":3786:3899   */\n    tag_156:\n        /* \"#utility.yul\":3856:3860   */\n      0x00\n        /* \"#utility.yul\":3888:3892   */\n      0x20\n        /* \"#utility.yul\":3883:3886   */\n      dup3\n        /* \"#utility.yul\":3879:3893   */\n      add\n        /* \"#utility.yul\":3871:3893   */\n      swap1\n      pop\n        /* \"#utility.yul\":3786:3899   */\n      swap2\n      swap1\n      pop\n      jump\t// out\n        /* \"#utility.yul\":3935:4667   */\n    tag_157:\n        /* \"#utility.yul\":4054:4057   */\n      0x00\n        /* \"#utility.yul\":4083:4137   */\n      tag_262\n        /* \"#utility.yul\":4131:4136   */\n      dup3\n        /* \"#utility.yul\":4083:4137   */\n      tag_150\n      jump\t// in\n    tag_262:\n        /* \"#utility.yul\":4153:4239   */\n      tag_263\n        /* \"#utility.yul\":4232:4238   */\n      dup2\n        /* \"#utility.yul\":4227:4230   */\n      dup6\n        /* \"#utility.yul\":4153:4239   */\n      tag_151\n      jump\t// in\n    tag_263:\n        /* \"#utility.yul\":4146:4239   */\n      swap4\n      pop\n        /* \"#utility.yul\":4263:4319   */\n      tag_264\n        /* \"#utility.yul\":4313:4318   */\n      dup4\n        /* \"#utility.yul\":4263:4319   */\n      tag_152\n      jump\t// in\n    tag_264:\n        /* \"#utility.yul\":4342:4349   */\n      dup1\n        /* \"#utility.yul\":4373:4374   */\n      0x00\n        /* \"#utility.yul\":4358:4642   */\n    tag_265:\n        /* \"#utility.yul\":4383:4389   */\n      dup4\n        /* \"#utility.yul\":4380:4381   */\n      dup2\n        /* \"#utility.yul\":4377:4390   */\n      lt\n        /* \"#utility.yul\":4358:4642   */\n      iszero\n      tag_267\n      jumpi\n        /* \"#utility.yul\":4459:4465   */\n      dup2\n        /* \"#utility.yul\":4453:4466   */\n      mload\n        /* \"#utility.yul\":4486:4549   */\n      tag_268\n        /* \"#utility.yul\":4545:4548   */\n      dup9\n        /* \"#utility.yul\":4530:4543   */\n      dup3\n        /* \"#utility.yul\":4486:4549   */\n      tag_155\n      jump\t// in\n    tag_268:\n        /* \"#utility.yul\":4479:4549   */\n      swap8\n      pop\n        /* \"#utility.yul\":4572:4632   */\n      tag_269\n        /* \"#utility.yul\":4625:4631   */\n      dup4\n        /* \"#utility.yul\":4572:4632   */\n      tag_156\n      jump\t// in\n    tag_269:\n        /* \"#utility.yul\":4562:4632   */\n      swap3\n      pop\n        /* \"#utility.yul\":4418:4642   */\n      pop\n        /* \"#utility.yul\":4405:4406   */\n      0x01\n        /* \"#utility.yul\":4402:4403   */\n      dup2\n        /* \"#utility.yul\":4398:4407   */\n      add\n        /* \"#utility.yul\":4393:4407   */\n      swap1\n      pop\n        /* \"#utility.yul\":4358:4642   */\n      jump(tag_265)\n    tag_267:\n        /* \"#utility.yul\":4362:4376   */\n      pop\n        /* \"#utility.yul\":4658:4661   */\n      dup6\n        /* \"#utility.yul\":4651:4661   */\n      swap4\n      pop\n        /* \"#utility.yul\":4059:4667   */\n      pop\n      pop\n      pop\n        /* \"#utility.yul\":3935:4667   */\n      swap3\n      swap2\n      pop\n      pop\n      jump\t// out\n        /* \"#utility.yul\":4673:4796   */\n    tag_158:\n        /* \"#utility.yul\":4749:4755   */\n      0x00\n        /* \"#utility.yul\":4783:4788   */\n      dup2\n        /* \"#utility.yul\":4777:4789   */\n      mload\n        /* \"#utility.yul\":4767:4789   */\n      swap1\n      pop\n        /* \"#utility.yul\":4673:4796   */\n      swap2\n      swap1\n      pop\n      jump\t// out\n        /* \"#utility.yul\":4802:4995   */\n    tag_159:\n        /* \"#utility.yul\":4910:4921   */\n      0x00\n        /* \"#utility.yul\":4944:4950   */\n      dup3\n        /* \"#utility.yul\":4939:4942   */\n      dup3\n        /* \"#utility.yul\":4932:4951   */\n      mstore\n        /* \"#utility.yul\":4984:4988   */\n      0x20\n        /* \"#utility.yul\":4979:4982   */\n      dup3\n        /* \"#utility.yul\":4975:4989   */\n      add\n        /* \"#utility.yul\":4960:4989   */\n      swap1\n      pop\n        /* \"#utility.yul\":4802:4995   */\n      swap3\n      swap2\n      pop\n      pop\n      jump\t// out\n        /* \"#utility.yul\":5001:5142   */\n    tag_160:\n        /* \"#utility.yul\":5077:5081   */\n      0x00\n        /* \"#utility.yul\":5100:5103   */\n      dup2\n        /* \"#utility.yul\":5092:5103   */\n      swap1\n      pop\n        /* \"#utility.yul\":5130:5134   */\n      0x20\n        /* \"#utility.yul\":5125:5128   */\n      dup3\n        /* \"#utility.yul\":5121:5135   */\n      add\n        /* \"#utility.yul\":5113:5135   */\n      swap1\n      pop\n        /* \"#utility.yul\":5001:5142   */\n      swap2\n      swap1\n      pop\n      jump\t// out\n        /* \"#utility.yul\":5148:5246   */\n    tag_161:\n        /* \"#utility.yul\":5199:5205   */\n      0x00\n        /* \"#utility.yul\":5233:5238   */\n      dup2\n        /* \"#utility.yul\":5227:5239   */\n      mload\n        /* \"#utility.yul\":5217:5239   */\n      swap1\n      pop\n        /* \"#utility.yul\":5148:5246   */\n      swap2\n      swap1\n      pop\n      jump\t// out\n        /* \"#utility.yul\":5252:5410   */\n    tag_162:\n        /* \"#utility.yul\":5325:5336   */\n      0x00\n        /* \"#utility.yul\":5359:5365   */\n      dup3\n        /* \"#utility.yul\":5354:5357   */\n      dup3\n        /* \"#utility.yul\":5347:5366   */\n      mstore\n        /* \"#utility.yul\":5399:5403   */\n      0x20\n        /* \"#utility.yul\":5394:5397   */\n      dup3\n        /* \"#utility.yul\":5390:5404   */\n      add\n        /* \"#utility.yul\":5375:5404   */\n      swap1\n      pop\n        /* \"#utility.yul\":5252:5410   */\n      swap3\n      swap2\n      pop\n      pop\n      jump\t// out\n        /* \"#utility.yul\":5416:5723   */\n    tag_163:\n        /* \"#utility.yul\":5484:5485   */\n      0x00\n        /* \"#utility.yul\":5494:5607   */\n    tag_276:\n        /* \"#utility.yul\":5508:5514   */\n      dup4\n        /* \"#utility.yul\":5505:5506   */\n      dup2\n        /* \"#utility.yul\":5502:5515   */\n      lt\n        /* \"#utility.yul\":5494:5607   */\n      iszero\n      tag_278\n      jumpi\n        /* \"#utility.yul\":5593:5594   */\n      dup1\n        /* \"#utility.yul\":5588:5591   */\n      dup3\n        /* \"#utility.yul\":5584:5595   */\n      add\n        /* \"#utility.yul\":5578:5596   */\n      mload\n        /* \"#utility.yul\":5574:5575   */\n      dup2\n        /* \"#utility.yul\":5569:5572   */\n      dup5\n        /* \"#utility.yul\":5565:5576   */\n      add\n        /* \"#utility.yul\":5558:5597   */\n      mstore\n        /* \"#utility.yul\":5530:5532   */\n      0x20\n        /* \"#utility.yul\":5527:5528   */\n      dup2\n        /* \"#utility.yul\":5523:5533   */\n      add\n        /* \"#utility.yul\":5518:5533   */\n      swap1\n      pop\n        /* \"#utility.yul\":5494:5607   */\n      jump(tag_276)\n    tag_278:\n        /* \"#utility.yul\":5625:5631   */\n      dup4\n        /* \"#utility.yul\":5622:5623   */\n      dup2\n        /* \"#utility.yul\":5619:5632   */\n      gt\n        /* \"#utility.yul\":5616:5717   */\n      iszero\n      tag_279\n      jumpi\n        /* \"#utility.yul\":5705:5706   */\n      0x00\n        /* \"#utility.yul\":5696:5702   */\n      dup5\n        /* \"#utility.yul\":5691:5694   */\n      dup5\n        /* \"#utility.yul\":5687:5703   */\n      add\n        /* \"#utility.yul\":5680:5707   */\n      mstore\n        /* \"#utility.yul\":5616:5717   */\n    tag_279:\n        /* \"#utility.yul\":5465:5723   */\n      pop\n        /* \"#utility.yul\":5416:5723   */\n      pop\n      pop\n      pop\n      jump\t// out\n        /* \"#utility.yul\":5729:5831   */\n    tag_164:\n        /* \"#utility.yul\":5770:5776   */\n      0x00\n        /* \"#utility.yul\":5821:5823   */\n      0x1f\n        /* \"#utility.yul\":5817:5824   */\n      not\n        /* \"#utility.yul\":5812:5814   */\n      0x1f\n        /* \"#utility.yul\":5805:5810   */\n      dup4\n        /* \"#utility.yul\":5801:5815   */\n      add\n        /* \"#utility.yul\":5797:5825   */\n      and\n        /* \"#utility.yul\":5787:5825   */\n      swap1\n      pop\n        /* \"#utility.yul\":5729:5831   */\n      swap2\n      swap1\n      pop\n      jump\t// out\n        /* \"#utility.yul\":5837:6177   */\n    tag_165:\n        /* \"#utility.yul\":5913:5916   */\n      0x00\n        /* \"#utility.yul\":5941:5979   */\n      tag_282\n        /* \"#utility.yul\":5973:5978   */\n      dup3\n        /* \"#utility.yul\":5941:5979   */\n      tag_161\n      jump\t// in\n    tag_282:\n        /* \"#utility.yul\":5995:6055   */\n      tag_283\n        /* \"#utility.yul\":6048:6054   */\n      dup2\n        /* \"#utility.yul\":6043:6046   */\n      dup6\n        /* \"#utility.yul\":5995:6055   */\n      tag_162\n      jump\t// in\n    tag_283:\n        /* \"#utility.yul\":5988:6055   */\n      swap4\n      pop\n        /* \"#utility.yul\":6064:6116   */\n      tag_284\n        /* \"#utility.yul\":6109:6115   */\n      dup2\n        /* \"#utility.yul\":6104:6107   */\n      dup6\n        /* \"#utility.yul\":6097:6101   */\n      0x20\n        /* \"#utility.yul\":6090:6095   */\n      dup7\n        /* \"#utility.yul\":6086:6102   */\n      add\n        /* \"#utility.yul\":6064:6116   */\n      tag_163\n      jump\t// in\n    tag_284:\n        /* \"#utility.yul\":6141:6170   */\n      tag_285\n        /* \"#utility.yul\":6163:6169   */\n      dup2\n        /* \"#utility.yul\":6141:6170   */\n      tag_164\n      jump\t// in\n    tag_285:\n        /* \"#utility.yul\":6136:6139   */\n      dup5\n        /* \"#utility.yul\":6132:6171   */\n      add\n        /* \"#utility.yul\":6125:6171   */\n      swap2\n      pop\n        /* \"#utility.yul\":5917:6177   */\n      pop\n        /* \"#utility.yul\":5837:6177   */\n      swap3\n      swap2\n      pop\n      pop\n      jump\t// out\n        /* \"#utility.yul\":6183:6375   */\n    tag_166:\n        /* \"#utility.yul\":6270:6280   */\n      0x00\n        /* \"#utility.yul\":6305:6369   */\n      tag_287\n        /* \"#utility.yul\":6365:6368   */\n      dup4\n        /* \"#utility.yul\":6357:6363   */\n      dup4\n        /* \"#utility.yul\":6305:6369   */\n      tag_165\n      jump\t// in\n    tag_287:\n        /* \"#utility.yul\":6291:6369   */\n      swap1\n      pop\n        /* \"#utility.yul\":6183:6375   */\n      swap3\n      swap2\n      pop\n      pop\n      jump\t// out\n        /* \"#utility.yul\":6381:6503   */\n    tag_167:\n        /* \"#utility.yul\":6460:6464   */\n      0x00\n        /* \"#utility.yul\":6492:6496   */\n      0x20\n        /* \"#utility.yul\":6487:6490   */\n      dup3\n        /* \"#utility.yul\":6483:6497   */\n      add\n        /* \"#utility.yul\":6475:6497   */\n      swap1\n      pop\n        /* \"#utility.yul\":6381:6503   */\n      swap2\n      swap1\n      pop\n      jump\t// out\n        /* \"#utility.yul\":6535:7518   */\n    tag_168:\n        /* \"#utility.yul\":6672:6675   */\n      0x00\n        /* \"#utility.yul\":6701:6764   */\n      tag_290\n        /* \"#utility.yul\":6758:6763   */\n      dup3\n        /* \"#utility.yul\":6701:6764   */\n      tag_158\n      jump\t// in\n    tag_290:\n        /* \"#utility.yul\":6780:6875   */\n      tag_291\n        /* \"#utility.yul\":6868:6874   */\n      dup2\n        /* \"#utility.yul\":6863:6866   */\n      dup6\n        /* \"#utility.yul\":6780:6875   */\n      tag_159\n      jump\t// in\n    tag_291:\n        /* \"#utility.yul\":6773:6875   */\n      swap4\n      pop\n        /* \"#utility.yul\":6901:6904   */\n      dup4\n        /* \"#utility.yul\":6946:6950   */\n      0x20\n        /* \"#utility.yul\":6938:6944   */\n      dup3\n        /* \"#utility.yul\":6934:6951   */\n      mul\n        /* \"#utility.yul\":6929:6932   */\n      dup6\n        /* \"#utility.yul\":6925:6952   */\n      add\n        /* \"#utility.yul\":6976:7041   */\n      tag_292\n        /* \"#utility.yul\":7035:7040   */\n      dup6\n        /* \"#utility.yul\":6976:7041   */\n      tag_160\n      jump\t// in\n    tag_292:\n        /* \"#utility.yul\":7064:7071   */\n      dup1\n        /* \"#utility.yul\":7095:7096   */\n      0x00\n        /* \"#utility.yul\":7080:7473   */\n    tag_293:\n        /* \"#utility.yul\":7105:7111   */\n      dup6\n        /* \"#utility.yul\":7102:7103   */\n      dup2\n        /* \"#utility.yul\":7099:7112   */\n      lt\n        /* \"#utility.yul\":7080:7473   */\n      iszero\n      tag_295\n      jumpi\n        /* \"#utility.yul\":7176:7185   */\n      dup5\n        /* \"#utility.yul\":7170:7174   */\n      dup5\n        /* \"#utility.yul\":7166:7186   */\n      sub\n        /* \"#utility.yul\":7161:7164   */\n      dup10\n        /* \"#utility.yul\":7154:7187   */\n      mstore\n        /* \"#utility.yul\":7227:7233   */\n      dup2\n        /* \"#utility.yul\":7221:7234   */\n      mload\n        /* \"#utility.yul\":7255:7337   */\n      tag_296\n        /* \"#utility.yul\":7332:7336   */\n      dup6\n        /* \"#utility.yul\":7317:7330   */\n      dup3\n        /* \"#utility.yul\":7255:7337   */\n      tag_166\n      jump\t// in\n    tag_296:\n        /* \"#utility.yul\":7247:7337   */\n      swap5\n      pop\n        /* \"#utility.yul\":7360:7429   */\n      tag_297\n        /* \"#utility.yul\":7422:7428   */\n      dup4\n        /* \"#utility.yul\":7360:7429   */\n      tag_167\n      jump\t// in\n    tag_297:\n        /* \"#utility.yul\":7350:7429   */\n      swap3\n      pop\n        /* \"#utility.yul\":7458:7462   */\n      0x20\n        /* \"#utility.yul\":7453:7456   */\n      dup11\n        /* \"#utility.yul\":7449:7463   */\n      add\n        /* \"#utility.yul\":7442:7463   */\n      swap10\n      pop\n        /* \"#utility.yul\":7140:7473   */\n      pop\n        /* \"#utility.yul\":7127:7128   */\n      0x01\n        /* \"#utility.yul\":7124:7125   */\n      dup2\n        /* \"#utility.yul\":7120:7129   */\n      add\n        /* \"#utility.yul\":7115:7129   */\n      swap1\n      pop\n        /* \"#utility.yul\":7080:7473   */\n      jump(tag_293)\n    tag_295:\n        /* \"#utility.yul\":7084:7098   */\n      pop\n        /* \"#utility.yul\":7489:7493   */\n      dup3\n        /* \"#utility.yul\":7482:7493   */\n      swap8\n      pop\n        /* \"#utility.yul\":7509:7512   */\n      dup8\n        /* \"#utility.yul\":7502:7512   */\n      swap6\n      pop\n        /* \"#utility.yul\":6677:7518   */\n      pop\n      pop\n      pop\n      pop\n      pop\n        /* \"#utility.yul\":6535:7518   */\n      swap3\n      swap2\n      pop\n      pop\n      jump\t// out\n        /* \"#utility.yul\":7524:8194   */\n    tag_25:\n        /* \"#utility.yul\":7763:7767   */\n      0x00\n        /* \"#utility.yul\":7801:7803   */\n      0x40\n        /* \"#utility.yul\":7790:7799   */\n      dup3\n        /* \"#utility.yul\":7786:7804   */\n      add\n        /* \"#utility.yul\":7778:7804   */\n      swap1\n      pop\n        /* \"#utility.yul\":7850:7859   */\n      dup2\n        /* \"#utility.yul\":7844:7848   */\n      dup2\n        /* \"#utility.yul\":7840:7860   */\n      sub\n        /* \"#utility.yul\":7836:7837   */\n      0x00\n        /* \"#utility.yul\":7825:7834   */\n      dup4\n        /* \"#utility.yul\":7821:7838   */\n      add\n        /* \"#utility.yul\":7814:7861   */\n      mstore\n        /* \"#utility.yul\":7878:7986   */\n      tag_299\n        /* \"#utility.yul\":7981:7985   */\n      dup2\n        /* \"#utility.yul\":7972:7978   */\n      dup6\n        /* \"#utility.yul\":7878:7986   */\n      tag_157\n      jump\t// in\n    tag_299:\n        /* \"#utility.yul\":7870:7986   */\n      swap1\n      pop\n        /* \"#utility.yul\":8033:8042   */\n      dup2\n        /* \"#utility.yul\":8027:8031   */\n      dup2\n        /* \"#utility.yul\":8023:8043   */\n      sub\n        /* \"#utility.yul\":8018:8020   */\n      0x20\n        /* \"#utility.yul\":8007:8016   */\n      dup4\n        /* \"#utility.yul\":8003:8021   */\n      add\n        /* \"#utility.yul\":7996:8044   */\n      mstore\n        /* \"#utility.yul\":8061:8187   */\n      tag_300\n        /* \"#utility.yul\":8182:8186   */\n      dup2\n        /* \"#utility.yul\":8173:8179   */\n      dup5\n        /* \"#utility.yul\":8061:8187   */\n      tag_168\n      jump\t// in\n    tag_300:\n        /* \"#utility.yul\":8053:8187   */\n      swap1\n      pop\n        /* \"#utility.yul\":7524:8194   */\n      swap4\n      swap3\n      pop\n      pop\n      pop\n      jump\t// out\n        /* \"#utility.yul\":8200:8322   */\n    tag_169:\n        /* \"#utility.yul\":8273:8297   */\n      tag_302\n        /* \"#utility.yul\":8291:8296   */\n      dup2\n        /* \"#utility.yul\":8273:8297   */\n      tag_153\n      jump\t// in\n    tag_302:\n        /* \"#utility.yul\":8266:8271   */\n      dup2\n        /* \"#utility.yul\":8263:8298   */\n      eq\n        /* \"#utility.yul\":8253:8316   */\n      tag_303\n      jumpi\n        /* \"#utility.yul\":8312:8313   */\n      0x00\n        /* \"#utility.yul\":8309:8310   */\n      dup1\n        /* \"#utility.yul\":8302:8314   */\n      revert\n        /* \"#utility.yul\":8253:8316   */\n    tag_303:\n        /* \"#utility.yul\":8200:8322   */\n      pop\n      jump\t// out\n        /* \"#utility.yul\":8328:8467   */\n    tag_170:\n        /* \"#utility.yul\":8374:8379   */\n      0x00\n        /* \"#utility.yul\":8412:8418   */\n      dup2\n        /* \"#utility.yul\":8399:8419   */\n      calldataload\n        /* \"#utility.yul\":8390:8419   */\n      swap1\n      pop\n        /* \"#utility.yul\":8428:8461   */\n      tag_305\n        /* \"#utility.yul\":8455:8460   */\n      dup2\n        /* \"#utility.yul\":8428:8461   */\n      tag_169\n      jump\t// in\n    tag_305:\n        /* \"#utility.yul\":8328:8467   */\n      swap3\n      swap2\n      pop\n      pop\n      jump\t// out\n        /* \"#utility.yul\":8473:8550   */\n    tag_171:\n        /* \"#utility.yul\":8510:8517   */\n      0x00\n        /* \"#utility.yul\":8539:8544   */\n      dup2\n        /* \"#utility.yul\":8528:8544   */\n      swap1\n      pop\n        /* \"#utility.yul\":8473:8550   */\n      swap2\n      swap1\n      pop\n      jump\t// out\n        /* \"#utility.yul\":8556:8678   */\n    tag_172:\n        /* \"#utility.yul\":8629:8653   */\n      tag_308\n        /* \"#utility.yul\":8647:8652   */\n      dup2\n        /* \"#utility.yul\":8629:8653   */\n      tag_171\n      jump\t// in\n    tag_308:\n        /* \"#utility.yul\":8622:8627   */\n      dup2\n        /* \"#utility.yul\":8619:8654   */\n      eq\n        /* \"#utility.yul\":8609:8672   */\n      tag_309\n      jumpi\n        /* \"#utility.yul\":8668:8669   */\n      0x00\n        /* \"#utility.yul\":8665:8666   */\n      dup1\n        /* \"#utility.yul\":8658:8670   */\n      revert\n        /* \"#utility.yul\":8609:8672   */\n    tag_309:\n        /* \"#utility.yul\":8556:8678   */\n      pop\n      jump\t// out\n        /* \"#utility.yul\":8684:8823   */\n    tag_173:\n        /* \"#utility.yul\":8730:8735   */\n      0x00\n        /* \"#utility.yul\":8768:8774   */\n      dup2\n        /* \"#utility.yul\":8755:8775   */\n      calldataload\n        /* \"#utility.yul\":8746:8775   */\n      swap1\n      pop\n        /* \"#utility.yul\":8784:8817   */\n      tag_311\n        /* \"#utility.yul\":8811:8816   */\n      dup2\n        /* \"#utility.yul\":8784:8817   */\n      tag_172\n      jump\t// in\n    tag_311:\n        /* \"#utility.yul\":8684:8823   */\n      swap3\n      swap2\n      pop\n      pop\n      jump\t// out\n        /* \"#utility.yul\":8829:9938   */\n    tag_29:\n        /* \"#utility.yul\":8935:8941   */\n      0x00\n        /* \"#utility.yul\":8943:8949   */\n      dup1\n        /* \"#utility.yul\":8951:8957   */\n      0x00\n        /* \"#utility.yul\":8959:8965   */\n      dup1\n        /* \"#utility.yul\":8967:8973   */\n      0x00\n        /* \"#utility.yul\":8975:8981   */\n      dup1\n        /* \"#utility.yul\":9024:9027   */\n      0xa0\n        /* \"#utility.yul\":9012:9021   */\n      dup8\n        /* \"#utility.yul\":9003:9010   */\n      dup10\n        /* \"#utility.yul\":8999:9022   */\n      sub\n        /* \"#utility.yul\":8995:9028   */\n      slt\n        /* \"#utility.yul\":8992:9112   */\n      iszero\n      tag_313\n      jumpi\n        /* \"#utility.yul\":9031:9110   */\n      tag_314\n      tag_144\n      jump\t// in\n    tag_314:\n        /* \"#utility.yul\":8992:9112   */\n    tag_313:\n        /* \"#utility.yul\":9151:9152   */\n      0x00\n        /* \"#utility.yul\":9176:9229   */\n      tag_315\n        /* \"#utility.yul\":9221:9228   */\n      dup10\n        /* \"#utility.yul\":9212:9218   */\n      dup3\n        /* \"#utility.yul\":9201:9210   */\n      dup11\n        /* \"#utility.yul\":9197:9219   */\n      add\n        /* \"#utility.yul\":9176:9229   */\n      tag_170\n      jump\t// in\n    tag_315:\n        /* \"#utility.yul\":9166:9229   */\n      swap7\n      pop\n        /* \"#utility.yul\":9122:9239   */\n      pop\n        /* \"#utility.yul\":9278:9280   */\n      0x20\n        /* \"#utility.yul\":9304:9357   */\n      tag_316\n        /* \"#utility.yul\":9349:9356   */\n      dup10\n        /* \"#utility.yul\":9340:9346   */\n      dup3\n        /* \"#utility.yul\":9329:9338   */\n      dup11\n        /* \"#utility.yul\":9325:9347   */\n      add\n        /* \"#utility.yul\":9304:9357   */\n      tag_173\n      jump\t// in\n    tag_316:\n        /* \"#utility.yul\":9294:9357   */\n      swap6\n      pop\n        /* \"#utility.yul\":9249:9367   */\n      pop\n        /* \"#utility.yul\":9406:9408   */\n      0x40\n        /* \"#utility.yul\":9432:9485   */\n      tag_317\n        /* \"#utility.yul\":9477:9484   */\n      dup10\n        /* \"#utility.yul\":9468:9474   */\n      dup3\n        /* \"#utility.yul\":9457:9466   */\n      dup11\n        /* \"#utility.yul\":9453:9475   */\n      add\n        /* \"#utility.yul\":9432:9485   */\n      tag_173\n      jump\t// in\n    tag_317:\n        /* \"#utility.yul\":9422:9485   */\n      swap5\n      pop\n        /* \"#utility.yul\":9377:9495   */\n      pop\n        /* \"#utility.yul\":9534:9536   */\n      0x60\n        /* \"#utility.yul\":9560:9613   */\n      tag_318\n        /* \"#utility.yul\":9605:9612   */\n      dup10\n        /* \"#utility.yul\":9596:9602   */\n      dup3\n        /* \"#utility.yul\":9585:9594   */\n      dup11\n        /* \"#utility.yul\":9581:9603   */\n      add\n        /* \"#utility.yul\":9560:9613   */\n      tag_170\n      jump\t// in\n    tag_318:\n        /* \"#utility.yul\":9550:9613   */\n      swap4\n      pop\n        /* \"#utility.yul\":9505:9623   */\n      pop\n        /* \"#utility.yul\":9690:9693   */\n      0x80\n        /* \"#utility.yul\":9679:9688   */\n      dup8\n        /* \"#utility.yul\":9675:9694   */\n      add\n        /* \"#utility.yul\":9662:9695   */\n      calldataload\n        /* \"#utility.yul\":9722:9740   */\n      0xffffffffffffffff\n        /* \"#utility.yul\":9714:9720   */\n      dup2\n        /* \"#utility.yul\":9711:9741   */\n      gt\n        /* \"#utility.yul\":9708:9825   */\n      iszero\n      tag_319\n      jumpi\n        /* \"#utility.yul\":9744:9823   */\n      tag_320\n      tag_145\n      jump\t// in\n    tag_320:\n        /* \"#utility.yul\":9708:9825   */\n    tag_319:\n        /* \"#utility.yul\":9857:9921   */\n      tag_321\n        /* \"#utility.yul\":9913:9920   */\n      dup10\n        /* \"#utility.yul\":9904:9910   */\n      dup3\n        /* \"#utility.yul\":9893:9902   */\n      dup11\n        /* \"#utility.yul\":9889:9911   */\n      add\n        /* \"#utility.yul\":9857:9921   */\n      tag_149\n      jump\t// in\n    tag_321:\n        /* \"#utility.yul\":9839:9921   */\n      swap3\n      pop\n      swap3\n      pop\n        /* \"#utility.yul\":9633:9931   */\n      pop\n        /* \"#utility.yul\":8829:9938   */\n      swap3\n      swap6\n      pop\n      swap3\n      swap6\n      pop\n      swap3\n      swap6\n      jump\t// out\n        /* \"#utility.yul\":9944:10034   */\n    tag_174:\n        /* \"#utility.yul\":9978:9985   */\n      0x00\n        /* \"#utility.yul\":10021:10026   */\n      dup2\n        /* \"#utility.yul\":10014:10027   */\n      iszero\n        /* \"#utility.yul\":10007:10028   */\n      iszero\n        /* \"#utility.yul\":9996:10028   */\n      swap1\n      pop\n        /* \"#utility.yul\":9944:10034   */\n      swap2\n      swap1\n      pop\n      jump\t// out\n        /* \"#utility.yul\":10040:10149   */\n    tag_175:\n        /* \"#utility.yul\":10121:10142   */\n      tag_324\n        /* \"#utility.yul\":10136:10141   */\n      dup2\n        /* \"#utility.yul\":10121:10142   */\n      tag_174\n      jump\t// in\n    tag_324:\n        /* \"#utility.yul\":10116:10119   */\n      dup3\n        /* \"#utility.yul\":10109:10143   */\n      mstore\n        /* \"#utility.yul\":10040:10149   */\n      pop\n      pop\n      jump\t// out\n        /* \"#utility.yul\":10155:10365   */\n    tag_32:\n        /* \"#utility.yul\":10242:10246   */\n      0x00\n        /* \"#utility.yul\":10280:10282   */\n      0x20\n        /* \"#utility.yul\":10269:10278   */\n      dup3\n        /* \"#utility.yul\":10265:10283   */\n      add\n        /* \"#utility.yul\":10257:10283   */\n      swap1\n      pop\n        /* \"#utility.yul\":10293:10358   */\n      tag_326\n        /* \"#utility.yul\":10355:10356   */\n      0x00\n        /* \"#utility.yul\":10344:10353   */\n      dup4\n        /* \"#utility.yul\":10340:10357   */\n      add\n        /* \"#utility.yul\":10331:10337   */\n      dup5\n        /* \"#utility.yul\":10293:10358   */\n      tag_175\n      jump\t// in\n    tag_326:\n        /* \"#utility.yul\":10155:10365   */\n      swap3\n      swap2\n      pop\n      pop\n      jump\t// out\n        /* \"#utility.yul\":10371:11188   */\n    tag_36:\n        /* \"#utility.yul\":10459:10465   */\n      0x00\n        /* \"#utility.yul\":10467:10473   */\n      dup1\n        /* \"#utility.yul\":10475:10481   */\n      0x00\n        /* \"#utility.yul\":10483:10489   */\n      dup1\n        /* \"#utility.yul\":10532:10534   */\n      0x60\n        /* \"#utility.yul\":10520:10529   */\n      dup6\n        /* \"#utility.yul\":10511:10518   */\n      dup8\n        /* \"#utility.yul\":10507:10530   */\n      sub\n        /* \"#utility.yul\":10503:10535   */\n      slt\n        /* \"#utility.yul\":10500:10619   */\n      iszero\n      tag_328\n      jumpi\n        /* \"#utility.yul\":10538:10617   */\n      tag_329\n      tag_144\n      jump\t// in\n    tag_329:\n        /* \"#utility.yul\":10500:10619   */\n    tag_328:\n        /* \"#utility.yul\":10658:10659   */\n      0x00\n        /* \"#utility.yul\":10683:10736   */\n      tag_330\n        /* \"#utility.yul\":10728:10735   */\n      dup8\n        /* \"#utility.yul\":10719:10725   */\n      dup3\n        /* \"#utility.yul\":10708:10717   */\n      dup9\n        /* \"#utility.yul\":10704:10726   */\n      add\n        /* \"#utility.yul\":10683:10736   */\n      tag_170\n      jump\t// in\n    tag_330:\n        /* \"#utility.yul\":10673:10736   */\n      swap5\n      pop\n        /* \"#utility.yul\":10629:10746   */\n      pop\n        /* \"#utility.yul\":10785:10787   */\n      0x20\n        /* \"#utility.yul\":10811:10864   */\n      tag_331\n        /* \"#utility.yul\":10856:10863   */\n      dup8\n        /* \"#utility.yul\":10847:10853   */\n      dup3\n        /* \"#utility.yul\":10836:10845   */\n      dup9\n        /* \"#utility.yul\":10832:10854   */\n      add\n        /* \"#utility.yul\":10811:10864   */\n      tag_173\n      jump\t// in\n    tag_331:\n        /* \"#utility.yul\":10801:10864   */\n      swap4\n      pop\n        /* \"#utility.yul\":10756:10874   */\n      pop\n        /* \"#utility.yul\":10941:10943   */\n      0x40\n        /* \"#utility.yul\":10930:10939   */\n      dup6\n        /* \"#utility.yul\":10926:10944   */\n      add\n        /* \"#utility.yul\":10913:10945   */\n      calldataload\n        /* \"#utility.yul\":10972:10990   */\n      0xffffffffffffffff\n        /* \"#utility.yul\":10964:10970   */\n      dup2\n        /* \"#utility.yul\":10961:10991   */\n      gt\n        /* \"#utility.yul\":10958:11075   */\n      iszero\n      tag_332\n      jumpi\n        /* \"#utility.yul\":10994:11073   */\n      tag_333\n      tag_145\n      jump\t// in\n    tag_333:\n        /* \"#utility.yul\":10958:11075   */\n    tag_332:\n        /* \"#utility.yul\":11107:11171   */\n      tag_334\n        /* \"#utility.yul\":11163:11170   */\n      dup8\n        /* \"#utility.yul\":11154:11160   */\n      dup3\n        /* \"#utility.yul\":11143:11152   */\n      dup9\n        /* \"#utility.yul\":11139:11161   */\n      add\n        /* \"#utility.yul\":11107:11171   */\n      tag_149\n      jump\t// in\n    tag_334:\n        /* \"#utility.yul\":11089:11171   */\n      swap3\n      pop\n      swap3\n      pop\n        /* \"#utility.yul\":10884:11181   */\n      pop\n        /* \"#utility.yul\":10371:11188   */\n      swap3\n      swap6\n      swap2\n      swap5\n      pop\n      swap3\n      pop\n      jump\t// out\n        /* \"#utility.yul\":11194:11523   */\n    tag_41:\n        /* \"#utility.yul\":11253:11259   */\n      0x00\n        /* \"#utility.yul\":11302:11304   */\n      0x20\n        /* \"#utility.yul\":11290:11299   */\n      dup3\n        /* \"#utility.yul\":11281:11288   */\n      dup5\n        /* \"#utility.yul\":11277:11300   */\n      sub\n        /* \"#utility.yul\":11273:11305   */\n      slt\n        /* \"#utility.yul\":11270:11389   */\n      iszero\n      tag_336\n      jumpi\n        /* \"#utility.yul\":11308:11387   */\n      tag_337\n      tag_144\n      jump\t// in\n    tag_337:\n        /* \"#utility.yul\":11270:11389   */\n    tag_336:\n        /* \"#utility.yul\":11428:11429   */\n      0x00\n        /* \"#utility.yul\":11453:11506   */\n      tag_338\n        /* \"#utility.yul\":11498:11505   */\n      dup5\n        /* \"#utility.yul\":11489:11495   */\n      dup3\n        /* \"#utility.yul\":11478:11487   */\n      dup6\n        /* \"#utility.yul\":11474:11496   */\n      add\n        /* \"#utility.yul\":11453:11506   */\n      tag_170\n      jump\t// in\n    tag_338:\n        /* \"#utility.yul\":11443:11506   */\n      swap2\n      pop\n        /* \"#utility.yul\":11399:11516   */\n      pop\n        /* \"#utility.yul\":11194:11523   */\n      swap3\n      swap2\n      pop\n      pop\n      jump\t// out\n        /* \"#utility.yul\":11529:11668   */\n    tag_176:\n        /* \"#utility.yul\":11592:11601   */\n      0x00\n        /* \"#utility.yul\":11625:11662   */\n      tag_340\n        /* \"#utility.yul\":11656:11661   */\n      dup3\n        /* \"#utility.yul\":11625:11662   */\n      tag_140\n      jump\t// in\n    tag_340:\n        /* \"#utility.yul\":11612:11662   */\n      swap1\n      pop\n        /* \"#utility.yul\":11529:11668   */\n      swap2\n      swap1\n      pop\n      jump\t// out\n        /* \"#utility.yul\":11674:11831   */\n    tag_177:\n        /* \"#utility.yul\":11774:11824   */\n      tag_342\n        /* \"#utility.yul\":11818:11823   */\n      dup2\n        /* \"#utility.yul\":11774:11824   */\n      tag_176\n      jump\t// in\n    tag_342:\n        /* \"#utility.yul\":11769:11772   */\n      dup3\n        /* \"#utility.yul\":11762:11825   */\n      mstore\n        /* \"#utility.yul\":11674:11831   */\n      pop\n      pop\n      jump\t// out\n        /* \"#utility.yul\":11837:12085   */\n    tag_47:\n        /* \"#utility.yul\":11943:11947   */\n      0x00\n        /* \"#utility.yul\":11981:11983   */\n      0x20\n        /* \"#utility.yul\":11970:11979   */\n      dup3\n        /* \"#utility.yul\":11966:11984   */\n      add\n        /* \"#utility.yul\":11958:11984   */\n      swap1\n      pop\n        /* \"#utility.yul\":11994:12078   */\n      tag_344\n        /* \"#utility.yul\":12075:12076   */\n      0x00\n        /* \"#utility.yul\":12064:12073   */\n      dup4\n        /* \"#utility.yul\":12060:12077   */\n      add\n        /* \"#utility.yul\":12051:12057   */\n      dup5\n        /* \"#utility.yul\":11994:12078   */\n      tag_177\n      jump\t// in\n    tag_344:\n        /* \"#utility.yul\":11837:12085   */\n      swap3\n      swap2\n      pop\n      pop\n      jump\t// out\n        /* \"#utility.yul\":12091:12209   */\n    tag_178:\n        /* \"#utility.yul\":12178:12202   */\n      tag_346\n        /* \"#utility.yul\":12196:12201   */\n      dup2\n        /* \"#utility.yul\":12178:12202   */\n      tag_171\n      jump\t// in\n    tag_346:\n        /* \"#utility.yul\":12173:12176   */\n      dup3\n        /* \"#utility.yul\":12166:12203   */\n      mstore\n        /* \"#utility.yul\":12091:12209   */\n      pop\n      pop\n      jump\t// out\n        /* \"#utility.yul\":12215:12437   */\n    tag_52:\n        /* \"#utility.yul\":12308:12312   */\n      0x00\n        /* \"#utility.yul\":12346:12348   */\n      0x20\n        /* \"#utility.yul\":12335:12344   */\n      dup3\n        /* \"#utility.yul\":12331:12349   */\n      add\n        /* \"#utility.yul\":12323:12349   */\n      swap1\n      pop\n        /* \"#utility.yul\":12359:12430   */\n      tag_348\n        /* \"#utility.yul\":12427:12428   */\n      0x00\n        /* \"#utility.yul\":12416:12425   */\n      dup4\n        /* \"#utility.yul\":12412:12429   */\n      add\n        /* \"#utility.yul\":12403:12409   */\n      dup5\n        /* \"#utility.yul\":12359:12430   */\n      tag_178\n      jump\t// in\n    tag_348:\n        /* \"#utility.yul\":12215:12437   */\n      swap3\n      swap2\n      pop\n      pop\n      jump\t// out\n        /* \"#utility.yul\":12443:12623   */\n    tag_179:\n        /* \"#utility.yul\":12491:12568   */\n      0x4e487b7100000000000000000000000000000000000000000000000000000000\n        /* \"#utility.yul\":12488:12489   */\n      0x00\n        /* \"#utility.yul\":12481:12569   */\n      mstore\n        /* \"#utility.yul\":12588:12592   */\n      0x41\n        /* \"#utility.yul\":12585:12586   */\n      0x04\n        /* \"#utility.yul\":12578:12593   */\n      mstore\n        /* \"#utility.yul\":12612:12616   */\n      0x24\n        /* \"#utility.yul\":12609:12610   */\n      0x00\n        /* \"#utility.yul\":12602:12617   */\n      revert\n        /* \"#utility.yul\":12629:12910   */\n    tag_180:\n        /* \"#utility.yul\":12712:12739   */\n      tag_351\n        /* \"#utility.yul\":12734:12738   */\n      dup3\n        /* \"#utility.yul\":12712:12739   */\n      tag_164\n      jump\t// in\n    tag_351:\n        /* \"#utility.yul\":12704:12710   */\n      dup2\n        /* \"#utility.yul\":12700:12740   */\n      add\n        /* \"#utility.yul\":12842:12848   */\n      dup2\n        /* \"#utility.yul\":12830:12840   */\n      dup2\n        /* \"#utility.yul\":12827:12849   */\n      lt\n        /* \"#utility.yul\":12806:12824   */\n      0xffffffffffffffff\n        /* \"#utility.yul\":12794:12804   */\n      dup3\n        /* \"#utility.yul\":12791:12825   */\n      gt\n        /* \"#utility.yul\":12788:12850   */\n      or\n        /* \"#utility.yul\":12785:12873   */\n      iszero\n      tag_352\n      jumpi\n        /* \"#utility.yul\":12853:12871   */\n      tag_353\n      tag_179\n      jump\t// in\n    tag_353:\n        /* \"#utility.yul\":12785:12873   */\n    tag_352:\n        /* \"#utility.yul\":12893:12903   */\n      dup1\n        /* \"#utility.yul\":12889:12891   */\n      0x40\n        /* \"#utility.yul\":12882:12904   */\n      mstore\n        /* \"#utility.yul\":12672:12910   */\n      pop\n        /* \"#utility.yul\":12629:12910   */\n      pop\n      pop\n      jump\t// out\n        /* \"#utility.yul\":12916:13045   */\n    tag_181:\n        /* \"#utility.yul\":12950:12956   */\n      0x00\n        /* \"#utility.yul\":12977:12997   */\n      tag_355\n      tag_143\n      jump\t// in\n    tag_355:\n        /* \"#utility.yul\":12967:12997   */\n      swap1\n      pop\n        /* \"#utility.yul\":13006:13039   */\n      tag_356\n        /* \"#utility.yul\":13034:13038   */\n      dup3\n        /* \"#utility.yul\":13026:13032   */\n      dup3\n        /* \"#utility.yul\":13006:13039   */\n      tag_180\n      jump\t// in\n    tag_356:\n        /* \"#utility.yul\":12916:13045   */\n      swap2\n      swap1\n      pop\n      jump\t// out\n        /* \"#utility.yul\":13051:13362   */\n    tag_182:\n        /* \"#utility.yul\":13128:13132   */\n      0x00\n        /* \"#utility.yul\":13218:13236   */\n      0xffffffffffffffff\n        /* \"#utility.yul\":13210:13216   */\n      dup3\n        /* \"#utility.yul\":13207:13237   */\n      gt\n        /* \"#utility.yul\":13204:13260   */\n      iszero\n      tag_358\n      jumpi\n        /* \"#utility.yul\":13240:13258   */\n      tag_359\n      tag_179\n      jump\t// in\n    tag_359:\n        /* \"#utility.yul\":13204:13260   */\n    tag_358:\n        /* \"#utility.yul\":13290:13294   */\n      0x20\n        /* \"#utility.yul\":13282:13288   */\n      dup3\n        /* \"#utility.yul\":13278:13295   */\n      mul\n        /* \"#utility.yul\":13270:13295   */\n      swap1\n      pop\n        /* \"#utility.yul\":13350:13354   */\n      0x20\n        /* \"#utility.yul\":13344:13348   */\n      dup2\n        /* \"#utility.yul\":13340:13355   */\n      add\n        /* \"#utility.yul\":13332:13355   */\n      swap1\n      pop\n        /* \"#utility.yul\":13051:13362   */\n      swap2\n      swap1\n      pop\n      jump\t// out\n        /* \"#utility.yul\":13385:14095   */\n    tag_183:\n        /* \"#utility.yul\":13481:13486   */\n      0x00\n        /* \"#utility.yul\":13506:13587   */\n      tag_361\n        /* \"#utility.yul\":13522:13586   */\n      tag_362\n        /* \"#utility.yul\":13579:13585   */\n      dup5\n        /* \"#utility.yul\":13522:13586   */\n      tag_182\n      jump\t// in\n    tag_362:\n        /* \"#utility.yul\":13506:13587   */\n      tag_181\n      jump\t// in\n    tag_361:\n        /* \"#utility.yul\":13497:13587   */\n      swap1\n      pop\n        /* \"#utility.yul\":13607:13612   */\n      dup1\n        /* \"#utility.yul\":13636:13642   */\n      dup4\n        /* \"#utility.yul\":13629:13634   */\n      dup3\n        /* \"#utility.yul\":13622:13643   */\n      mstore\n        /* \"#utility.yul\":13670:13674   */\n      0x20\n        /* \"#utility.yul\":13663:13668   */\n      dup3\n        /* \"#utility.yul\":13659:13675   */\n      add\n        /* \"#utility.yul\":13652:13675   */\n      swap1\n      pop\n        /* \"#utility.yul\":13723:13727   */\n      0x20\n        /* \"#utility.yul\":13715:13721   */\n      dup5\n        /* \"#utility.yul\":13711:13728   */\n      mul\n        /* \"#utility.yul\":13703:13709   */\n      dup4\n        /* \"#utility.yul\":13699:13729   */\n      add\n        /* \"#utility.yul\":13752:13755   */\n      dup6\n        /* \"#utility.yul\":13744:13750   */\n      dup2\n        /* \"#utility.yul\":13741:13756   */\n      gt\n        /* \"#utility.yul\":13738:13860   */\n      iszero\n      tag_363\n      jumpi\n        /* \"#utility.yul\":13771:13850   */\n      tag_364\n      tag_148\n      jump\t// in\n    tag_364:\n        /* \"#utility.yul\":13738:13860   */\n    tag_363:\n        /* \"#utility.yul\":13886:13892   */\n      dup4\n        /* \"#utility.yul\":13869:14089   */\n    tag_365:\n        /* \"#utility.yul\":13903:13909   */\n      dup2\n        /* \"#utility.yul\":13898:13901   */\n      dup2\n        /* \"#utility.yul\":13895:13910   */\n      lt\n        /* \"#utility.yul\":13869:14089   */\n      iszero\n      tag_367\n      jumpi\n        /* \"#utility.yul\":13978:13981   */\n      dup1\n        /* \"#utility.yul\":14007:14044   */\n      tag_368\n        /* \"#utility.yul\":14040:14043   */\n      dup9\n        /* \"#utility.yul\":14028:14038   */\n      dup3\n        /* \"#utility.yul\":14007:14044   */\n      tag_170\n      jump\t// in\n    tag_368:\n        /* \"#utility.yul\":14002:14005   */\n      dup5\n        /* \"#utility.yul\":13995:14045   */\n      mstore\n        /* \"#utility.yul\":14074:14078   */\n      0x20\n        /* \"#utility.yul\":14069:14072   */\n      dup5\n        /* \"#utility.yul\":14065:14079   */\n      add\n        /* \"#utility.yul\":14058:14079   */\n      swap4\n      pop\n        /* \"#utility.yul\":13945:14089   */\n      pop\n        /* \"#utility.yul\":13929:13933   */\n      0x20\n        /* \"#utility.yul\":13924:13927   */\n      dup2\n        /* \"#utility.yul\":13920:13934   */\n      add\n        /* \"#utility.yul\":13913:13934   */\n      swap1\n      pop\n        /* \"#utility.yul\":13869:14089   */\n      jump(tag_365)\n    tag_367:\n        /* \"#utility.yul\":13873:13894   */\n      pop\n        /* \"#utility.yul\":13487:14095   */\n      pop\n      pop\n        /* \"#utility.yul\":13385:14095   */\n      swap4\n      swap3\n      pop\n      pop\n      pop\n      jump\t// out\n        /* \"#utility.yul\":14118:14488   */\n    tag_184:\n        /* \"#utility.yul\":14189:14194   */\n      0x00\n        /* \"#utility.yul\":14238:14241   */\n      dup3\n        /* \"#utility.yul\":14231:14235   */\n      0x1f\n        /* \"#utility.yul\":14223:14229   */\n      dup4\n        /* \"#utility.yul\":14219:14236   */\n      add\n        /* \"#utility.yul\":14215:14242   */\n      slt\n        /* \"#utility.yul\":14205:14327   */\n      tag_370\n      jumpi\n        /* \"#utility.yul\":14246:14325   */\n      tag_371\n      tag_146\n      jump\t// in\n    tag_371:\n        /* \"#utility.yul\":14205:14327   */\n    tag_370:\n        /* \"#utility.yul\":14363:14369   */\n      dup2\n        /* \"#utility.yul\":14350:14370   */\n      calldataload\n        /* \"#utility.yul\":14388:14482   */\n      tag_372\n        /* \"#utility.yul\":14478:14481   */\n      dup5\n        /* \"#utility.yul\":14470:14476   */\n      dup3\n        /* \"#utility.yul\":14463:14467   */\n      0x20\n        /* \"#utility.yul\":14455:14461   */\n      dup7\n        /* \"#utility.yul\":14451:14468   */\n      add\n        /* \"#utility.yul\":14388:14482   */\n      tag_183\n      jump\t// in\n    tag_372:\n        /* \"#utility.yul\":14379:14482   */\n      swap2\n      pop\n        /* \"#utility.yul\":14195:14488   */\n      pop\n        /* \"#utility.yul\":14118:14488   */\n      swap3\n      swap2\n      pop\n      pop\n      jump\t// out\n        /* \"#utility.yul\":14494:14814   */\n    tag_185:\n        /* \"#utility.yul\":14580:14584   */\n      0x00\n        /* \"#utility.yul\":14670:14688   */\n      0xffffffffffffffff\n        /* \"#utility.yul\":14662:14668   */\n      dup3\n        /* \"#utility.yul\":14659:14689   */\n      gt\n        /* \"#utility.yul\":14656:14712   */\n      iszero\n      tag_374\n      jumpi\n        /* \"#utility.yul\":14692:14710   */\n      tag_375\n      tag_179\n      jump\t// in\n    tag_375:\n        /* \"#utility.yul\":14656:14712   */\n    tag_374:\n        /* \"#utility.yul\":14742:14746   */\n      0x20\n        /* \"#utility.yul\":14734:14740   */\n      dup3\n        /* \"#utility.yul\":14730:14747   */\n      mul\n        /* \"#utility.yul\":14722:14747   */\n      swap1\n      pop\n        /* \"#utility.yul\":14802:14806   */\n      0x20\n        /* \"#utility.yul\":14796:14800   */\n      dup2\n        /* \"#utility.yul\":14792:14807   */\n      add\n        /* \"#utility.yul\":14784:14807   */\n      swap1\n      pop\n        /* \"#utility.yul\":14494:14814   */\n      swap2\n      swap1\n      pop\n      jump\t// out\n        /* \"#utility.yul\":14820:14937   */\n    tag_186:\n        /* \"#utility.yul\":14929:14930   */\n      0x00\n        /* \"#utility.yul\":14926:14927   */\n      dup1\n        /* \"#utility.yul\":14919:14931   */\n      revert\n        /* \"#utility.yul\":14943:15250   */\n    tag_187:\n        /* \"#utility.yul\":15004:15008   */\n      0x00\n        /* \"#utility.yul\":15094:15112   */\n      0xffffffffffffffff\n        /* \"#utility.yul\":15086:15092   */\n      dup3\n        /* \"#utility.yul\":15083:15113   */\n      gt\n        /* \"#utility.yul\":15080:15136   */\n      iszero\n      tag_378\n      jumpi\n        /* \"#utility.yul\":15116:15134   */\n      tag_379\n      tag_179\n      jump\t// in\n    tag_379:\n        /* \"#utility.yul\":15080:15136   */\n    tag_378:\n        /* \"#utility.yul\":15154:15183   */\n      tag_380\n        /* \"#utility.yul\":15176:15182   */\n      dup3\n        /* \"#utility.yul\":15154:15183   */\n      tag_164\n      jump\t// in\n    tag_380:\n        /* \"#utility.yul\":15146:15183   */\n      swap1\n      pop\n        /* \"#utility.yul\":15238:15242   */\n      0x20\n        /* \"#utility.yul\":15232:15236   */\n      dup2\n        /* \"#utility.yul\":15228:15243   */\n      add\n        /* \"#utility.yul\":15220:15243   */\n      swap1\n      pop\n        /* \"#utility.yul\":14943:15250   */\n      swap2\n      swap1\n      pop\n      jump\t// out\n        /* \"#utility.yul\":15256:15410   */\n    tag_188:\n        /* \"#utility.yul\":15340:15346   */\n      dup3\n        /* \"#utility.yul\":15335:15338   */\n      dup2\n        /* \"#utility.yul\":15330:15333   */\n      dup4\n        /* \"#utility.yul\":15317:15347   */\n      calldatacopy\n        /* \"#utility.yul\":15402:15403   */\n      0x00\n        /* \"#utility.yul\":15393:15399   */\n      dup4\n        /* \"#utility.yul\":15388:15391   */\n      dup4\n        /* \"#utility.yul\":15384:15400   */\n      add\n        /* \"#utility.yul\":15377:15404   */\n      mstore\n        /* \"#utility.yul\":15256:15410   */\n      pop\n      pop\n      pop\n      jump\t// out\n        /* \"#utility.yul\":15416:15826   */\n    tag_189:\n        /* \"#utility.yul\":15493:15498   */\n      0x00\n        /* \"#utility.yul\":15518:15583   */\n      tag_383\n        /* \"#utility.yul\":15534:15582   */\n      tag_384\n        /* \"#utility.yul\":15575:15581   */\n      dup5\n        /* \"#utility.yul\":15534:15582   */\n      tag_187\n      jump\t// in\n    tag_384:\n        /* \"#utility.yul\":15518:15583   */\n      tag_181\n      jump\t// in\n    tag_383:\n        /* \"#utility.yul\":15509:15583   */\n      swap1\n      pop\n        /* \"#utility.yul\":15606:15612   */\n      dup3\n        /* \"#utility.yul\":15599:15604   */\n      dup2\n        /* \"#utility.yul\":15592:15613   */\n      mstore\n        /* \"#utility.yul\":15644:15648   */\n      0x20\n        /* \"#utility.yul\":15637:15642   */\n      dup2\n        /* \"#utility.yul\":15633:15649   */\n      add\n        /* \"#utility.yul\":15682:15685   */\n      dup5\n        /* \"#utility.yul\":15673:15679   */\n      dup5\n        /* \"#utility.yul\":15668:15671   */\n      dup5\n        /* \"#utility.yul\":15664:15680   */\n      add\n        /* \"#utility.yul\":15661:15686   */\n      gt\n        /* \"#utility.yul\":15658:15770   */\n      iszero\n      tag_385\n      jumpi\n        /* \"#utility.yul\":15689:15768   */\n      tag_386\n      tag_186\n      jump\t// in\n    tag_386:\n        /* \"#utility.yul\":15658:15770   */\n    tag_385:\n        /* \"#utility.yul\":15779:15820   */\n      tag_387\n        /* \"#utility.yul\":15813:15819   */\n      dup5\n        /* \"#utility.yul\":15808:15811   */\n      dup3\n        /* \"#utility.yul\":15803:15806   */\n      dup6\n        /* \"#utility.yul\":15779:15820   */\n      tag_188\n      jump\t// in\n    tag_387:\n        /* \"#utility.yul\":15499:15826   */\n      pop\n        /* \"#utility.yul\":15416:15826   */\n      swap4\n      swap3\n      pop\n      pop\n      pop\n      jump\t// out\n        /* \"#utility.yul\":15845:16183   */\n    tag_190:\n        /* \"#utility.yul\":15900:15905   */\n      0x00\n        /* \"#utility.yul\":15949:15952   */\n      dup3\n        /* \"#utility.yul\":15942:15946   */\n      0x1f\n        /* \"#utility.yul\":15934:15940   */\n      dup4\n        /* \"#utility.yul\":15930:15947   */\n      add\n        /* \"#utility.yul\":15926:15953   */\n      slt\n        /* \"#utility.yul\":15916:16038   */\n      tag_389\n      jumpi\n        /* \"#utility.yul\":15957:16036   */\n      tag_390\n      tag_146\n      jump\t// in\n    tag_390:\n        /* \"#utility.yul\":15916:16038   */\n    tag_389:\n        /* \"#utility.yul\":16074:16080   */\n      dup2\n        /* \"#utility.yul\":16061:16081   */\n      calldataload\n        /* \"#utility.yul\":16099:16177   */\n      tag_391\n        /* \"#utility.yul\":16173:16176   */\n      dup5\n        /* \"#utility.yul\":16165:16171   */\n      dup3\n        /* \"#utility.yul\":16158:16162   */\n      0x20\n        /* \"#utility.yul\":16150:16156   */\n      dup7\n        /* \"#utility.yul\":16146:16163   */\n      add\n        /* \"#utility.yul\":16099:16177   */\n      tag_189\n      jump\t// in\n    tag_391:\n        /* \"#utility.yul\":16090:16177   */\n      swap2\n      pop\n        /* \"#utility.yul\":15906:16183   */\n      pop\n        /* \"#utility.yul\":15845:16183   */\n      swap3\n      swap2\n      pop\n      pop\n      jump\t// out\n        /* \"#utility.yul\":16204:17146   */\n    tag_191:\n        /* \"#utility.yul\":16309:16314   */\n      0x00\n        /* \"#utility.yul\":16334:16424   */\n      tag_393\n        /* \"#utility.yul\":16350:16423   */\n      tag_394\n        /* \"#utility.yul\":16416:16422   */\n      dup5\n        /* \"#utility.yul\":16350:16423   */\n      tag_185\n      jump\t// in\n    tag_394:\n        /* \"#utility.yul\":16334:16424   */\n      tag_181\n      jump\t// in\n    tag_393:\n        /* \"#utility.yul\":16325:16424   */\n      swap1\n      pop\n        /* \"#utility.yul\":16444:16449   */\n      dup1\n        /* \"#utility.yul\":16473:16479   */\n      dup4\n        /* \"#utility.yul\":16466:16471   */\n      dup3\n        /* \"#utility.yul\":16459:16480   */\n      mstore\n        /* \"#utility.yul\":16507:16511   */\n      0x20\n        /* \"#utility.yul\":16500:16505   */\n      dup3\n        /* \"#utility.yul\":16496:16512   */\n      add\n        /* \"#utility.yul\":16489:16512   */\n      swap1\n      pop\n        /* \"#utility.yul\":16560:16564   */\n      0x20\n        /* \"#utility.yul\":16552:16558   */\n      dup5\n        /* \"#utility.yul\":16548:16565   */\n      mul\n        /* \"#utility.yul\":16540:16546   */\n      dup4\n        /* \"#utility.yul\":16536:16566   */\n      add\n        /* \"#utility.yul\":16589:16592   */\n      dup6\n        /* \"#utility.yul\":16581:16587   */\n      dup2\n        /* \"#utility.yul\":16578:16593   */\n      gt\n        /* \"#utility.yul\":16575:16697   */\n      iszero\n      tag_395\n      jumpi\n        /* \"#utility.yul\":16608:16687   */\n      tag_396\n      tag_148\n      jump\t// in\n    tag_396:\n        /* \"#utility.yul\":16575:16697   */\n    tag_395:\n        /* \"#utility.yul\":16723:16729   */\n      dup4\n        /* \"#utility.yul\":16706:17140   */\n    tag_397:\n        /* \"#utility.yul\":16740:16746   */\n      dup2\n        /* \"#utility.yul\":16735:16738   */\n      dup2\n        /* \"#utility.yul\":16732:16747   */\n      lt\n        /* \"#utility.yul\":16706:17140   */\n      iszero\n      tag_399\n      jumpi\n        /* \"#utility.yul\":16829:16832   */\n      dup1\n        /* \"#utility.yul\":16816:16833   */\n      calldataload\n        /* \"#utility.yul\":16865:16883   */\n      0xffffffffffffffff\n        /* \"#utility.yul\":16852:16863   */\n      dup2\n        /* \"#utility.yul\":16849:16884   */\n      gt\n        /* \"#utility.yul\":16846:16968   */\n      iszero\n      tag_400\n      jumpi\n        /* \"#utility.yul\":16887:16966   */\n      tag_401\n      tag_146\n      jump\t// in\n    tag_401:\n        /* \"#utility.yul\":16846:16968   */\n    tag_400:\n        /* \"#utility.yul\":17011:17022   */\n      dup1\n        /* \"#utility.yul\":17003:17009   */\n      dup7\n        /* \"#utility.yul\":16999:17023   */\n      add\n        /* \"#utility.yul\":17049:17095   */\n      tag_402\n        /* \"#utility.yul\":17091:17094   */\n      dup10\n        /* \"#utility.yul\":17079:17089   */\n      dup3\n        /* \"#utility.yul\":17049:17095   */\n      tag_190\n      jump\t// in\n    tag_402:\n        /* \"#utility.yul\":17044:17047   */\n      dup6\n        /* \"#utility.yul\":17037:17096   */\n      mstore\n        /* \"#utility.yul\":17125:17129   */\n      0x20\n        /* \"#utility.yul\":17120:17123   */\n      dup6\n        /* \"#utility.yul\":17116:17130   */\n      add\n        /* \"#utility.yul\":17109:17130   */\n      swap5\n      pop\n        /* \"#utility.yul\":16782:17140   */\n      pop\n      pop\n        /* \"#utility.yul\":16766:16770   */\n      0x20\n        /* \"#utility.yul\":16761:16764   */\n      dup2\n        /* \"#utility.yul\":16757:16771   */\n      add\n        /* \"#utility.yul\":16750:16771   */\n      swap1\n      pop\n        /* \"#utility.yul\":16706:17140   */\n      jump(tag_397)\n    tag_399:\n        /* \"#utility.yul\":16710:16731   */\n      pop\n        /* \"#utility.yul\":16315:17146   */\n      pop\n      pop\n        /* \"#utility.yul\":16204:17146   */\n      swap4\n      swap3\n      pop\n      pop\n      pop\n      jump\t// out\n        /* \"#utility.yul\":17167:17555   */\n    tag_192:\n        /* \"#utility.yul\":17247:17252   */\n      0x00\n        /* \"#utility.yul\":17296:17299   */\n      dup3\n        /* \"#utility.yul\":17289:17293   */\n      0x1f\n        /* \"#utility.yul\":17281:17287   */\n      dup4\n        /* \"#utility.yul\":17277:17294   */\n      add\n        /* \"#utility.yul\":17273:17300   */\n      slt\n        /* \"#utility.yul\":17263:17385   */\n      tag_404\n      jumpi\n        /* \"#utility.yul\":17304:17383   */\n      tag_405\n      tag_146\n      jump\t// in\n    tag_405:\n        /* \"#utility.yul\":17263:17385   */\n    tag_404:\n        /* \"#utility.yul\":17421:17427   */\n      dup2\n        /* \"#utility.yul\":17408:17428   */\n      calldataload\n        /* \"#utility.yul\":17446:17549   */\n      tag_406\n        /* \"#utility.yul\":17545:17548   */\n      dup5\n        /* \"#utility.yul\":17537:17543   */\n      dup3\n        /* \"#utility.yul\":17530:17534   */\n      0x20\n        /* \"#utility.yul\":17522:17528   */\n      dup7\n        /* \"#utility.yul\":17518:17535   */\n      add\n        /* \"#utility.yul\":17446:17549   */\n      tag_191\n      jump\t// in\n    tag_406:\n        /* \"#utility.yul\":17437:17549   */\n      swap2\n      pop\n        /* \"#utility.yul\":17253:17555   */\n      pop\n        /* \"#utility.yul\":17167:17555   */\n      swap3\n      swap2\n      pop\n      pop\n      jump\t// out\n        /* \"#utility.yul\":17561:18473   */\n    tag_60:\n        /* \"#utility.yul\":17688:17694   */\n      0x00\n        /* \"#utility.yul\":17696:17702   */\n      dup1\n        /* \"#utility.yul\":17745:17747   */\n      0x40\n        /* \"#utility.yul\":17733:17742   */\n      dup4\n        /* \"#utility.yul\":17724:17731   */\n      dup6\n        /* \"#utility.yul\":17720:17743   */\n      sub\n        /* \"#utility.yul\":17716:17748   */\n      slt\n        /* \"#utility.yul\":17713:17832   */\n      iszero\n      tag_408\n      jumpi\n        /* \"#utility.yul\":17751:17830   */\n      tag_409\n      tag_144\n      jump\t// in\n    tag_409:\n        /* \"#utility.yul\":17713:17832   */\n    tag_408:\n        /* \"#utility.yul\":17899:17900   */\n      0x00\n        /* \"#utility.yul\":17888:17897   */\n      dup4\n        /* \"#utility.yul\":17884:17901   */\n      add\n        /* \"#utility.yul\":17871:17902   */\n      calldataload\n        /* \"#utility.yul\":17929:17947   */\n      0xffffffffffffffff\n        /* \"#utility.yul\":17921:17927   */\n      dup2\n        /* \"#utility.yul\":17918:17948   */\n      gt\n        /* \"#utility.yul\":17915:18032   */\n      iszero\n      tag_410\n      jumpi\n        /* \"#utility.yul\":17951:18030   */\n      tag_411\n      tag_145\n      jump\t// in\n    tag_411:\n        /* \"#utility.yul\":17915:18032   */\n    tag_410:\n        /* \"#utility.yul\":18056:18134   */\n      tag_412\n        /* \"#utility.yul\":18126:18133   */\n      dup6\n        /* \"#utility.yul\":18117:18123   */\n      dup3\n        /* \"#utility.yul\":18106:18115   */\n      dup7\n        /* \"#utility.yul\":18102:18124   */\n      add\n        /* \"#utility.yul\":18056:18134   */\n      tag_184\n      jump\t// in\n    tag_412:\n        /* \"#utility.yul\":18046:18134   */\n      swap3\n      pop\n        /* \"#utility.yul\":17842:18144   */\n      pop\n        /* \"#utility.yul\":18211:18213   */\n      0x20\n        /* \"#utility.yul\":18200:18209   */\n      dup4\n        /* \"#utility.yul\":18196:18214   */\n      add\n        /* \"#utility.yul\":18183:18215   */\n      calldataload\n        /* \"#utility.yul\":18242:18260   */\n      0xffffffffffffffff\n        /* \"#utility.yul\":18234:18240   */\n      dup2\n        /* \"#utility.yul\":18231:18261   */\n      gt\n        /* \"#utility.yul\":18228:18345   */\n      iszero\n      tag_413\n      jumpi\n        /* \"#utility.yul\":18264:18343   */\n      tag_414\n      tag_145\n      jump\t// in\n    tag_414:\n        /* \"#utility.yul\":18228:18345   */\n    tag_413:\n        /* \"#utility.yul\":18369:18456   */\n      tag_415\n        /* \"#utility.yul\":18448:18455   */\n      dup6\n        /* \"#utility.yul\":18439:18445   */\n      dup3\n        /* \"#utility.yul\":18428:18437   */\n      dup7\n        /* \"#utility.yul\":18424:18446   */\n      add\n        /* \"#utility.yul\":18369:18456   */\n      tag_192\n      jump\t// in\n    tag_415:\n        /* \"#utility.yul\":18359:18456   */\n      swap2\n      pop\n        /* \"#utility.yul\":18154:18466   */\n      pop\n        /* \"#utility.yul\":17561:18473   */\n      swap3\n      pop\n      swap3\n      swap1\n      pop\n      jump\t// out\n        /* \"#utility.yul\":18479:20120   */\n    tag_63:\n        /* \"#utility.yul\":18683:18689   */\n      0x00\n        /* \"#utility.yul\":18691:18697   */\n      dup1\n        /* \"#utility.yul\":18699:18705   */\n      0x00\n        /* \"#utility.yul\":18707:18713   */\n      dup1\n        /* \"#utility.yul\":18756:18759   */\n      0x80\n        /* \"#utility.yul\":18744:18753   */\n      dup6\n        /* \"#utility.yul\":18735:18742   */\n      dup8\n        /* \"#utility.yul\":18731:18754   */\n      sub\n        /* \"#utility.yul\":18727:18760   */\n      slt\n        /* \"#utility.yul\":18724:18844   */\n      iszero\n      tag_417\n      jumpi\n        /* \"#utility.yul\":18763:18842   */\n      tag_418\n      tag_144\n      jump\t// in\n    tag_418:\n        /* \"#utility.yul\":18724:18844   */\n    tag_417:\n        /* \"#utility.yul\":18911:18912   */\n      0x00\n        /* \"#utility.yul\":18900:18909   */\n      dup6\n        /* \"#utility.yul\":18896:18913   */\n      add\n        /* \"#utility.yul\":18883:18914   */\n      calldataload\n        /* \"#utility.yul\":18941:18959   */\n      0xffffffffffffffff\n        /* \"#utility.yul\":18933:18939   */\n      dup2\n        /* \"#utility.yul\":18930:18960   */\n      gt\n        /* \"#utility.yul\":18927:19044   */\n      iszero\n      tag_419\n      jumpi\n        /* \"#utility.yul\":18963:19042   */\n      tag_420\n      tag_145\n      jump\t// in\n    tag_420:\n        /* \"#utility.yul\":18927:19044   */\n    tag_419:\n        /* \"#utility.yul\":19068:19146   */\n      tag_421\n        /* \"#utility.yul\":19138:19145   */\n      dup8\n        /* \"#utility.yul\":19129:19135   */\n      dup3\n        /* \"#utility.yul\":19118:19127   */\n      dup9\n        /* \"#utility.yul\":19114:19136   */\n      add\n        /* \"#utility.yul\":19068:19146   */\n      tag_184\n      jump\t// in\n    tag_421:\n        /* \"#utility.yul\":19058:19146   */\n      swap5\n      pop\n        /* \"#utility.yul\":18854:19156   */\n      pop\n        /* \"#utility.yul\":19223:19225   */\n      0x20\n        /* \"#utility.yul\":19212:19221   */\n      dup6\n        /* \"#utility.yul\":19208:19226   */\n      add\n        /* \"#utility.yul\":19195:19227   */\n      calldataload\n        /* \"#utility.yul\":19254:19272   */\n      0xffffffffffffffff\n        /* \"#utility.yul\":19246:19252   */\n      dup2\n        /* \"#utility.yul\":19243:19273   */\n      gt\n        /* \"#utility.yul\":19240:19357   */\n      iszero\n      tag_422\n      jumpi\n        /* \"#utility.yul\":19276:19355   */\n      tag_423\n      tag_145\n      jump\t// in\n    tag_423:\n        /* \"#utility.yul\":19240:19357   */\n    tag_422:\n        /* \"#utility.yul\":19381:19468   */\n      tag_424\n        /* \"#utility.yul\":19460:19467   */\n      dup8\n        /* \"#utility.yul\":19451:19457   */\n      dup3\n        /* \"#utility.yul\":19440:19449   */\n      dup9\n        /* \"#utility.yul\":19436:19458   */\n      add\n        /* \"#utility.yul\":19381:19468   */\n      tag_192\n      jump\t// in\n    tag_424:\n        /* \"#utility.yul\":19371:19468   */\n      swap4\n      pop\n        /* \"#utility.yul\":19166:19478   */\n      pop\n        /* \"#utility.yul\":19545:19547   */\n      0x40\n        /* \"#utility.yul\":19534:19543   */\n      dup6\n        /* \"#utility.yul\":19530:19548   */\n      add\n        /* \"#utility.yul\":19517:19549   */\n      calldataload\n        /* \"#utility.yul\":19576:19594   */\n      0xffffffffffffffff\n        /* \"#utility.yul\":19568:19574   */\n      dup2\n        /* \"#utility.yul\":19565:19595   */\n      gt\n        /* \"#utility.yul\":19562:19679   */\n      iszero\n      tag_425\n      jumpi\n        /* \"#utility.yul\":19598:19677   */\n      tag_426\n      tag_145\n      jump\t// in\n    tag_426:\n        /* \"#utility.yul\":19562:19679   */\n    tag_425:\n        /* \"#utility.yul\":19703:19781   */\n      tag_427\n        /* \"#utility.yul\":19773:19780   */\n      dup8\n        /* \"#utility.yul\":19764:19770   */\n      dup3\n        /* \"#utility.yul\":19753:19762   */\n      dup9\n        /* \"#utility.yul\":19749:19771   */\n      add\n        /* \"#utility.yul\":19703:19781   */\n      tag_184\n      jump\t// in\n    tag_427:\n        /* \"#utility.yul\":19693:19781   */\n      swap3\n      pop\n        /* \"#utility.yul\":19488:19791   */\n      pop\n        /* \"#utility.yul\":19858:19860   */\n      0x60\n        /* \"#utility.yul\":19847:19856   */\n      dup6\n        /* \"#utility.yul\":19843:19861   */\n      add\n        /* \"#utility.yul\":19830:19862   */\n      calldataload\n        /* \"#utility.yul\":19889:19907   */\n      0xffffffffffffffff\n        /* \"#utility.yul\":19881:19887   */\n      dup2\n        /* \"#utility.yul\":19878:19908   */\n      gt\n        /* \"#utility.yul\":19875:19992   */\n      iszero\n      tag_428\n      jumpi\n        /* \"#utility.yul\":19911:19990   */\n      tag_429\n      tag_145\n      jump\t// in\n    tag_429:\n        /* \"#utility.yul\":19875:19992   */\n    tag_428:\n        /* \"#utility.yul\":20016:20103   */\n      tag_430\n        /* \"#utility.yul\":20095:20102   */\n      dup8\n        /* \"#utility.yul\":20086:20092   */\n      dup3\n        /* \"#utility.yul\":20075:20084   */\n      dup9\n        /* \"#utility.yul\":20071:20093   */\n      add\n        /* \"#utility.yul\":20016:20103   */\n      tag_192\n      jump\t// in\n    tag_430:\n        /* \"#utility.yul\":20006:20103   */\n      swap2\n      pop\n        /* \"#utility.yul\":19801:20113   */\n      pop\n        /* \"#utility.yul\":18479:20120   */\n      swap3\n      swap6\n      swap2\n      swap5\n      pop\n      swap3\n      pop\n      jump\t// out\n        /* \"#utility.yul\":20126:20295   */\n    tag_193:\n        /* \"#utility.yul\":20210:20221   */\n      0x00\n        /* \"#utility.yul\":20244:20250   */\n      dup3\n        /* \"#utility.yul\":20239:20242   */\n      dup3\n        /* \"#utility.yul\":20232:20251   */\n      mstore\n        /* \"#utility.yul\":20284:20288   */\n      0x20\n        /* \"#utility.yul\":20279:20282   */\n      dup3\n        /* \"#utility.yul\":20275:20289   */\n      add\n        /* \"#utility.yul\":20260:20289   */\n      swap1\n      pop\n        /* \"#utility.yul\":20126:20295   */\n      swap3\n      swap2\n      pop\n      pop\n      jump\t// out\n        /* \"#utility.yul\":20301:20464   */\n    tag_194:\n        /* \"#utility.yul\":20441:20456   */\n      0x496e76616c696420696e70757400000000000000000000000000000000000000\n        /* \"#utility.yul\":20437:20438   */\n      0x00\n        /* \"#utility.yul\":20429:20435   */\n      dup3\n        /* \"#utility.yul\":20425:20439   */\n      add\n        /* \"#utility.yul\":20418:20457   */\n      mstore\n        /* \"#utility.yul\":20301:20464   */\n      pop\n      jump\t// out\n        /* \"#utility.yul\":20470:20836   */\n    tag_195:\n        /* \"#utility.yul\":20612:20615   */\n      0x00\n        /* \"#utility.yul\":20633:20700   */\n      tag_434\n        /* \"#utility.yul\":20697:20699   */\n      0x0d\n        /* \"#utility.yul\":20692:20695   */\n      dup4\n        /* \"#utility.yul\":20633:20700   */\n      tag_193\n      jump\t// in\n    tag_434:\n        /* \"#utility.yul\":20626:20700   */\n      swap2\n      pop\n        /* \"#utility.yul\":20709:20802   */\n      tag_435\n        /* \"#utility.yul\":20798:20801   */\n      dup3\n        /* \"#utility.yul\":20709:20802   */\n      tag_194\n      jump\t// in\n    tag_435:\n        /* \"#utility.yul\":20827:20829   */\n      0x20\n        /* \"#utility.yul\":20822:20825   */\n      dup3\n        /* \"#utility.yul\":20818:20830   */\n      add\n        /* \"#utility.yul\":20811:20830   */\n      swap1\n      pop\n        /* \"#utility.yul\":20470:20836   */\n      swap2\n      swap1\n      pop\n      jump\t// out\n        /* \"#utility.yul\":20842:21261   */\n    tag_67:\n        /* \"#utility.yul\":21008:21012   */\n      0x00\n        /* \"#utility.yul\":21046:21048   */\n      0x20\n        /* \"#utility.yul\":21035:21044   */\n      dup3\n        /* \"#utility.yul\":21031:21049   */\n      add\n        /* \"#utility.yul\":21023:21049   */\n      swap1\n      pop\n        /* \"#utility.yul\":21095:21104   */\n      dup2\n        /* \"#utility.yul\":21089:21093   */\n      dup2\n        /* \"#utility.yul\":21085:21105   */\n      sub\n        /* \"#utility.yul\":21081:21082   */\n      0x00\n        /* \"#utility.yul\":21070:21079   */\n      dup4\n        /* \"#utility.yul\":21066:21083   */\n      add\n        /* \"#utility.yul\":21059:21106   */\n      mstore\n        /* \"#utility.yul\":21123:21254   */\n      tag_437\n        /* \"#utility.yul\":21249:21253   */\n      dup2\n        /* \"#utility.yul\":21123:21254   */\n      tag_195\n      jump\t// in\n    tag_437:\n        /* \"#utility.yul\":21115:21254   */\n      swap1\n      pop\n        /* \"#utility.yul\":20842:21261   */\n      swap2\n      swap1\n      pop\n      jump\t// out\n        /* \"#utility.yul\":21267:21447   */\n    tag_73:\n        /* \"#utility.yul\":21315:21392   */\n      0x4e487b7100000000000000000000000000000000000000000000000000000000\n        /* \"#utility.yul\":21312:21313   */\n      0x00\n        /* \"#utility.yul\":21305:21393   */\n      mstore\n        /* \"#utility.yul\":21412:21416   */\n      0x32\n        /* \"#utility.yul\":21409:21410   */\n      0x04\n        /* \"#utility.yul\":21402:21417   */\n      mstore\n        /* \"#utility.yul\":21436:21440   */\n      0x24\n        /* \"#utility.yul\":21433:21434   */\n      0x00\n        /* \"#utility.yul\":21426:21441   */\n      revert\n        /* \"#utility.yul\":21453:21571   */\n    tag_196:\n        /* \"#utility.yul\":21540:21564   */\n      tag_440\n        /* \"#utility.yul\":21558:21563   */\n      dup2\n        /* \"#utility.yul\":21540:21564   */\n      tag_153\n      jump\t// in\n    tag_440:\n        /* \"#utility.yul\":21535:21538   */\n      dup3\n        /* \"#utility.yul\":21528:21565   */\n      mstore\n        /* \"#utility.yul\":21453:21571   */\n      pop\n      pop\n      jump\t// out\n        /* \"#utility.yul\":21577:21909   */\n    tag_77:\n        /* \"#utility.yul\":21698:21702   */\n      0x00\n        /* \"#utility.yul\":21736:21738   */\n      0x40\n        /* \"#utility.yul\":21725:21734   */\n      dup3\n        /* \"#utility.yul\":21721:21739   */\n      add\n        /* \"#utility.yul\":21713:21739   */\n      swap1\n      pop\n        /* \"#utility.yul\":21749:21820   */\n      tag_442\n        /* \"#utility.yul\":21817:21818   */\n      0x00\n        /* \"#utility.yul\":21806:21815   */\n      dup4\n        /* \"#utility.yul\":21802:21819   */\n      add\n        /* \"#utility.yul\":21793:21799   */\n      dup6\n        /* \"#utility.yul\":21749:21820   */\n      tag_196\n      jump\t// in\n    tag_442:\n        /* \"#utility.yul\":21830:21902   */\n      tag_443\n        /* \"#utility.yul\":21898:21900   */\n      0x20\n        /* \"#utility.yul\":21887:21896   */\n      dup4\n        /* \"#utility.yul\":21883:21901   */\n      add\n        /* \"#utility.yul\":21874:21880   */\n      dup5\n        /* \"#utility.yul\":21830:21902   */\n      tag_178\n      jump\t// in\n    tag_443:\n        /* \"#utility.yul\":21577:21909   */\n      swap4\n      swap3\n      pop\n      pop\n      pop\n      jump\t// out\n        /* \"#utility.yul\":21915:22062   */\n    tag_197:\n        /* \"#utility.yul\":22016:22027   */\n      0x00\n        /* \"#utility.yul\":22053:22056   */\n      dup2\n        /* \"#utility.yul\":22038:22056   */\n      swap1\n      pop\n        /* \"#utility.yul\":21915:22062   */\n      swap3\n      swap2\n      pop\n      pop\n      jump\t// out\n        /* \"#utility.yul\":22068:22441   */\n    tag_198:\n        /* \"#utility.yul\":22172:22175   */\n      0x00\n        /* \"#utility.yul\":22200:22238   */\n      tag_446\n        /* \"#utility.yul\":22232:22237   */\n      dup3\n        /* \"#utility.yul\":22200:22238   */\n      tag_161\n      jump\t// in\n    tag_446:\n        /* \"#utility.yul\":22254:22342   */\n      tag_447\n        /* \"#utility.yul\":22335:22341   */\n      dup2\n        /* \"#utility.yul\":22330:22333   */\n      dup6\n        /* \"#utility.yul\":22254:22342   */\n      tag_197\n      jump\t// in\n    tag_447:\n        /* \"#utility.yul\":22247:22342   */\n      swap4\n      pop\n        /* \"#utility.yul\":22351:22403   */\n      tag_448\n        /* \"#utility.yul\":22396:22402   */\n      dup2\n        /* \"#utility.yul\":22391:22394   */\n      dup6\n        /* \"#utility.yul\":22384:22388   */\n      0x20\n        /* \"#utility.yul\":22377:22382   */\n      dup7\n        /* \"#utility.yul\":22373:22389   */\n      add\n        /* \"#utility.yul\":22351:22403   */\n      tag_163\n      jump\t// in\n    tag_448:\n        /* \"#utility.yul\":22428:22434   */\n      dup1\n        /* \"#utility.yul\":22423:22426   */\n      dup5\n        /* \"#utility.yul\":22419:22435   */\n      add\n        /* \"#utility.yul\":22412:22435   */\n      swap2\n      pop\n        /* \"#utility.yul\":22176:22441   */\n      pop\n        /* \"#utility.yul\":22068:22441   */\n      swap3\n      swap2\n      pop\n      pop\n      jump\t// out\n        /* \"#utility.yul\":22447:22718   */\n    tag_79:\n        /* \"#utility.yul\":22577:22580   */\n      0x00\n        /* \"#utility.yul\":22599:22692   */\n      tag_450\n        /* \"#utility.yul\":22688:22691   */\n      dup3\n        /* \"#utility.yul\":22679:22685   */\n      dup5\n        /* \"#utility.yul\":22599:22692   */\n      tag_198\n      jump\t// in\n    tag_450:\n        /* \"#utility.yul\":22592:22692   */\n      swap2\n      pop\n        /* \"#utility.yul\":22709:22712   */\n      dup2\n        /* \"#utility.yul\":22702:22712   */\n      swap1\n      pop\n        /* \"#utility.yul\":22447:22718   */\n      swap3\n      swap2\n      pop\n      pop\n      jump\t// out\n        /* \"#utility.yul\":22724:22889   */\n    tag_199:\n        /* \"#utility.yul\":22864:22881   */\n      0x43616e206e6f7420617070726f76650000000000000000000000000000000000\n        /* \"#utility.yul\":22860:22861   */\n      0x00\n        /* \"#utility.yul\":22852:22858   */\n      dup3\n        /* \"#utility.yul\":22848:22862   */\n      add\n        /* \"#utility.yul\":22841:22882   */\n      mstore\n        /* \"#utility.yul\":22724:22889   */\n      pop\n      jump\t// out\n        /* \"#utility.yul\":22895:23261   */\n    tag_200:\n        /* \"#utility.yul\":23037:23040   */\n      0x00\n        /* \"#utility.yul\":23058:23125   */\n      tag_453\n        /* \"#utility.yul\":23122:23124   */\n      0x0f\n        /* \"#utility.yul\":23117:23120   */\n      dup4\n        /* \"#utility.yul\":23058:23125   */\n      tag_193\n      jump\t// in\n    tag_453:\n        /* \"#utility.yul\":23051:23125   */\n      swap2\n      pop\n        /* \"#utility.yul\":23134:23227   */\n      tag_454\n        /* \"#utility.yul\":23223:23226   */\n      dup3\n        /* \"#utility.yul\":23134:23227   */\n      tag_199\n      jump\t// in\n    tag_454:\n        /* \"#utility.yul\":23252:23254   */\n      0x20\n        /* \"#utility.yul\":23247:23250   */\n      dup3\n        /* \"#utility.yul\":23243:23255   */\n      add\n        /* \"#utility.yul\":23236:23255   */\n      swap1\n      pop\n        /* \"#utility.yul\":22895:23261   */\n      swap2\n      swap1\n      pop\n      jump\t// out\n        /* \"#utility.yul\":23267:23686   */\n    tag_85:\n        /* \"#utility.yul\":23433:23437   */\n      0x00\n        /* \"#utility.yul\":23471:23473   */\n      0x20\n        /* \"#utility.yul\":23460:23469   */\n      dup3\n        /* \"#utility.yul\":23456:23474   */\n      add\n        /* \"#utility.yul\":23448:23474   */\n      swap1\n      pop\n        /* \"#utility.yul\":23520:23529   */\n      dup2\n        /* \"#utility.yul\":23514:23518   */\n      dup2\n        /* \"#utility.yul\":23510:23530   */\n      sub\n        /* \"#utility.yul\":23506:23507   */\n      0x00\n        /* \"#utility.yul\":23495:23504   */\n      dup4\n        /* \"#utility.yul\":23491:23508   */\n      add\n        /* \"#utility.yul\":23484:23531   */\n      mstore\n        /* \"#utility.yul\":23548:23679   */\n      tag_456\n        /* \"#utility.yul\":23674:23678   */\n      dup2\n        /* \"#utility.yul\":23548:23679   */\n      tag_200\n      jump\t// in\n    tag_456:\n        /* \"#utility.yul\":23540:23679   */\n      swap1\n      pop\n        /* \"#utility.yul\":23267:23686   */\n      swap2\n      swap1\n      pop\n      jump\t// out\n        /* \"#utility.yul\":23692:23871   */\n    tag_201:\n        /* \"#utility.yul\":23832:23855   */\n      0x63616e206e6f74207472616465282820626c7961740000000000000000000000\n        /* \"#utility.yul\":23828:23829   */\n      0x00\n        /* \"#utility.yul\":23820:23826   */\n      dup3\n        /* \"#utility.yul\":23816:23830   */\n      add\n        /* \"#utility.yul\":23809:23856   */\n      mstore\n        /* \"#utility.yul\":23692:23871   */\n      pop\n      jump\t// out\n        /* \"#utility.yul\":23885:24283   */\n    tag_202:\n        /* \"#utility.yul\":24027:24030   */\n      0x00\n        /* \"#utility.yul\":24056:24123   */\n      tag_459\n        /* \"#utility.yul\":24120:24122   */\n      0x15\n        /* \"#utility.yul\":24115:24118   */\n      dup4\n        /* \"#utility.yul\":24056:24123   */\n      tag_193\n      jump\t// in\n    tag_459:\n        /* \"#utility.yul\":24049:24123   */\n      swap2\n      pop\n        /* \"#utility.yul\":24140:24233   */\n      tag_460\n        /* \"#utility.yul\":24229:24232   */\n      dup3\n        /* \"#utility.yul\":24140:24233   */\n      tag_201\n      jump\t// in\n    tag_460:\n        /* \"#utility.yul\":24266:24268   */\n      0x20\n        /* \"#utility.yul\":24261:24264   */\n      dup3\n        /* \"#utility.yul\":24257:24269   */\n      add\n        /* \"#utility.yul\":24250:24269   */\n      swap1\n      pop\n        /* \"#utility.yul\":23885:24283   */\n      swap2\n      swap1\n      pop\n      jump\t// out\n        /* \"#utility.yul\":24297:24748   */\n    tag_96:\n        /* \"#utility.yul\":24463:24467   */\n      0x00\n        /* \"#utility.yul\":24509:24511   */\n      0x20\n        /* \"#utility.yul\":24498:24507   */\n      dup3\n        /* \"#utility.yul\":24494:24512   */\n      add\n        /* \"#utility.yul\":24486:24512   */\n      swap1\n      pop\n        /* \"#utility.yul\":24566:24575   */\n      dup2\n        /* \"#utility.yul\":24560:24564   */\n      dup2\n        /* \"#utility.yul\":24556:24576   */\n      sub\n        /* \"#utility.yul\":24552:24553   */\n      0x00\n        /* \"#utility.yul\":24541:24550   */\n      dup4\n        /* \"#utility.yul\":24537:24554   */\n      add\n        /* \"#utility.yul\":24530:24577   */\n      mstore\n        /* \"#utility.yul\":24602:24733   */\n      tag_462\n        /* \"#utility.yul\":24728:24732   */\n      dup2\n        /* \"#utility.yul\":24602:24733   */\n      tag_202\n      jump\t// in\n    tag_462:\n        /* \"#utility.yul\":24594:24733   */\n      swap1\n      pop\n        /* \"#utility.yul\":24297:24748   */\n      swap2\n      swap1\n      pop\n      jump\t// out\n        /* \"#utility.yul\":24762:25008   */\n    tag_203:\n        /* \"#utility.yul\":24910:24944   */\n      0x57652066696e6973686564206174206c6561747374206f6e6520747261646521\n        /* \"#utility.yul\":24906:24907   */\n      0x00\n        /* \"#utility.yul\":24898:24904   */\n      dup3\n        /* \"#utility.yul\":24894:24908   */\n      add\n        /* \"#utility.yul\":24887:24945   */\n      mstore\n        /* \"#utility.yul\":24987:24992   */\n      0x2121210000000000000000000000000000000000000000000000000000000000\n        /* \"#utility.yul\":24982:24984   */\n      0x20\n        /* \"#utility.yul\":24974:24980   */\n      dup3\n        /* \"#utility.yul\":24970:24985   */\n      add\n        /* \"#utility.yul\":24963:24993   */\n      mstore\n        /* \"#utility.yul\":24762:25008   */\n      pop\n      jump\t// out\n        /* \"#utility.yul\":25022:25420   */\n    tag_204:\n        /* \"#utility.yul\":25164:25167   */\n      0x00\n        /* \"#utility.yul\":25193:25260   */\n      tag_465\n        /* \"#utility.yul\":25257:25259   */\n      0x23\n        /* \"#utility.yul\":25252:25255   */\n      dup4\n        /* \"#utility.yul\":25193:25260   */\n      tag_193\n      jump\t// in\n    tag_465:\n        /* \"#utility.yul\":25186:25260   */\n      swap2\n      pop\n        /* \"#utility.yul\":25277:25370   */\n      tag_466\n        /* \"#utility.yul\":25366:25369   */\n      dup3\n        /* \"#utility.yul\":25277:25370   */\n      tag_203\n      jump\t// in\n    tag_466:\n        /* \"#utility.yul\":25403:25405   */\n      0x40\n        /* \"#utility.yul\":25398:25401   */\n      dup3\n        /* \"#utility.yul\":25394:25406   */\n      add\n        /* \"#utility.yul\":25387:25406   */\n      swap1\n      pop\n        /* \"#utility.yul\":25022:25420   */\n      swap2\n      swap1\n      pop\n      jump\t// out\n        /* \"#utility.yul\":25434:25885   */\n    tag_98:\n        /* \"#utility.yul\":25600:25604   */\n      0x00\n        /* \"#utility.yul\":25646:25648   */\n      0x20\n        /* \"#utility.yul\":25635:25644   */\n      dup3\n        /* \"#utility.yul\":25631:25649   */\n      add\n        /* \"#utility.yul\":25623:25649   */\n      swap1\n      pop\n        /* \"#utility.yul\":25703:25712   */\n      dup2\n        /* \"#utility.yul\":25697:25701   */\n      dup2\n        /* \"#utility.yul\":25693:25713   */\n      sub\n        /* \"#utility.yul\":25689:25690   */\n      0x00\n        /* \"#utility.yul\":25678:25687   */\n      dup4\n        /* \"#utility.yul\":25674:25691   */\n      add\n        /* \"#utility.yul\":25667:25714   */\n      mstore\n        /* \"#utility.yul\":25739:25870   */\n      tag_468\n        /* \"#utility.yul\":25865:25869   */\n      dup2\n        /* \"#utility.yul\":25739:25870   */\n      tag_204\n      jump\t// in\n    tag_468:\n        /* \"#utility.yul\":25731:25870   */\n      swap1\n      pop\n        /* \"#utility.yul\":25434:25885   */\n      swap2\n      swap1\n      pop\n      jump\t// out\n        /* \"#utility.yul\":25899:26111   */\n    tag_205:\n        /* \"#utility.yul\":25955:26032   */\n      0x4e487b7100000000000000000000000000000000000000000000000000000000\n        /* \"#utility.yul\":25952:25953   */\n      0x00\n        /* \"#utility.yul\":25945:26033   */\n      mstore\n        /* \"#utility.yul\":26060:26064   */\n      0x11\n        /* \"#utility.yul\":26057:26058   */\n      0x04\n        /* \"#utility.yul\":26050:26065   */\n      mstore\n        /* \"#utility.yul\":26092:26096   */\n      0x24\n        /* \"#utility.yul\":26089:26090   */\n      0x00\n        /* \"#utility.yul\":26082:26097   */\n      revert\n        /* \"#utility.yul\":26404:26757   */\n    tag_102:\n        /* \"#utility.yul\":26444:26447   */\n      0x00\n        /* \"#utility.yul\":26471:26491   */\n      tag_475\n        /* \"#utility.yul\":26489:26490   */\n      dup3\n        /* \"#utility.yul\":26471:26491   */\n      tag_171\n      jump\t// in\n    tag_475:\n        /* \"#utility.yul\":26466:26491   */\n      swap2\n      pop\n        /* \"#utility.yul\":26513:26533   */\n      tag_476\n        /* \"#utility.yul\":26531:26532   */\n      dup4\n        /* \"#utility.yul\":26513:26533   */\n      tag_171\n      jump\t// in\n    tag_476:\n        /* \"#utility.yul\":26508:26533   */\n      swap3\n      pop\n        /* \"#utility.yul\":26683:26684   */\n      dup3\n        /* \"#utility.yul\":26615:26681   */\n      0xffffffffffffffffffffffffffffffffffffffffffffffffffffffffffffffff\n        /* \"#utility.yul\":26611:26685   */\n      sub\n        /* \"#utility.yul\":26608:26609   */\n      dup3\n        /* \"#utility.yul\":26605:26686   */\n      gt\n        /* \"#utility.yul\":26602:26709   */\n      iszero\n      tag_477\n      jumpi\n        /* \"#utility.yul\":26689:26707   */\n      tag_478\n      tag_205\n      jump\t// in\n    tag_478:\n        /* \"#utility.yul\":26602:26709   */\n    tag_477:\n        /* \"#utility.yul\":26741:26742   */\n      dup3\n        /* \"#utility.yul\":26738:26739   */\n      dup3\n        /* \"#utility.yul\":26734:26743   */\n      add\n        /* \"#utility.yul\":26727:26743   */\n      swap1\n      pop\n        /* \"#utility.yul\":26404:26757   */\n      swap3\n      swap2\n      pop\n      pop\n      jump\t// out\n        /* \"#utility.yul\":26771:26959   */\n    tag_206:\n        /* \"#utility.yul\":26919:26943   */\n      0x57652066696e6973686564207472616465732121212100000000000000000000\n        /* \"#utility.yul\":26915:26916   */\n      0x00\n        /* \"#utility.yul\":26907:26913   */\n      dup3\n        /* \"#utility.yul\":26903:26917   */\n      add\n        /* \"#utility.yul\":26896:26944   */\n      mstore\n        /* \"#utility.yul\":26771:26959   */\n      pop\n      jump\t// out\n        /* \"#utility.yul\":26973:27371   */\n    tag_207:\n        /* \"#utility.yul\":27115:27118   */\n      0x00\n        /* \"#utility.yul\":27144:27211   */\n      tag_481\n        /* \"#utility.yul\":27208:27210   */\n      0x16\n        /* \"#utility.yul\":27203:27206   */\n      dup4\n        /* \"#utility.yul\":27144:27211   */\n      tag_193\n      jump\t// in\n    tag_481:\n        /* \"#utility.yul\":27137:27211   */\n      swap2\n      pop\n        /* \"#utility.yul\":27228:27321   */\n      tag_482\n        /* \"#utility.yul\":27317:27320   */\n      dup3\n        /* \"#utility.yul\":27228:27321   */\n      tag_206\n      jump\t// in\n    tag_482:\n        /* \"#utility.yul\":27354:27356   */\n      0x20\n        /* \"#utility.yul\":27349:27352   */\n      dup3\n        /* \"#utility.yul\":27345:27357   */\n      add\n        /* \"#utility.yul\":27338:27357   */\n      swap1\n      pop\n        /* \"#utility.yul\":26973:27371   */\n      swap2\n      swap1\n      pop\n      jump\t// out\n        /* \"#utility.yul\":27385:27836   */\n    tag_104:\n        /* \"#utility.yul\":27551:27555   */\n      0x00\n        /* \"#utility.yul\":27597:27599   */\n      0x20\n        /* \"#utility.yul\":27586:27595   */\n      dup3\n        /* \"#utility.yul\":27582:27600   */\n      add\n        /* \"#utility.yul\":27574:27600   */\n      swap1\n      pop\n        /* \"#utility.yul\":27654:27663   */\n      dup2\n        /* \"#utility.yul\":27648:27652   */\n      dup2\n        /* \"#utility.yul\":27644:27664   */\n      sub\n        /* \"#utility.yul\":27640:27641   */\n      0x00\n        /* \"#utility.yul\":27629:27638   */\n      dup4\n        /* \"#utility.yul\":27625:27642   */\n      add\n        /* \"#utility.yul\":27618:27665   */\n      mstore\n        /* \"#utility.yul\":27690:27821   */\n      tag_484\n        /* \"#utility.yul\":27816:27820   */\n      dup2\n        /* \"#utility.yul\":27690:27821   */\n      tag_207\n      jump\t// in\n    tag_484:\n        /* \"#utility.yul\":27682:27821   */\n      swap1\n      pop\n        /* \"#utility.yul\":27385:27836   */\n      swap2\n      swap1\n      pop\n      jump\t// out\n        /* \"#utility.yul\":27850:27982   */\n    tag_208:\n        /* \"#utility.yul\":27928:27949   */\n      tag_486\n        /* \"#utility.yul\":27943:27948   */\n      dup2\n        /* \"#utility.yul\":27928:27949   */\n      tag_174\n      jump\t// in\n    tag_486:\n        /* \"#utility.yul\":27921:27926   */\n      dup2\n        /* \"#utility.yul\":27918:27950   */\n      eq\n        /* \"#utility.yul\":27908:27968   */\n      tag_487\n      jumpi\n        /* \"#utility.yul\":27964:27965   */\n      0x00\n        /* \"#utility.yul\":27961:27962   */\n      dup1\n        /* \"#utility.yul\":27954:27966   */\n      revert\n        /* \"#utility.yul\":27908:27968   */\n    tag_487:\n        /* \"#utility.yul\":27850:27982   */\n      pop\n      jump\t// out\n        /* \"#utility.yul\":27996:28157   */\n    tag_209:\n        /* \"#utility.yul\":28050:28055   */\n      0x00\n        /* \"#utility.yul\":28089:28095   */\n      dup2\n        /* \"#utility.yul\":28083:28096   */\n      mload\n        /* \"#utility.yul\":28074:28096   */\n      swap1\n      pop\n        /* \"#utility.yul\":28113:28143   */\n      tag_489\n        /* \"#utility.yul\":28137:28142   */\n      dup2\n        /* \"#utility.yul\":28113:28143   */\n      tag_208\n      jump\t// in\n    tag_489:\n        /* \"#utility.yul\":27996:28157   */\n      swap3\n      swap2\n      pop\n      pop\n      jump\t// out\n        /* \"#utility.yul\":28171:28564   */\n    tag_109:\n        /* \"#utility.yul\":28238:28244   */\n      0x00\n        /* \"#utility.yul\":28295:28297   */\n      0x20\n        /* \"#utility.yul\":28283:28292   */\n      dup3\n        /* \"#utility.yul\":28274:28281   */\n      dup5\n        /* \"#utility.yul\":28270:28293   */\n      sub\n        /* \"#utility.yul\":28266:28298   */\n      slt\n        /* \"#utility.yul\":28263:28382   */\n      iszero\n      tag_491\n      jumpi\n        /* \"#utility.yul\":28301:28380   */\n      tag_492\n      tag_144\n      jump\t// in\n    tag_492:\n        /* \"#utility.yul\":28263:28382   */\n    tag_491:\n        /* \"#utility.yul\":28437:28438   */\n      0x00\n        /* \"#utility.yul\":28470:28531   */\n      tag_493\n        /* \"#utility.yul\":28523:28530   */\n      dup5\n        /* \"#utility.yul\":28514:28520   */\n      dup3\n        /* \"#utility.yul\":28503:28512   */\n      dup6\n        /* \"#utility.yul\":28499:28521   */\n      add\n        /* \"#utility.yul\":28470:28531   */\n      tag_209\n      jump\t// in\n    tag_493:\n        /* \"#utility.yul\":28460:28531   */\n      swap2\n      pop\n        /* \"#utility.yul\":28400:28549   */\n      pop\n        /* \"#utility.yul\":28171:28564   */\n      swap3\n      swap2\n      pop\n      pop\n      jump\t// out\n        /* \"#utility.yul\":28578:28770   */\n    tag_210:\n        /* \"#utility.yul\":28661:28672   */\n      0x00\n        /* \"#utility.yul\":28703:28709   */\n      dup3\n        /* \"#utility.yul\":28698:28701   */\n      dup3\n        /* \"#utility.yul\":28691:28710   */\n      mstore\n        /* \"#utility.yul\":28751:28755   */\n      0x20\n        /* \"#utility.yul\":28746:28749   */\n      dup3\n        /* \"#utility.yul\":28742:28756   */\n      add\n        /* \"#utility.yul\":28727:28756   */\n      swap1\n      pop\n        /* \"#utility.yul\":28578:28770   */\n      swap3\n      swap2\n      pop\n      pop\n      jump\t// out\n        /* \"#utility.yul\":28814:29147   */\n    tag_211:\n        /* \"#utility.yul\":28910:28913   */\n      0x00\n        /* \"#utility.yul\":28939:29009   */\n      tag_496\n        /* \"#utility.yul\":29002:29008   */\n      dup4\n        /* \"#utility.yul\":28997:29000   */\n      dup6\n        /* \"#utility.yul\":28939:29009   */\n      tag_210\n      jump\t// in\n    tag_496:\n        /* \"#utility.yul\":28932:29009   */\n      swap4\n      pop\n        /* \"#utility.yul\":29027:29070   */\n      tag_497\n        /* \"#utility.yul\":29063:29069   */\n      dup4\n        /* \"#utility.yul\":29058:29061   */\n      dup6\n        /* \"#utility.yul\":29051:29056   */\n      dup5\n        /* \"#utility.yul\":29027:29070   */\n      tag_188\n      jump\t// in\n    tag_497:\n        /* \"#utility.yul\":29103:29132   */\n      tag_498\n        /* \"#utility.yul\":29125:29131   */\n      dup4\n        /* \"#utility.yul\":29103:29132   */\n      tag_164\n      jump\t// in\n    tag_498:\n        /* \"#utility.yul\":29098:29101   */\n      dup5\n        /* \"#utility.yul\":29094:29133   */\n      add\n        /* \"#utility.yul\":29087:29133   */\n      swap1\n      pop\n        /* \"#utility.yul\":28814:29147   */\n      swap4\n      swap3\n      pop\n      pop\n      pop\n      jump\t// out\n        /* \"#utility.yul\":29161:29266   */\n    tag_212:\n        /* \"#utility.yul\":29197:29204   */\n      0x00\n        /* \"#utility.yul\":29245:29251   */\n      0xffff\n        /* \"#utility.yul\":29238:29243   */\n      dup3\n        /* \"#utility.yul\":29234:29252   */\n      and\n        /* \"#utility.yul\":29223:29252   */\n      swap1\n      pop\n        /* \"#utility.yul\":29161:29266   */\n      swap2\n      swap1\n      pop\n      jump\t// out\n        /* \"#utility.yul\":29280:29411   */\n    tag_213:\n        /* \"#utility.yul\":29373:29396   */\n      tag_501\n        /* \"#utility.yul\":29390:29395   */\n      dup2\n        /* \"#utility.yul\":29373:29396   */\n      tag_212\n      jump\t// in\n    tag_501:\n        /* \"#utility.yul\":29368:29371   */\n      dup3\n        /* \"#utility.yul\":29361:29397   */\n      mstore\n        /* \"#utility.yul\":29280:29411   */\n      pop\n      pop\n      jump\t// out\n        /* \"#utility.yul\":29425:30256   */\n    tag_112:\n        /* \"#utility.yul\":29656:29660   */\n      0x00\n        /* \"#utility.yul\":29702:29705   */\n      0xa0\n        /* \"#utility.yul\":29691:29700   */\n      dup3\n        /* \"#utility.yul\":29687:29706   */\n      add\n        /* \"#utility.yul\":29679:29706   */\n      swap1\n      pop\n        /* \"#utility.yul\":29724:29795   */\n      tag_503\n        /* \"#utility.yul\":29792:29793   */\n      0x00\n        /* \"#utility.yul\":29781:29790   */\n      dup4\n        /* \"#utility.yul\":29777:29794   */\n      add\n        /* \"#utility.yul\":29768:29774   */\n      dup10\n        /* \"#utility.yul\":29724:29795   */\n      tag_196\n      jump\t// in\n    tag_503:\n        /* \"#utility.yul\":29813:29885   */\n      tag_504\n        /* \"#utility.yul\":29881:29883   */\n      0x20\n        /* \"#utility.yul\":29870:29879   */\n      dup4\n        /* \"#utility.yul\":29866:29884   */\n      add\n        /* \"#utility.yul\":29857:29863   */\n      dup9\n        /* \"#utility.yul\":29813:29885   */\n      tag_196\n      jump\t// in\n    tag_504:\n        /* \"#utility.yul\":29903:29975   */\n      tag_505\n        /* \"#utility.yul\":29971:29973   */\n      0x40\n        /* \"#utility.yul\":29960:29969   */\n      dup4\n        /* \"#utility.yul\":29956:29974   */\n      add\n        /* \"#utility.yul\":29947:29953   */\n      dup8\n        /* \"#utility.yul\":29903:29975   */\n      tag_178\n      jump\t// in\n    tag_505:\n        /* \"#utility.yul\":30030:30039   */\n      dup2\n        /* \"#utility.yul\":30024:30028   */\n      dup2\n        /* \"#utility.yul\":30020:30040   */\n      sub\n        /* \"#utility.yul\":30015:30017   */\n      0x60\n        /* \"#utility.yul\":30004:30013   */\n      dup4\n        /* \"#utility.yul\":30000:30018   */\n      add\n        /* \"#utility.yul\":29993:30041   */\n      mstore\n        /* \"#utility.yul\":30066:30152   */\n      tag_506\n        /* \"#utility.yul\":30147:30151   */\n      dup2\n        /* \"#utility.yul\":30138:30144   */\n      dup6\n        /* \"#utility.yul\":30130:30136   */\n      dup8\n        /* \"#utility.yul\":30066:30152   */\n      tag_211\n      jump\t// in\n    tag_506:\n        /* \"#utility.yul\":30058:30152   */\n      swap1\n      pop\n        /* \"#utility.yul\":30170:30241   */\n      tag_507\n        /* \"#utility.yul\":30236:30239   */\n      0x80\n        /* \"#utility.yul\":30225:30234   */\n      dup4\n        /* \"#utility.yul\":30221:30240   */\n      add\n        /* \"#utility.yul\":30212:30218   */\n      dup5\n        /* \"#utility.yul\":30170:30241   */\n      tag_213\n      jump\t// in\n    tag_507:\n        /* \"#utility.yul\":29425:30256   */\n      swap8\n      swap7\n      pop\n      pop\n      pop\n      pop\n      pop\n      pop\n      pop\n      jump\t// out\n        /* \"#utility.yul\":30270:30457   */\n    tag_214:\n        /* \"#utility.yul\":30418:30441   */\n      0x596f7520617265206e6f7420746865206f776e65720000000000000000000000\n        /* \"#utility.yul\":30414:30415   */\n      0x00\n        /* \"#utility.yul\":30406:30412   */\n      dup3\n        /* \"#utility.yul\":30402:30416   */\n      add\n        /* \"#utility.yul\":30395:30442   */\n      mstore\n        /* \"#utility.yul\":30270:30457   */\n      pop\n      jump\t// out\n        /* \"#utility.yul\":30471:30869   */\n    tag_215:\n        /* \"#utility.yul\":30613:30616   */\n      0x00\n        /* \"#utility.yul\":30642:30709   */\n      tag_510\n        /* \"#utility.yul\":30706:30708   */\n      0x15\n        /* \"#utility.yul\":30701:30704   */\n      dup4\n        /* \"#utility.yul\":30642:30709   */\n      tag_193\n      jump\t// in\n    tag_510:\n        /* \"#utility.yul\":30635:30709   */\n      swap2\n      pop\n        /* \"#utility.yul\":30726:30819   */\n      tag_511\n        /* \"#utility.yul\":30815:30818   */\n      dup3\n        /* \"#utility.yul\":30726:30819   */\n      tag_214\n      jump\t// in\n    tag_511:\n        /* \"#utility.yul\":30852:30854   */\n      0x20\n        /* \"#utility.yul\":30847:30850   */\n      dup3\n        /* \"#utility.yul\":30843:30855   */\n      add\n        /* \"#utility.yul\":30836:30855   */\n      swap1\n      pop\n        /* \"#utility.yul\":30471:30869   */\n      swap2\n      swap1\n      pop\n      jump\t// out\n        /* \"#utility.yul\":30883:31334   */\n    tag_119:\n        /* \"#utility.yul\":31049:31053   */\n      0x00\n        /* \"#utility.yul\":31095:31097   */\n      0x20\n        /* \"#utility.yul\":31084:31093   */\n      dup3\n        /* \"#utility.yul\":31080:31098   */\n      add\n        /* \"#utility.yul\":31072:31098   */\n      swap1\n      pop\n        /* \"#utility.yul\":31152:31161   */\n      dup2\n        /* \"#utility.yul\":31146:31150   */\n      dup2\n        /* \"#utility.yul\":31142:31162   */\n      sub\n        /* \"#utility.yul\":31138:31139   */\n      0x00\n        /* \"#utility.yul\":31127:31136   */\n      dup4\n        /* \"#utility.yul\":31123:31140   */\n      add\n        /* \"#utility.yul\":31116:31163   */\n      mstore\n        /* \"#utility.yul\":31188:31319   */\n      tag_513\n        /* \"#utility.yul\":31314:31318   */\n      dup2\n        /* \"#utility.yul\":31188:31319   */\n      tag_215\n      jump\t// in\n    tag_513:\n        /* \"#utility.yul\":31180:31319   */\n      swap1\n      pop\n        /* \"#utility.yul\":30883:31334   */\n      swap2\n      swap1\n      pop\n      jump\t// out\n        /* \"#utility.yul\":31348:31594   */\n    tag_122:\n        /* \"#utility.yul\":31441:31445   */\n      0x00\n        /* \"#utility.yul\":31487:31489   */\n      0x20\n        /* \"#utility.yul\":31476:31485   */\n      dup3\n        /* \"#utility.yul\":31472:31490   */\n      add\n        /* \"#utility.yul\":31464:31490   */\n      swap1\n      pop\n        /* \"#utility.yul\":31508:31579   */\n      tag_515\n        /* \"#utility.yul\":31576:31577   */\n      0x00\n        /* \"#utility.yul\":31565:31574   */\n      dup4\n        /* \"#utility.yul\":31561:31578   */\n      add\n        /* \"#utility.yul\":31552:31558   */\n      dup5\n        /* \"#utility.yul\":31508:31579   */\n      tag_196\n      jump\t// in\n    tag_515:\n        /* \"#utility.yul\":31348:31594   */\n      swap3\n      swap2\n      pop\n      pop\n      jump\t// out\n        /* \"#utility.yul\":31608:31775   */\n    tag_216:\n        /* \"#utility.yul\":31665:31670   */\n      0x00\n        /* \"#utility.yul\":31704:31710   */\n      dup2\n        /* \"#utility.yul\":31698:31711   */\n      mload\n        /* \"#utility.yul\":31689:31711   */\n      swap1\n      pop\n        /* \"#utility.yul\":31728:31761   */\n      tag_517\n        /* \"#utility.yul\":31755:31760   */\n      dup2\n        /* \"#utility.yul\":31728:31761   */\n      tag_172\n      jump\t// in\n    tag_517:\n        /* \"#utility.yul\":31608:31775   */\n      swap3\n      swap2\n      pop\n      pop\n      jump\t// out\n        /* \"#utility.yul\":31789:32188   */\n    tag_126:\n        /* \"#utility.yul\":31859:31865   */\n      0x00\n        /* \"#utility.yul\":31916:31918   */\n      0x20\n        /* \"#utility.yul\":31904:31913   */\n      dup3\n        /* \"#utility.yul\":31895:31902   */\n      dup5\n        /* \"#utility.yul\":31891:31914   */\n      sub\n        /* \"#utility.yul\":31887:31919   */\n      slt\n        /* \"#utility.yul\":31884:32003   */\n      iszero\n      tag_519\n      jumpi\n        /* \"#utility.yul\":31922:32001   */\n      tag_520\n      tag_144\n      jump\t// in\n    tag_520:\n        /* \"#utility.yul\":31884:32003   */\n    tag_519:\n        /* \"#utility.yul\":32058:32059   */\n      0x00\n        /* \"#utility.yul\":32091:32155   */\n      tag_521\n        /* \"#utility.yul\":32147:32154   */\n      dup5\n        /* \"#utility.yul\":32138:32144   */\n      dup3\n        /* \"#utility.yul\":32127:32136   */\n      dup6\n        /* \"#utility.yul\":32123:32145   */\n      add\n        /* \"#utility.yul\":32091:32155   */\n      tag_216\n      jump\t// in\n    tag_521:\n        /* \"#utility.yul\":32081:32155   */\n      swap2\n      pop\n        /* \"#utility.yul\":32021:32173   */\n      pop\n        /* \"#utility.yul\":31789:32188   */\n      swap3\n      swap2\n      pop\n      pop\n      jump\t// out\n\n    auxdata: 0xa2646970667358221220e4246d85316132a88828a99653b33587fbb4d8a829008865a45ab6677ee19dad64736f6c634300080a0033\n}\n",
				"bytecode": {
					"linkReferences": {},
					"object": "60c060405260405162001a9a38038062001a9a8339818101604052810190620000299190620001b5565b808073ffffffffffffffffffffffffffffffffffffffff1660808173ffffffffffffffffffffffffffffffffffffffff16815250508073ffffffffffffffffffffffffffffffffffffffff1663026b1d5f6040518163ffffffff1660e01b8152600401602060405180830381865afa158015620000aa573d6000803e3d6000fd5b505050506040513d601f19601f82011682018060405250810190620000d09190620001b5565b73ffffffffffffffffffffffffffffffffffffffff1660a08173ffffffffffffffffffffffffffffffffffffffff168152505050336000806101000a81548173ffffffffffffffffffffffffffffffffffffffff021916908373ffffffffffffffffffffffffffffffffffffffff16021790555050620001e7565b600080fd5b600073ffffffffffffffffffffffffffffffffffffffff82169050919050565b60006200017d8262000150565b9050919050565b6200018f8162000170565b81146200019b57600080fd5b50565b600081519050620001af8162000184565b92915050565b600060208284031215620001ce57620001cd6200014b565b5b6000620001de848285016200019e565b91505092915050565b60805160a05161188662000214600039600081816105ec015261081a0152600061021801526118866000f3fe60806040526004361061007f5760003560e01c806351cff8d91161004e57806351cff8d91461015a5780637535d246146101835780638fe4b6e4146101ae578063f8b2cb4f146101d957610086565b80630542975c1461008b5780630efb2dbb146100b65780631b11d0ff146100f45780635107d61e1461013157610086565b3661008657005b600080fd5b34801561009757600080fd5b506100a0610216565b6040516100ad9190610946565b60405180910390f35b3480156100c257600080fd5b506100dd60048036038101906100d891906109da565b61023a565b6040516100eb929190610c52565b60405180910390f35b34801561010057600080fd5b5061011b60048036038101906101169190610ceb565b610262565b6040516101289190610da0565b60405180910390f35b34801561013d57600080fd5b5061015860048036038101906101539190610dbb565b6105d9565b005b34801561016657600080fd5b50610181600480360381019061017c9190610e2f565b610689565b005b34801561018f57600080fd5b50610198610818565b6040516101a59190610e7d565b60405180910390f35b3480156101ba57600080fd5b506101c361083c565b6040516101d09190610ea7565b60405180910390f35b3480156101e557600080fd5b5061020060048036038101906101fb9190610e2f565b610844565b60405161020d9190610ea7565b60405180910390f35b7f000000000000000000000000000000000000000000000000000000000000000081565b606080600080858581019061024f9190611196565b9150915081819350935050509250929050565b60008060008060008686810190610279919061120e565b935093509350935060008451118015610293575082518451145b6102d2576040517f08c379a00000000000000000000000000000000000000000000000000000000081526004016102c990611342565b60405180910390fd5b6000845181101561058d576000808483815181106102f3576102f2611362565b5b602002602001015173ffffffffffffffffffffffffffffffffffffffff1687848151811061032457610323611362565b5b60200260200101517fffffffffffffffffffffffffffffffffffffffffffffffffffffffffffffffff60405160240161035e9291906113a0565b6040516020818303038152906040527f095ea7b3000000000000000000000000000000000000000000000000000000007bffffffffffffffffffffffffffffffffffffffffffffffffffffffff19166020820180517bffffffffffffffffffffffffffffffffffffffffffffffffffffffff83818316178352505050506040516103e89190611405565b6000604051808303816000865af19150503d8060008114610425576040519150601f19603f3d011682016040523d82523d6000602084013e61042a565b606091505b50915091508161046f576040517f08c379a000000000000000000000000000000000000000000000000000000000815260040161046690611468565b60405180910390fd5b60008088858151811061048557610484611362565b5b602002602001015173ffffffffffffffffffffffffffffffffffffffff168886815181106104b6576104b5611362565b5b60200260200101516040516104cb9190611405565b6000604051808303816000865af19150503d8060008114610508576040519150601f19603f3d011682016040523d82523d6000602084013e61050d565b606091505b509150915081610552576040517f08c379a0000000000000000000000000000000000000000000000000000000008152600401610549906114d4565b60405180910390fd5b6040517f08c379a000000000000000000000000000000000000000000000000000000000815260040161058490611566565b60405180910390fd5b506000898b61059c91906115b5565b90506040517f08c379a00000000000000000000000000000000000000000000000000000000081526004016105d090611657565b60405180910390fd5b60003090506000859050600085905060007f000000000000000000000000000000000000000000000000000000000000000073ffffffffffffffffffffffffffffffffffffffff166342b0b77c8585858a8a876040518763ffffffff1660e01b815260040161064d9695949392919061172b565b600060405180830381600087803b15801561066757600080fd5b505af115801561067b573d6000803e3d6000fd5b505050505050505050505050565b60008054906101000a900473ffffffffffffffffffffffffffffffffffffffff1673ffffffffffffffffffffffffffffffffffffffff163373ffffffffffffffffffffffffffffffffffffffff1614610717576040517f08c379a000000000000000000000000000000000000000000000000000000000815260040161070e906117d3565b60405180910390fd5b60008190508073ffffffffffffffffffffffffffffffffffffffff1663a9059cbb338373ffffffffffffffffffffffffffffffffffffffff166370a08231306040518263ffffffff1660e01b815260040161077291906117f3565b602060405180830381865afa15801561078f573d6000803e3d6000fd5b505050506040513d601f19601f820116820180604052508101906107b39190611823565b6040518363ffffffff1660e01b81526004016107d09291906113a0565b6020604051808303816000875af11580156107ef573d6000803e3d6000fd5b505050506040513d601f19601f8201168201806040525081019061081391906116a3565b505050565b7f000000000000000000000000000000000000000000000000000000000000000081565b60005a905090565b60008173ffffffffffffffffffffffffffffffffffffffff166370a08231306040518263ffffffff1660e01b815260040161087f91906117f3565b602060405180830381865afa15801561089c573d6000803e3d6000fd5b505050506040513d601f19601f820116820180604052508101906108c09190611823565b9050919050565b600073ffffffffffffffffffffffffffffffffffffffff82169050919050565b6000819050919050565b600061090c610907610902846108c7565b6108e7565b6108c7565b9050919050565b600061091e826108f1565b9050919050565b600061093082610913565b9050919050565b61094081610925565b82525050565b600060208201905061095b6000830184610937565b92915050565b6000604051905090565b600080fd5b600080fd5b600080fd5b600080fd5b600080fd5b60008083601f84011261099a57610999610975565b5b8235905067ffffffffffffffff8111156109b7576109b661097a565b5b6020830191508360018202830111156109d3576109d261097f565b5b9250929050565b600080602083850312156109f1576109f061096b565b5b600083013567ffffffffffffffff811115610a0f57610a0e610970565b5b610a1b85828601610984565b92509250509250929050565b600081519050919050565b600082825260208201905092915050565b6000819050602082019050919050565b6000610a5e826108c7565b9050919050565b610a6e81610a53565b82525050565b6000610a808383610a65565b60208301905092915050565b6000602082019050919050565b6000610aa482610a27565b610aae8185610a32565b9350610ab983610a43565b8060005b83811015610aea578151610ad18882610a74565b9750610adc83610a8c565b925050600181019050610abd565b5085935050505092915050565b600081519050919050565b600082825260208201905092915050565b6000819050602082019050919050565b600081519050919050565b600082825260208201905092915050565b60005b83811015610b5d578082015181840152602081019050610b42565b83811115610b6c576000848401525b50505050565b6000601f19601f8301169050919050565b6000610b8e82610b23565b610b988185610b2e565b9350610ba8818560208601610b3f565b610bb181610b72565b840191505092915050565b6000610bc88383610b83565b905092915050565b6000602082019050919050565b6000610be882610af7565b610bf28185610b02565b935083602082028501610c0485610b13565b8060005b85811015610c405784840389528151610c218582610bbc565b9450610c2c83610bd0565b925060208a01995050600181019050610c08565b50829750879550505050505092915050565b60006040820190508181036000830152610c6c8185610a99565b90508181036020830152610c808184610bdd565b90509392505050565b610c9281610a53565b8114610c9d57600080fd5b50565b600081359050610caf81610c89565b92915050565b6000819050919050565b610cc881610cb5565b8114610cd357600080fd5b50565b600081359050610ce581610cbf565b92915050565b60008060008060008060a08789031215610d0857610d0761096b565b5b6000610d1689828a01610ca0565b9650506020610d2789828a01610cd6565b9550506040610d3889828a01610cd6565b9450506060610d4989828a01610ca0565b935050608087013567ffffffffffffffff811115610d6a57610d69610970565b5b610d7689828a01610984565b92509250509295509295509295565b60008115159050919050565b610d9a81610d85565b82525050565b6000602082019050610db56000830184610d91565b92915050565b60008060008060608587031215610dd557610dd461096b565b5b6000610de387828801610ca0565b9450506020610df487828801610cd6565b935050604085013567ffffffffffffffff811115610e1557610e14610970565b5b610e2187828801610984565b925092505092959194509250565b600060208284031215610e4557610e4461096b565b5b6000610e5384828501610ca0565b91505092915050565b6000610e6782610913565b9050919050565b610e7781610e5c565b82525050565b6000602082019050610e926000830184610e6e565b92915050565b610ea181610cb5565b82525050565b6000602082019050610ebc6000830184610e98565b92915050565b7f4e487b7100000000000000000000000000000000000000000000000000000000600052604160045260246000fd5b610efa82610b72565b810181811067ffffffffffffffff82111715610f1957610f18610ec2565b5b80604052505050565b6000610f2c610961565b9050610f388282610ef1565b919050565b600067ffffffffffffffff821115610f5857610f57610ec2565b5b602082029050602081019050919050565b6000610f7c610f7784610f3d565b610f22565b90508083825260208201905060208402830185811115610f9f57610f9e61097f565b5b835b81811015610fc85780610fb48882610ca0565b845260208401935050602081019050610fa1565b5050509392505050565b600082601f830112610fe757610fe6610975565b5b8135610ff7848260208601610f69565b91505092915050565b600067ffffffffffffffff82111561101b5761101a610ec2565b5b602082029050602081019050919050565b600080fd5b600067ffffffffffffffff82111561104c5761104b610ec2565b5b61105582610b72565b9050602081019050919050565b82818337600083830152505050565b600061108461107f84611031565b610f22565b9050828152602081018484840111156110a05761109f61102c565b5b6110ab848285611062565b509392505050565b600082601f8301126110c8576110c7610975565b5b81356110d8848260208601611071565b91505092915050565b60006110f46110ef84611000565b610f22565b905080838252602082019050602084028301858111156111175761111661097f565b5b835b8181101561115e57803567ffffffffffffffff81111561113c5761113b610975565b5b80860161114989826110b3565b85526020850194505050602081019050611119565b5050509392505050565b600082601f83011261117d5761117c610975565b5b813561118d8482602086016110e1565b91505092915050565b600080604083850312156111ad576111ac61096b565b5b600083013567ffffffffffffffff8111156111cb576111ca610970565b5b6111d785828601610fd2565b925050602083013567ffffffffffffffff8111156111f8576111f7610970565b5b61120485828601611168565b9150509250929050565b600080600080608085870312156112285761122761096b565b5b600085013567ffffffffffffffff81111561124657611245610970565b5b61125287828801610fd2565b945050602085013567ffffffffffffffff81111561127357611272610970565b5b61127f87828801611168565b935050604085013567ffffffffffffffff8111156112a05761129f610970565b5b6112ac87828801610fd2565b925050606085013567ffffffffffffffff8111156112cd576112cc610970565b5b6112d987828801611168565b91505092959194509250565b600082825260208201905092915050565b7f496e76616c696420696e70757400000000000000000000000000000000000000600082015250565b600061132c600d836112e5565b9150611337826112f6565b602082019050919050565b6000602082019050818103600083015261135b8161131f565b9050919050565b7f4e487b7100000000000000000000000000000000000000000000000000000000600052603260045260246000fd5b61139a81610a53565b82525050565b60006040820190506113b56000830185611391565b6113c26020830184610e98565b9392505050565b600081905092915050565b60006113df82610b23565b6113e981856113c9565b93506113f9818560208601610b3f565b80840191505092915050565b600061141182846113d4565b915081905092915050565b7f43616e206e6f7420617070726f76650000000000000000000000000000000000600082015250565b6000611452600f836112e5565b915061145d8261141c565b602082019050919050565b6000602082019050818103600083015261148181611445565b9050919050565b7f63616e206e6f74207472616465282820626c7961740000000000000000000000600082015250565b60006114be6015836112e5565b91506114c982611488565b602082019050919050565b600060208201905081810360008301526114ed816114b1565b9050919050565b7f57652066696e6973686564206174206c6561747374206f6e652074726164652160008201527f2121210000000000000000000000000000000000000000000000000000000000602082015250565b60006115506023836112e5565b915061155b826114f4565b604082019050919050565b6000602082019050818103600083015261157f81611543565b9050919050565b7f4e487b7100000000000000000000000000000000000000000000000000000000600052601160045260246000fd5b60006115c082610cb5565b91506115cb83610cb5565b9250827fffffffffffffffffffffffffffffffffffffffffffffffffffffffffffffffff03821115611600576115ff611586565b5b828201905092915050565b7f57652066696e6973686564207472616465732121212100000000000000000000600082015250565b60006116416016836112e5565b915061164c8261160b565b602082019050919050565b6000602082019050818103600083015261167081611634565b9050919050565b61168081610d85565b811461168b57600080fd5b50565b60008151905061169d81611677565b92915050565b6000602082840312156116b9576116b861096b565b5b60006116c78482850161168e565b91505092915050565b600082825260208201905092915050565b60006116ed83856116d0565b93506116fa838584611062565b61170383610b72565b840190509392505050565b600061ffff82169050919050565b6117258161170e565b82525050565b600060a0820190506117406000830189611391565b61174d6020830188611391565b61175a6040830187610e98565b818103606083015261176d8185876116e1565b905061177c608083018461171c565b979650505050505050565b7f596f7520617265206e6f7420746865206f776e65720000000000000000000000600082015250565b60006117bd6015836112e5565b91506117c882611787565b602082019050919050565b600060208201905081810360008301526117ec816117b0565b9050919050565b60006020820190506118086000830184611391565b92915050565b60008151905061181d81610cbf565b92915050565b6000602082840312156118395761183861096b565b5b60006118478482850161180e565b9150509291505056fea2646970667358221220e4246d85316132a88828a99653b33587fbb4d8a829008865a45ab6677ee19dad64736f6c634300080a0033",
					"opcodes": "PUSH1 0xC0 PUSH1 0x40 MSTORE PUSH1 0x40 MLOAD PUSH3 0x1A9A CODESIZE SUB DUP1 PUSH3 0x1A9A DUP4 CODECOPY DUP2 DUP2 ADD PUSH1 0x40 MSTORE DUP2 ADD SWAP1 PUSH3 0x29 SWAP2 SWAP1 PUSH3 0x1B5 JUMP JUMPDEST DUP1 DUP1 PUSH20 0xFFFFFFFFFFFFFFFFFFFFFFFFFFFFFFFFFFFFFFFF AND PUSH1 0x80 DUP2 PUSH20 0xFFFFFFFFFFFFFFFFFFFFFFFFFFFFFFFFFFFFFFFF AND DUP2 MSTORE POP POP DUP1 PUSH20 0xFFFFFFFFFFFFFFFFFFFFFFFFFFFFFFFFFFFFFFFF AND PUSH4 0x26B1D5F PUSH1 0x40 MLOAD DUP2 PUSH4 0xFFFFFFFF AND PUSH1 0xE0 SHL DUP2 MSTORE PUSH1 0x4 ADD PUSH1 0x20 PUSH1 0x40 MLOAD DUP1 DUP4 SUB DUP2 DUP7 GAS STATICCALL ISZERO DUP1 ISZERO PUSH3 0xAA JUMPI RETURNDATASIZE PUSH1 0x0 DUP1 RETURNDATACOPY RETURNDATASIZE PUSH1 0x0 REVERT JUMPDEST POP POP POP POP PUSH1 0x40 MLOAD RETURNDATASIZE PUSH1 0x1F NOT PUSH1 0x1F DUP3 ADD AND DUP3 ADD DUP1 PUSH1 0x40 MSTORE POP DUP2 ADD SWAP1 PUSH3 0xD0 SWAP2 SWAP1 PUSH3 0x1B5 JUMP JUMPDEST PUSH20 0xFFFFFFFFFFFFFFFFFFFFFFFFFFFFFFFFFFFFFFFF AND PUSH1 0xA0 DUP2 PUSH20 0xFFFFFFFFFFFFFFFFFFFFFFFFFFFFFFFFFFFFFFFF AND DUP2 MSTORE POP POP POP CALLER PUSH1 0x0 DUP1 PUSH2 0x100 EXP DUP2 SLOAD DUP2 PUSH20 0xFFFFFFFFFFFFFFFFFFFFFFFFFFFFFFFFFFFFFFFF MUL NOT AND SWAP1 DUP4 PUSH20 0xFFFFFFFFFFFFFFFFFFFFFFFFFFFFFFFFFFFFFFFF AND MUL OR SWAP1 SSTORE POP POP PUSH3 0x1E7 JUMP JUMPDEST PUSH1 0x0 DUP1 REVERT JUMPDEST PUSH1 0x0 PUSH20 0xFFFFFFFFFFFFFFFFFFFFFFFFFFFFFFFFFFFFFFFF DUP3 AND SWAP1 POP SWAP2 SWAP1 POP JUMP JUMPDEST PUSH1 0x0 PUSH3 0x17D DUP3 PUSH3 0x150 JUMP JUMPDEST SWAP1 POP SWAP2 SWAP1 POP JUMP JUMPDEST PUSH3 0x18F DUP2 PUSH3 0x170 JUMP JUMPDEST DUP2 EQ PUSH3 0x19B JUMPI PUSH1 0x0 DUP1 REVERT JUMPDEST POP JUMP JUMPDEST PUSH1 0x0 DUP2 MLOAD SWAP1 POP PUSH3 0x1AF DUP2 PUSH3 0x184 JUMP JUMPDEST SWAP3 SWAP2 POP POP JUMP JUMPDEST PUSH1 0x0 PUSH1 0x20 DUP3 DUP5 SUB SLT ISZERO PUSH3 0x1CE JUMPI PUSH3 0x1CD PUSH3 0x14B JUMP JUMPDEST JUMPDEST PUSH1 0x0 PUSH3 0x1DE DUP5 DUP3 DUP6 ADD PUSH3 0x19E JUMP JUMPDEST SWAP2 POP POP SWAP3 SWAP2 POP POP JUMP JUMPDEST PUSH1 0x80 MLOAD PUSH1 0xA0 MLOAD PUSH2 0x1886 PUSH3 0x214 PUSH1 0x0 CODECOPY PUSH1 0x0 DUP2 DUP2 PUSH2 0x5EC ADD MSTORE PUSH2 0x81A ADD MSTORE PUSH1 0x0 PUSH2 0x218 ADD MSTORE PUSH2 0x1886 PUSH1 0x0 RETURN INVALID PUSH1 0x80 PUSH1 0x40 MSTORE PUSH1 0x4 CALLDATASIZE LT PUSH2 0x7F JUMPI PUSH1 0x0 CALLDATALOAD PUSH1 0xE0 SHR DUP1 PUSH4 0x51CFF8D9 GT PUSH2 0x4E JUMPI DUP1 PUSH4 0x51CFF8D9 EQ PUSH2 0x15A JUMPI DUP1 PUSH4 0x7535D246 EQ PUSH2 0x183 JUMPI DUP1 PUSH4 0x8FE4B6E4 EQ PUSH2 0x1AE JUMPI DUP1 PUSH4 0xF8B2CB4F EQ PUSH2 0x1D9 JUMPI PUSH2 0x86 JUMP JUMPDEST DUP1 PUSH4 0x542975C EQ PUSH2 0x8B JUMPI DUP1 PUSH4 0xEFB2DBB EQ PUSH2 0xB6 JUMPI DUP1 PUSH4 0x1B11D0FF EQ PUSH2 0xF4 JUMPI DUP1 PUSH4 0x5107D61E EQ PUSH2 0x131 JUMPI PUSH2 0x86 JUMP JUMPDEST CALLDATASIZE PUSH2 0x86 JUMPI STOP JUMPDEST PUSH1 0x0 DUP1 REVERT JUMPDEST CALLVALUE DUP1 ISZERO PUSH2 0x97 JUMPI PUSH1 0x0 DUP1 REVERT JUMPDEST POP PUSH2 0xA0 PUSH2 0x216 JUMP JUMPDEST PUSH1 0x40 MLOAD PUSH2 0xAD SWAP2 SWAP1 PUSH2 0x946 JUMP JUMPDEST PUSH1 0x40 MLOAD DUP1 SWAP2 SUB SWAP1 RETURN JUMPDEST CALLVALUE DUP1 ISZERO PUSH2 0xC2 JUMPI PUSH1 0x0 DUP1 REVERT JUMPDEST POP PUSH2 0xDD PUSH1 0x4 DUP1 CALLDATASIZE SUB DUP2 ADD SWAP1 PUSH2 0xD8 SWAP2 SWAP1 PUSH2 0x9DA JUMP JUMPDEST PUSH2 0x23A JUMP JUMPDEST PUSH1 0x40 MLOAD PUSH2 0xEB SWAP3 SWAP2 SWAP1 PUSH2 0xC52 JUMP JUMPDEST PUSH1 0x40 MLOAD DUP1 SWAP2 SUB SWAP1 RETURN JUMPDEST CALLVALUE DUP1 ISZERO PUSH2 0x100 JUMPI PUSH1 0x0 DUP1 REVERT JUMPDEST POP PUSH2 0x11B PUSH1 0x4 DUP1 CALLDATASIZE SUB DUP2 ADD SWAP1 PUSH2 0x116 SWAP2 SWAP1 PUSH2 0xCEB JUMP JUMPDEST PUSH2 0x262 JUMP JUMPDEST PUSH1 0x40 MLOAD PUSH2 0x128 SWAP2 SWAP1 PUSH2 0xDA0 JUMP JUMPDEST PUSH1 0x40 MLOAD DUP1 SWAP2 SUB SWAP1 RETURN JUMPDEST CALLVALUE DUP1 ISZERO PUSH2 0x13D JUMPI PUSH1 0x0 DUP1 REVERT JUMPDEST POP PUSH2 0x158 PUSH1 0x4 DUP1 CALLDATASIZE SUB DUP2 ADD SWAP1 PUSH2 0x153 SWAP2 SWAP1 PUSH2 0xDBB JUMP JUMPDEST PUSH2 0x5D9 JUMP JUMPDEST STOP JUMPDEST CALLVALUE DUP1 ISZERO PUSH2 0x166 JUMPI PUSH1 0x0 DUP1 REVERT JUMPDEST POP PUSH2 0x181 PUSH1 0x4 DUP1 CALLDATASIZE SUB DUP2 ADD SWAP1 PUSH2 0x17C SWAP2 SWAP1 PUSH2 0xE2F JUMP JUMPDEST PUSH2 0x689 JUMP JUMPDEST STOP JUMPDEST CALLVALUE DUP1 ISZERO PUSH2 0x18F JUMPI PUSH1 0x0 DUP1 REVERT JUMPDEST POP PUSH2 0x198 PUSH2 0x818 JUMP JUMPDEST PUSH1 0x40 MLOAD PUSH2 0x1A5 SWAP2 SWAP1 PUSH2 0xE7D JUMP JUMPDEST PUSH1 0x40 MLOAD DUP1 SWAP2 SUB SWAP1 RETURN JUMPDEST CALLVALUE DUP1 ISZERO PUSH2 0x1BA JUMPI PUSH1 0x0 DUP1 REVERT JUMPDEST POP PUSH2 0x1C3 PUSH2 0x83C JUMP JUMPDEST PUSH1 0x40 MLOAD PUSH2 0x1D0 SWAP2 SWAP1 PUSH2 0xEA7 JUMP JUMPDEST PUSH1 0x40 MLOAD DUP1 SWAP2 SUB SWAP1 RETURN JUMPDEST CALLVALUE DUP1 ISZERO PUSH2 0x1E5 JUMPI PUSH1 0x0 DUP1 REVERT JUMPDEST POP PUSH2 0x200 PUSH1 0x4 DUP1 CALLDATASIZE SUB DUP2 ADD SWAP1 PUSH2 0x1FB SWAP2 SWAP1 PUSH2 0xE2F JUMP JUMPDEST PUSH2 0x844 JUMP JUMPDEST PUSH1 0x40 MLOAD PUSH2 0x20D SWAP2 SWAP1 PUSH2 0xEA7 JUMP JUMPDEST PUSH1 0x40 MLOAD DUP1 SWAP2 SUB SWAP1 RETURN JUMPDEST PUSH32 0x0 DUP2 JUMP JUMPDEST PUSH1 0x60 DUP1 PUSH1 0x0 DUP1 DUP6 DUP6 DUP2 ADD SWAP1 PUSH2 0x24F SWAP2 SWAP1 PUSH2 0x1196 JUMP JUMPDEST SWAP2 POP SWAP2 POP DUP2 DUP2 SWAP4 POP SWAP4 POP POP POP SWAP3 POP SWAP3 SWAP1 POP JUMP JUMPDEST PUSH1 0x0 DUP1 PUSH1 0x0 DUP1 PUSH1 0x0 DUP7 DUP7 DUP2 ADD SWAP1 PUSH2 0x279 SWAP2 SWAP1 PUSH2 0x120E JUMP JUMPDEST SWAP4 POP SWAP4 POP SWAP4 POP SWAP4 POP PUSH1 0x0 DUP5 MLOAD GT DUP1 ISZERO PUSH2 0x293 JUMPI POP DUP3 MLOAD DUP5 MLOAD EQ JUMPDEST PUSH2 0x2D2 JUMPI PUSH1 0x40 MLOAD PUSH32 0x8C379A000000000000000000000000000000000000000000000000000000000 DUP2 MSTORE PUSH1 0x4 ADD PUSH2 0x2C9 SWAP1 PUSH2 0x1342 JUMP JUMPDEST PUSH1 0x40 MLOAD DUP1 SWAP2 SUB SWAP1 REVERT JUMPDEST PUSH1 0x0 DUP5 MLOAD DUP2 LT ISZERO PUSH2 0x58D JUMPI PUSH1 0x0 DUP1 DUP5 DUP4 DUP2 MLOAD DUP2 LT PUSH2 0x2F3 JUMPI PUSH2 0x2F2 PUSH2 0x1362 JUMP JUMPDEST JUMPDEST PUSH1 0x20 MUL PUSH1 0x20 ADD ADD MLOAD PUSH20 0xFFFFFFFFFFFFFFFFFFFFFFFFFFFFFFFFFFFFFFFF AND DUP8 DUP5 DUP2 MLOAD DUP2 LT PUSH2 0x324 JUMPI PUSH2 0x323 PUSH2 0x1362 JUMP JUMPDEST JUMPDEST PUSH1 0x20 MUL PUSH1 0x20 ADD ADD MLOAD PUSH32 0xFFFFFFFFFFFFFFFFFFFFFFFFFFFFFFFFFFFFFFFFFFFFFFFFFFFFFFFFFFFFFFFF PUSH1 0x40 MLOAD PUSH1 0x24 ADD PUSH2 0x35E SWAP3 SWAP2 SWAP1 PUSH2 0x13A0 JUMP JUMPDEST PUSH1 0x40 MLOAD PUSH1 0x20 DUP2 DUP4 SUB SUB DUP2 MSTORE SWAP1 PUSH1 0x40 MSTORE PUSH32 0x95EA7B300000000000000000000000000000000000000000000000000000000 PUSH28 0xFFFFFFFFFFFFFFFFFFFFFFFFFFFFFFFFFFFFFFFFFFFFFFFFFFFFFFFF NOT AND PUSH1 0x20 DUP3 ADD DUP1 MLOAD PUSH28 0xFFFFFFFFFFFFFFFFFFFFFFFFFFFFFFFFFFFFFFFFFFFFFFFFFFFFFFFF DUP4 DUP2 DUP4 AND OR DUP4 MSTORE POP POP POP POP PUSH1 0x40 MLOAD PUSH2 0x3E8 SWAP2 SWAP1 PUSH2 0x1405 JUMP JUMPDEST PUSH1 0x0 PUSH1 0x40 MLOAD DUP1 DUP4 SUB DUP2 PUSH1 0x0 DUP7 GAS CALL SWAP2 POP POP RETURNDATASIZE DUP1 PUSH1 0x0 DUP2 EQ PUSH2 0x425 JUMPI PUSH1 0x40 MLOAD SWAP2 POP PUSH1 0x1F NOT PUSH1 0x3F RETURNDATASIZE ADD AND DUP3 ADD PUSH1 0x40 MSTORE RETURNDATASIZE DUP3 MSTORE RETURNDATASIZE PUSH1 0x0 PUSH1 0x20 DUP5 ADD RETURNDATACOPY PUSH2 0x42A JUMP JUMPDEST PUSH1 0x60 SWAP2 POP JUMPDEST POP SWAP2 POP SWAP2 POP DUP2 PUSH2 0x46F JUMPI PUSH1 0x40 MLOAD PUSH32 0x8C379A000000000000000000000000000000000000000000000000000000000 DUP2 MSTORE PUSH1 0x4 ADD PUSH2 0x466 SWAP1 PUSH2 0x1468 JUMP JUMPDEST PUSH1 0x40 MLOAD DUP1 SWAP2 SUB SWAP1 REVERT JUMPDEST PUSH1 0x0 DUP1 DUP9 DUP6 DUP2 MLOAD DUP2 LT PUSH2 0x485 JUMPI PUSH2 0x484 PUSH2 0x1362 JUMP JUMPDEST JUMPDEST PUSH1 0x20 MUL PUSH1 0x20 ADD ADD MLOAD PUSH20 0xFFFFFFFFFFFFFFFFFFFFFFFFFFFFFFFFFFFFFFFF AND DUP9 DUP7 DUP2 MLOAD DUP2 LT PUSH2 0x4B6 JUMPI PUSH2 0x4B5 PUSH2 0x1362 JUMP JUMPDEST JUMPDEST PUSH1 0x20 MUL PUSH1 0x20 ADD ADD MLOAD PUSH1 0x40 MLOAD PUSH2 0x4CB SWAP2 SWAP1 PUSH2 0x1405 JUMP JUMPDEST PUSH1 0x0 PUSH1 0x40 MLOAD DUP1 DUP4 SUB DUP2 PUSH1 0x0 DUP7 GAS CALL SWAP2 POP POP RETURNDATASIZE DUP1 PUSH1 0x0 DUP2 EQ PUSH2 0x508 JUMPI PUSH1 0x40 MLOAD SWAP2 POP PUSH1 0x1F NOT PUSH1 0x3F RETURNDATASIZE ADD AND DUP3 ADD PUSH1 0x40 MSTORE RETURNDATASIZE DUP3 MSTORE RETURNDATASIZE PUSH1 0x0 PUSH1 0x20 DUP5 ADD RETURNDATACOPY PUSH2 0x50D JUMP JUMPDEST PUSH1 0x60 SWAP2 POP JUMPDEST POP SWAP2 POP SWAP2 POP DUP2 PUSH2 0x552 JUMPI PUSH1 0x40 MLOAD PUSH32 0x8C379A000000000000000000000000000000000000000000000000000000000 DUP2 MSTORE PUSH1 0x4 ADD PUSH2 0x549 SWAP1 PUSH2 0x14D4 JUMP JUMPDEST PUSH1 0x40 MLOAD DUP1 SWAP2 SUB SWAP1 REVERT JUMPDEST PUSH1 0x40 MLOAD PUSH32 0x8C379A000000000000000000000000000000000000000000000000000000000 DUP2 MSTORE PUSH1 0x4 ADD PUSH2 0x584 SWAP1 PUSH2 0x1566 JUMP JUMPDEST PUSH1 0x40 MLOAD DUP1 SWAP2 SUB SWAP1 REVERT JUMPDEST POP PUSH1 0x0 DUP10 DUP12 PUSH2 0x59C SWAP2 SWAP1 PUSH2 0x15B5 JUMP JUMPDEST SWAP1 POP PUSH1 0x40 MLOAD PUSH32 0x8C379A000000000000000000000000000000000000000000000000000000000 DUP2 MSTORE PUSH1 0x4 ADD PUSH2 0x5D0 SWAP1 PUSH2 0x1657 JUMP JUMPDEST PUSH1 0x40 MLOAD DUP1 SWAP2 SUB SWAP1 REVERT JUMPDEST PUSH1 0x0 ADDRESS SWAP1 POP PUSH1 0x0 DUP6 SWAP1 POP PUSH1 0x0 DUP6 SWAP1 POP PUSH1 0x0 PUSH32 0x0 PUSH20 0xFFFFFFFFFFFFFFFFFFFFFFFFFFFFFFFFFFFFFFFF AND PUSH4 0x42B0B77C DUP6 DUP6 DUP6 DUP11 DUP11 DUP8 PUSH1 0x40 MLOAD DUP8 PUSH4 0xFFFFFFFF AND PUSH1 0xE0 SHL DUP2 MSTORE PUSH1 0x4 ADD PUSH2 0x64D SWAP7 SWAP6 SWAP5 SWAP4 SWAP3 SWAP2 SWAP1 PUSH2 0x172B JUMP JUMPDEST PUSH1 0x0 PUSH1 0x40 MLOAD DUP1 DUP4 SUB DUP2 PUSH1 0x0 DUP8 DUP1 EXTCODESIZE ISZERO DUP1 ISZERO PUSH2 0x667 JUMPI PUSH1 0x0 DUP1 REVERT JUMPDEST POP GAS CALL ISZERO DUP1 ISZERO PUSH2 0x67B JUMPI RETURNDATASIZE PUSH1 0x0 DUP1 RETURNDATACOPY RETURNDATASIZE PUSH1 0x0 REVERT JUMPDEST POP POP POP POP POP POP POP POP POP POP POP POP JUMP JUMPDEST PUSH1 0x0 DUP1 SLOAD SWAP1 PUSH2 0x100 EXP SWAP1 DIV PUSH20 0xFFFFFFFFFFFFFFFFFFFFFFFFFFFFFFFFFFFFFFFF AND PUSH20 0xFFFFFFFFFFFFFFFFFFFFFFFFFFFFFFFFFFFFFFFF AND CALLER PUSH20 0xFFFFFFFFFFFFFFFFFFFFFFFFFFFFFFFFFFFFFFFF AND EQ PUSH2 0x717 JUMPI PUSH1 0x40 MLOAD PUSH32 0x8C379A000000000000000000000000000000000000000000000000000000000 DUP2 MSTORE PUSH1 0x4 ADD PUSH2 0x70E SWAP1 PUSH2 0x17D3 JUMP JUMPDEST PUSH1 0x40 MLOAD DUP1 SWAP2 SUB SWAP1 REVERT JUMPDEST PUSH1 0x0 DUP2 SWAP1 POP DUP1 PUSH20 0xFFFFFFFFFFFFFFFFFFFFFFFFFFFFFFFFFFFFFFFF AND PUSH4 0xA9059CBB CALLER DUP4 PUSH20 0xFFFFFFFFFFFFFFFFFFFFFFFFFFFFFFFFFFFFFFFF AND PUSH4 0x70A08231 ADDRESS PUSH1 0x40 MLOAD DUP3 PUSH4 0xFFFFFFFF AND PUSH1 0xE0 SHL DUP2 MSTORE PUSH1 0x4 ADD PUSH2 0x772 SWAP2 SWAP1 PUSH2 0x17F3 JUMP JUMPDEST PUSH1 0x20 PUSH1 0x40 MLOAD DUP1 DUP4 SUB DUP2 DUP7 GAS STATICCALL ISZERO DUP1 ISZERO PUSH2 0x78F JUMPI RETURNDATASIZE PUSH1 0x0 DUP1 RETURNDATACOPY RETURNDATASIZE PUSH1 0x0 REVERT JUMPDEST POP POP POP POP PUSH1 0x40 MLOAD RETURNDATASIZE PUSH1 0x1F NOT PUSH1 0x1F DUP3 ADD AND DUP3 ADD DUP1 PUSH1 0x40 MSTORE POP DUP2 ADD SWAP1 PUSH2 0x7B3 SWAP2 SWAP1 PUSH2 0x1823 JUMP JUMPDEST PUSH1 0x40 MLOAD DUP4 PUSH4 0xFFFFFFFF AND PUSH1 0xE0 SHL DUP2 MSTORE PUSH1 0x4 ADD PUSH2 0x7D0 SWAP3 SWAP2 SWAP1 PUSH2 0x13A0 JUMP JUMPDEST PUSH1 0x20 PUSH1 0x40 MLOAD DUP1 DUP4 SUB DUP2 PUSH1 0x0 DUP8 GAS CALL ISZERO DUP1 ISZERO PUSH2 0x7EF JUMPI RETURNDATASIZE PUSH1 0x0 DUP1 RETURNDATACOPY RETURNDATASIZE PUSH1 0x0 REVERT JUMPDEST POP POP POP POP PUSH1 0x40 MLOAD RETURNDATASIZE PUSH1 0x1F NOT PUSH1 0x1F DUP3 ADD AND DUP3 ADD DUP1 PUSH1 0x40 MSTORE POP DUP2 ADD SWAP1 PUSH2 0x813 SWAP2 SWAP1 PUSH2 0x16A3 JUMP JUMPDEST POP POP POP JUMP JUMPDEST PUSH32 0x0 DUP2 JUMP JUMPDEST PUSH1 0x0 GAS SWAP1 POP SWAP1 JUMP JUMPDEST PUSH1 0x0 DUP2 PUSH20 0xFFFFFFFFFFFFFFFFFFFFFFFFFFFFFFFFFFFFFFFF AND PUSH4 0x70A08231 ADDRESS PUSH1 0x40 MLOAD DUP3 PUSH4 0xFFFFFFFF AND PUSH1 0xE0 SHL DUP2 MSTORE PUSH1 0x4 ADD PUSH2 0x87F SWAP2 SWAP1 PUSH2 0x17F3 JUMP JUMPDEST PUSH1 0x20 PUSH1 0x40 MLOAD DUP1 DUP4 SUB DUP2 DUP7 GAS STATICCALL ISZERO DUP1 ISZERO PUSH2 0x89C JUMPI RETURNDATASIZE PUSH1 0x0 DUP1 RETURNDATACOPY RETURNDATASIZE PUSH1 0x0 REVERT JUMPDEST POP POP POP POP PUSH1 0x40 MLOAD RETURNDATASIZE PUSH1 0x1F NOT PUSH1 0x1F DUP3 ADD AND DUP3 ADD DUP1 PUSH1 0x40 MSTORE POP DUP2 ADD SWAP1 PUSH2 0x8C0 SWAP2 SWAP1 PUSH2 0x1823 JUMP JUMPDEST SWAP1 POP SWAP2 SWAP1 POP JUMP JUMPDEST PUSH1 0x0 PUSH20 0xFFFFFFFFFFFFFFFFFFFFFFFFFFFFFFFFFFFFFFFF DUP3 AND SWAP1 POP SWAP2 SWAP1 POP JUMP JUMPDEST PUSH1 0x0 DUP2 SWAP1 POP SWAP2 SWAP1 POP JUMP JUMPDEST PUSH1 0x0 PUSH2 0x90C PUSH2 0x907 PUSH2 0x902 DUP5 PUSH2 0x8C7 JUMP JUMPDEST PUSH2 0x8E7 JUMP JUMPDEST PUSH2 0x8C7 JUMP JUMPDEST SWAP1 POP SWAP2 SWAP1 POP JUMP JUMPDEST PUSH1 0x0 PUSH2 0x91E DUP3 PUSH2 0x8F1 JUMP JUMPDEST SWAP1 POP SWAP2 SWAP1 POP JUMP JUMPDEST PUSH1 0x0 PUSH2 0x930 DUP3 PUSH2 0x913 JUMP JUMPDEST SWAP1 POP SWAP2 SWAP1 POP JUMP JUMPDEST PUSH2 0x940 DUP2 PUSH2 0x925 JUMP JUMPDEST DUP3 MSTORE POP POP JUMP JUMPDEST PUSH1 0x0 PUSH1 0x20 DUP3 ADD SWAP1 POP PUSH2 0x95B PUSH1 0x0 DUP4 ADD DUP5 PUSH2 0x937 JUMP JUMPDEST SWAP3 SWAP2 POP POP JUMP JUMPDEST PUSH1 0x0 PUSH1 0x40 MLOAD SWAP1 POP SWAP1 JUMP JUMPDEST PUSH1 0x0 DUP1 REVERT JUMPDEST PUSH1 0x0 DUP1 REVERT JUMPDEST PUSH1 0x0 DUP1 REVERT JUMPDEST PUSH1 0x0 DUP1 REVERT JUMPDEST PUSH1 0x0 DUP1 REVERT JUMPDEST PUSH1 0x0 DUP1 DUP4 PUSH1 0x1F DUP5 ADD SLT PUSH2 0x99A JUMPI PUSH2 0x999 PUSH2 0x975 JUMP JUMPDEST JUMPDEST DUP3 CALLDATALOAD SWAP1 POP PUSH8 0xFFFFFFFFFFFFFFFF DUP2 GT ISZERO PUSH2 0x9B7 JUMPI PUSH2 0x9B6 PUSH2 0x97A JUMP JUMPDEST JUMPDEST PUSH1 0x20 DUP4 ADD SWAP2 POP DUP4 PUSH1 0x1 DUP3 MUL DUP4 ADD GT ISZERO PUSH2 0x9D3 JUMPI PUSH2 0x9D2 PUSH2 0x97F JUMP JUMPDEST JUMPDEST SWAP3 POP SWAP3 SWAP1 POP JUMP JUMPDEST PUSH1 0x0 DUP1 PUSH1 0x20 DUP4 DUP6 SUB SLT ISZERO PUSH2 0x9F1 JUMPI PUSH2 0x9F0 PUSH2 0x96B JUMP JUMPDEST JUMPDEST PUSH1 0x0 DUP4 ADD CALLDATALOAD PUSH8 0xFFFFFFFFFFFFFFFF DUP2 GT ISZERO PUSH2 0xA0F JUMPI PUSH2 0xA0E PUSH2 0x970 JUMP JUMPDEST JUMPDEST PUSH2 0xA1B DUP6 DUP3 DUP7 ADD PUSH2 0x984 JUMP JUMPDEST SWAP3 POP SWAP3 POP POP SWAP3 POP SWAP3 SWAP1 POP JUMP JUMPDEST PUSH1 0x0 DUP2 MLOAD SWAP1 POP SWAP2 SWAP1 POP JUMP JUMPDEST PUSH1 0x0 DUP3 DUP3 MSTORE PUSH1 0x20 DUP3 ADD SWAP1 POP SWAP3 SWAP2 POP POP JUMP JUMPDEST PUSH1 0x0 DUP2 SWAP1 POP PUSH1 0x20 DUP3 ADD SWAP1 POP SWAP2 SWAP1 POP JUMP JUMPDEST PUSH1 0x0 PUSH2 0xA5E DUP3 PUSH2 0x8C7 JUMP JUMPDEST SWAP1 POP SWAP2 SWAP1 POP JUMP JUMPDEST PUSH2 0xA6E DUP2 PUSH2 0xA53 JUMP JUMPDEST DUP3 MSTORE POP POP JUMP JUMPDEST PUSH1 0x0 PUSH2 0xA80 DUP4 DUP4 PUSH2 0xA65 JUMP JUMPDEST PUSH1 0x20 DUP4 ADD SWAP1 POP SWAP3 SWAP2 POP POP JUMP JUMPDEST PUSH1 0x0 PUSH1 0x20 DUP3 ADD SWAP1 POP SWAP2 SWAP1 POP JUMP JUMPDEST PUSH1 0x0 PUSH2 0xAA4 DUP3 PUSH2 0xA27 JUMP JUMPDEST PUSH2 0xAAE DUP2 DUP6 PUSH2 0xA32 JUMP JUMPDEST SWAP4 POP PUSH2 0xAB9 DUP4 PUSH2 0xA43 JUMP JUMPDEST DUP1 PUSH1 0x0 JUMPDEST DUP4 DUP2 LT ISZERO PUSH2 0xAEA JUMPI DUP2 MLOAD PUSH2 0xAD1 DUP9 DUP3 PUSH2 0xA74 JUMP JUMPDEST SWAP8 POP PUSH2 0xADC DUP4 PUSH2 0xA8C JUMP JUMPDEST SWAP3 POP POP PUSH1 0x1 DUP2 ADD SWAP1 POP PUSH2 0xABD JUMP JUMPDEST POP DUP6 SWAP4 POP POP POP POP SWAP3 SWAP2 POP POP JUMP JUMPDEST PUSH1 0x0 DUP2 MLOAD SWAP1 POP SWAP2 SWAP1 POP JUMP JUMPDEST PUSH1 0x0 DUP3 DUP3 MSTORE PUSH1 0x20 DUP3 ADD SWAP1 POP SWAP3 SWAP2 POP POP JUMP JUMPDEST PUSH1 0x0 DUP2 SWAP1 POP PUSH1 0x20 DUP3 ADD SWAP1 POP SWAP2 SWAP1 POP JUMP JUMPDEST PUSH1 0x0 DUP2 MLOAD SWAP1 POP SWAP2 SWAP1 POP JUMP JUMPDEST PUSH1 0x0 DUP3 DUP3 MSTORE PUSH1 0x20 DUP3 ADD SWAP1 POP SWAP3 SWAP2 POP POP JUMP JUMPDEST PUSH1 0x0 JUMPDEST DUP4 DUP2 LT ISZERO PUSH2 0xB5D JUMPI DUP1 DUP3 ADD MLOAD DUP2 DUP5 ADD MSTORE PUSH1 0x20 DUP2 ADD SWAP1 POP PUSH2 0xB42 JUMP JUMPDEST DUP4 DUP2 GT ISZERO PUSH2 0xB6C JUMPI PUSH1 0x0 DUP5 DUP5 ADD MSTORE JUMPDEST POP POP POP POP JUMP JUMPDEST PUSH1 0x0 PUSH1 0x1F NOT PUSH1 0x1F DUP4 ADD AND SWAP1 POP SWAP2 SWAP1 POP JUMP JUMPDEST PUSH1 0x0 PUSH2 0xB8E DUP3 PUSH2 0xB23 JUMP JUMPDEST PUSH2 0xB98 DUP2 DUP6 PUSH2 0xB2E JUMP JUMPDEST SWAP4 POP PUSH2 0xBA8 DUP2 DUP6 PUSH1 0x20 DUP7 ADD PUSH2 0xB3F JUMP JUMPDEST PUSH2 0xBB1 DUP2 PUSH2 0xB72 JUMP JUMPDEST DUP5 ADD SWAP2 POP POP SWAP3 SWAP2 POP POP JUMP JUMPDEST PUSH1 0x0 PUSH2 0xBC8 DUP4 DUP4 PUSH2 0xB83 JUMP JUMPDEST SWAP1 POP SWAP3 SWAP2 POP POP JUMP JUMPDEST PUSH1 0x0 PUSH1 0x20 DUP3 ADD SWAP1 POP SWAP2 SWAP1 POP JUMP JUMPDEST PUSH1 0x0 PUSH2 0xBE8 DUP3 PUSH2 0xAF7 JUMP JUMPDEST PUSH2 0xBF2 DUP2 DUP6 PUSH2 0xB02 JUMP JUMPDEST SWAP4 POP DUP4 PUSH1 0x20 DUP3 MUL DUP6 ADD PUSH2 0xC04 DUP6 PUSH2 0xB13 JUMP JUMPDEST DUP1 PUSH1 0x0 JUMPDEST DUP6 DUP2 LT ISZERO PUSH2 0xC40 JUMPI DUP5 DUP5 SUB DUP10 MSTORE DUP2 MLOAD PUSH2 0xC21 DUP6 DUP3 PUSH2 0xBBC JUMP JUMPDEST SWAP5 POP PUSH2 0xC2C DUP4 PUSH2 0xBD0 JUMP JUMPDEST SWAP3 POP PUSH1 0x20 DUP11 ADD SWAP10 POP POP PUSH1 0x1 DUP2 ADD SWAP1 POP PUSH2 0xC08 JUMP JUMPDEST POP DUP3 SWAP8 POP DUP8 SWAP6 POP POP POP POP POP POP SWAP3 SWAP2 POP POP JUMP JUMPDEST PUSH1 0x0 PUSH1 0x40 DUP3 ADD SWAP1 POP DUP2 DUP2 SUB PUSH1 0x0 DUP4 ADD MSTORE PUSH2 0xC6C DUP2 DUP6 PUSH2 0xA99 JUMP JUMPDEST SWAP1 POP DUP2 DUP2 SUB PUSH1 0x20 DUP4 ADD MSTORE PUSH2 0xC80 DUP2 DUP5 PUSH2 0xBDD JUMP JUMPDEST SWAP1 POP SWAP4 SWAP3 POP POP POP JUMP JUMPDEST PUSH2 0xC92 DUP2 PUSH2 0xA53 JUMP JUMPDEST DUP2 EQ PUSH2 0xC9D JUMPI PUSH1 0x0 DUP1 REVERT JUMPDEST POP JUMP JUMPDEST PUSH1 0x0 DUP2 CALLDATALOAD SWAP1 POP PUSH2 0xCAF DUP2 PUSH2 0xC89 JUMP JUMPDEST SWAP3 SWAP2 POP POP JUMP JUMPDEST PUSH1 0x0 DUP2 SWAP1 POP SWAP2 SWAP1 POP JUMP JUMPDEST PUSH2 0xCC8 DUP2 PUSH2 0xCB5 JUMP JUMPDEST DUP2 EQ PUSH2 0xCD3 JUMPI PUSH1 0x0 DUP1 REVERT JUMPDEST POP JUMP JUMPDEST PUSH1 0x0 DUP2 CALLDATALOAD SWAP1 POP PUSH2 0xCE5 DUP2 PUSH2 0xCBF JUMP JUMPDEST SWAP3 SWAP2 POP POP JUMP JUMPDEST PUSH1 0x0 DUP1 PUSH1 0x0 DUP1 PUSH1 0x0 DUP1 PUSH1 0xA0 DUP8 DUP10 SUB SLT ISZERO PUSH2 0xD08 JUMPI PUSH2 0xD07 PUSH2 0x96B JUMP JUMPDEST JUMPDEST PUSH1 0x0 PUSH2 0xD16 DUP10 DUP3 DUP11 ADD PUSH2 0xCA0 JUMP JUMPDEST SWAP7 POP POP PUSH1 0x20 PUSH2 0xD27 DUP10 DUP3 DUP11 ADD PUSH2 0xCD6 JUMP JUMPDEST SWAP6 POP POP PUSH1 0x40 PUSH2 0xD38 DUP10 DUP3 DUP11 ADD PUSH2 0xCD6 JUMP JUMPDEST SWAP5 POP POP PUSH1 0x60 PUSH2 0xD49 DUP10 DUP3 DUP11 ADD PUSH2 0xCA0 JUMP JUMPDEST SWAP4 POP POP PUSH1 0x80 DUP8 ADD CALLDATALOAD PUSH8 0xFFFFFFFFFFFFFFFF DUP2 GT ISZERO PUSH2 0xD6A JUMPI PUSH2 0xD69 PUSH2 0x970 JUMP JUMPDEST JUMPDEST PUSH2 0xD76 DUP10 DUP3 DUP11 ADD PUSH2 0x984 JUMP JUMPDEST SWAP3 POP SWAP3 POP POP SWAP3 SWAP6 POP SWAP3 SWAP6 POP SWAP3 SWAP6 JUMP JUMPDEST PUSH1 0x0 DUP2 ISZERO ISZERO SWAP1 POP SWAP2 SWAP1 POP JUMP JUMPDEST PUSH2 0xD9A DUP2 PUSH2 0xD85 JUMP JUMPDEST DUP3 MSTORE POP POP JUMP JUMPDEST PUSH1 0x0 PUSH1 0x20 DUP3 ADD SWAP1 POP PUSH2 0xDB5 PUSH1 0x0 DUP4 ADD DUP5 PUSH2 0xD91 JUMP JUMPDEST SWAP3 SWAP2 POP POP JUMP JUMPDEST PUSH1 0x0 DUP1 PUSH1 0x0 DUP1 PUSH1 0x60 DUP6 DUP8 SUB SLT ISZERO PUSH2 0xDD5 JUMPI PUSH2 0xDD4 PUSH2 0x96B JUMP JUMPDEST JUMPDEST PUSH1 0x0 PUSH2 0xDE3 DUP8 DUP3 DUP9 ADD PUSH2 0xCA0 JUMP JUMPDEST SWAP5 POP POP PUSH1 0x20 PUSH2 0xDF4 DUP8 DUP3 DUP9 ADD PUSH2 0xCD6 JUMP JUMPDEST SWAP4 POP POP PUSH1 0x40 DUP6 ADD CALLDATALOAD PUSH8 0xFFFFFFFFFFFFFFFF DUP2 GT ISZERO PUSH2 0xE15 JUMPI PUSH2 0xE14 PUSH2 0x970 JUMP JUMPDEST JUMPDEST PUSH2 0xE21 DUP8 DUP3 DUP9 ADD PUSH2 0x984 JUMP JUMPDEST SWAP3 POP SWAP3 POP POP SWAP3 SWAP6 SWAP2 SWAP5 POP SWAP3 POP JUMP JUMPDEST PUSH1 0x0 PUSH1 0x20 DUP3 DUP5 SUB SLT ISZERO PUSH2 0xE45 JUMPI PUSH2 0xE44 PUSH2 0x96B JUMP JUMPDEST JUMPDEST PUSH1 0x0 PUSH2 0xE53 DUP5 DUP3 DUP6 ADD PUSH2 0xCA0 JUMP JUMPDEST SWAP2 POP POP SWAP3 SWAP2 POP POP JUMP JUMPDEST PUSH1 0x0 PUSH2 0xE67 DUP3 PUSH2 0x913 JUMP JUMPDEST SWAP1 POP SWAP2 SWAP1 POP JUMP JUMPDEST PUSH2 0xE77 DUP2 PUSH2 0xE5C JUMP JUMPDEST DUP3 MSTORE POP POP JUMP JUMPDEST PUSH1 0x0 PUSH1 0x20 DUP3 ADD SWAP1 POP PUSH2 0xE92 PUSH1 0x0 DUP4 ADD DUP5 PUSH2 0xE6E JUMP JUMPDEST SWAP3 SWAP2 POP POP JUMP JUMPDEST PUSH2 0xEA1 DUP2 PUSH2 0xCB5 JUMP JUMPDEST DUP3 MSTORE POP POP JUMP JUMPDEST PUSH1 0x0 PUSH1 0x20 DUP3 ADD SWAP1 POP PUSH2 0xEBC PUSH1 0x0 DUP4 ADD DUP5 PUSH2 0xE98 JUMP JUMPDEST SWAP3 SWAP2 POP POP JUMP JUMPDEST PUSH32 0x4E487B7100000000000000000000000000000000000000000000000000000000 PUSH1 0x0 MSTORE PUSH1 0x41 PUSH1 0x4 MSTORE PUSH1 0x24 PUSH1 0x0 REVERT JUMPDEST PUSH2 0xEFA DUP3 PUSH2 0xB72 JUMP JUMPDEST DUP2 ADD DUP2 DUP2 LT PUSH8 0xFFFFFFFFFFFFFFFF DUP3 GT OR ISZERO PUSH2 0xF19 JUMPI PUSH2 0xF18 PUSH2 0xEC2 JUMP JUMPDEST JUMPDEST DUP1 PUSH1 0x40 MSTORE POP POP POP JUMP JUMPDEST PUSH1 0x0 PUSH2 0xF2C PUSH2 0x961 JUMP JUMPDEST SWAP1 POP PUSH2 0xF38 DUP3 DUP3 PUSH2 0xEF1 JUMP JUMPDEST SWAP2 SWAP1 POP JUMP JUMPDEST PUSH1 0x0 PUSH8 0xFFFFFFFFFFFFFFFF DUP3 GT ISZERO PUSH2 0xF58 JUMPI PUSH2 0xF57 PUSH2 0xEC2 JUMP JUMPDEST JUMPDEST PUSH1 0x20 DUP3 MUL SWAP1 POP PUSH1 0x20 DUP2 ADD SWAP1 POP SWAP2 SWAP1 POP JUMP JUMPDEST PUSH1 0x0 PUSH2 0xF7C PUSH2 0xF77 DUP5 PUSH2 0xF3D JUMP JUMPDEST PUSH2 0xF22 JUMP JUMPDEST SWAP1 POP DUP1 DUP4 DUP3 MSTORE PUSH1 0x20 DUP3 ADD SWAP1 POP PUSH1 0x20 DUP5 MUL DUP4 ADD DUP6 DUP2 GT ISZERO PUSH2 0xF9F JUMPI PUSH2 0xF9E PUSH2 0x97F JUMP JUMPDEST JUMPDEST DUP4 JUMPDEST DUP2 DUP2 LT ISZERO PUSH2 0xFC8 JUMPI DUP1 PUSH2 0xFB4 DUP9 DUP3 PUSH2 0xCA0 JUMP JUMPDEST DUP5 MSTORE PUSH1 0x20 DUP5 ADD SWAP4 POP POP PUSH1 0x20 DUP2 ADD SWAP1 POP PUSH2 0xFA1 JUMP JUMPDEST POP POP POP SWAP4 SWAP3 POP POP POP JUMP JUMPDEST PUSH1 0x0 DUP3 PUSH1 0x1F DUP4 ADD SLT PUSH2 0xFE7 JUMPI PUSH2 0xFE6 PUSH2 0x975 JUMP JUMPDEST JUMPDEST DUP2 CALLDATALOAD PUSH2 0xFF7 DUP5 DUP3 PUSH1 0x20 DUP7 ADD PUSH2 0xF69 JUMP JUMPDEST SWAP2 POP POP SWAP3 SWAP2 POP POP JUMP JUMPDEST PUSH1 0x0 PUSH8 0xFFFFFFFFFFFFFFFF DUP3 GT ISZERO PUSH2 0x101B JUMPI PUSH2 0x101A PUSH2 0xEC2 JUMP JUMPDEST JUMPDEST PUSH1 0x20 DUP3 MUL SWAP1 POP PUSH1 0x20 DUP2 ADD SWAP1 POP SWAP2 SWAP1 POP JUMP JUMPDEST PUSH1 0x0 DUP1 REVERT JUMPDEST PUSH1 0x0 PUSH8 0xFFFFFFFFFFFFFFFF DUP3 GT ISZERO PUSH2 0x104C JUMPI PUSH2 0x104B PUSH2 0xEC2 JUMP JUMPDEST JUMPDEST PUSH2 0x1055 DUP3 PUSH2 0xB72 JUMP JUMPDEST SWAP1 POP PUSH1 0x20 DUP2 ADD SWAP1 POP SWAP2 SWAP1 POP JUMP JUMPDEST DUP3 DUP2 DUP4 CALLDATACOPY PUSH1 0x0 DUP4 DUP4 ADD MSTORE POP POP POP JUMP JUMPDEST PUSH1 0x0 PUSH2 0x1084 PUSH2 0x107F DUP5 PUSH2 0x1031 JUMP JUMPDEST PUSH2 0xF22 JUMP JUMPDEST SWAP1 POP DUP3 DUP2 MSTORE PUSH1 0x20 DUP2 ADD DUP5 DUP5 DUP5 ADD GT ISZERO PUSH2 0x10A0 JUMPI PUSH2 0x109F PUSH2 0x102C JUMP JUMPDEST JUMPDEST PUSH2 0x10AB DUP5 DUP3 DUP6 PUSH2 0x1062 JUMP JUMPDEST POP SWAP4 SWAP3 POP POP POP JUMP JUMPDEST PUSH1 0x0 DUP3 PUSH1 0x1F DUP4 ADD SLT PUSH2 0x10C8 JUMPI PUSH2 0x10C7 PUSH2 0x975 JUMP JUMPDEST JUMPDEST DUP2 CALLDATALOAD PUSH2 0x10D8 DUP5 DUP3 PUSH1 0x20 DUP7 ADD PUSH2 0x1071 JUMP JUMPDEST SWAP2 POP POP SWAP3 SWAP2 POP POP JUMP JUMPDEST PUSH1 0x0 PUSH2 0x10F4 PUSH2 0x10EF DUP5 PUSH2 0x1000 JUMP JUMPDEST PUSH2 0xF22 JUMP JUMPDEST SWAP1 POP DUP1 DUP4 DUP3 MSTORE PUSH1 0x20 DUP3 ADD SWAP1 POP PUSH1 0x20 DUP5 MUL DUP4 ADD DUP6 DUP2 GT ISZERO PUSH2 0x1117 JUMPI PUSH2 0x1116 PUSH2 0x97F JUMP JUMPDEST JUMPDEST DUP4 JUMPDEST DUP2 DUP2 LT ISZERO PUSH2 0x115E JUMPI DUP1 CALLDATALOAD PUSH8 0xFFFFFFFFFFFFFFFF DUP2 GT ISZERO PUSH2 0x113C JUMPI PUSH2 0x113B PUSH2 0x975 JUMP JUMPDEST JUMPDEST DUP1 DUP7 ADD PUSH2 0x1149 DUP10 DUP3 PUSH2 0x10B3 JUMP JUMPDEST DUP6 MSTORE PUSH1 0x20 DUP6 ADD SWAP5 POP POP POP PUSH1 0x20 DUP2 ADD SWAP1 POP PUSH2 0x1119 JUMP JUMPDEST POP POP POP SWAP4 SWAP3 POP POP POP JUMP JUMPDEST PUSH1 0x0 DUP3 PUSH1 0x1F DUP4 ADD SLT PUSH2 0x117D JUMPI PUSH2 0x117C PUSH2 0x975 JUMP JUMPDEST JUMPDEST DUP2 CALLDATALOAD PUSH2 0x118D DUP5 DUP3 PUSH1 0x20 DUP7 ADD PUSH2 0x10E1 JUMP JUMPDEST SWAP2 POP POP SWAP3 SWAP2 POP POP JUMP JUMPDEST PUSH1 0x0 DUP1 PUSH1 0x40 DUP4 DUP6 SUB SLT ISZERO PUSH2 0x11AD JUMPI PUSH2 0x11AC PUSH2 0x96B JUMP JUMPDEST JUMPDEST PUSH1 0x0 DUP4 ADD CALLDATALOAD PUSH8 0xFFFFFFFFFFFFFFFF DUP2 GT ISZERO PUSH2 0x11CB JUMPI PUSH2 0x11CA PUSH2 0x970 JUMP JUMPDEST JUMPDEST PUSH2 0x11D7 DUP6 DUP3 DUP7 ADD PUSH2 0xFD2 JUMP JUMPDEST SWAP3 POP POP PUSH1 0x20 DUP4 ADD CALLDATALOAD PUSH8 0xFFFFFFFFFFFFFFFF DUP2 GT ISZERO PUSH2 0x11F8 JUMPI PUSH2 0x11F7 PUSH2 0x970 JUMP JUMPDEST JUMPDEST PUSH2 0x1204 DUP6 DUP3 DUP7 ADD PUSH2 0x1168 JUMP JUMPDEST SWAP2 POP POP SWAP3 POP SWAP3 SWAP1 POP JUMP JUMPDEST PUSH1 0x0 DUP1 PUSH1 0x0 DUP1 PUSH1 0x80 DUP6 DUP8 SUB SLT ISZERO PUSH2 0x1228 JUMPI PUSH2 0x1227 PUSH2 0x96B JUMP JUMPDEST JUMPDEST PUSH1 0x0 DUP6 ADD CALLDATALOAD PUSH8 0xFFFFFFFFFFFFFFFF DUP2 GT ISZERO PUSH2 0x1246 JUMPI PUSH2 0x1245 PUSH2 0x970 JUMP JUMPDEST JUMPDEST PUSH2 0x1252 DUP8 DUP3 DUP9 ADD PUSH2 0xFD2 JUMP JUMPDEST SWAP5 POP POP PUSH1 0x20 DUP6 ADD CALLDATALOAD PUSH8 0xFFFFFFFFFFFFFFFF DUP2 GT ISZERO PUSH2 0x1273 JUMPI PUSH2 0x1272 PUSH2 0x970 JUMP JUMPDEST JUMPDEST PUSH2 0x127F DUP8 DUP3 DUP9 ADD PUSH2 0x1168 JUMP JUMPDEST SWAP4 POP POP PUSH1 0x40 DUP6 ADD CALLDATALOAD PUSH8 0xFFFFFFFFFFFFFFFF DUP2 GT ISZERO PUSH2 0x12A0 JUMPI PUSH2 0x129F PUSH2 0x970 JUMP JUMPDEST JUMPDEST PUSH2 0x12AC DUP8 DUP3 DUP9 ADD PUSH2 0xFD2 JUMP JUMPDEST SWAP3 POP POP PUSH1 0x60 DUP6 ADD CALLDATALOAD PUSH8 0xFFFFFFFFFFFFFFFF DUP2 GT ISZERO PUSH2 0x12CD JUMPI PUSH2 0x12CC PUSH2 0x970 JUMP JUMPDEST JUMPDEST PUSH2 0x12D9 DUP8 DUP3 DUP9 ADD PUSH2 0x1168 JUMP JUMPDEST SWAP2 POP POP SWAP3 SWAP6 SWAP2 SWAP5 POP SWAP3 POP JUMP JUMPDEST PUSH1 0x0 DUP3 DUP3 MSTORE PUSH1 0x20 DUP3 ADD SWAP1 POP SWAP3 SWAP2 POP POP JUMP JUMPDEST PUSH32 0x496E76616C696420696E70757400000000000000000000000000000000000000 PUSH1 0x0 DUP3 ADD MSTORE POP JUMP JUMPDEST PUSH1 0x0 PUSH2 0x132C PUSH1 0xD DUP4 PUSH2 0x12E5 JUMP JUMPDEST SWAP2 POP PUSH2 0x1337 DUP3 PUSH2 0x12F6 JUMP JUMPDEST PUSH1 0x20 DUP3 ADD SWAP1 POP SWAP2 SWAP1 POP JUMP JUMPDEST PUSH1 0x0 PUSH1 0x20 DUP3 ADD SWAP1 POP DUP2 DUP2 SUB PUSH1 0x0 DUP4 ADD MSTORE PUSH2 0x135B DUP2 PUSH2 0x131F JUMP JUMPDEST SWAP1 POP SWAP2 SWAP1 POP JUMP JUMPDEST PUSH32 0x4E487B7100000000000000000000000000000000000000000000000000000000 PUSH1 0x0 MSTORE PUSH1 0x32 PUSH1 0x4 MSTORE PUSH1 0x24 PUSH1 0x0 REVERT JUMPDEST PUSH2 0x139A DUP2 PUSH2 0xA53 JUMP JUMPDEST DUP3 MSTORE POP POP JUMP JUMPDEST PUSH1 0x0 PUSH1 0x40 DUP3 ADD SWAP1 POP PUSH2 0x13B5 PUSH1 0x0 DUP4 ADD DUP6 PUSH2 0x1391 JUMP JUMPDEST PUSH2 0x13C2 PUSH1 0x20 DUP4 ADD DUP5 PUSH2 0xE98 JUMP JUMPDEST SWAP4 SWAP3 POP POP POP JUMP JUMPDEST PUSH1 0x0 DUP2 SWAP1 POP SWAP3 SWAP2 POP POP JUMP JUMPDEST PUSH1 0x0 PUSH2 0x13DF DUP3 PUSH2 0xB23 JUMP JUMPDEST PUSH2 0x13E9 DUP2 DUP6 PUSH2 0x13C9 JUMP JUMPDEST SWAP4 POP PUSH2 0x13F9 DUP2 DUP6 PUSH1 0x20 DUP7 ADD PUSH2 0xB3F JUMP JUMPDEST DUP1 DUP5 ADD SWAP2 POP POP SWAP3 SWAP2 POP POP JUMP JUMPDEST PUSH1 0x0 PUSH2 0x1411 DUP3 DUP5 PUSH2 0x13D4 JUMP JUMPDEST SWAP2 POP DUP2 SWAP1 POP SWAP3 SWAP2 POP POP JUMP JUMPDEST PUSH32 0x43616E206E6F7420617070726F76650000000000000000000000000000000000 PUSH1 0x0 DUP3 ADD MSTORE POP JUMP JUMPDEST PUSH1 0x0 PUSH2 0x1452 PUSH1 0xF DUP4 PUSH2 0x12E5 JUMP JUMPDEST SWAP2 POP PUSH2 0x145D DUP3 PUSH2 0x141C JUMP JUMPDEST PUSH1 0x20 DUP3 ADD SWAP1 POP SWAP2 SWAP1 POP JUMP JUMPDEST PUSH1 0x0 PUSH1 0x20 DUP3 ADD SWAP1 POP DUP2 DUP2 SUB PUSH1 0x0 DUP4 ADD MSTORE PUSH2 0x1481 DUP2 PUSH2 0x1445 JUMP JUMPDEST SWAP1 POP SWAP2 SWAP1 POP JUMP JUMPDEST PUSH32 0x63616E206E6F74207472616465282820626C7961740000000000000000000000 PUSH1 0x0 DUP3 ADD MSTORE POP JUMP JUMPDEST PUSH1 0x0 PUSH2 0x14BE PUSH1 0x15 DUP4 PUSH2 0x12E5 JUMP JUMPDEST SWAP2 POP PUSH2 0x14C9 DUP3 PUSH2 0x1488 JUMP JUMPDEST PUSH1 0x20 DUP3 ADD SWAP1 POP SWAP2 SWAP1 POP JUMP JUMPDEST PUSH1 0x0 PUSH1 0x20 DUP3 ADD SWAP1 POP DUP2 DUP2 SUB PUSH1 0x0 DUP4 ADD MSTORE PUSH2 0x14ED DUP2 PUSH2 0x14B1 JUMP JUMPDEST SWAP1 POP SWAP2 SWAP1 POP JUMP JUMPDEST PUSH32 0x57652066696E6973686564206174206C6561747374206F6E6520747261646521 PUSH1 0x0 DUP3 ADD MSTORE PUSH32 0x2121210000000000000000000000000000000000000000000000000000000000 PUSH1 0x20 DUP3 ADD MSTORE POP JUMP JUMPDEST PUSH1 0x0 PUSH2 0x1550 PUSH1 0x23 DUP4 PUSH2 0x12E5 JUMP JUMPDEST SWAP2 POP PUSH2 0x155B DUP3 PUSH2 0x14F4 JUMP JUMPDEST PUSH1 0x40 DUP3 ADD SWAP1 POP SWAP2 SWAP1 POP JUMP JUMPDEST PUSH1 0x0 PUSH1 0x20 DUP3 ADD SWAP1 POP DUP2 DUP2 SUB PUSH1 0x0 DUP4 ADD MSTORE PUSH2 0x157F DUP2 PUSH2 0x1543 JUMP JUMPDEST SWAP1 POP SWAP2 SWAP1 POP JUMP JUMPDEST PUSH32 0x4E487B7100000000000000000000000000000000000000000000000000000000 PUSH1 0x0 MSTORE PUSH1 0x11 PUSH1 0x4 MSTORE PUSH1 0x24 PUSH1 0x0 REVERT JUMPDEST PUSH1 0x0 PUSH2 0x15C0 DUP3 PUSH2 0xCB5 JUMP JUMPDEST SWAP2 POP PUSH2 0x15CB DUP4 PUSH2 0xCB5 JUMP JUMPDEST SWAP3 POP DUP3 PUSH32 0xFFFFFFFFFFFFFFFFFFFFFFFFFFFFFFFFFFFFFFFFFFFFFFFFFFFFFFFFFFFFFFFF SUB DUP3 GT ISZERO PUSH2 0x1600 JUMPI PUSH2 0x15FF PUSH2 0x1586 JUMP JUMPDEST JUMPDEST DUP3 DUP3 ADD SWAP1 POP SWAP3 SWAP2 POP POP JUMP JUMPDEST PUSH32 0x57652066696E6973686564207472616465732121212100000000000000000000 PUSH1 0x0 DUP3 ADD MSTORE POP JUMP JUMPDEST PUSH1 0x0 PUSH2 0x1641 PUSH1 0x16 DUP4 PUSH2 0x12E5 JUMP JUMPDEST SWAP2 POP PUSH2 0x164C DUP3 PUSH2 0x160B JUMP JUMPDEST PUSH1 0x20 DUP3 ADD SWAP1 POP SWAP2 SWAP1 POP JUMP JUMPDEST PUSH1 0x0 PUSH1 0x20 DUP3 ADD SWAP1 POP DUP2 DUP2 SUB PUSH1 0x0 DUP4 ADD MSTORE PUSH2 0x1670 DUP2 PUSH2 0x1634 JUMP JUMPDEST SWAP1 POP SWAP2 SWAP1 POP JUMP JUMPDEST PUSH2 0x1680 DUP2 PUSH2 0xD85 JUMP JUMPDEST DUP2 EQ PUSH2 0x168B JUMPI PUSH1 0x0 DUP1 REVERT JUMPDEST POP JUMP JUMPDEST PUSH1 0x0 DUP2 MLOAD SWAP1 POP PUSH2 0x169D DUP2 PUSH2 0x1677 JUMP JUMPDEST SWAP3 SWAP2 POP POP JUMP JUMPDEST PUSH1 0x0 PUSH1 0x20 DUP3 DUP5 SUB SLT ISZERO PUSH2 0x16B9 JUMPI PUSH2 0x16B8 PUSH2 0x96B JUMP JUMPDEST JUMPDEST PUSH1 0x0 PUSH2 0x16C7 DUP5 DUP3 DUP6 ADD PUSH2 0x168E JUMP JUMPDEST SWAP2 POP POP SWAP3 SWAP2 POP POP JUMP JUMPDEST PUSH1 0x0 DUP3 DUP3 MSTORE PUSH1 0x20 DUP3 ADD SWAP1 POP SWAP3 SWAP2 POP POP JUMP JUMPDEST PUSH1 0x0 PUSH2 0x16ED DUP4 DUP6 PUSH2 0x16D0 JUMP JUMPDEST SWAP4 POP PUSH2 0x16FA DUP4 DUP6 DUP5 PUSH2 0x1062 JUMP JUMPDEST PUSH2 0x1703 DUP4 PUSH2 0xB72 JUMP JUMPDEST DUP5 ADD SWAP1 POP SWAP4 SWAP3 POP POP POP JUMP JUMPDEST PUSH1 0x0 PUSH2 0xFFFF DUP3 AND SWAP1 POP SWAP2 SWAP1 POP JUMP JUMPDEST PUSH2 0x1725 DUP2 PUSH2 0x170E JUMP JUMPDEST DUP3 MSTORE POP POP JUMP JUMPDEST PUSH1 0x0 PUSH1 0xA0 DUP3 ADD SWAP1 POP PUSH2 0x1740 PUSH1 0x0 DUP4 ADD DUP10 PUSH2 0x1391 JUMP JUMPDEST PUSH2 0x174D PUSH1 0x20 DUP4 ADD DUP9 PUSH2 0x1391 JUMP JUMPDEST PUSH2 0x175A PUSH1 0x40 DUP4 ADD DUP8 PUSH2 0xE98 JUMP JUMPDEST DUP2 DUP2 SUB PUSH1 0x60 DUP4 ADD MSTORE PUSH2 0x176D DUP2 DUP6 DUP8 PUSH2 0x16E1 JUMP JUMPDEST SWAP1 POP PUSH2 0x177C PUSH1 0x80 DUP4 ADD DUP5 PUSH2 0x171C JUMP JUMPDEST SWAP8 SWAP7 POP POP POP POP POP POP POP JUMP JUMPDEST PUSH32 0x596F7520617265206E6F7420746865206F776E65720000000000000000000000 PUSH1 0x0 DUP3 ADD MSTORE POP JUMP JUMPDEST PUSH1 0x0 PUSH2 0x17BD PUSH1 0x15 DUP4 PUSH2 0x12E5 JUMP JUMPDEST SWAP2 POP PUSH2 0x17C8 DUP3 PUSH2 0x1787 JUMP JUMPDEST PUSH1 0x20 DUP3 ADD SWAP1 POP SWAP2 SWAP1 POP JUMP JUMPDEST PUSH1 0x0 PUSH1 0x20 DUP3 ADD SWAP1 POP DUP2 DUP2 SUB PUSH1 0x0 DUP4 ADD MSTORE PUSH2 0x17EC DUP2 PUSH2 0x17B0 JUMP JUMPDEST SWAP1 POP SWAP2 SWAP1 POP JUMP JUMPDEST PUSH1 0x0 PUSH1 0x20 DUP3 ADD SWAP1 POP PUSH2 0x1808 PUSH1 0x0 DUP4 ADD DUP5 PUSH2 0x1391 JUMP JUMPDEST SWAP3 SWAP2 POP POP JUMP JUMPDEST PUSH1 0x0 DUP2 MLOAD SWAP1 POP PUSH2 0x181D DUP2 PUSH2 0xCBF JUMP JUMPDEST SWAP3 SWAP2 POP POP JUMP JUMPDEST PUSH1 0x0 PUSH1 0x20 DUP3 DUP5 SUB SLT ISZERO PUSH2 0x1839 JUMPI PUSH2 0x1838 PUSH2 0x96B JUMP JUMPDEST JUMPDEST PUSH1 0x0 PUSH2 0x1847 DUP5 DUP3 DUP6 ADD PUSH2 0x180E JUMP JUMPDEST SWAP2 POP POP SWAP3 SWAP2 POP POP JUMP INVALID LOG2 PUSH5 0x6970667358 0x22 SLT KECCAK256 0xE4 0x24 PUSH14 0x85316132A88828A99653B33587FB 0xB4 0xD8 0xA8 0x29 STOP DUP9 PUSH6 0xA45AB6677EE1 SWAP14 0xAD PUSH5 0x736F6C6343 STOP ADDMOD EXP STOP CALLER "
				},
				"gasEstimates": {
					"creation": {
						"codeDepositCost": "1255600",
						"executionCost": "infinite",
						"totalCost": "infinite"
					},
					"external": {
						"ADDRESSES_PROVIDER()": "infinite",
						"POOL()": "infinite",
						"executeOperation(address,uint256,uint256,address,bytes)": "infinite",
						"gas_left()": "380",
						"getBalance(address)": "infinite",
						"requestFlashLoan(address,uint256,bytes)": "infinite",
						"viewParams(bytes)": "infinite",
						"withdraw(address)": "infinite"
					}
				},
				"methodIdentifiers": {
					"ADDRESSES_PROVIDER()": "0542975c",
					"POOL()": "7535d246",
					"executeOperation(address,uint256,uint256,address,bytes)": "1b11d0ff",
					"gas_left()": "8fe4b6e4",
					"getBalance(address)": "f8b2cb4f",
					"requestFlashLoan(address,uint256,bytes)": "5107d61e",
					"viewParams(bytes)": "0efb2dbb",
					"withdraw(address)": "51cff8d9"
				}
			},
			"storageLayout": {
				"storage": [
					{
						"astId": 1364,
						"contract": "FlashLoan.sol:Flashloan",
						"label": "owner",
						"offset": 0,
						"slot": "0",
						"type": "t_address_payable"
					}
				],
				"types": {
					"t_address_payable": {
						"encoding": "inplace",
						"label": "address payable",
						"numberOfBytes": "20"
					}
				}
			},
			"userdoc": {
				"kind": "user",
				"methods": {
					"executeOperation(address,uint256,uint256,address,bytes)": {
						"notice": "Executes an operation after receiving the flash-borrowed asset"
					}
				},
				"version": 1
			}
		}
	}
}